{
  "_format": "hh-sol-artifact-1",
  "contractName": "AaveDistributionManager",
  "sourceName": "contracts/aave-stake/AaveDistributionManager.sol",
  "abi": [
    {
      "inputs": [
        {
          "internalType": "address",
          "name": "emissionManager",
          "type": "address"
        },
        {
          "internalType": "uint256",
          "name": "distributionDuration",
          "type": "uint256"
        }
      ],
      "stateMutability": "nonpayable",
      "type": "constructor"
    },
    {
      "anonymous": false,
      "inputs": [
        {
          "indexed": true,
          "internalType": "address",
          "name": "asset",
          "type": "address"
        },
        {
          "indexed": false,
          "internalType": "uint256",
          "name": "emission",
          "type": "uint256"
        }
      ],
      "name": "AssetConfigUpdated",
      "type": "event"
    },
    {
      "anonymous": false,
      "inputs": [
        {
          "indexed": true,
          "internalType": "address",
          "name": "asset",
          "type": "address"
        },
        {
          "indexed": false,
          "internalType": "uint256",
          "name": "index",
          "type": "uint256"
        }
      ],
      "name": "AssetIndexUpdated",
      "type": "event"
    },
    {
      "anonymous": false,
      "inputs": [
        {
          "indexed": true,
          "internalType": "address",
          "name": "user",
          "type": "address"
        },
        {
          "indexed": true,
          "internalType": "address",
          "name": "asset",
          "type": "address"
        },
        {
          "indexed": false,
          "internalType": "uint256",
          "name": "index",
          "type": "uint256"
        }
      ],
      "name": "UserIndexUpdated",
      "type": "event"
    },
    {
      "inputs": [],
      "name": "DISTRIBUTION_END",
      "outputs": [
        {
          "internalType": "uint256",
          "name": "",
          "type": "uint256"
        }
      ],
      "stateMutability": "view",
      "type": "function"
    },
    {
      "inputs": [],
      "name": "EMISSION_MANAGER",
      "outputs": [
        {
          "internalType": "address",
          "name": "",
          "type": "address"
        }
      ],
      "stateMutability": "view",
      "type": "function"
    },
    {
      "inputs": [],
      "name": "PRECISION",
      "outputs": [
        {
          "internalType": "uint8",
          "name": "",
          "type": "uint8"
        }
      ],
      "stateMutability": "view",
      "type": "function"
    },
    {
      "inputs": [
        {
          "internalType": "address",
          "name": "",
          "type": "address"
        }
      ],
      "name": "assets",
      "outputs": [
        {
          "internalType": "uint128",
          "name": "emissionPerSecond",
          "type": "uint128"
        },
        {
          "internalType": "uint128",
          "name": "lastUpdateTimestamp",
          "type": "uint128"
        },
        {
          "internalType": "uint256",
          "name": "index",
          "type": "uint256"
        }
      ],
      "stateMutability": "view",
      "type": "function"
    },
    {
      "inputs": [
        {
          "components": [
            {
              "internalType": "uint128",
              "name": "emissionPerSecond",
              "type": "uint128"
            },
            {
              "internalType": "uint256",
              "name": "totalStaked",
              "type": "uint256"
            },
            {
              "internalType": "address",
              "name": "underlyingAsset",
              "type": "address"
            }
          ],
          "internalType": "struct DistributionTypes.AssetConfigInput[]",
          "name": "assetsConfigInput",
          "type": "tuple[]"
        }
      ],
      "name": "configureAssets",
      "outputs": [],
      "stateMutability": "nonpayable",
      "type": "function"
    },
    {
      "inputs": [
        {
          "internalType": "address",
          "name": "user",
          "type": "address"
        },
        {
          "internalType": "address",
          "name": "asset",
          "type": "address"
        }
      ],
      "name": "getUserAssetData",
      "outputs": [
        {
          "internalType": "uint256",
          "name": "",
          "type": "uint256"
        }
      ],
      "stateMutability": "view",
      "type": "function"
    }
  ],
  "bytecode": "0x60c06040523480156200001157600080fd5b50604051620010533803806200105383398181016040528101906200003791906200014e565b6200005181426200009760201b620004c11790919060201c565b608081815250508173ffffffffffffffffffffffffffffffffffffffff1660a08173ffffffffffffffffffffffffffffffffffffffff1660601b81525050505062000201565b60008082840190508381101562000116576040517f08c379a000000000000000000000000000000000000000000000000000000000815260040180806020018281038252601b8152602001807f536166654d6174683a206164646974696f6e206f766572666c6f77000000000081525060200191505060405180910390fd5b8091505092915050565b6000815190506200013181620001cd565b92915050565b6000815190506200014881620001e7565b92915050565b600080604083850312156200016257600080fd5b6000620001728582860162000120565b9250506020620001858582860162000137565b9150509250929050565b60006200019c82620001a3565b9050919050565b600073ffffffffffffffffffffffffffffffffffffffff82169050919050565b6000819050919050565b620001d8816200018f565b8114620001e457600080fd5b50565b620001f281620001c3565b8114620001fe57600080fd5b50565b60805160a05160601c610e176200023c600039806101f3528061043d5250806101ca52806106ba5280610700528061072d5250610e176000f3fe608060405234801561001057600080fd5b50600436106100625760003560e01c80633373ee4c14610067578063919cd40f14610097578063aaf5eb68146100b5578063b2a5dbfa146100d3578063cbcbb507146100ef578063f11b81881461010d575b600080fd5b610081600480360381019061007c9190610b12565b61013f565b60405161008e9190610cd4565b60405180910390f35b61009f6101c8565b6040516100ac9190610cd4565b60405180910390f35b6100bd6101ec565b6040516100ca9190610cef565b60405180910390f35b6100ed60048036038101906100e89190610b4e565b6101f1565b005b6100f761043b565b6040516101049190610c47565b60405180910390f35b61012760048036038101906101229190610ae9565b61045f565b60405161013693929190610c9d565b60405180910390f35b60008060008373ffffffffffffffffffffffffffffffffffffffff1673ffffffffffffffffffffffffffffffffffffffff16815260200190815260200160002060020160008473ffffffffffffffffffffffffffffffffffffffff1673ffffffffffffffffffffffffffffffffffffffff16815260200190815260200160002054905092915050565b7f000000000000000000000000000000000000000000000000000000000000000081565b601281565b7f000000000000000000000000000000000000000000000000000000000000000073ffffffffffffffffffffffffffffffffffffffff163373ffffffffffffffffffffffffffffffffffffffff161461027f576040517f08c379a000000000000000000000000000000000000000000000000000000000815260040161027690610c62565b60405180910390fd5b60005b8282905081101561043657600080600085858581811061029e57fe5b90506060020160400160208101906102b69190610ae9565b73ffffffffffffffffffffffffffffffffffffffff1673ffffffffffffffffffffffffffffffffffffffff168152602001908152602001600020905061033584848481811061030157fe5b90506060020160400160208101906103199190610ae9565b8286868681811061032657fe5b90506060020160200135610549565b5083838381811061034257fe5b905060600201600001602081019061035a9190610b93565b8160000160006101000a8154816fffffffffffffffffffffffffffffffff02191690836fffffffffffffffffffffffffffffffff1602179055508383838181106103a057fe5b90506060020160400160208101906103b89190610ae9565b73ffffffffffffffffffffffffffffffffffffffff167f87fa03892a0556cb6b8f97e6d533a150d4d55fcbf275fff5fa003fa636bcc7fa8585858181106103fb57fe5b90506060020160000160208101906104139190610b93565b6040516104209190610c82565b60405180910390a2508080600101915050610282565b505050565b7f000000000000000000000000000000000000000000000000000000000000000081565b60006020528060005260406000206000915090508060000160009054906101000a90046fffffffffffffffffffffffffffffffff16908060000160109054906101000a90046fffffffffffffffffffffffffffffffff16908060010154905083565b60008082840190508381101561053f576040517f08c379a000000000000000000000000000000000000000000000000000000000815260040180806020018281038252601b8152602001807f536166654d6174683a206164646974696f6e206f766572666c6f77000000000081525060200191505060405180910390fd5b8091505092915050565b6000808360010154905060008460000160109054906101000a90046fffffffffffffffffffffffffffffffff169050806fffffffffffffffffffffffffffffffff1642141561059c57819250505061067f565b60006105dc838760000160009054906101000a90046fffffffffffffffffffffffffffffffff166fffffffffffffffffffffffffffffffff168488610686565b905082811461063d578086600101819055508673ffffffffffffffffffffffffffffffffffffffff167f5777ca300dfe5bead41006fbce4389794dbc0ed8d6cccebfaf94630aa04184bc826040516106349190610cd4565b60405180910390a25b428660000160106101000a8154816fffffffffffffffffffffffffffffffff02191690836fffffffffffffffffffffffffffffffff1602179055508093505050505b9392505050565b6000808414806106965750600082145b806106b2575042836fffffffffffffffffffffffffffffffff16145b806106ef57507f0000000000000000000000000000000000000000000000000000000000000000836fffffffffffffffffffffffffffffffff1610155b156106fc578490506107cd565b60007f0000000000000000000000000000000000000000000000000000000000000000421161072b574261074d565b7f00000000000000000000000000000000000000000000000000000000000000005b90506000610776856fffffffffffffffffffffffffffffffff16836107d590919063ffffffff16565b90506107c8876107ba866107ac601260ff16600a0a61079e878d61081f90919063ffffffff16565b61081f90919063ffffffff16565b6108a590919063ffffffff16565b6104c190919063ffffffff16565b925050505b949350505050565b600061081783836040518060400160405280601e81526020017f536166654d6174683a207375627472616374696f6e206f766572666c6f7700008152506108ef565b905092915050565b600080831415610832576000905061089f565b600082840290508284828161084357fe5b041461089a576040517f08c379a0000000000000000000000000000000000000000000000000000000008152600401808060200182810382526021815260200180610dc16021913960400191505060405180910390fd5b809150505b92915050565b60006108e783836040518060400160405280601a81526020017f536166654d6174683a206469766973696f6e206279207a65726f0000000000008152506109af565b905092915050565b600083831115829061099c576040517f08c379a00000000000000000000000000000000000000000000000000000000081526004018080602001828103825283818151815260200191508051906020019080838360005b83811015610961578082015181840152602081019050610946565b50505050905090810190601f16801561098e5780820380516001836020036101000a031916815260200191505b509250505060405180910390fd5b5060008385039050809150509392505050565b60008083118290610a5b576040517f08c379a00000000000000000000000000000000000000000000000000000000081526004018080602001828103825283818151815260200191508051906020019080838360005b83811015610a20578082015181840152602081019050610a05565b50505050905090810190601f168015610a4d5780820380516001836020036101000a031916815260200191505b509250505060405180910390fd5b506000838581610a6757fe5b049050809150509392505050565b600081359050610a8481610d92565b92915050565b60008083601f840112610a9c57600080fd5b8235905067ffffffffffffffff811115610ab557600080fd5b602083019150836060820283011115610acd57600080fd5b9250929050565b600081359050610ae381610da9565b92915050565b600060208284031215610afb57600080fd5b6000610b0984828501610a75565b91505092915050565b60008060408385031215610b2557600080fd5b6000610b3385828601610a75565b9250506020610b4485828601610a75565b9150509250929050565b60008060208385031215610b6157600080fd5b600083013567ffffffffffffffff811115610b7b57600080fd5b610b8785828601610a8a565b92509250509250929050565b600060208284031215610ba557600080fd5b6000610bb384828501610ad4565b91505092915050565b610bc581610d1b565b82525050565b6000610bd8601583610d0a565b91507f4f4e4c595f454d495353494f4e5f4d414e4147455200000000000000000000006000830152602082019050919050565b610c1481610d2d565b82525050565b610c2381610d80565b82525050565b610c3281610d69565b82525050565b610c4181610d73565b82525050565b6000602082019050610c5c6000830184610bbc565b92915050565b60006020820190508181036000830152610c7b81610bcb565b9050919050565b6000602082019050610c976000830184610c1a565b92915050565b6000606082019050610cb26000830186610c0b565b610cbf6020830185610c0b565b610ccc6040830184610c29565b949350505050565b6000602082019050610ce96000830184610c29565b92915050565b6000602082019050610d046000830184610c38565b92915050565b600082825260208201905092915050565b6000610d2682610d49565b9050919050565b60006fffffffffffffffffffffffffffffffff82169050919050565b600073ffffffffffffffffffffffffffffffffffffffff82169050919050565b6000819050919050565b600060ff82169050919050565b6000610d8b82610d2d565b9050919050565b610d9b81610d1b565b8114610da657600080fd5b50565b610db281610d2d565b8114610dbd57600080fd5b5056fe536166654d6174683a206d756c7469706c69636174696f6e206f766572666c6f77a2646970667358221220151a6122a4585d7279ebd9973acfc99046c6c9e6209efabbe5ae90225e05a41364736f6c63430007050033",
  "linkReferences": {},
  "deployedLinkReferences": {}
}