{
  "_format": "hh-sol-artifact-1",
  "contractName": "StakedToken",
  "sourceName": "contracts/stake/StakedToken.sol",
  "abi": [
    {
      "inputs": [
        {
          "internalType": "contract IERC20",
          "name": "stakedToken",
          "type": "address"
        },
        {
          "internalType": "contract IERC20",
          "name": "rewardToken",
          "type": "address"
        },
        {
          "internalType": "uint256",
          "name": "cooldownSeconds",
          "type": "uint256"
        },
        {
          "internalType": "uint256",
          "name": "unstakeWindow",
          "type": "uint256"
        },
        {
          "internalType": "address",
          "name": "rewardsVault",
          "type": "address"
        },
        {
          "internalType": "address",
          "name": "emissionManager",
          "type": "address"
        },
        {
          "internalType": "uint128",
          "name": "distributionDuration",
          "type": "uint128"
        },
        {
          "internalType": "string",
          "name": "name",
          "type": "string"
        },
        {
          "internalType": "string",
          "name": "symbol",
          "type": "string"
        },
        {
          "internalType": "uint8",
          "name": "decimals",
          "type": "uint8"
        }
      ],
      "stateMutability": "nonpayable",
      "type": "constructor"
    },
    {
      "anonymous": false,
      "inputs": [
        {
          "indexed": true,
          "internalType": "address",
          "name": "owner",
          "type": "address"
        },
        {
          "indexed": true,
          "internalType": "address",
          "name": "spender",
          "type": "address"
        },
        {
          "indexed": false,
          "internalType": "uint256",
          "name": "value",
          "type": "uint256"
        }
      ],
      "name": "Approval",
      "type": "event"
    },
    {
      "anonymous": false,
      "inputs": [
        {
          "indexed": true,
          "internalType": "address",
          "name": "asset",
          "type": "address"
        },
        {
          "indexed": false,
          "internalType": "uint256",
          "name": "emission",
          "type": "uint256"
        }
      ],
      "name": "AssetConfigUpdated",
      "type": "event"
    },
    {
      "anonymous": false,
      "inputs": [
        {
          "indexed": true,
          "internalType": "address",
          "name": "asset",
          "type": "address"
        },
        {
          "indexed": false,
          "internalType": "uint256",
          "name": "index",
          "type": "uint256"
        }
      ],
      "name": "AssetIndexUpdated",
      "type": "event"
    },
    {
      "anonymous": false,
      "inputs": [
        {
          "indexed": true,
          "internalType": "address",
          "name": "user",
          "type": "address"
        }
      ],
      "name": "Cooldown",
      "type": "event"
    },
    {
      "anonymous": false,
      "inputs": [
        {
          "indexed": true,
          "internalType": "address",
          "name": "from",
          "type": "address"
        },
        {
          "indexed": true,
          "internalType": "address",
          "name": "to",
          "type": "address"
        },
        {
          "indexed": false,
          "internalType": "uint256",
          "name": "amount",
          "type": "uint256"
        }
      ],
      "name": "Redeem",
      "type": "event"
    },
    {
      "anonymous": false,
      "inputs": [
        {
          "indexed": false,
          "internalType": "address",
          "name": "user",
          "type": "address"
        },
        {
          "indexed": false,
          "internalType": "uint256",
          "name": "amount",
          "type": "uint256"
        }
      ],
      "name": "RewardsAccrued",
      "type": "event"
    },
    {
      "anonymous": false,
      "inputs": [
        {
          "indexed": true,
          "internalType": "address",
          "name": "from",
          "type": "address"
        },
        {
          "indexed": true,
          "internalType": "address",
          "name": "to",
          "type": "address"
        },
        {
          "indexed": false,
          "internalType": "uint256",
          "name": "amount",
          "type": "uint256"
        }
      ],
      "name": "RewardsClaimed",
      "type": "event"
    },
    {
      "anonymous": false,
      "inputs": [
        {
          "indexed": false,
          "internalType": "address",
          "name": "owner",
          "type": "address"
        },
        {
          "indexed": false,
          "internalType": "uint128",
          "name": "oldValue",
          "type": "uint128"
        },
        {
          "indexed": false,
          "internalType": "uint128",
          "name": "newValue",
          "type": "uint128"
        }
      ],
      "name": "SnapshotDone",
      "type": "event"
    },
    {
      "anonymous": false,
      "inputs": [
        {
          "indexed": true,
          "internalType": "address",
          "name": "from",
          "type": "address"
        },
        {
          "indexed": true,
          "internalType": "address",
          "name": "onBehalfOf",
          "type": "address"
        },
        {
          "indexed": false,
          "internalType": "uint256",
          "name": "amount",
          "type": "uint256"
        }
      ],
      "name": "Staked",
      "type": "event"
    },
    {
      "anonymous": false,
      "inputs": [
        {
          "indexed": true,
          "internalType": "address",
          "name": "from",
          "type": "address"
        },
        {
          "indexed": true,
          "internalType": "address",
          "name": "to",
          "type": "address"
        },
        {
          "indexed": false,
          "internalType": "uint256",
          "name": "value",
          "type": "uint256"
        }
      ],
      "name": "Transfer",
      "type": "event"
    },
    {
      "anonymous": false,
      "inputs": [
        {
          "indexed": true,
          "internalType": "address",
          "name": "user",
          "type": "address"
        },
        {
          "indexed": true,
          "internalType": "address",
          "name": "asset",
          "type": "address"
        },
        {
          "indexed": false,
          "internalType": "uint256",
          "name": "index",
          "type": "uint256"
        }
      ],
      "name": "UserIndexUpdated",
      "type": "event"
    },
    {
      "inputs": [],
      "name": "COOLDOWN_SECONDS",
      "outputs": [
        {
          "internalType": "uint256",
          "name": "",
          "type": "uint256"
        }
      ],
      "stateMutability": "view",
      "type": "function"
    },
    {
      "inputs": [],
      "name": "DISTRIBUTION_END",
      "outputs": [
        {
          "internalType": "uint256",
          "name": "",
          "type": "uint256"
        }
      ],
      "stateMutability": "view",
      "type": "function"
    },
    {
      "inputs": [],
      "name": "EMISSION_MANAGER",
      "outputs": [
        {
          "internalType": "address",
          "name": "",
          "type": "address"
        }
      ],
      "stateMutability": "view",
      "type": "function"
    },
    {
      "inputs": [],
      "name": "LOCK_TIME",
      "outputs": [
        {
          "internalType": "uint256",
          "name": "",
          "type": "uint256"
        }
      ],
      "stateMutability": "view",
      "type": "function"
    },
    {
      "inputs": [],
      "name": "PRECISION",
      "outputs": [
        {
          "internalType": "uint8",
          "name": "",
          "type": "uint8"
        }
      ],
      "stateMutability": "view",
      "type": "function"
    },
    {
      "inputs": [],
      "name": "REVISION",
      "outputs": [
        {
          "internalType": "uint256",
          "name": "",
          "type": "uint256"
        }
      ],
      "stateMutability": "view",
      "type": "function"
    },
    {
      "inputs": [],
      "name": "REWARDS_VAULT",
      "outputs": [
        {
          "internalType": "address",
          "name": "",
          "type": "address"
        }
      ],
      "stateMutability": "view",
      "type": "function"
    },
    {
      "inputs": [],
      "name": "REWARD_TOKEN",
      "outputs": [
        {
          "internalType": "contract IERC20",
          "name": "",
          "type": "address"
        }
      ],
      "stateMutability": "view",
      "type": "function"
    },
    {
      "inputs": [],
      "name": "STAKED_TOKEN",
      "outputs": [
        {
          "internalType": "contract IERC20",
          "name": "",
          "type": "address"
        }
      ],
      "stateMutability": "view",
      "type": "function"
    },
    {
      "inputs": [],
      "name": "TOTAL_STAKED",
      "outputs": [
        {
          "internalType": "uint256",
          "name": "",
          "type": "uint256"
        }
      ],
      "stateMutability": "view",
      "type": "function"
    },
    {
      "inputs": [],
      "name": "TOTAL_USERS",
      "outputs": [
        {
          "internalType": "uint256",
          "name": "",
          "type": "uint256"
        }
      ],
      "stateMutability": "view",
      "type": "function"
    },
    {
      "inputs": [],
      "name": "UNSTAKE_WINDOW",
      "outputs": [
        {
          "internalType": "uint256",
          "name": "",
          "type": "uint256"
        }
      ],
      "stateMutability": "view",
      "type": "function"
    },
    {
      "inputs": [],
      "name": "_aaveGovernance",
      "outputs": [
        {
          "internalType": "contract ITransferHook",
          "name": "",
          "type": "address"
        }
      ],
      "stateMutability": "view",
      "type": "function"
    },
    {
      "inputs": [
        {
          "internalType": "address",
          "name": "",
          "type": "address"
        }
      ],
      "name": "_countsSnapshots",
      "outputs": [
        {
          "internalType": "uint256",
          "name": "",
          "type": "uint256"
        }
      ],
      "stateMutability": "view",
      "type": "function"
    },
    {
      "inputs": [
        {
          "internalType": "uint256",
          "name": "totalUsers",
          "type": "uint256"
        }
      ],
      "name": "_getEmissionPerSecondByTotalUsers",
      "outputs": [
        {
          "internalType": "uint128",
          "name": "",
          "type": "uint128"
        }
      ],
      "stateMutability": "pure",
      "type": "function"
    },
    {
      "inputs": [
        {
          "internalType": "address",
          "name": "",
          "type": "address"
        },
        {
          "internalType": "uint256",
          "name": "",
          "type": "uint256"
        }
      ],
      "name": "_snapshots",
      "outputs": [
        {
          "internalType": "uint128",
          "name": "blockNumber",
          "type": "uint128"
        },
        {
          "internalType": "uint128",
          "name": "value",
          "type": "uint128"
        }
      ],
      "stateMutability": "view",
      "type": "function"
    },
    {
      "inputs": [
        {
          "internalType": "address",
          "name": "owner",
          "type": "address"
        },
        {
          "internalType": "address",
          "name": "spender",
          "type": "address"
        }
      ],
      "name": "allowance",
      "outputs": [
        {
          "internalType": "uint256",
          "name": "",
          "type": "uint256"
        }
      ],
      "stateMutability": "view",
      "type": "function"
    },
    {
      "inputs": [
        {
          "internalType": "uint256",
          "name": "",
          "type": "uint256"
        }
      ],
      "name": "amountOfLockedRewards",
      "outputs": [
        {
          "internalType": "uint256",
          "name": "",
          "type": "uint256"
        }
      ],
      "stateMutability": "view",
      "type": "function"
    },
    {
      "inputs": [
        {
          "internalType": "address",
          "name": "spender",
          "type": "address"
        },
        {
          "internalType": "uint256",
          "name": "amount",
          "type": "uint256"
        }
      ],
      "name": "approve",
      "outputs": [
        {
          "internalType": "bool",
          "name": "",
          "type": "bool"
        }
      ],
      "stateMutability": "nonpayable",
      "type": "function"
    },
    {
      "inputs": [
        {
          "internalType": "address",
          "name": "",
          "type": "address"
        }
      ],
      "name": "assets",
      "outputs": [
        {
          "internalType": "uint128",
          "name": "emissionPerSecond",
          "type": "uint128"
        },
        {
          "internalType": "uint128",
          "name": "lastUpdateTimestamp",
          "type": "uint128"
        },
        {
          "internalType": "uint256",
          "name": "index",
          "type": "uint256"
        }
      ],
      "stateMutability": "view",
      "type": "function"
    },
    {
      "inputs": [
        {
          "internalType": "address",
          "name": "account",
          "type": "address"
        }
      ],
      "name": "balanceOf",
      "outputs": [
        {
          "internalType": "uint256",
          "name": "",
          "type": "uint256"
        }
      ],
      "stateMutability": "view",
      "type": "function"
    },
    {
      "inputs": [
        {
          "internalType": "address",
          "name": "to",
          "type": "address"
        },
        {
          "internalType": "uint256",
          "name": "amount",
          "type": "uint256"
        }
      ],
      "name": "claimRewards",
      "outputs": [],
      "stateMutability": "nonpayable",
      "type": "function"
    },
    {
      "inputs": [
        {
          "components": [
            {
              "internalType": "uint128",
              "name": "emissionPerSecond",
              "type": "uint128"
            },
            {
              "internalType": "uint256",
              "name": "totalStaked",
              "type": "uint256"
            },
            {
              "internalType": "address",
              "name": "underlyingAsset",
              "type": "address"
            }
          ],
          "internalType": "struct DistributionTypes.AssetConfigInput[]",
          "name": "assetsConfigInput",
          "type": "tuple[]"
        }
      ],
      "name": "configureAssets",
      "outputs": [],
      "stateMutability": "nonpayable",
      "type": "function"
    },
    {
      "inputs": [],
      "name": "cooldown",
      "outputs": [],
      "stateMutability": "nonpayable",
      "type": "function"
    },
    {
      "inputs": [],
      "name": "decimals",
      "outputs": [
        {
          "internalType": "uint8",
          "name": "",
          "type": "uint8"
        }
      ],
      "stateMutability": "view",
      "type": "function"
    },
    {
      "inputs": [
        {
          "internalType": "address",
          "name": "spender",
          "type": "address"
        },
        {
          "internalType": "uint256",
          "name": "subtractedValue",
          "type": "uint256"
        }
      ],
      "name": "decreaseAllowance",
      "outputs": [
        {
          "internalType": "bool",
          "name": "",
          "type": "bool"
        }
      ],
      "stateMutability": "nonpayable",
      "type": "function"
    },
    {
      "inputs": [
        {
          "internalType": "uint256",
          "name": "fromCooldownTimestamp",
          "type": "uint256"
        },
        {
          "internalType": "uint256",
          "name": "amountToReceive",
          "type": "uint256"
        },
        {
          "internalType": "address",
          "name": "toAddress",
          "type": "address"
        },
        {
          "internalType": "uint256",
          "name": "toBalance",
          "type": "uint256"
        }
      ],
      "name": "getNextCooldownTimestamp",
      "outputs": [
        {
          "internalType": "uint256",
          "name": "",
          "type": "uint256"
        }
      ],
      "stateMutability": "view",
      "type": "function"
    },
    {
      "inputs": [
        {
          "internalType": "address",
          "name": "staker",
          "type": "address"
        }
      ],
      "name": "getTotalRewardsBalance",
      "outputs": [
        {
          "internalType": "uint256",
          "name": "",
          "type": "uint256"
        }
      ],
      "stateMutability": "view",
      "type": "function"
    },
    {
      "inputs": [
        {
          "internalType": "address",
          "name": "user",
          "type": "address"
        },
        {
          "internalType": "address",
          "name": "asset",
          "type": "address"
        }
      ],
      "name": "getUserAssetData",
      "outputs": [
        {
          "internalType": "uint256",
          "name": "",
          "type": "uint256"
        }
      ],
      "stateMutability": "view",
      "type": "function"
    },
    {
      "inputs": [
        {
          "internalType": "address",
          "name": "spender",
          "type": "address"
        },
        {
          "internalType": "uint256",
          "name": "addedValue",
          "type": "uint256"
        }
      ],
      "name": "increaseAllowance",
      "outputs": [
        {
          "internalType": "bool",
          "name": "",
          "type": "bool"
        }
      ],
      "stateMutability": "nonpayable",
      "type": "function"
    },
    {
      "inputs": [
        {
          "internalType": "contract ITransferHook",
          "name": "aaveGovernance",
          "type": "address"
        },
        {
          "internalType": "string",
          "name": "name",
          "type": "string"
        },
        {
          "internalType": "string",
          "name": "symbol",
          "type": "string"
        },
        {
          "internalType": "uint8",
          "name": "decimals",
          "type": "uint8"
        }
      ],
      "name": "initialize",
      "outputs": [],
      "stateMutability": "nonpayable",
      "type": "function"
    },
    {
      "inputs": [
        {
          "internalType": "uint256",
          "name": "",
          "type": "uint256"
        }
      ],
      "name": "lockTimestampOfUsers",
      "outputs": [
        {
          "internalType": "uint256",
          "name": "",
          "type": "uint256"
        }
      ],
      "stateMutability": "view",
      "type": "function"
    },
    {
      "inputs": [],
      "name": "name",
      "outputs": [
        {
          "internalType": "string",
          "name": "",
          "type": "string"
        }
      ],
      "stateMutability": "view",
      "type": "function"
    },
    {
      "inputs": [
        {
          "internalType": "address",
          "name": "to",
          "type": "address"
        },
        {
          "internalType": "uint256",
          "name": "amount",
          "type": "uint256"
        }
      ],
      "name": "redeem",
      "outputs": [],
      "stateMutability": "nonpayable",
      "type": "function"
    },
    {
      "inputs": [
        {
          "internalType": "address",
          "name": "onBehalfOf",
          "type": "address"
        },
        {
          "internalType": "uint256",
          "name": "amount",
          "type": "uint256"
        }
      ],
      "name": "stake",
      "outputs": [],
      "stateMutability": "nonpayable",
      "type": "function"
    },
    {
      "inputs": [
        {
          "internalType": "address",
          "name": "",
          "type": "address"
        }
      ],
      "name": "stakerRewardLockTime",
      "outputs": [
        {
          "internalType": "uint256",
          "name": "",
          "type": "uint256"
        }
      ],
      "stateMutability": "view",
      "type": "function"
    },
    {
      "inputs": [
        {
          "internalType": "address",
          "name": "",
          "type": "address"
        }
      ],
      "name": "stakerRewardsToClaim",
      "outputs": [
        {
          "internalType": "uint256",
          "name": "",
          "type": "uint256"
        }
      ],
      "stateMutability": "view",
      "type": "function"
    },
    {
      "inputs": [
        {
          "internalType": "address",
          "name": "",
          "type": "address"
        }
      ],
      "name": "stakersCooldowns",
      "outputs": [
        {
          "internalType": "uint256",
          "name": "",
          "type": "uint256"
        }
      ],
      "stateMutability": "view",
      "type": "function"
    },
    {
      "inputs": [
        {
          "internalType": "uint256",
          "name": "",
          "type": "uint256"
        }
      ],
      "name": "subAmountAfterLockTime",
      "outputs": [
        {
          "internalType": "uint256",
          "name": "",
          "type": "uint256"
        }
      ],
      "stateMutability": "view",
      "type": "function"
    },
    {
      "inputs": [],
      "name": "symbol",
      "outputs": [
        {
          "internalType": "string",
          "name": "",
          "type": "string"
        }
      ],
      "stateMutability": "view",
      "type": "function"
    },
    {
      "inputs": [
        {
          "internalType": "uint256",
          "name": "",
          "type": "uint256"
        }
      ],
      "name": "timestampToIndexOfUsers",
      "outputs": [
        {
          "internalType": "uint256",
          "name": "",
          "type": "uint256"
        }
      ],
      "stateMutability": "view",
      "type": "function"
    },
    {
      "inputs": [],
      "name": "totalSupply",
      "outputs": [
        {
          "internalType": "uint256",
          "name": "",
          "type": "uint256"
        }
      ],
      "stateMutability": "view",
      "type": "function"
    },
    {
      "inputs": [
        {
          "internalType": "address",
          "name": "recipient",
          "type": "address"
        },
        {
          "internalType": "uint256",
          "name": "amount",
          "type": "uint256"
        }
      ],
      "name": "transfer",
      "outputs": [
        {
          "internalType": "bool",
          "name": "",
          "type": "bool"
        }
      ],
      "stateMutability": "nonpayable",
      "type": "function"
    },
    {
      "inputs": [
        {
          "internalType": "address",
          "name": "sender",
          "type": "address"
        },
        {
          "internalType": "address",
          "name": "recipient",
          "type": "address"
        },
        {
          "internalType": "uint256",
          "name": "amount",
          "type": "uint256"
        }
      ],
      "name": "transferFrom",
      "outputs": [
        {
          "internalType": "bool",
          "name": "",
          "type": "bool"
        }
      ],
      "stateMutability": "nonpayable",
      "type": "function"
    }
  ],
  "bytecode": "0x610180604052600060095562093a80610120908152503480156200002257600080fd5b506040516200563d3803806200563d8339818101604052810190620000489190620003e5565b84846fffffffffffffffffffffffffffffffff1684848482828282600390805190602001906200007a92919062000260565b5081600490805190602001906200009392919062000260565b5080600560006101000a81548160ff021916908360ff160217905550505050505050620000cf8142620001d760201b620023111790919060201c565b608081815250508173ffffffffffffffffffffffffffffffffffffffff1660a08173ffffffffffffffffffffffffffffffffffffffff1660601b8152505050508973ffffffffffffffffffffffffffffffffffffffff1660c08173ffffffffffffffffffffffffffffffffffffffff1660601b815250508873ffffffffffffffffffffffffffffffffffffffff1660e08173ffffffffffffffffffffffffffffffffffffffff1660601b815250508761010081815250508661014081815250508573ffffffffffffffffffffffffffffffffffffffff166101608173ffffffffffffffffffffffffffffffffffffffff1660601b8152505050505050505050505050620006a3565b60008082840190508381101562000256576040517f08c379a000000000000000000000000000000000000000000000000000000000815260040180806020018281038252601b8152602001807f536166654d6174683a206164646974696f6e206f766572666c6f77000000000081525060200191505060405180910390fd5b8091505092915050565b828054600181600116156101000203166002900490600052602060002090601f016020900481019282620002985760008555620002e4565b82601f10620002b357805160ff1916838001178555620002e4565b82800160010185558215620002e4579182015b82811115620002e3578251825591602001919060010190620002c6565b5b509050620002f39190620002f7565b5090565b5b8082111562000312576000816000905550600101620002f8565b5090565b600081519050620003278162000621565b92915050565b6000815190506200033e816200063b565b92915050565b600082601f8301126200035657600080fd5b81516200036d62000367826200053b565b62000507565b915080825260208301602083018583830111156200038a57600080fd5b62000397838284620005e9565b50505092915050565b600081519050620003b18162000655565b92915050565b600081519050620003c8816200066f565b92915050565b600081519050620003df8162000689565b92915050565b6000806000806000806000806000806101408b8d0312156200040657600080fd5b6000620004168d828e016200032d565b9a50506020620004298d828e016200032d565b99505060406200043c8d828e01620003b7565b98505060606200044f8d828e01620003b7565b9750506080620004628d828e0162000316565b96505060a0620004758d828e0162000316565b95505060c0620004888d828e01620003a0565b94505060e08b015167ffffffffffffffff811115620004a657600080fd5b620004b48d828e0162000344565b9350506101008b015167ffffffffffffffff811115620004d357600080fd5b620004e18d828e0162000344565b925050610120620004f58d828e01620003ce565b9150509295989b9194979a5092959850565b6000604051905081810181811067ffffffffffffffff821117156200053157620005306200061f565b5b8060405250919050565b600067ffffffffffffffff8211156200055957620005586200061f565b5b601f19601f8301169050602081019050919050565b60006200057b82620005b2565b9050919050565b60006200058f826200056e565b9050919050565b60006fffffffffffffffffffffffffffffffff82169050919050565b600073ffffffffffffffffffffffffffffffffffffffff82169050919050565b6000819050919050565b600060ff82169050919050565b60005b8381101562000609578082015181840152602081019050620005ec565b8381111562000619576000848401525b50505050565bfe5b6200062c816200056e565b81146200063857600080fd5b50565b620006468162000582565b81146200065257600080fd5b50565b620006608162000596565b81146200066c57600080fd5b50565b6200067a81620005d2565b81146200068657600080fd5b50565b6200069481620005dc565b8114620006a057600080fd5b50565b60805160a05160601c60c05160601c60e05160601c6101005161012051610140516101605160601c614edb62000762600039806114e152806116a6525080610ae65280610f2652806120e95250806110035280611a48525080610a755280610b0d52806110db528061210d5250806115a752806116c9525080610c2a5280610e615280611b9f525080611c525280611f7a5250806114bd5280612ba75280612bed5280612c1a5280613d515280613d975280613dc45250614edb6000f3fe608060405234801561001057600080fd5b50600436106102745760003560e01c80637e90d7ef11610151578063aaf5eb68116100c3578063cbcbb50711610087578063cbcbb50714610816578063dd62ed3e14610834578063dde43cba14610864578063f11b818814610882578063f1cc432a146108b4578063f6d2ee86146108e457610274565b8063aaf5eb6814610772578063adc9772e14610790578063b2a5dbfa146107ac578063c1aebf6c146107c8578063c3863ada146107f857610274565b8063946776cd11610115578063946776cd1461069c57806395d89b41146106ba57806399248ea7146106d85780639a99b4f0146106f6578063a457c2d714610712578063a9059cbb1461074257610274565b80637e90d7ef146105be5780637fe696b6146105ee5780638779588c1461061e5780638dbefee21461064e578063919cd40f1461067e57610274565b8063359c4a96116101ea5780634781dbb7116101ae5780634781dbb7146104d65780635752723414610506578063610f4dc71461053657806370a082311461056657806372b49d6314610596578063787a08a6146105b457610274565b8063359c4a961461041c578063386a0eee1461043a5780633950935114610458578063413d9c3a14610488578063454a03cf146104a657610274565b80631e9a69501161023c5780631e9a69501461033357806323b872dd1461034f5780632acbf8231461037f578063312f6b83146103b0578063313ce567146103ce5780633373ee4c146103ec57610274565b8063040ad7591461027957806306fdde0314610297578063091030c3146102b5578063095ea7b3146102e557806318160ddd14610315575b600080fd5b610281610900565b60405161028e9190614b02565b60405180910390f35b61029f610906565b6040516102ac919061498a565b60405180910390f35b6102cf60048036038101906102ca919061443f565b6109a8565b6040516102dc9190614b02565b60405180910390f35b6102ff60048036038101906102fa91906144f3565b6109c0565b60405161030c9190614939565b60405180910390f35b61031d6109de565b60405161032a9190614b02565b60405180910390f35b61034d600480360381019061034891906144f3565b6109e8565b005b610369600480360381019061036491906144a4565b610d1d565b6040516103769190614939565b60405180910390f35b610399600480360381019061039491906144f3565b610df6565b6040516103a7929190614aa2565b60405180910390f35b6103b8610e5f565b6040516103c59190614954565b60405180910390f35b6103d6610e83565b6040516103e39190614b1d565b60405180910390f35b61040660048036038101906104019190614468565b610e9a565b6040516104139190614b02565b60405180910390f35b610424610f24565b6040516104319190614b02565b60405180910390f35b610442610f48565b60405161044f9190614b02565b60405180910390f35b610472600480360381019061046d91906144f3565b610f4e565b60405161047f9190614939565b60405180910390f35b610490611001565b60405161049d9190614b02565b60405180910390f35b6104c060048036038101906104bb919061443f565b611025565b6040516104cd9190614b02565b60405180910390f35b6104f060048036038101906104eb9190614638565b61103d565b6040516104fd9190614b02565b60405180910390f35b610520600480360381019061051b9190614638565b611061565b60405161052d9190614b02565b60405180910390f35b610550600480360381019061054b9190614638565b611079565b60405161055d9190614b02565b60405180910390f35b610580600480360381019061057b919061443f565b611091565b60405161058d9190614b02565b60405180910390f35b61059e6110d9565b6040516105ab9190614b02565b60405180910390f35b6105bc6110fd565b005b6105d860048036038101906105d3919061443f565b6111d2565b6040516105e59190614b02565b60405180910390f35b61060860048036038101906106039190614638565b6111ea565b6040516106159190614b02565b60405180910390f35b6106386004803603810190610633919061443f565b611202565b6040516106459190614b02565b60405180910390f35b6106686004803603810190610663919061443f565b61121a565b6040516106759190614b02565b60405180910390f35b6106866114bb565b6040516106939190614b02565b60405180910390f35b6106a46114df565b6040516106b191906148f5565b60405180910390f35b6106c2611503565b6040516106cf919061498a565b60405180910390f35b6106e06115a5565b6040516106ed9190614954565b60405180910390f35b610710600480360381019061070b91906144f3565b6115c9565b005b61072c600480360381019061072791906144f3565b611779565b6040516107399190614939565b60405180910390f35b61075c600480360381019061075791906144f3565b611846565b6040516107699190614939565b60405180910390f35b61077a611864565b6040516107879190614b1d565b60405180910390f35b6107aa60048036038101906107a591906144f3565b611869565b005b6107c660048036038101906107c1919061452f565b611c50565b005b6107e260048036038101906107dd9190614638565b611e9b565b6040516107ef9190614a6c565b60405180910390f35b610800611f52565b60405161080d919061496f565b60405180910390f35b61081e611f78565b60405161082b91906148f5565b60405180910390f35b61084e60048036038101906108499190614468565b611f9c565b60405161085b9190614b02565b60405180910390f35b61086c612023565b6040516108799190614b02565b60405180910390f35b61089c6004803603810190610897919061443f565b612028565b6040516108ab93929190614acb565b60405180910390f35b6108ce60048036038101906108c99190614661565b61208a565b6040516108db9190614b02565b60405180910390f35b6108fe60048036038101906108f99190614574565b6121ef565b005b603d5481565b606060038054600181600116156101000203166002900480601f01602080910402602001604051908101604052809291908181526020018280546001816001161561010002031660029004801561099e5780601f106109735761010080835404028352916020019161099e565b820191906000526020600020905b81548152906001019060200180831161098157829003601f168201915b5050505050905090565b60406020528060005260406000206000915090505481565b60006109d46109cd612399565b84846123a1565b6001905092915050565b6000600254905090565b6000811415610a2c576040517f08c379a0000000000000000000000000000000000000000000000000000000008152600401610a23906149ac565b60405180910390fd5b6000604060003373ffffffffffffffffffffffffffffffffffffffff1673ffffffffffffffffffffffffffffffffffffffff168152602001908152602001600020549050610aa37f00000000000000000000000000000000000000000000000000000000000000008261231190919063ffffffff16565b4211610ae4576040517f08c379a0000000000000000000000000000000000000000000000000000000008152600401610adb906149cc565b60405180910390fd5b7f0000000000000000000000000000000000000000000000000000000000000000610b4a610b3b7f00000000000000000000000000000000000000000000000000000000000000008461231190919063ffffffff16565b4261259890919063ffffffff16565b1115610b8b576040517f08c379a0000000000000000000000000000000000000000000000000000000008152600401610b8290614a2c565b60405180910390fd5b6000610b9633611091565b90506000818411610ba75783610ba9565b815b9050610bb7338360016125e2565b50610bc233826126e4565b6000610bd7828461259890919063ffffffff16565b1415610c23576000604060003373ffffffffffffffffffffffffffffffffffffffff1673ffffffffffffffffffffffffffffffffffffffff168152602001908152602001600020819055505b610c6e85827f000000000000000000000000000000000000000000000000000000000000000073ffffffffffffffffffffffffffffffffffffffff166128a89092919063ffffffff16565b604360003373ffffffffffffffffffffffffffffffffffffffff1673ffffffffffffffffffffffffffffffffffffffff168152602001908152602001600020600090558473ffffffffffffffffffffffffffffffffffffffff163373ffffffffffffffffffffffffffffffffffffffff167fd12200efa34901b99367694174c3b0d32c99585fdf37c7c26892136ddd0836d983604051610d0e9190614b02565b60405180910390a35050505050565b6000610d2a84848461294a565b610deb84610d36612399565b610de685604051806060016040528060288152602001614d9760289139600160008b73ffffffffffffffffffffffffffffffffffffffff1673ffffffffffffffffffffffffffffffffffffffff1681526020019081526020016000206000610d9c612399565b73ffffffffffffffffffffffffffffffffffffffff1673ffffffffffffffffffffffffffffffffffffffff16815260200190815260200160002054612ab39092919063ffffffff16565b6123a1565b600190509392505050565b6006602052816000526040600020602052806000526040600020600091509150508060000160009054906101000a90046fffffffffffffffffffffffffffffffff16908060000160109054906101000a90046fffffffffffffffffffffffffffffffff16905082565b7f000000000000000000000000000000000000000000000000000000000000000081565b6000600560009054906101000a900460ff16905090565b6000603c60008373ffffffffffffffffffffffffffffffffffffffff1673ffffffffffffffffffffffffffffffffffffffff16815260200190815260200160002060020160008473ffffffffffffffffffffffffffffffffffffffff1673ffffffffffffffffffffffffffffffffffffffff16815260200190815260200160002054905092915050565b7f000000000000000000000000000000000000000000000000000000000000000081565b603e5481565b6000610ff7610f5b612399565b84610ff28560016000610f6c612399565b73ffffffffffffffffffffffffffffffffffffffff1673ffffffffffffffffffffffffffffffffffffffff16815260200190815260200160002060008973ffffffffffffffffffffffffffffffffffffffff1673ffffffffffffffffffffffffffffffffffffffff1681526020019081526020016000205461231190919063ffffffff16565b6123a1565b6001905092915050565b7f000000000000000000000000000000000000000000000000000000000000000081565b60436020528060005260406000206000915090505481565b6042818154811061104d57600080fd5b906000526020600020016000915090505481565b60416020528060005260406000206000915090505481565b60456020528060005260406000206000915090505481565b60008060008373ffffffffffffffffffffffffffffffffffffffff1673ffffffffffffffffffffffffffffffffffffffff168152602001908152602001600020549050919050565b7f000000000000000000000000000000000000000000000000000000000000000081565b600061110833611091565b1415611149576040517f08c379a000000000000000000000000000000000000000000000000000000000815260040161114090614a4c565b60405180910390fd5b42604060003373ffffffffffffffffffffffffffffffffffffffff1673ffffffffffffffffffffffffffffffffffffffff168152602001908152602001600020819055503373ffffffffffffffffffffffffffffffffffffffff167ff52f50426b32362d3e6bb8cb36b7074756b224622def6352a59eac7f66ebe6e860405160405180910390a2565b603f6020528060005260406000206000915090505481565b60446020528060005260406000206000915090505481565b60076020528060005260406000206000915090505481565b600080603c60003073ffffffffffffffffffffffffffffffffffffffff1673ffffffffffffffffffffffffffffffffffffffff168152602001908152602001600020905060008060446000604360008873ffffffffffffffffffffffffffffffffffffffff1673ffffffffffffffffffffffffffffffffffffffff1681526020019081526020016000205481526020019081526020016000205414156113b1576113ac82600101548360000160009054906101000a90046fffffffffffffffffffffffffffffffff166fffffffffffffffffffffffffffffffff168460000160109054906101000a90046fffffffffffffffffffffffffffffffff16603d54604360008a73ffffffffffffffffffffffffffffffffffffffff1673ffffffffffffffffffffffffffffffffffffffff168152602001908152602001600020544211156113a557604360008a73ffffffffffffffffffffffffffffffffffffffff1673ffffffffffffffffffffffffffffffffffffffff168152602001908152602001600020546113a7565b425b612b73565b611405565b60446000604360008773ffffffffffffffffffffffffffffffffffffffff1673ffffffffffffffffffffffffffffffffffffffff168152602001908152602001600020548152602001908152602001600020545b9050600061145d61141586611091565b838560020160008973ffffffffffffffffffffffffffffffffffffffff1673ffffffffffffffffffffffffffffffffffffffff16815260200190815260200160002054612cc3565b90506114b181603f60008873ffffffffffffffffffffffffffffffffffffffff1673ffffffffffffffffffffffffffffffffffffffff1681526020019081526020016000205461231190919063ffffffff16565b9350505050919050565b7f000000000000000000000000000000000000000000000000000000000000000081565b7f000000000000000000000000000000000000000000000000000000000000000081565b606060048054600181600116156101000203166002900480601f01602080910402602001604051908101604052809291908181526020018280546001816001161561010002031660029004801561159b5780601f106115705761010080835404028352916020019161159b565b820191906000526020600020905b81548152906001019060200180831161157e57829003601f168201915b5050505050905090565b7f000000000000000000000000000000000000000000000000000000000000000081565b60006115df336115d833611091565b60006125e2565b905060007fffffffffffffffffffffffffffffffffffffffffffffffffffffffffffffffff83146116105782611612565b815b905061165e816040518060400160405280600e81526020017f494e56414c49445f414d4f554e5400000000000000000000000000000000000081525084612ab39092919063ffffffff16565b603f60003373ffffffffffffffffffffffffffffffffffffffff1673ffffffffffffffffffffffffffffffffffffffff1681526020019081526020016000208190555061170e7f000000000000000000000000000000000000000000000000000000000000000085837f000000000000000000000000000000000000000000000000000000000000000073ffffffffffffffffffffffffffffffffffffffff16612d0c909392919063ffffffff16565b8373ffffffffffffffffffffffffffffffffffffffff163373ffffffffffffffffffffffffffffffffffffffff167f9310ccfcb8de723f578a9e4282ea9f521f05ae40dc08f3068dfad528a65ee3c78360405161176b9190614b02565b60405180910390a350505050565b600061183c611786612399565b8461183785604051806060016040528060258152602001614e8160259139600160006117b0612399565b73ffffffffffffffffffffffffffffffffffffffff1673ffffffffffffffffffffffffffffffffffffffff16815260200190815260200160002060008a73ffffffffffffffffffffffffffffffffffffffff1673ffffffffffffffffffffffffffffffffffffffff16815260200190815260200160002054612ab39092919063ffffffff16565b6123a1565b6001905092915050565b600061185a611853612399565b848461294a565b6001905092915050565b601281565b60008114156118ad576040517f08c379a00000000000000000000000000000000000000000000000000000000081526004016118a4906149ac565b60405180910390fd5b6000604360003373ffffffffffffffffffffffffffffffffffffffff1673ffffffffffffffffffffffffffffffffffffffff168152602001908152602001600020541461192f576040517f08c379a0000000000000000000000000000000000000000000000000000000008152600401611926906149ec565b60405180910390fd5b600061193a83611091565b90506119526001603e5461231190919063ffffffff16565b603e819055506000611968843084603d54612dcd565b905060008114611a41577f2468f9268c60ad90e2d49edb0032c8a001e733ae888b3ab8e982edf535be1a7684826040516119a3929190614910565b60405180910390a16119fd81603f60008773ffffffffffffffffffffffffffffffffffffffff1673ffffffffffffffffffffffffffffffffffffffff1681526020019081526020016000205461231190919063ffffffff16565b603f60008673ffffffffffffffffffffffffffffffffffffffff1673ffffffffffffffffffffffffffffffffffffffff168152602001908152602001600020819055505b6000611a767f00000000000000000000000000000000000000000000000000000000000000004261231190919063ffffffff16565b905080604360003373ffffffffffffffffffffffffffffffffffffffff1673ffffffffffffffffffffffffffffffffffffffff168152602001908152602001600020819055506042819080600181540180825580915050600190039060005260206000200160009091909190915055611afa84603d5461231190919063ffffffff16565b603d81905550611b2684604560008481526020019081526020016000205461231190919063ffffffff16565b6045600083815260200190815260200160002081905550611b4a600085878661208a565b604060008773ffffffffffffffffffffffffffffffffffffffff1673ffffffffffffffffffffffffffffffffffffffff16815260200190815260200160002081905550611b978585612fd8565b611be43330867f000000000000000000000000000000000000000000000000000000000000000073ffffffffffffffffffffffffffffffffffffffff16612d0c909392919063ffffffff16565b8473ffffffffffffffffffffffffffffffffffffffff163373ffffffffffffffffffffffffffffffffffffffff167f5dac0c1b1112564a045ba943c9d50270893e8e826c49be8e7073adc713ab7bd786604051611c419190614b02565b60405180910390a35050505050565b7f000000000000000000000000000000000000000000000000000000000000000073ffffffffffffffffffffffffffffffffffffffff163373ffffffffffffffffffffffffffffffffffffffff1614611cde576040517f08c379a0000000000000000000000000000000000000000000000000000000008152600401611cd590614a0c565b60405180910390fd5b60005b82829050811015611e96576000603c6000858585818110611cfe57fe5b9050606002016040016020810190611d16919061443f565b73ffffffffffffffffffffffffffffffffffffffff1673ffffffffffffffffffffffffffffffffffffffff1681526020019081526020016000209050611d95848484818110611d6157fe5b9050606002016040016020810190611d79919061443f565b82868686818110611d8657fe5b9050606002016020013561319f565b50838383818110611da257fe5b9050606002016000016020810190611dba919061460f565b8160000160006101000a8154816fffffffffffffffffffffffffffffffff02191690836fffffffffffffffffffffffffffffffff160217905550838383818110611e0057fe5b9050606002016040016020810190611e18919061443f565b73ffffffffffffffffffffffffffffffffffffffff167f87fa03892a0556cb6b8f97e6d533a150d4d55fcbf275fff5fa003fa636bcc7fa858585818110611e5b57fe5b9050606002016000016020810190611e73919061460f565b604051611e809190614a87565b60405180910390a2508080600101915050611ce1565b505050565b600080612710905060006001905060006113b190506000600590506000611edd84611ecf878a61349f90919063ffffffff16565b61231190919063ffffffff16565b90506000611f1884611f0a8a611efc8c8d61349f90919063ffffffff16565b61349f90919063ffffffff16565b61231190919063ffffffff16565b90506000611f4184611f33848661352590919063ffffffff16565b61231190919063ffffffff16565b905080975050505050505050919050565b600860009054906101000a900473ffffffffffffffffffffffffffffffffffffffff1681565b7f000000000000000000000000000000000000000000000000000000000000000081565b6000600160008473ffffffffffffffffffffffffffffffffffffffff1673ffffffffffffffffffffffffffffffffffffffff16815260200190815260200160002060008373ffffffffffffffffffffffffffffffffffffffff1673ffffffffffffffffffffffffffffffffffffffff16815260200190815260200160002054905092915050565b600181565b603c6020528060005260406000206000915090508060000160009054906101000a90046fffffffffffffffffffffffffffffffff16908060000160109054906101000a90046fffffffffffffffffffffffffffffffff16908060010154905083565b600080604060008573ffffffffffffffffffffffffffffffffffffffff1673ffffffffffffffffffffffffffffffffffffffff16815260200190815260200160002054905060008114156120e25760009150506121e7565b60006121497f000000000000000000000000000000000000000000000000000000000000000061213b7f00000000000000000000000000000000000000000000000000000000000000004261259890919063ffffffff16565b61259890919063ffffffff16565b90508181111561215c57600091506121e1565b600087821161216b578761216d565b425b905082811015612182578293505050506121e7565b6121dd612198868961231190919063ffffffff16565b6121cf6121ae868961349f90919063ffffffff16565b6121c1858c61349f90919063ffffffff16565b61231190919063ffffffff16565b61352590919063ffffffff16565b9250505b81925050505b949350505050565b60006121f961356f565b90506009548111612255576040517f08c379a000000000000000000000000000000000000000000000000000000000815260040180806020018281038252602e815260200180614dbf602e913960400191505060405180910390fd5b806009819055506122a986868080601f016020809104026020016040519081016040528093929190818152602001838380828437600081840152601f19601f82011690508083019250505050505050613578565b6122f684848080601f016020809104026020016040519081016040528093929190818152602001838380828437600081840152601f19601f82011690508083019250505050505050613592565b6122ff826135ac565b612308876135ca565b50505050505050565b60008082840190508381101561238f576040517f08c379a000000000000000000000000000000000000000000000000000000000815260040180806020018281038252601b8152602001807f536166654d6174683a206164646974696f6e206f766572666c6f77000000000081525060200191505060405180910390fd5b8091505092915050565b600033905090565b600073ffffffffffffffffffffffffffffffffffffffff168373ffffffffffffffffffffffffffffffffffffffff161415612427576040517f08c379a0000000000000000000000000000000000000000000000000000000008152600401808060200182810382526024815260200180614e336024913960400191505060405180910390fd5b600073ffffffffffffffffffffffffffffffffffffffff168273ffffffffffffffffffffffffffffffffffffffff1614156124ad576040517f08c379a0000000000000000000000000000000000000000000000000000000008152600401808060200182810382526022815260200180614d2e6022913960400191505060405180910390fd5b80600160008573ffffffffffffffffffffffffffffffffffffffff1673ffffffffffffffffffffffffffffffffffffffff16815260200190815260200160002060008473ffffffffffffffffffffffffffffffffffffffff1673ffffffffffffffffffffffffffffffffffffffff168152602001908152602001600020819055508173ffffffffffffffffffffffffffffffffffffffff168373ffffffffffffffffffffffffffffffffffffffff167f8c5be1e5ebec7d5bd14f71427d1e84f3dd0314c0f7b2291e5b200ac8c7c3b925836040518082815260200191505060405180910390a3505050565b60006125da83836040518060400160405280601e81526020017f536166654d6174683a207375627472616374696f6e206f766572666c6f770000815250612ab3565b905092915050565b6000806125f3853086603d54612dcd565b9050600061264982603f60008973ffffffffffffffffffffffffffffffffffffffff1673ffffffffffffffffffffffffffffffffffffffff1681526020019081526020016000205461231190919063ffffffff16565b9050600082146126d857831561269e5780603f60008873ffffffffffffffffffffffffffffffffffffffff1673ffffffffffffffffffffffffffffffffffffffff168152602001908152602001600020819055505b7f2468f9268c60ad90e2d49edb0032c8a001e733ae888b3ab8e982edf535be1a7686836040516126cf929190614910565b60405180910390a15b80925050509392505050565b600073ffffffffffffffffffffffffffffffffffffffff168273ffffffffffffffffffffffffffffffffffffffff16141561276a576040517f08c379a0000000000000000000000000000000000000000000000000000000008152600401808060200182810382526021815260200180614ded6021913960400191505060405180910390fd5b6127768260008361360e565b6127e181604051806060016040528060228152602001614d0c602291396000808673ffffffffffffffffffffffffffffffffffffffff1673ffffffffffffffffffffffffffffffffffffffff16815260200190815260200160002054612ab39092919063ffffffff16565b6000808473ffffffffffffffffffffffffffffffffffffffff1673ffffffffffffffffffffffffffffffffffffffff168152602001908152602001600020819055506128388160025461259890919063ffffffff16565b600281905550600073ffffffffffffffffffffffffffffffffffffffff168273ffffffffffffffffffffffffffffffffffffffff167fddf252ad1be2c89b69c2b068fc378daa952ba7f163c4a11628f55a4df523b3ef836040518082815260200191505060405180910390a35050565b6129458363a9059cbb60e01b8484604051602401808373ffffffffffffffffffffffffffffffffffffffff16815260200182815260200192505050604051602081830303815290604052907bffffffffffffffffffffffffffffffffffffffffffffffffffffffff19166020820180517bffffffffffffffffffffffffffffffffffffffffffffffffffffffff8381831617835250505050613811565b505050565b600061295584611091565b9050612963848260016125e2565b508273ffffffffffffffffffffffffffffffffffffffff168473ffffffffffffffffffffffffffffffffffffffff1614612aa25760006129a284611091565b90506129b0848260016125e2565b506000604060008773ffffffffffffffffffffffffffffffffffffffff1673ffffffffffffffffffffffffffffffffffffffff168152602001908152602001600020549050612a018185878561208a565b604060008773ffffffffffffffffffffffffffffffffffffffff1673ffffffffffffffffffffffffffffffffffffffff168152602001908152602001600020819055508383148015612a54575060008114155b15612a9f576000604060008873ffffffffffffffffffffffffffffffffffffffff1673ffffffffffffffffffffffffffffffffffffffff168152602001908152602001600020819055505b50505b612aad848484613a5c565b50505050565b6000838311158290612b60576040517f08c379a00000000000000000000000000000000000000000000000000000000081526004018080602001828103825283818151815260200191508051906020019080838360005b83811015612b25578082015181840152602081019050612b0a565b50505050905090810190601f168015612b525780820380516001836020036101000a031916815260200191505b509250505060405180910390fd5b5060008385039050809150509392505050565b600080851480612b835750600083145b80612b9f575081846fffffffffffffffffffffffffffffffff16145b80612bdc57507f0000000000000000000000000000000000000000000000000000000000000000846fffffffffffffffffffffffffffffffff1610155b15612be957859050612cba565b60007f00000000000000000000000000000000000000000000000000000000000000008311612c185782612c3a565b7f00000000000000000000000000000000000000000000000000000000000000005b90506000612c63866fffffffffffffffffffffffffffffffff168361259890919063ffffffff16565b9050612cb588612ca787612c99601260ff16600a0a612c8b878e61349f90919063ffffffff16565b61349f90919063ffffffff16565b61352590919063ffffffff16565b61231190919063ffffffff16565b925050505b95945050505050565b6000612d03601260ff16600a0a612cf5612ce6858761259890919063ffffffff16565b8761349f90919063ffffffff16565b61352590919063ffffffff16565b90509392505050565b612dc7846323b872dd60e01b858585604051602401808473ffffffffffffffffffffffffffffffffffffffff1681526020018373ffffffffffffffffffffffffffffffffffffffff1681526020018281526020019350505050604051602081830303815290604052907bffffffffffffffffffffffffffffffffffffffffffffffffffffffff19166020820180517bffffffffffffffffffffffffffffffffffffffffffffffffffffffff8381831617835250505050613811565b50505050565b600080603c60008673ffffffffffffffffffffffffffffffffffffffff1673ffffffffffffffffffffffffffffffffffffffff168152602001908152602001600020905060008160020160008873ffffffffffffffffffffffffffffffffffffffff1673ffffffffffffffffffffffffffffffffffffffff168152602001908152602001600020549050600080612e6588858861319f565b90506000604360008b73ffffffffffffffffffffffffffffffffffffffff1673ffffffffffffffffffffffffffffffffffffffff1681526020019081526020016000205414158015612ecd575060428381548110612ebf57fe5b906000526020600020015442115b15612f00576044600060428581548110612ee357fe5b906000526020600020015481526020019081526020016000205490505b808314612fc95760008714612f1d57612f1a878285612cc3565b91505b808460020160008b73ffffffffffffffffffffffffffffffffffffffff1673ffffffffffffffffffffffffffffffffffffffff168152602001908152602001600020819055508773ffffffffffffffffffffffffffffffffffffffff168973ffffffffffffffffffffffffffffffffffffffff167fbb123b5c06d5408bbea3c4fef481578175cfb432e3b482c6186f02ed9086585b83604051612fc09190614b02565b60405180910390a35b81945050505050949350505050565b600073ffffffffffffffffffffffffffffffffffffffff168273ffffffffffffffffffffffffffffffffffffffff16141561307b576040517f08c379a000000000000000000000000000000000000000000000000000000000815260040180806020018281038252601f8152602001807f45524332303a206d696e7420746f20746865207a65726f20616464726573730081525060200191505060405180910390fd5b6130876000838361360e565b61309c8160025461231190919063ffffffff16565b6002819055506130f3816000808573ffffffffffffffffffffffffffffffffffffffff1673ffffffffffffffffffffffffffffffffffffffff1681526020019081526020016000205461231190919063ffffffff16565b6000808473ffffffffffffffffffffffffffffffffffffffff1673ffffffffffffffffffffffffffffffffffffffff168152602001908152602001600020819055508173ffffffffffffffffffffffffffffffffffffffff16600073ffffffffffffffffffffffffffffffffffffffff167fddf252ad1be2c89b69c2b068fc378daa952ba7f163c4a11628f55a4df523b3ef836040518082815260200191505060405180910390a35050565b6000808360010154905060008460000160109054906101000a90046fffffffffffffffffffffffffffffffff1690506131d9603e54611e9b565b8560000160006101000a8154816fffffffffffffffffffffffffffffffff02191690836fffffffffffffffffffffffffffffffff16021790555060005b60428054905081101561339057426042828154811061323157fe5b90600052602060002001541115801561327457506000604460006042848154811061325857fe5b9060005260206000200154815260200190815260200160002054145b15613383576132cf838760000160009054906101000a90046fffffffffffffffffffffffffffffffff166fffffffffffffffffffffffffffffffff168488604286815481106132bf57fe5b9060005260206000200154612b73565b60446000604284815481106132e057fe5b906000526020600020015481526020019081526020016000208190555061333c604560006042848154811061331157fe5b9060005260206000200154815260200190815260200160002054603d5461259890919063ffffffff16565b603d819055506133586001603e5461259890919063ffffffff16565b603e81905550426042828154811061336c57fe5b9060005260206000200154111561338257613390565b5b8080600101915050613216565b50806fffffffffffffffffffffffffffffffff164214156133b5578192505050613498565b60006133f5838760000160009054906101000a90046fffffffffffffffffffffffffffffffff166fffffffffffffffffffffffffffffffff168488613d1d565b9050828114613456578086600101819055508673ffffffffffffffffffffffffffffffffffffffff167f5777ca300dfe5bead41006fbce4389794dbc0ed8d6cccebfaf94630aa04184bc8260405161344d9190614b02565b60405180910390a25b428660000160106101000a8154816fffffffffffffffffffffffffffffffff02191690836fffffffffffffffffffffffffffffffff1602179055508093505050505b9392505050565b6000808314156134b2576000905061351f565b60008284029050828482816134c357fe5b041461351a576040517f08c379a0000000000000000000000000000000000000000000000000000000008152600401808060200182810382526021815260200180614d766021913960400191505060405180910390fd5b809150505b92915050565b600061356783836040518060400160405280601a81526020017f536166654d6174683a206469766973696f6e206279207a65726f000000000000815250613e6c565b905092915050565b60006001905090565b806003908051906020019061358e929190614297565b5050565b80600490805190602001906135a8929190614297565b5050565b80600560006101000a81548160ff021916908360ff16021790555050565b80600860006101000a81548173ffffffffffffffffffffffffffffffffffffffff021916908373ffffffffffffffffffffffffffffffffffffffff16021790555050565b8173ffffffffffffffffffffffffffffffffffffffff168373ffffffffffffffffffffffffffffffffffffffff1614156136475761380c565b600073ffffffffffffffffffffffffffffffffffffffff168373ffffffffffffffffffffffffffffffffffffffff16146136a757600061368684611091565b90506136a584826136a0858561259890919063ffffffff16565b613f32565b505b600073ffffffffffffffffffffffffffffffffffffffff168273ffffffffffffffffffffffffffffffffffffffff16146137075760006136e683611091565b90506137058382613700858561231190919063ffffffff16565b613f32565b505b6000600860009054906101000a900473ffffffffffffffffffffffffffffffffffffffff169050600073ffffffffffffffffffffffffffffffffffffffff168173ffffffffffffffffffffffffffffffffffffffff161461380a578073ffffffffffffffffffffffffffffffffffffffff16634a3931498585856040518463ffffffff1660e01b8152600401808473ffffffffffffffffffffffffffffffffffffffff1681526020018373ffffffffffffffffffffffffffffffffffffffff1681526020018281526020019350505050600060405180830381600087803b1580156137f157600080fd5b505af1158015613805573d6000803e3d6000fd5b505050505b505b505050565b6138308273ffffffffffffffffffffffffffffffffffffffff1661424c565b6138a2576040517f08c379a000000000000000000000000000000000000000000000000000000000815260040180806020018281038252601f8152602001807f5361666545524332303a2063616c6c20746f206e6f6e2d636f6e74726163740081525060200191505060405180910390fd5b600060608373ffffffffffffffffffffffffffffffffffffffff16836040518082805190602001908083835b602083106138f157805182526020820191506020810190506020830392506138ce565b6001836020036101000a0380198251168184511680821785525050505050509050019150506000604051808303816000865af19150503d8060008114613953576040519150601f19603f3d011682016040523d82523d6000602084013e613958565b606091505b5091509150816139d0576040517f08c379a00000000000000000000000000000000000000000000000000000000081526004018080602001828103825260208152602001807f5361666545524332303a206c6f772d6c6576656c2063616c6c206661696c656481525060200191505060405180910390fd5b600081511115613a56578080602001905160208110156139ef57600080fd5b8101908080519060200190929190505050613a55576040517f08c379a000000000000000000000000000000000000000000000000000000000815260040180806020018281038252602a815260200180614e57602a913960400191505060405180910390fd5b5b50505050565b600073ffffffffffffffffffffffffffffffffffffffff168373ffffffffffffffffffffffffffffffffffffffff161415613ae2576040517f08c379a0000000000000000000000000000000000000000000000000000000008152600401808060200182810382526025815260200180614e0e6025913960400191505060405180910390fd5b600073ffffffffffffffffffffffffffffffffffffffff168273ffffffffffffffffffffffffffffffffffffffff161415613b68576040517f08c379a0000000000000000000000000000000000000000000000000000000008152600401808060200182810382526023815260200180614ce96023913960400191505060405180910390fd5b613b7383838361360e565b613bde81604051806060016040528060268152602001614d50602691396000808773ffffffffffffffffffffffffffffffffffffffff1673ffffffffffffffffffffffffffffffffffffffff16815260200190815260200160002054612ab39092919063ffffffff16565b6000808573ffffffffffffffffffffffffffffffffffffffff1673ffffffffffffffffffffffffffffffffffffffff16815260200190815260200160002081905550613c71816000808573ffffffffffffffffffffffffffffffffffffffff1673ffffffffffffffffffffffffffffffffffffffff1681526020019081526020016000205461231190919063ffffffff16565b6000808473ffffffffffffffffffffffffffffffffffffffff1673ffffffffffffffffffffffffffffffffffffffff168152602001908152602001600020819055508173ffffffffffffffffffffffffffffffffffffffff168373ffffffffffffffffffffffffffffffffffffffff167fddf252ad1be2c89b69c2b068fc378daa952ba7f163c4a11628f55a4df523b3ef836040518082815260200191505060405180910390a3505050565b600080841480613d2d5750600082145b80613d49575042836fffffffffffffffffffffffffffffffff16145b80613d8657507f0000000000000000000000000000000000000000000000000000000000000000836fffffffffffffffffffffffffffffffff1610155b15613d9357849050613e64565b60007f00000000000000000000000000000000000000000000000000000000000000004211613dc25742613de4565b7f00000000000000000000000000000000000000000000000000000000000000005b90506000613e0d856fffffffffffffffffffffffffffffffff168361259890919063ffffffff16565b9050613e5f87613e5186613e43601260ff16600a0a613e35878d61349f90919063ffffffff16565b61349f90919063ffffffff16565b61352590919063ffffffff16565b61231190919063ffffffff16565b925050505b949350505050565b60008083118290613f18576040517f08c379a00000000000000000000000000000000000000000000000000000000081526004018080602001828103825283818151815260200191508051906020019080838360005b83811015613edd578082015181840152602081019050613ec2565b50505050905090810190601f168015613f0a5780820380516001836020036101000a031916815260200191505b509250505060405180910390fd5b506000838581613f2457fe5b049050809150509392505050565b60004390506000600760008673ffffffffffffffffffffffffffffffffffffffff1673ffffffffffffffffffffffffffffffffffffffff1681526020019081526020016000205490506000600660008773ffffffffffffffffffffffffffffffffffffffff1673ffffffffffffffffffffffffffffffffffffffff1681526020019081526020016000209050600082141580156140365750826fffffffffffffffffffffffffffffffff16816000613ff460018661259890919063ffffffff16565b815260200190815260200160002060000160009054906101000a90046fffffffffffffffffffffffffffffffff166fffffffffffffffffffffffffffffffff16145b1561409f578381600061405360018661259890919063ffffffff16565b815260200190815260200160002060000160106101000a8154816fffffffffffffffffffffffffffffffff02191690836fffffffffffffffffffffffffffffffff1602179055506141c3565b6040518060400160405280846fffffffffffffffffffffffffffffffff168152602001856fffffffffffffffffffffffffffffffff1681525081600084815260200190815260200160002060008201518160000160006101000a8154816fffffffffffffffffffffffffffffffff02191690836fffffffffffffffffffffffffffffffff16021790555060208201518160000160106101000a8154816fffffffffffffffffffffffffffffffff02191690836fffffffffffffffffffffffffffffffff16021790555090505061417f60018361231190919063ffffffff16565b600760008873ffffffffffffffffffffffffffffffffffffffff1673ffffffffffffffffffffffffffffffffffffffff168152602001908152602001600020819055505b7f2cd3c83ddac2953ee75f53265d9ea4463eaf05030e5459a1b7e63819b7ce88f7868686604051808473ffffffffffffffffffffffffffffffffffffffff168152602001836fffffffffffffffffffffffffffffffff168152602001826fffffffffffffffffffffffffffffffff168152602001935050505060405180910390a1505050505050565b60008060007fc5d2460186f7233c927e7db2dcc703c0e500b653ca82273b7bfad8045d85a47060001b9050833f915080821415801561428e57506000801b8214155b92505050919050565b828054600181600116156101000203166002900490600052602060002090601f0160209004810192826142cd5760008555614314565b82601f106142e657805160ff1916838001178555614314565b82800160010185558215614314579182015b828111156143135782518255916020019190600101906142f8565b5b5090506143219190614325565b5090565b5b8082111561433e576000816000905550600101614326565b5090565b60008135905061435181614c75565b92915050565b60008083601f84011261436957600080fd5b8235905067ffffffffffffffff81111561438257600080fd5b60208301915083606082028301111561439a57600080fd5b9250929050565b6000813590506143b081614c8c565b92915050565b60008083601f8401126143c857600080fd5b8235905067ffffffffffffffff8111156143e157600080fd5b6020830191508360018202830111156143f957600080fd5b9250929050565b60008135905061440f81614ca3565b92915050565b60008135905061442481614cba565b92915050565b60008135905061443981614cd1565b92915050565b60006020828403121561445157600080fd5b600061445f84828501614342565b91505092915050565b6000806040838503121561447b57600080fd5b600061448985828601614342565b925050602061449a85828601614342565b9150509250929050565b6000806000606084860312156144b957600080fd5b60006144c786828701614342565b93505060206144d886828701614342565b92505060406144e986828701614415565b9150509250925092565b6000806040838503121561450657600080fd5b600061451485828601614342565b925050602061452585828601614415565b9150509250929050565b6000806020838503121561454257600080fd5b600083013567ffffffffffffffff81111561455c57600080fd5b61456885828601614357565b92509250509250929050565b6000806000806000806080878903121561458d57600080fd5b600061459b89828a016143a1565b965050602087013567ffffffffffffffff8111156145b857600080fd5b6145c489828a016143b6565b9550955050604087013567ffffffffffffffff8111156145e357600080fd5b6145ef89828a016143b6565b9350935050606061460289828a0161442a565b9150509295509295509295565b60006020828403121561462157600080fd5b600061462f84828501614400565b91505092915050565b60006020828403121561464a57600080fd5b600061465884828501614415565b91505092915050565b6000806000806080858703121561467757600080fd5b600061468587828801614415565b945050602061469687828801614415565b93505060406146a787828801614342565b92505060606146b887828801614415565b91505092959194509250565b6146cd81614b54565b82525050565b6146dc81614b66565b82525050565b6146eb81614bd7565b82525050565b6146fa81614bfb565b82525050565b600061470b82614b38565b6147158185614b43565b9350614725818560208601614c31565b61472e81614c64565b840191505092915050565b6000614746601383614b43565b91507f494e56414c49445f5a45524f5f414d4f554e54000000000000000000000000006000830152602082019050919050565b6000614786601583614b43565b91507f494e53554646494349454e545f434f4f4c444f574e00000000000000000000006000830152602082019050919050565b60006147c6600e83614b43565b91507f594f5520415245205354414b45440000000000000000000000000000000000006000830152602082019050919050565b6000614806601583614b43565b91507f4f4e4c595f454d495353494f4e5f4d414e4147455200000000000000000000006000830152602082019050919050565b6000614846601783614b43565b91507f554e5354414b455f57494e444f575f46494e49534845440000000000000000006000830152602082019050919050565b6000614886601b83614b43565b91507f494e56414c49445f42414c414e43455f4f4e5f434f4f4c444f574e00000000006000830152602082019050919050565b6148c281614b84565b82525050565b6148d181614c1f565b82525050565b6148e081614bc0565b82525050565b6148ef81614bca565b82525050565b600060208201905061490a60008301846146c4565b92915050565b600060408201905061492560008301856146c4565b61493260208301846148d7565b9392505050565b600060208201905061494e60008301846146d3565b92915050565b600060208201905061496960008301846146e2565b92915050565b600060208201905061498460008301846146f1565b92915050565b600060208201905081810360008301526149a48184614700565b905092915050565b600060208201905081810360008301526149c581614739565b9050919050565b600060208201905081810360008301526149e581614779565b9050919050565b60006020820190508181036000830152614a05816147b9565b9050919050565b60006020820190508181036000830152614a25816147f9565b9050919050565b60006020820190508181036000830152614a4581614839565b9050919050565b60006020820190508181036000830152614a6581614879565b9050919050565b6000602082019050614a8160008301846148b9565b92915050565b6000602082019050614a9c60008301846148c8565b92915050565b6000604082019050614ab760008301856148b9565b614ac460208301846148b9565b9392505050565b6000606082019050614ae060008301866148b9565b614aed60208301856148b9565b614afa60408301846148d7565b949350505050565b6000602082019050614b1760008301846148d7565b92915050565b6000602082019050614b3260008301846148e6565b92915050565b600081519050919050565b600082825260208201905092915050565b6000614b5f82614ba0565b9050919050565b60008115159050919050565b6000614b7d82614b54565b9050919050565b60006fffffffffffffffffffffffffffffffff82169050919050565b600073ffffffffffffffffffffffffffffffffffffffff82169050919050565b6000819050919050565b600060ff82169050919050565b6000614be282614be9565b9050919050565b6000614bf482614ba0565b9050919050565b6000614c0682614c0d565b9050919050565b6000614c1882614ba0565b9050919050565b6000614c2a82614b84565b9050919050565b60005b83811015614c4f578082015181840152602081019050614c34565b83811115614c5e576000848401525b50505050565b6000601f19601f8301169050919050565b614c7e81614b54565b8114614c8957600080fd5b50565b614c9581614b72565b8114614ca057600080fd5b50565b614cac81614b84565b8114614cb757600080fd5b50565b614cc381614bc0565b8114614cce57600080fd5b50565b614cda81614bca565b8114614ce557600080fd5b5056fe45524332303a207472616e7366657220746f20746865207a65726f206164647265737345524332303a206275726e20616d6f756e7420657863656564732062616c616e636545524332303a20617070726f766520746f20746865207a65726f206164647265737345524332303a207472616e7366657220616d6f756e7420657863656564732062616c616e6365536166654d6174683a206d756c7469706c69636174696f6e206f766572666c6f7745524332303a207472616e7366657220616d6f756e74206578636565647320616c6c6f77616e6365436f6e747261637420696e7374616e63652068617320616c7265616479206265656e20696e697469616c697a656445524332303a206275726e2066726f6d20746865207a65726f206164647265737345524332303a207472616e736665722066726f6d20746865207a65726f206164647265737345524332303a20617070726f76652066726f6d20746865207a65726f20616464726573735361666545524332303a204552433230206f7065726174696f6e20646964206e6f74207375636365656445524332303a2064656372656173656420616c6c6f77616e63652062656c6f77207a65726fa2646970667358221220de2f186c394174e579182f1ae484afb86f58eb486172dff08c92d15204a7603364736f6c63430007050033",
  "linkReferences": {},
  "deployedLinkReferences": {}
}