{
  "_format": "hh-sol-artifact-1",
  "contractName": "StakedToken",
  "sourceName": "contracts/stake/StakedToken.sol",
  "abi": [
    {
      "inputs": [
        {
          "internalType": "contract IERC20",
          "name": "stakedToken",
          "type": "address"
        },
        {
          "internalType": "contract IERC20",
          "name": "rewardToken",
          "type": "address"
        },
        {
          "internalType": "uint256",
          "name": "cooldownSeconds",
          "type": "uint256"
        },
        {
          "internalType": "uint256",
          "name": "unstakeWindow",
          "type": "uint256"
        },
        {
          "internalType": "address",
          "name": "rewardsVault",
          "type": "address"
        },
        {
          "internalType": "address",
          "name": "emissionManager",
          "type": "address"
        },
        {
          "internalType": "uint128",
          "name": "distributionDuration",
          "type": "uint128"
        },
        {
          "internalType": "string",
          "name": "name",
          "type": "string"
        },
        {
          "internalType": "string",
          "name": "symbol",
          "type": "string"
        },
        {
          "internalType": "uint8",
          "name": "decimals",
          "type": "uint8"
        }
      ],
      "stateMutability": "nonpayable",
      "type": "constructor"
    },
    {
      "anonymous": false,
      "inputs": [
        {
          "indexed": true,
          "internalType": "address",
          "name": "owner",
          "type": "address"
        },
        {
          "indexed": true,
          "internalType": "address",
          "name": "spender",
          "type": "address"
        },
        {
          "indexed": false,
          "internalType": "uint256",
          "name": "value",
          "type": "uint256"
        }
      ],
      "name": "Approval",
      "type": "event"
    },
    {
      "anonymous": false,
      "inputs": [
        {
          "indexed": true,
          "internalType": "address",
          "name": "asset",
          "type": "address"
        },
        {
          "indexed": false,
          "internalType": "uint256",
          "name": "emission",
          "type": "uint256"
        }
      ],
      "name": "AssetConfigUpdated",
      "type": "event"
    },
    {
      "anonymous": false,
      "inputs": [
        {
          "indexed": true,
          "internalType": "address",
          "name": "asset",
          "type": "address"
        },
        {
          "indexed": false,
          "internalType": "uint256",
          "name": "index",
          "type": "uint256"
        }
      ],
      "name": "AssetIndexUpdated",
      "type": "event"
    },
    {
      "anonymous": false,
      "inputs": [
        {
          "indexed": true,
          "internalType": "address",
          "name": "user",
          "type": "address"
        }
      ],
      "name": "Cooldown",
      "type": "event"
    },
    {
      "anonymous": false,
      "inputs": [
        {
          "indexed": true,
          "internalType": "address",
          "name": "from",
          "type": "address"
        },
        {
          "indexed": true,
          "internalType": "address",
          "name": "to",
          "type": "address"
        },
        {
          "indexed": false,
          "internalType": "uint256",
          "name": "amount",
          "type": "uint256"
        }
      ],
      "name": "Redeem",
      "type": "event"
    },
    {
      "anonymous": false,
      "inputs": [
        {
          "indexed": false,
          "internalType": "address",
          "name": "user",
          "type": "address"
        },
        {
          "indexed": false,
          "internalType": "uint256",
          "name": "amount",
          "type": "uint256"
        }
      ],
      "name": "RewardsAccrued",
      "type": "event"
    },
    {
      "anonymous": false,
      "inputs": [
        {
          "indexed": true,
          "internalType": "address",
          "name": "from",
          "type": "address"
        },
        {
          "indexed": true,
          "internalType": "address",
          "name": "to",
          "type": "address"
        },
        {
          "indexed": false,
          "internalType": "uint256",
          "name": "amount",
          "type": "uint256"
        }
      ],
      "name": "RewardsClaimed",
      "type": "event"
    },
    {
      "anonymous": false,
      "inputs": [
        {
          "indexed": false,
          "internalType": "address",
          "name": "owner",
          "type": "address"
        },
        {
          "indexed": false,
          "internalType": "uint128",
          "name": "oldValue",
          "type": "uint128"
        },
        {
          "indexed": false,
          "internalType": "uint128",
          "name": "newValue",
          "type": "uint128"
        }
      ],
      "name": "SnapshotDone",
      "type": "event"
    },
    {
      "anonymous": false,
      "inputs": [
        {
          "indexed": true,
          "internalType": "address",
          "name": "from",
          "type": "address"
        },
        {
          "indexed": true,
          "internalType": "address",
          "name": "onBehalfOf",
          "type": "address"
        },
        {
          "indexed": false,
          "internalType": "uint256",
          "name": "amount",
          "type": "uint256"
        }
      ],
      "name": "Staked",
      "type": "event"
    },
    {
      "anonymous": false,
      "inputs": [
        {
          "indexed": true,
          "internalType": "address",
          "name": "from",
          "type": "address"
        },
        {
          "indexed": true,
          "internalType": "address",
          "name": "to",
          "type": "address"
        },
        {
          "indexed": false,
          "internalType": "uint256",
          "name": "value",
          "type": "uint256"
        }
      ],
      "name": "Transfer",
      "type": "event"
    },
    {
      "anonymous": false,
      "inputs": [
        {
          "indexed": true,
          "internalType": "address",
          "name": "user",
          "type": "address"
        },
        {
          "indexed": true,
          "internalType": "address",
          "name": "asset",
          "type": "address"
        },
        {
          "indexed": false,
          "internalType": "uint256",
          "name": "index",
          "type": "uint256"
        }
      ],
      "name": "UserIndexUpdated",
      "type": "event"
    },
    {
      "inputs": [],
      "name": "COOLDOWN_SECONDS",
      "outputs": [
        {
          "internalType": "uint256",
          "name": "",
          "type": "uint256"
        }
      ],
      "stateMutability": "view",
      "type": "function"
    },
    {
      "inputs": [],
      "name": "DISTRIBUTION_END",
      "outputs": [
        {
          "internalType": "uint256",
          "name": "",
          "type": "uint256"
        }
      ],
      "stateMutability": "view",
      "type": "function"
    },
    {
      "inputs": [],
      "name": "EMISSION_MANAGER",
      "outputs": [
        {
          "internalType": "address",
          "name": "",
          "type": "address"
        }
      ],
      "stateMutability": "view",
      "type": "function"
    },
    {
      "inputs": [],
      "name": "LOCK_TIME",
      "outputs": [
        {
          "internalType": "uint256",
          "name": "",
          "type": "uint256"
        }
      ],
      "stateMutability": "view",
      "type": "function"
    },
    {
      "inputs": [],
      "name": "PRECISION",
      "outputs": [
        {
          "internalType": "uint8",
          "name": "",
          "type": "uint8"
        }
      ],
      "stateMutability": "view",
      "type": "function"
    },
    {
      "inputs": [],
      "name": "REVISION",
      "outputs": [
        {
          "internalType": "uint256",
          "name": "",
          "type": "uint256"
        }
      ],
      "stateMutability": "view",
      "type": "function"
    },
    {
      "inputs": [],
      "name": "REWARDS_VAULT",
      "outputs": [
        {
          "internalType": "address",
          "name": "",
          "type": "address"
        }
      ],
      "stateMutability": "view",
      "type": "function"
    },
    {
      "inputs": [],
      "name": "REWARD_TOKEN",
      "outputs": [
        {
          "internalType": "contract IERC20",
          "name": "",
          "type": "address"
        }
      ],
      "stateMutability": "view",
      "type": "function"
    },
    {
      "inputs": [],
      "name": "STAKED_TOKEN",
      "outputs": [
        {
          "internalType": "contract IERC20",
          "name": "",
          "type": "address"
        }
      ],
      "stateMutability": "view",
      "type": "function"
    },
    {
      "inputs": [],
      "name": "TOTAL_STAKED",
      "outputs": [
        {
          "internalType": "uint256",
          "name": "",
          "type": "uint256"
        }
      ],
      "stateMutability": "view",
      "type": "function"
    },
    {
      "inputs": [],
      "name": "TOTAL_USERS",
      "outputs": [
        {
          "internalType": "uint256",
          "name": "",
          "type": "uint256"
        }
      ],
      "stateMutability": "view",
      "type": "function"
    },
    {
      "inputs": [],
      "name": "UNSTAKE_WINDOW",
      "outputs": [
        {
          "internalType": "uint256",
          "name": "",
          "type": "uint256"
        }
      ],
      "stateMutability": "view",
      "type": "function"
    },
    {
      "inputs": [],
      "name": "_aaveGovernance",
      "outputs": [
        {
          "internalType": "contract ITransferHook",
          "name": "",
          "type": "address"
        }
      ],
      "stateMutability": "view",
      "type": "function"
    },
    {
      "inputs": [
        {
          "internalType": "address",
          "name": "",
          "type": "address"
        }
      ],
      "name": "_countsSnapshots",
      "outputs": [
        {
          "internalType": "uint256",
          "name": "",
          "type": "uint256"
        }
      ],
      "stateMutability": "view",
      "type": "function"
    },
    {
      "inputs": [
        {
          "internalType": "address",
          "name": "",
          "type": "address"
        },
        {
          "internalType": "uint256",
          "name": "",
          "type": "uint256"
        }
      ],
      "name": "_snapshots",
      "outputs": [
        {
          "internalType": "uint128",
          "name": "blockNumber",
          "type": "uint128"
        },
        {
          "internalType": "uint128",
          "name": "value",
          "type": "uint128"
        }
      ],
      "stateMutability": "view",
      "type": "function"
    },
    {
      "inputs": [
        {
          "internalType": "address",
          "name": "owner",
          "type": "address"
        },
        {
          "internalType": "address",
          "name": "spender",
          "type": "address"
        }
      ],
      "name": "allowance",
      "outputs": [
        {
          "internalType": "uint256",
          "name": "",
          "type": "uint256"
        }
      ],
      "stateMutability": "view",
      "type": "function"
    },
    {
      "inputs": [
        {
          "internalType": "address",
          "name": "spender",
          "type": "address"
        },
        {
          "internalType": "uint256",
          "name": "amount",
          "type": "uint256"
        }
      ],
      "name": "approve",
      "outputs": [
        {
          "internalType": "bool",
          "name": "",
          "type": "bool"
        }
      ],
      "stateMutability": "nonpayable",
      "type": "function"
    },
    {
      "inputs": [
        {
          "internalType": "address",
          "name": "",
          "type": "address"
        }
      ],
      "name": "assets",
      "outputs": [
        {
          "internalType": "uint128",
          "name": "emissionPerSecond",
          "type": "uint128"
        },
        {
          "internalType": "uint128",
          "name": "lastUpdateTimestamp",
          "type": "uint128"
        },
        {
          "internalType": "uint256",
          "name": "index",
          "type": "uint256"
        }
      ],
      "stateMutability": "view",
      "type": "function"
    },
    {
      "inputs": [
        {
          "internalType": "address",
          "name": "account",
          "type": "address"
        }
      ],
      "name": "balanceOf",
      "outputs": [
        {
          "internalType": "uint256",
          "name": "",
          "type": "uint256"
        }
      ],
      "stateMutability": "view",
      "type": "function"
    },
    {
      "inputs": [
        {
          "internalType": "address",
          "name": "to",
          "type": "address"
        },
        {
          "internalType": "uint256",
          "name": "amount",
          "type": "uint256"
        }
      ],
      "name": "claimRewards",
      "outputs": [],
      "stateMutability": "nonpayable",
      "type": "function"
    },
    {
      "inputs": [
        {
          "components": [
            {
              "internalType": "uint128",
              "name": "emissionPerSecond",
              "type": "uint128"
            },
            {
              "internalType": "uint256",
              "name": "totalStaked",
              "type": "uint256"
            },
            {
              "internalType": "address",
              "name": "underlyingAsset",
              "type": "address"
            }
          ],
          "internalType": "struct DistributionTypes.AssetConfigInput[]",
          "name": "assetsConfigInput",
          "type": "tuple[]"
        }
      ],
      "name": "configureAssets",
      "outputs": [],
      "stateMutability": "nonpayable",
      "type": "function"
    },
    {
      "inputs": [],
      "name": "cooldown",
      "outputs": [],
      "stateMutability": "nonpayable",
      "type": "function"
    },
    {
      "inputs": [],
      "name": "decimals",
      "outputs": [
        {
          "internalType": "uint8",
          "name": "",
          "type": "uint8"
        }
      ],
      "stateMutability": "view",
      "type": "function"
    },
    {
      "inputs": [
        {
          "internalType": "address",
          "name": "spender",
          "type": "address"
        },
        {
          "internalType": "uint256",
          "name": "subtractedValue",
          "type": "uint256"
        }
      ],
      "name": "decreaseAllowance",
      "outputs": [
        {
          "internalType": "bool",
          "name": "",
          "type": "bool"
        }
      ],
      "stateMutability": "nonpayable",
      "type": "function"
    },
    {
      "inputs": [],
      "name": "getAssetEmissionPerSecond",
      "outputs": [
        {
          "internalType": "uint256",
          "name": "",
          "type": "uint256"
        }
      ],
      "stateMutability": "view",
      "type": "function"
    },
    {
      "inputs": [
        {
          "internalType": "uint256",
          "name": "fromCooldownTimestamp",
          "type": "uint256"
        },
        {
          "internalType": "uint256",
          "name": "amountToReceive",
          "type": "uint256"
        },
        {
          "internalType": "address",
          "name": "toAddress",
          "type": "address"
        },
        {
          "internalType": "uint256",
          "name": "toBalance",
          "type": "uint256"
        }
      ],
      "name": "getNextCooldownTimestamp",
      "outputs": [
        {
          "internalType": "uint256",
          "name": "",
          "type": "uint256"
        }
      ],
      "stateMutability": "view",
      "type": "function"
    },
    {
      "inputs": [
        {
          "internalType": "address",
          "name": "staker",
          "type": "address"
        }
      ],
      "name": "getTotalRewardsBalance",
      "outputs": [
        {
          "internalType": "uint256",
          "name": "",
          "type": "uint256"
        }
      ],
      "stateMutability": "view",
      "type": "function"
    },
    {
      "inputs": [
        {
          "internalType": "address",
          "name": "user",
          "type": "address"
        },
        {
          "internalType": "address",
          "name": "asset",
          "type": "address"
        }
      ],
      "name": "getUserAssetData",
      "outputs": [
        {
          "internalType": "uint256",
          "name": "",
          "type": "uint256"
        }
      ],
      "stateMutability": "view",
      "type": "function"
    },
    {
      "inputs": [
        {
          "internalType": "address",
          "name": "user",
          "type": "address"
        }
      ],
      "name": "getUserLockEndTimestamp",
      "outputs": [
        {
          "internalType": "uint256",
          "name": "",
          "type": "uint256"
        }
      ],
      "stateMutability": "view",
      "type": "function"
    },
    {
      "inputs": [
        {
          "internalType": "address",
          "name": "spender",
          "type": "address"
        },
        {
          "internalType": "uint256",
          "name": "addedValue",
          "type": "uint256"
        }
      ],
      "name": "increaseAllowance",
      "outputs": [
        {
          "internalType": "bool",
          "name": "",
          "type": "bool"
        }
      ],
      "stateMutability": "nonpayable",
      "type": "function"
    },
    {
      "inputs": [
        {
          "internalType": "contract ITransferHook",
          "name": "aaveGovernance",
          "type": "address"
        },
        {
          "internalType": "string",
          "name": "name",
          "type": "string"
        },
        {
          "internalType": "string",
          "name": "symbol",
          "type": "string"
        },
        {
          "internalType": "uint8",
          "name": "decimals",
          "type": "uint8"
        }
      ],
      "name": "initialize",
      "outputs": [],
      "stateMutability": "nonpayable",
      "type": "function"
    },
    {
      "inputs": [],
      "name": "name",
      "outputs": [
        {
          "internalType": "string",
          "name": "",
          "type": "string"
        }
      ],
      "stateMutability": "view",
      "type": "function"
    },
    {
      "inputs": [
        {
          "internalType": "address",
          "name": "to",
          "type": "address"
        },
        {
          "internalType": "uint256",
          "name": "amount",
          "type": "uint256"
        }
      ],
      "name": "redeem",
      "outputs": [],
      "stateMutability": "nonpayable",
      "type": "function"
    },
    {
      "inputs": [
        {
          "internalType": "address",
          "name": "onBehalfOf",
          "type": "address"
        },
        {
          "internalType": "uint256",
          "name": "amount",
          "type": "uint256"
        }
      ],
      "name": "stake",
      "outputs": [],
      "stateMutability": "nonpayable",
      "type": "function"
    },
    {
      "inputs": [
        {
          "internalType": "address",
          "name": "",
          "type": "address"
        }
      ],
      "name": "stakerRewardLockTime",
      "outputs": [
        {
          "internalType": "uint256",
          "name": "",
          "type": "uint256"
        }
      ],
      "stateMutability": "view",
      "type": "function"
    },
    {
      "inputs": [
        {
          "internalType": "address",
          "name": "",
          "type": "address"
        }
      ],
      "name": "stakerRewardsToClaim",
      "outputs": [
        {
          "internalType": "uint256",
          "name": "",
          "type": "uint256"
        }
      ],
      "stateMutability": "view",
      "type": "function"
    },
    {
      "inputs": [
        {
          "internalType": "address",
          "name": "",
          "type": "address"
        }
      ],
      "name": "stakersCooldowns",
      "outputs": [
        {
          "internalType": "uint256",
          "name": "",
          "type": "uint256"
        }
      ],
      "stateMutability": "view",
      "type": "function"
    },
    {
      "inputs": [
        {
          "internalType": "uint256",
          "name": "",
          "type": "uint256"
        }
      ],
      "name": "subAmountAfterLockTime",
      "outputs": [
        {
          "internalType": "uint256",
          "name": "",
          "type": "uint256"
        }
      ],
      "stateMutability": "view",
      "type": "function"
    },
    {
      "inputs": [],
      "name": "symbol",
      "outputs": [
        {
          "internalType": "string",
          "name": "",
          "type": "string"
        }
      ],
      "stateMutability": "view",
      "type": "function"
    },
    {
      "inputs": [
        {
          "internalType": "uint256",
          "name": "",
          "type": "uint256"
        }
      ],
      "name": "timestampToIndexOfUsers",
      "outputs": [
        {
          "internalType": "uint256",
          "name": "",
          "type": "uint256"
        }
      ],
      "stateMutability": "view",
      "type": "function"
    },
    {
      "inputs": [],
      "name": "totalSupply",
      "outputs": [
        {
          "internalType": "uint256",
          "name": "",
          "type": "uint256"
        }
      ],
      "stateMutability": "view",
      "type": "function"
    },
    {
      "inputs": [
        {
          "internalType": "address",
          "name": "recipient",
          "type": "address"
        },
        {
          "internalType": "uint256",
          "name": "amount",
          "type": "uint256"
        }
      ],
      "name": "transfer",
      "outputs": [
        {
          "internalType": "bool",
          "name": "",
          "type": "bool"
        }
      ],
      "stateMutability": "nonpayable",
      "type": "function"
    },
    {
      "inputs": [
        {
          "internalType": "address",
          "name": "sender",
          "type": "address"
        },
        {
          "internalType": "address",
          "name": "recipient",
          "type": "address"
        },
        {
          "internalType": "uint256",
          "name": "amount",
          "type": "uint256"
        }
      ],
      "name": "transferFrom",
      "outputs": [
        {
          "internalType": "bool",
          "name": "",
          "type": "bool"
        }
      ],
      "stateMutability": "nonpayable",
      "type": "function"
    }
  ],
  "bytecode": "0x610180604052600060095562093a80610120908152503480156200002257600080fd5b5060405162005652380380620056528339818101604052810190620000489190620003e5565b84846fffffffffffffffffffffffffffffffff1684848482828282600390805190602001906200007a92919062000260565b5081600490805190602001906200009392919062000260565b5080600560006101000a81548160ff021916908360ff160217905550505050505050620000cf8142620001d760201b620022921790919060201c565b608081815250508173ffffffffffffffffffffffffffffffffffffffff1660a08173ffffffffffffffffffffffffffffffffffffffff1660601b8152505050508973ffffffffffffffffffffffffffffffffffffffff1660c08173ffffffffffffffffffffffffffffffffffffffff1660601b815250508873ffffffffffffffffffffffffffffffffffffffff1660e08173ffffffffffffffffffffffffffffffffffffffff1660601b815250508761010081815250508661014081815250508573ffffffffffffffffffffffffffffffffffffffff166101608173ffffffffffffffffffffffffffffffffffffffff1660601b8152505050505050505050505050620006a3565b60008082840190508381101562000256576040517f08c379a000000000000000000000000000000000000000000000000000000000815260040180806020018281038252601b8152602001807f536166654d6174683a206164646974696f6e206f766572666c6f77000000000081525060200191505060405180910390fd5b8091505092915050565b828054600181600116156101000203166002900490600052602060002090601f016020900481019282620002985760008555620002e4565b82601f10620002b357805160ff1916838001178555620002e4565b82800160010185558215620002e4579182015b82811115620002e3578251825591602001919060010190620002c6565b5b509050620002f39190620002f7565b5090565b5b8082111562000312576000816000905550600101620002f8565b5090565b600081519050620003278162000621565b92915050565b6000815190506200033e816200063b565b92915050565b600082601f8301126200035657600080fd5b81516200036d62000367826200053b565b62000507565b915080825260208301602083018583830111156200038a57600080fd5b62000397838284620005e9565b50505092915050565b600081519050620003b18162000655565b92915050565b600081519050620003c8816200066f565b92915050565b600081519050620003df8162000689565b92915050565b6000806000806000806000806000806101408b8d0312156200040657600080fd5b6000620004168d828e016200032d565b9a50506020620004298d828e016200032d565b99505060406200043c8d828e01620003b7565b98505060606200044f8d828e01620003b7565b9750506080620004628d828e0162000316565b96505060a0620004758d828e0162000316565b95505060c0620004888d828e01620003a0565b94505060e08b015167ffffffffffffffff811115620004a657600080fd5b620004b48d828e0162000344565b9350506101008b015167ffffffffffffffff811115620004d357600080fd5b620004e18d828e0162000344565b925050610120620004f58d828e01620003ce565b9150509295989b9194979a5092959850565b6000604051905081810181811067ffffffffffffffff821117156200053157620005306200061f565b5b8060405250919050565b600067ffffffffffffffff8211156200055957620005586200061f565b5b601f19601f8301169050602081019050919050565b60006200057b82620005b2565b9050919050565b60006200058f826200056e565b9050919050565b60006fffffffffffffffffffffffffffffffff82169050919050565b600073ffffffffffffffffffffffffffffffffffffffff82169050919050565b6000819050919050565b600060ff82169050919050565b60005b8381101562000609578082015181840152602081019050620005ec565b8381111562000619576000848401525b50505050565bfe5b6200062c816200056e565b81146200063857600080fd5b50565b620006468162000582565b81146200065257600080fd5b50565b620006608162000596565b81146200066c57600080fd5b50565b6200067a81620005d2565b81146200068657600080fd5b50565b6200069481620005dc565b8114620006a057600080fd5b50565b60805160a05160601c60c05160601c60e05160601c6101005161012051610140516101605160601c614ef0620007626000398061151952806116de525080610ae25280610f22528061206a525080610fff5280611b27525080610a715280610b09528061109b528061208e5250806115df5280611701525080610c265280610e5d5280611adb525080611c8a5280611efb5250806114f55280612b285280612b6e5280612b9b5280613d815280613dc75280613df45250614ef06000f3fe608060405234801561001057600080fd5b50600436106102695760003560e01c8063787a08a611610151578063a9059cbb116100c3578063cbcbb50711610087578063cbcbb507146107c9578063dd62ed3e146107e7578063dde43cba14610817578063f11b818814610835578063f1cc432a14610867578063f6d2ee861461089757610269565b8063a9059cbb14610725578063aaf5eb6814610755578063adc9772e14610773578063b2a5dbfa1461078f578063c3863ada146107ab57610269565b8063919cd40f11610115578063919cd40f14610661578063946776cd1461067f57806395d89b411461069d57806399248ea7146106bb5780639a99b4f0146106d9578063a457c2d7146106f557610269565b8063787a08a6146105975780637e90d7ef146105a15780637fe696b6146105d15780638779588c146106015780638dbefee21461063157610269565b8063313ce567116101ea578063413d9c3a116101ae578063413d9c3a146104ad578063454a03cf146104cb578063610f4dc7146104fb57806370a082311461052b57806372b49d631461055b5780637403b06d1461057957610269565b8063313ce567146103f35780633373ee4c14610411578063359c4a9614610441578063386a0eee1461045f578063395093511461047d57610269565b806318160ddd1161023157806318160ddd1461033a5780631e9a69501461035857806323b872dd146103745780632acbf823146103a4578063312f6b83146103d557610269565b8063040ad7591461026e57806306fdde031461028c578063091030c3146102aa578063095ea7b3146102da5780631754a7ad1461030a575b600080fd5b6102766108b3565b6040516102839190614b17565b60405180910390f35b6102946108b9565b6040516102a191906149ba565b60405180910390f35b6102c460048036038101906102bf919061446f565b61095b565b6040516102d19190614b17565b60405180910390f35b6102f460048036038101906102ef9190614523565b610973565b6040516103019190614969565b60405180910390f35b610324600480360381019061031f919061446f565b610991565b6040516103319190614b17565b60405180910390f35b6103426109da565b60405161034f9190614b17565b60405180910390f35b610372600480360381019061036d9190614523565b6109e4565b005b61038e600480360381019061038991906144d4565b610d19565b60405161039b9190614969565b60405180910390f35b6103be60048036038101906103b99190614523565b610df2565b6040516103cc929190614ab7565b60405180910390f35b6103dd610e5b565b6040516103ea9190614984565b60405180910390f35b6103fb610e7f565b6040516104089190614b32565b60405180910390f35b61042b60048036038101906104269190614498565b610e96565b6040516104389190614b17565b60405180910390f35b610449610f20565b6040516104569190614b17565b60405180910390f35b610467610f44565b6040516104749190614b17565b60405180910390f35b61049760048036038101906104929190614523565b610f4a565b6040516104a49190614969565b60405180910390f35b6104b5610ffd565b6040516104c29190614b17565b60405180910390f35b6104e560048036038101906104e0919061446f565b611021565b6040516104f29190614b17565b60405180910390f35b61051560048036038101906105109190614668565b611039565b6040516105229190614b17565b60405180910390f35b6105456004803603810190610540919061446f565b611051565b6040516105529190614b17565b60405180910390f35b610563611099565b6040516105709190614b17565b60405180910390f35b6105816110bd565b60405161058e9190614b17565b60405180910390f35b61059f611135565b005b6105bb60048036038101906105b6919061446f565b61120a565b6040516105c89190614b17565b60405180910390f35b6105eb60048036038101906105e69190614668565b611222565b6040516105f89190614b17565b60405180910390f35b61061b6004803603810190610616919061446f565b61123a565b6040516106289190614b17565b60405180910390f35b61064b6004803603810190610646919061446f565b611252565b6040516106589190614b17565b60405180910390f35b6106696114f3565b6040516106769190614b17565b60405180910390f35b610687611517565b6040516106949190614925565b60405180910390f35b6106a561153b565b6040516106b291906149ba565b60405180910390f35b6106c36115dd565b6040516106d09190614984565b60405180910390f35b6106f360048036038101906106ee9190614523565b611601565b005b61070f600480360381019061070a9190614523565b6117b1565b60405161071c9190614969565b60405180910390f35b61073f600480360381019061073a9190614523565b61187e565b60405161074c9190614969565b60405180910390f35b61075d61189c565b60405161076a9190614b32565b60405180910390f35b61078d60048036038101906107889190614523565b6118a1565b005b6107a960048036038101906107a4919061455f565b611c88565b005b6107b3611ed3565b6040516107c0919061499f565b60405180910390f35b6107d1611ef9565b6040516107de9190614925565b60405180910390f35b61080160048036038101906107fc9190614498565b611f1d565b60405161080e9190614b17565b60405180910390f35b61081f611fa4565b60405161082c9190614b17565b60405180910390f35b61084f600480360381019061084a919061446f565b611fa9565b60405161085e93929190614ae0565b60405180910390f35b610881600480360381019061087c9190614691565b61200b565b60405161088e9190614b17565b60405180910390f35b6108b160048036038101906108ac91906145a4565b612170565b005b60445481565b606060038054600181600116156101000203166002900480601f0160208091040260200160405190810160405280929190818152602001828054600181600116156101000203166002900480156109515780601f1061092657610100808354040283529160200191610951565b820191906000526020600020905b81548152906001019060200180831161093457829003601f168201915b5050505050905090565b603e6020528060005260406000206000915090505481565b600061098761098061231a565b8484612322565b6001905092915050565b6000603f60008373ffffffffffffffffffffffffffffffffffffffff1673ffffffffffffffffffffffffffffffffffffffff168152602001908152602001600020549050919050565b6000600254905090565b6000811415610a28576040517f08c379a0000000000000000000000000000000000000000000000000000000008152600401610a1f906149dc565b60405180910390fd5b6000603e60003373ffffffffffffffffffffffffffffffffffffffff1673ffffffffffffffffffffffffffffffffffffffff168152602001908152602001600020549050610a9f7f00000000000000000000000000000000000000000000000000000000000000008261229290919063ffffffff16565b4211610ae0576040517f08c379a0000000000000000000000000000000000000000000000000000000008152600401610ad7906149fc565b60405180910390fd5b7f0000000000000000000000000000000000000000000000000000000000000000610b46610b377f00000000000000000000000000000000000000000000000000000000000000008461229290919063ffffffff16565b4261251990919063ffffffff16565b1115610b87576040517f08c379a0000000000000000000000000000000000000000000000000000000008152600401610b7e90614a5c565b60405180910390fd5b6000610b9233611051565b90506000818411610ba35783610ba5565b815b9050610bb333836001612563565b50610bbe3382612665565b6000610bd3828461251990919063ffffffff16565b1415610c1f576000603e60003373ffffffffffffffffffffffffffffffffffffffff1673ffffffffffffffffffffffffffffffffffffffff168152602001908152602001600020819055505b610c6a85827f000000000000000000000000000000000000000000000000000000000000000073ffffffffffffffffffffffffffffffffffffffff166128299092919063ffffffff16565b603f60003373ffffffffffffffffffffffffffffffffffffffff1673ffffffffffffffffffffffffffffffffffffffff168152602001908152602001600020600090558473ffffffffffffffffffffffffffffffffffffffff163373ffffffffffffffffffffffffffffffffffffffff167fd12200efa34901b99367694174c3b0d32c99585fdf37c7c26892136ddd0836d983604051610d0a9190614b17565b60405180910390a35050505050565b6000610d268484846128cb565b610de784610d3261231a565b610de285604051806060016040528060288152602001614dac60289139600160008b73ffffffffffffffffffffffffffffffffffffffff1673ffffffffffffffffffffffffffffffffffffffff1681526020019081526020016000206000610d9861231a565b73ffffffffffffffffffffffffffffffffffffffff1673ffffffffffffffffffffffffffffffffffffffff16815260200190815260200160002054612a349092919063ffffffff16565b612322565b600190509392505050565b6006602052816000526040600020602052806000526040600020600091509150508060000160009054906101000a90046fffffffffffffffffffffffffffffffff16908060000160109054906101000a90046fffffffffffffffffffffffffffffffff16905082565b7f000000000000000000000000000000000000000000000000000000000000000081565b6000600560009054906101000a900460ff16905090565b6000603c60008373ffffffffffffffffffffffffffffffffffffffff1673ffffffffffffffffffffffffffffffffffffffff16815260200190815260200160002060020160008473ffffffffffffffffffffffffffffffffffffffff1673ffffffffffffffffffffffffffffffffffffffff16815260200190815260200160002054905092915050565b7f000000000000000000000000000000000000000000000000000000000000000081565b60425481565b6000610ff3610f5761231a565b84610fee8560016000610f6861231a565b73ffffffffffffffffffffffffffffffffffffffff1673ffffffffffffffffffffffffffffffffffffffff16815260200190815260200160002060008973ffffffffffffffffffffffffffffffffffffffff1673ffffffffffffffffffffffffffffffffffffffff1681526020019081526020016000205461229290919063ffffffff16565b612322565b6001905092915050565b7f000000000000000000000000000000000000000000000000000000000000000081565b603f6020528060005260406000206000915090505481565b60416020528060005260406000206000915090505481565b60008060008373ffffffffffffffffffffffffffffffffffffffff1673ffffffffffffffffffffffffffffffffffffffff168152602001908152602001600020549050919050565b7f000000000000000000000000000000000000000000000000000000000000000081565b6000603c60003073ffffffffffffffffffffffffffffffffffffffff1673ffffffffffffffffffffffffffffffffffffffff16815260200190815260200160002060000160009054906101000a90046fffffffffffffffffffffffffffffffff166fffffffffffffffffffffffffffffffff16905090565b600061114033611051565b1415611181576040517f08c379a000000000000000000000000000000000000000000000000000000000815260040161117890614a7c565b60405180910390fd5b42603e60003373ffffffffffffffffffffffffffffffffffffffff1673ffffffffffffffffffffffffffffffffffffffff168152602001908152602001600020819055503373ffffffffffffffffffffffffffffffffffffffff167ff52f50426b32362d3e6bb8cb36b7074756b224622def6352a59eac7f66ebe6e860405160405180910390a2565b603d6020528060005260406000206000915090505481565b60406020528060005260406000206000915090505481565b60076020528060005260406000206000915090505481565b600080603c60003073ffffffffffffffffffffffffffffffffffffffff1673ffffffffffffffffffffffffffffffffffffffff168152602001908152602001600020905060008060406000603f60008873ffffffffffffffffffffffffffffffffffffffff1673ffffffffffffffffffffffffffffffffffffffff1681526020019081526020016000205481526020019081526020016000205414156113e9576113e482600101548360000160009054906101000a90046fffffffffffffffffffffffffffffffff166fffffffffffffffffffffffffffffffff168460000160109054906101000a90046fffffffffffffffffffffffffffffffff16604454603f60008a73ffffffffffffffffffffffffffffffffffffffff1673ffffffffffffffffffffffffffffffffffffffff168152602001908152602001600020544211156113dd57603f60008a73ffffffffffffffffffffffffffffffffffffffff1673ffffffffffffffffffffffffffffffffffffffff168152602001908152602001600020546113df565b425b612af4565b61143d565b60406000603f60008773ffffffffffffffffffffffffffffffffffffffff1673ffffffffffffffffffffffffffffffffffffffff168152602001908152602001600020548152602001908152602001600020545b9050600061149561144d86611051565b838560020160008973ffffffffffffffffffffffffffffffffffffffff1673ffffffffffffffffffffffffffffffffffffffff16815260200190815260200160002054612c44565b90506114e981603d60008873ffffffffffffffffffffffffffffffffffffffff1673ffffffffffffffffffffffffffffffffffffffff1681526020019081526020016000205461229290919063ffffffff16565b9350505050919050565b7f000000000000000000000000000000000000000000000000000000000000000081565b7f000000000000000000000000000000000000000000000000000000000000000081565b606060048054600181600116156101000203166002900480601f0160208091040260200160405190810160405280929190818152602001828054600181600116156101000203166002900480156115d35780601f106115a8576101008083540402835291602001916115d3565b820191906000526020600020905b8154815290600101906020018083116115b657829003601f168201915b5050505050905090565b7f000000000000000000000000000000000000000000000000000000000000000081565b60006116173361161033611051565b6000612563565b905060007fffffffffffffffffffffffffffffffffffffffffffffffffffffffffffffffff8314611648578261164a565b815b9050611696816040518060400160405280600e81526020017f494e56414c49445f414d4f554e5400000000000000000000000000000000000081525084612a349092919063ffffffff16565b603d60003373ffffffffffffffffffffffffffffffffffffffff1673ffffffffffffffffffffffffffffffffffffffff168152602001908152602001600020819055506117467f000000000000000000000000000000000000000000000000000000000000000085837f000000000000000000000000000000000000000000000000000000000000000073ffffffffffffffffffffffffffffffffffffffff16612c8d909392919063ffffffff16565b8373ffffffffffffffffffffffffffffffffffffffff163373ffffffffffffffffffffffffffffffffffffffff167f9310ccfcb8de723f578a9e4282ea9f521f05ae40dc08f3068dfad528a65ee3c7836040516117a39190614b17565b60405180910390a350505050565b60006118746117be61231a565b8461186f85604051806060016040528060258152602001614e9660259139600160006117e861231a565b73ffffffffffffffffffffffffffffffffffffffff1673ffffffffffffffffffffffffffffffffffffffff16815260200190815260200160002060008a73ffffffffffffffffffffffffffffffffffffffff1673ffffffffffffffffffffffffffffffffffffffff16815260200190815260200160002054612a349092919063ffffffff16565b612322565b6001905092915050565b600061189261188b61231a565b84846128cb565b6001905092915050565b601281565b60008114156118e5576040517f08c379a00000000000000000000000000000000000000000000000000000000081526004016118dc906149dc565b60405180910390fd5b60006118f083611051565b90506000603f60003373ffffffffffffffffffffffffffffffffffffffff1673ffffffffffffffffffffffffffffffffffffffff1681526020019081526020016000205414611974576040517f08c379a000000000000000000000000000000000000000000000000000000000815260040161196b90614a1c565b60405180910390fd5b61198a600160425461229290919063ffffffff16565b60428190555060006119a0843084604454612d4e565b905060008114611a79577f2468f9268c60ad90e2d49edb0032c8a001e733ae888b3ab8e982edf535be1a7684826040516119db929190614940565b60405180910390a1611a3581603d60008773ffffffffffffffffffffffffffffffffffffffff1673ffffffffffffffffffffffffffffffffffffffff1681526020019081526020016000205461229290919063ffffffff16565b603d60008673ffffffffffffffffffffffffffffffffffffffff1673ffffffffffffffffffffffffffffffffffffffff168152602001908152602001600020819055505b611a86600084868561200b565b603e60008673ffffffffffffffffffffffffffffffffffffffff1673ffffffffffffffffffffffffffffffffffffffff16815260200190815260200160002081905550611ad38484612faa565b611b203330857f000000000000000000000000000000000000000000000000000000000000000073ffffffffffffffffffffffffffffffffffffffff16612c8d909392919063ffffffff16565b6000611b557f00000000000000000000000000000000000000000000000000000000000000004261229290919063ffffffff16565b905080603f60003373ffffffffffffffffffffffffffffffffffffffff1673ffffffffffffffffffffffffffffffffffffffff168152602001908152602001600020819055506043819080600181540180825580915050600190039060005260206000200160009091909190915055611bd98460445461229290919063ffffffff16565b604481905550611c0584604160008481526020019081526020016000205461229290919063ffffffff16565b60416000838152602001908152602001600020819055508473ffffffffffffffffffffffffffffffffffffffff163373ffffffffffffffffffffffffffffffffffffffff167f5dac0c1b1112564a045ba943c9d50270893e8e826c49be8e7073adc713ab7bd786604051611c799190614b17565b60405180910390a35050505050565b7f000000000000000000000000000000000000000000000000000000000000000073ffffffffffffffffffffffffffffffffffffffff163373ffffffffffffffffffffffffffffffffffffffff1614611d16576040517f08c379a0000000000000000000000000000000000000000000000000000000008152600401611d0d90614a3c565b60405180910390fd5b60005b82829050811015611ece576000603c6000858585818110611d3657fe5b9050606002016040016020810190611d4e919061446f565b73ffffffffffffffffffffffffffffffffffffffff1673ffffffffffffffffffffffffffffffffffffffff1681526020019081526020016000209050611dcd848484818110611d9957fe5b9050606002016040016020810190611db1919061446f565b82868686818110611dbe57fe5b90506060020160200135613171565b50838383818110611dda57fe5b9050606002016000016020810190611df2919061463f565b8160000160006101000a8154816fffffffffffffffffffffffffffffffff02191690836fffffffffffffffffffffffffffffffff160217905550838383818110611e3857fe5b9050606002016040016020810190611e50919061446f565b73ffffffffffffffffffffffffffffffffffffffff167f87fa03892a0556cb6b8f97e6d533a150d4d55fcbf275fff5fa003fa636bcc7fa858585818110611e9357fe5b9050606002016000016020810190611eab919061463f565b604051611eb89190614a9c565b60405180910390a2508080600101915050611d19565b505050565b600860009054906101000a900473ffffffffffffffffffffffffffffffffffffffff1681565b7f000000000000000000000000000000000000000000000000000000000000000081565b6000600160008473ffffffffffffffffffffffffffffffffffffffff1673ffffffffffffffffffffffffffffffffffffffff16815260200190815260200160002060008373ffffffffffffffffffffffffffffffffffffffff1673ffffffffffffffffffffffffffffffffffffffff16815260200190815260200160002054905092915050565b600181565b603c6020528060005260406000206000915090508060000160009054906101000a90046fffffffffffffffffffffffffffffffff16908060000160109054906101000a90046fffffffffffffffffffffffffffffffff16908060010154905083565b600080603e60008573ffffffffffffffffffffffffffffffffffffffff1673ffffffffffffffffffffffffffffffffffffffff1681526020019081526020016000205490506000811415612063576000915050612168565b60006120ca7f00000000000000000000000000000000000000000000000000000000000000006120bc7f00000000000000000000000000000000000000000000000000000000000000004261251990919063ffffffff16565b61251990919063ffffffff16565b9050818111156120dd5760009150612162565b60008782116120ec57876120ee565b425b90508281101561210357829350505050612168565b61215e612119868961229290919063ffffffff16565b61215061212f868961342a90919063ffffffff16565b612142858c61342a90919063ffffffff16565b61229290919063ffffffff16565b6134b090919063ffffffff16565b9250505b81925050505b949350505050565b600061217a6134fa565b905060095481116121d6576040517f08c379a000000000000000000000000000000000000000000000000000000000815260040180806020018281038252602e815260200180614dd4602e913960400191505060405180910390fd5b8060098190555061222a86868080601f016020809104026020016040519081016040528093929190818152602001838380828437600081840152601f19601f82011690508083019250505050505050613503565b61227784848080601f016020809104026020016040519081016040528093929190818152602001838380828437600081840152601f19601f8201169050808301925050505050505061351d565b61228082613537565b61228987613555565b50505050505050565b600080828401905083811015612310576040517f08c379a000000000000000000000000000000000000000000000000000000000815260040180806020018281038252601b8152602001807f536166654d6174683a206164646974696f6e206f766572666c6f77000000000081525060200191505060405180910390fd5b8091505092915050565b600033905090565b600073ffffffffffffffffffffffffffffffffffffffff168373ffffffffffffffffffffffffffffffffffffffff1614156123a8576040517f08c379a0000000000000000000000000000000000000000000000000000000008152600401808060200182810382526024815260200180614e486024913960400191505060405180910390fd5b600073ffffffffffffffffffffffffffffffffffffffff168273ffffffffffffffffffffffffffffffffffffffff16141561242e576040517f08c379a0000000000000000000000000000000000000000000000000000000008152600401808060200182810382526022815260200180614d436022913960400191505060405180910390fd5b80600160008573ffffffffffffffffffffffffffffffffffffffff1673ffffffffffffffffffffffffffffffffffffffff16815260200190815260200160002060008473ffffffffffffffffffffffffffffffffffffffff1673ffffffffffffffffffffffffffffffffffffffff168152602001908152602001600020819055508173ffffffffffffffffffffffffffffffffffffffff168373ffffffffffffffffffffffffffffffffffffffff167f8c5be1e5ebec7d5bd14f71427d1e84f3dd0314c0f7b2291e5b200ac8c7c3b925836040518082815260200191505060405180910390a3505050565b600061255b83836040518060400160405280601e81526020017f536166654d6174683a207375627472616374696f6e206f766572666c6f770000815250612a34565b905092915050565b600080612574853086604454612d4e565b905060006125ca82603d60008973ffffffffffffffffffffffffffffffffffffffff1673ffffffffffffffffffffffffffffffffffffffff1681526020019081526020016000205461229290919063ffffffff16565b90506000821461265957831561261f5780603d60008873ffffffffffffffffffffffffffffffffffffffff1673ffffffffffffffffffffffffffffffffffffffff168152602001908152602001600020819055505b7f2468f9268c60ad90e2d49edb0032c8a001e733ae888b3ab8e982edf535be1a768683604051612650929190614940565b60405180910390a15b80925050509392505050565b600073ffffffffffffffffffffffffffffffffffffffff168273ffffffffffffffffffffffffffffffffffffffff1614156126eb576040517f08c379a0000000000000000000000000000000000000000000000000000000008152600401808060200182810382526021815260200180614e026021913960400191505060405180910390fd5b6126f782600083613599565b61276281604051806060016040528060228152602001614d21602291396000808673ffffffffffffffffffffffffffffffffffffffff1673ffffffffffffffffffffffffffffffffffffffff16815260200190815260200160002054612a349092919063ffffffff16565b6000808473ffffffffffffffffffffffffffffffffffffffff1673ffffffffffffffffffffffffffffffffffffffff168152602001908152602001600020819055506127b98160025461251990919063ffffffff16565b600281905550600073ffffffffffffffffffffffffffffffffffffffff168273ffffffffffffffffffffffffffffffffffffffff167fddf252ad1be2c89b69c2b068fc378daa952ba7f163c4a11628f55a4df523b3ef836040518082815260200191505060405180910390a35050565b6128c68363a9059cbb60e01b8484604051602401808373ffffffffffffffffffffffffffffffffffffffff16815260200182815260200192505050604051602081830303815290604052907bffffffffffffffffffffffffffffffffffffffffffffffffffffffff19166020820180517bffffffffffffffffffffffffffffffffffffffffffffffffffffffff838183161783525050505061379c565b505050565b60006128d684611051565b90506128e484826001612563565b508273ffffffffffffffffffffffffffffffffffffffff168473ffffffffffffffffffffffffffffffffffffffff1614612a2357600061292384611051565b905061293184826001612563565b506000603e60008773ffffffffffffffffffffffffffffffffffffffff1673ffffffffffffffffffffffffffffffffffffffff1681526020019081526020016000205490506129828185878561200b565b603e60008773ffffffffffffffffffffffffffffffffffffffff1673ffffffffffffffffffffffffffffffffffffffff1681526020019081526020016000208190555083831480156129d5575060008114155b15612a20576000603e60008873ffffffffffffffffffffffffffffffffffffffff1673ffffffffffffffffffffffffffffffffffffffff168152602001908152602001600020819055505b50505b612a2e8484846139e7565b50505050565b6000838311158290612ae1576040517f08c379a00000000000000000000000000000000000000000000000000000000081526004018080602001828103825283818151815260200191508051906020019080838360005b83811015612aa6578082015181840152602081019050612a8b565b50505050905090810190601f168015612ad35780820380516001836020036101000a031916815260200191505b509250505060405180910390fd5b5060008385039050809150509392505050565b600080851480612b045750600083145b80612b20575081846fffffffffffffffffffffffffffffffff16145b80612b5d57507f0000000000000000000000000000000000000000000000000000000000000000846fffffffffffffffffffffffffffffffff1610155b15612b6a57859050612c3b565b60007f00000000000000000000000000000000000000000000000000000000000000008311612b995782612bbb565b7f00000000000000000000000000000000000000000000000000000000000000005b90506000612be4866fffffffffffffffffffffffffffffffff168361251990919063ffffffff16565b9050612c3688612c2887612c1a601260ff16600a0a612c0c878e61342a90919063ffffffff16565b61342a90919063ffffffff16565b6134b090919063ffffffff16565b61229290919063ffffffff16565b925050505b95945050505050565b6000612c84601260ff16600a0a612c76612c67858761251990919063ffffffff16565b8761342a90919063ffffffff16565b6134b090919063ffffffff16565b90509392505050565b612d48846323b872dd60e01b858585604051602401808473ffffffffffffffffffffffffffffffffffffffff1681526020018373ffffffffffffffffffffffffffffffffffffffff1681526020018281526020019350505050604051602081830303815290604052907bffffffffffffffffffffffffffffffffffffffffffffffffffffffff19166020820180517bffffffffffffffffffffffffffffffffffffffffffffffffffffffff838183161783525050505061379c565b50505050565b600080603c60008673ffffffffffffffffffffffffffffffffffffffff1673ffffffffffffffffffffffffffffffffffffffff168152602001908152602001600020905060008160020160008873ffffffffffffffffffffffffffffffffffffffff1673ffffffffffffffffffffffffffffffffffffffff168152602001908152602001600020549050600080612de6888588613171565b90506000603f60008b73ffffffffffffffffffffffffffffffffffffffff1673ffffffffffffffffffffffffffffffffffffffff1681526020019081526020016000205414158015612e77575042603f60008b73ffffffffffffffffffffffffffffffffffffffff1673ffffffffffffffffffffffffffffffffffffffff1681526020019081526020016000205411155b15612ed25760406000603f60008c73ffffffffffffffffffffffffffffffffffffffff1673ffffffffffffffffffffffffffffffffffffffff1681526020019081526020016000205481526020019081526020016000205490505b808314612f9b5760008714612eef57612eec878285612c44565b91505b808460020160008b73ffffffffffffffffffffffffffffffffffffffff1673ffffffffffffffffffffffffffffffffffffffff168152602001908152602001600020819055508773ffffffffffffffffffffffffffffffffffffffff168973ffffffffffffffffffffffffffffffffffffffff167fbb123b5c06d5408bbea3c4fef481578175cfb432e3b482c6186f02ed9086585b83604051612f929190614b17565b60405180910390a35b81945050505050949350505050565b600073ffffffffffffffffffffffffffffffffffffffff168273ffffffffffffffffffffffffffffffffffffffff16141561304d576040517f08c379a000000000000000000000000000000000000000000000000000000000815260040180806020018281038252601f8152602001807f45524332303a206d696e7420746f20746865207a65726f20616464726573730081525060200191505060405180910390fd5b61305960008383613599565b61306e8160025461229290919063ffffffff16565b6002819055506130c5816000808573ffffffffffffffffffffffffffffffffffffffff1673ffffffffffffffffffffffffffffffffffffffff1681526020019081526020016000205461229290919063ffffffff16565b6000808473ffffffffffffffffffffffffffffffffffffffff1673ffffffffffffffffffffffffffffffffffffffff168152602001908152602001600020819055508173ffffffffffffffffffffffffffffffffffffffff16600073ffffffffffffffffffffffffffffffffffffffff167fddf252ad1be2c89b69c2b068fc378daa952ba7f163c4a11628f55a4df523b3ef836040518082815260200191505060405180910390a35050565b6000808360010154905060008460000160109054906101000a90046fffffffffffffffffffffffffffffffff169050806fffffffffffffffffffffffffffffffff164214156131c4578192505050613423565b6131cf604254613ca8565b8560000160006101000a8154816fffffffffffffffffffffffffffffffff02191690836fffffffffffffffffffffffffffffffff160217905550600060455490505b60438054905081101561333857426043828154811061322c57fe5b90600052602060002001541161332657613292838760000160009054906101000a90046fffffffffffffffffffffffffffffffff166fffffffffffffffffffffffffffffffff1684886043868154811061328257fe5b9060005260206000200154612af4565b60406000604384815481106132a357fe5b90600052602060002001548152602001908152602001600020819055506132d6600160425461251990919063ffffffff16565b60428190555061331b60416000604384815481106132f057fe5b906000526020600020015481526020019081526020016000205460445461251990919063ffffffff16565b60448190555061332b565b613338565b8080600101915050613211565b80604581905550600061337f848860000160009054906101000a90046fffffffffffffffffffffffffffffffff166fffffffffffffffffffffffffffffffff168589613d4d565b90508381146133e0578087600101819055508773ffffffffffffffffffffffffffffffffffffffff167f5777ca300dfe5bead41006fbce4389794dbc0ed8d6cccebfaf94630aa04184bc826040516133d79190614b17565b60405180910390a25b428760000160106101000a8154816fffffffffffffffffffffffffffffffff02191690836fffffffffffffffffffffffffffffffff160217905550809450505050505b9392505050565b60008083141561343d57600090506134aa565b600082840290508284828161344e57fe5b04146134a5576040517f08c379a0000000000000000000000000000000000000000000000000000000008152600401808060200182810382526021815260200180614d8b6021913960400191505060405180910390fd5b809150505b92915050565b60006134f283836040518060400160405280601a81526020017f536166654d6174683a206469766973696f6e206279207a65726f000000000000815250613e9c565b905092915050565b60006001905090565b80600390805190602001906135199291906142c7565b5050565b80600490805190602001906135339291906142c7565b5050565b80600560006101000a81548160ff021916908360ff16021790555050565b80600860006101000a81548173ffffffffffffffffffffffffffffffffffffffff021916908373ffffffffffffffffffffffffffffffffffffffff16021790555050565b8173ffffffffffffffffffffffffffffffffffffffff168373ffffffffffffffffffffffffffffffffffffffff1614156135d257613797565b600073ffffffffffffffffffffffffffffffffffffffff168373ffffffffffffffffffffffffffffffffffffffff161461363257600061361184611051565b9050613630848261362b858561251990919063ffffffff16565b613f62565b505b600073ffffffffffffffffffffffffffffffffffffffff168273ffffffffffffffffffffffffffffffffffffffff161461369257600061367183611051565b9050613690838261368b858561229290919063ffffffff16565b613f62565b505b6000600860009054906101000a900473ffffffffffffffffffffffffffffffffffffffff169050600073ffffffffffffffffffffffffffffffffffffffff168173ffffffffffffffffffffffffffffffffffffffff1614613795578073ffffffffffffffffffffffffffffffffffffffff16634a3931498585856040518463ffffffff1660e01b8152600401808473ffffffffffffffffffffffffffffffffffffffff1681526020018373ffffffffffffffffffffffffffffffffffffffff1681526020018281526020019350505050600060405180830381600087803b15801561377c57600080fd5b505af1158015613790573d6000803e3d6000fd5b505050505b505b505050565b6137bb8273ffffffffffffffffffffffffffffffffffffffff1661427c565b61382d576040517f08c379a000000000000000000000000000000000000000000000000000000000815260040180806020018281038252601f8152602001807f5361666545524332303a2063616c6c20746f206e6f6e2d636f6e74726163740081525060200191505060405180910390fd5b600060608373ffffffffffffffffffffffffffffffffffffffff16836040518082805190602001908083835b6020831061387c5780518252602082019150602081019050602083039250613859565b6001836020036101000a0380198251168184511680821785525050505050509050019150506000604051808303816000865af19150503d80600081146138de576040519150601f19603f3d011682016040523d82523d6000602084013e6138e3565b606091505b50915091508161395b576040517f08c379a00000000000000000000000000000000000000000000000000000000081526004018080602001828103825260208152602001807f5361666545524332303a206c6f772d6c6576656c2063616c6c206661696c656481525060200191505060405180910390fd5b6000815111156139e15780806020019051602081101561397a57600080fd5b81019080805190602001909291905050506139e0576040517f08c379a000000000000000000000000000000000000000000000000000000000815260040180806020018281038252602a815260200180614e6c602a913960400191505060405180910390fd5b5b50505050565b600073ffffffffffffffffffffffffffffffffffffffff168373ffffffffffffffffffffffffffffffffffffffff161415613a6d576040517f08c379a0000000000000000000000000000000000000000000000000000000008152600401808060200182810382526025815260200180614e236025913960400191505060405180910390fd5b600073ffffffffffffffffffffffffffffffffffffffff168273ffffffffffffffffffffffffffffffffffffffff161415613af3576040517f08c379a0000000000000000000000000000000000000000000000000000000008152600401808060200182810382526023815260200180614cfe6023913960400191505060405180910390fd5b613afe838383613599565b613b6981604051806060016040528060268152602001614d65602691396000808773ffffffffffffffffffffffffffffffffffffffff1673ffffffffffffffffffffffffffffffffffffffff16815260200190815260200160002054612a349092919063ffffffff16565b6000808573ffffffffffffffffffffffffffffffffffffffff1673ffffffffffffffffffffffffffffffffffffffff16815260200190815260200160002081905550613bfc816000808573ffffffffffffffffffffffffffffffffffffffff1673ffffffffffffffffffffffffffffffffffffffff1681526020019081526020016000205461229290919063ffffffff16565b6000808473ffffffffffffffffffffffffffffffffffffffff1673ffffffffffffffffffffffffffffffffffffffff168152602001908152602001600020819055508173ffffffffffffffffffffffffffffffffffffffff168373ffffffffffffffffffffffffffffffffffffffff167fddf252ad1be2c89b69c2b068fc378daa952ba7f163c4a11628f55a4df523b3ef836040518082815260200191505060405180910390a3505050565b600080612710905060006001905060006113b190506000600590506000613cd8858861342a90919063ffffffff16565b90506000613d1384613d058a613cf78c8a61342a90919063ffffffff16565b61342a90919063ffffffff16565b61229290919063ffffffff16565b90506000613d3c84613d2e84866134b090919063ffffffff16565b61229290919063ffffffff16565b905080975050505050505050919050565b600080841480613d5d5750600082145b80613d79575042836fffffffffffffffffffffffffffffffff16145b80613db657507f0000000000000000000000000000000000000000000000000000000000000000836fffffffffffffffffffffffffffffffff1610155b15613dc357849050613e94565b60007f00000000000000000000000000000000000000000000000000000000000000004211613df25742613e14565b7f00000000000000000000000000000000000000000000000000000000000000005b90506000613e3d856fffffffffffffffffffffffffffffffff168361251990919063ffffffff16565b9050613e8f87613e8186613e73601260ff16600a0a613e65878d61342a90919063ffffffff16565b61342a90919063ffffffff16565b6134b090919063ffffffff16565b61229290919063ffffffff16565b925050505b949350505050565b60008083118290613f48576040517f08c379a00000000000000000000000000000000000000000000000000000000081526004018080602001828103825283818151815260200191508051906020019080838360005b83811015613f0d578082015181840152602081019050613ef2565b50505050905090810190601f168015613f3a5780820380516001836020036101000a031916815260200191505b509250505060405180910390fd5b506000838581613f5457fe5b049050809150509392505050565b60004390506000600760008673ffffffffffffffffffffffffffffffffffffffff1673ffffffffffffffffffffffffffffffffffffffff1681526020019081526020016000205490506000600660008773ffffffffffffffffffffffffffffffffffffffff1673ffffffffffffffffffffffffffffffffffffffff1681526020019081526020016000209050600082141580156140665750826fffffffffffffffffffffffffffffffff1681600061402460018661251990919063ffffffff16565b815260200190815260200160002060000160009054906101000a90046fffffffffffffffffffffffffffffffff166fffffffffffffffffffffffffffffffff16145b156140cf578381600061408360018661251990919063ffffffff16565b815260200190815260200160002060000160106101000a8154816fffffffffffffffffffffffffffffffff02191690836fffffffffffffffffffffffffffffffff1602179055506141f3565b6040518060400160405280846fffffffffffffffffffffffffffffffff168152602001856fffffffffffffffffffffffffffffffff1681525081600084815260200190815260200160002060008201518160000160006101000a8154816fffffffffffffffffffffffffffffffff02191690836fffffffffffffffffffffffffffffffff16021790555060208201518160000160106101000a8154816fffffffffffffffffffffffffffffffff02191690836fffffffffffffffffffffffffffffffff1602179055509050506141af60018361229290919063ffffffff16565b600760008873ffffffffffffffffffffffffffffffffffffffff1673ffffffffffffffffffffffffffffffffffffffff168152602001908152602001600020819055505b7f2cd3c83ddac2953ee75f53265d9ea4463eaf05030e5459a1b7e63819b7ce88f7868686604051808473ffffffffffffffffffffffffffffffffffffffff168152602001836fffffffffffffffffffffffffffffffff168152602001826fffffffffffffffffffffffffffffffff168152602001935050505060405180910390a1505050505050565b60008060007fc5d2460186f7233c927e7db2dcc703c0e500b653ca82273b7bfad8045d85a47060001b9050833f91508082141580156142be57506000801b8214155b92505050919050565b828054600181600116156101000203166002900490600052602060002090601f0160209004810192826142fd5760008555614344565b82601f1061431657805160ff1916838001178555614344565b82800160010185558215614344579182015b82811115614343578251825591602001919060010190614328565b5b5090506143519190614355565b5090565b5b8082111561436e576000816000905550600101614356565b5090565b60008135905061438181614c8a565b92915050565b60008083601f84011261439957600080fd5b8235905067ffffffffffffffff8111156143b257600080fd5b6020830191508360608202830111156143ca57600080fd5b9250929050565b6000813590506143e081614ca1565b92915050565b60008083601f8401126143f857600080fd5b8235905067ffffffffffffffff81111561441157600080fd5b60208301915083600182028301111561442957600080fd5b9250929050565b60008135905061443f81614cb8565b92915050565b60008135905061445481614ccf565b92915050565b60008135905061446981614ce6565b92915050565b60006020828403121561448157600080fd5b600061448f84828501614372565b91505092915050565b600080604083850312156144ab57600080fd5b60006144b985828601614372565b92505060206144ca85828601614372565b9150509250929050565b6000806000606084860312156144e957600080fd5b60006144f786828701614372565b935050602061450886828701614372565b925050604061451986828701614445565b9150509250925092565b6000806040838503121561453657600080fd5b600061454485828601614372565b925050602061455585828601614445565b9150509250929050565b6000806020838503121561457257600080fd5b600083013567ffffffffffffffff81111561458c57600080fd5b61459885828601614387565b92509250509250929050565b600080600080600080608087890312156145bd57600080fd5b60006145cb89828a016143d1565b965050602087013567ffffffffffffffff8111156145e857600080fd5b6145f489828a016143e6565b9550955050604087013567ffffffffffffffff81111561461357600080fd5b61461f89828a016143e6565b9350935050606061463289828a0161445a565b9150509295509295509295565b60006020828403121561465157600080fd5b600061465f84828501614430565b91505092915050565b60006020828403121561467a57600080fd5b600061468884828501614445565b91505092915050565b600080600080608085870312156146a757600080fd5b60006146b587828801614445565b94505060206146c687828801614445565b93505060406146d787828801614372565b92505060606146e887828801614445565b91505092959194509250565b6146fd81614b69565b82525050565b61470c81614b7b565b82525050565b61471b81614bec565b82525050565b61472a81614c10565b82525050565b600061473b82614b4d565b6147458185614b58565b9350614755818560208601614c46565b61475e81614c79565b840191505092915050565b6000614776601383614b58565b91507f494e56414c49445f5a45524f5f414d4f554e54000000000000000000000000006000830152602082019050919050565b60006147b6601583614b58565b91507f494e53554646494349454e545f434f4f4c444f574e00000000000000000000006000830152602082019050919050565b60006147f6600b83614b58565b91507f555345525f5354414b45440000000000000000000000000000000000000000006000830152602082019050919050565b6000614836601583614b58565b91507f4f4e4c595f454d495353494f4e5f4d414e4147455200000000000000000000006000830152602082019050919050565b6000614876601783614b58565b91507f554e5354414b455f57494e444f575f46494e49534845440000000000000000006000830152602082019050919050565b60006148b6601b83614b58565b91507f494e56414c49445f42414c414e43455f4f4e5f434f4f4c444f574e00000000006000830152602082019050919050565b6148f281614b99565b82525050565b61490181614c34565b82525050565b61491081614bd5565b82525050565b61491f81614bdf565b82525050565b600060208201905061493a60008301846146f4565b92915050565b600060408201905061495560008301856146f4565b6149626020830184614907565b9392505050565b600060208201905061497e6000830184614703565b92915050565b60006020820190506149996000830184614712565b92915050565b60006020820190506149b46000830184614721565b92915050565b600060208201905081810360008301526149d48184614730565b905092915050565b600060208201905081810360008301526149f581614769565b9050919050565b60006020820190508181036000830152614a15816147a9565b9050919050565b60006020820190508181036000830152614a35816147e9565b9050919050565b60006020820190508181036000830152614a5581614829565b9050919050565b60006020820190508181036000830152614a7581614869565b9050919050565b60006020820190508181036000830152614a95816148a9565b9050919050565b6000602082019050614ab160008301846148f8565b92915050565b6000604082019050614acc60008301856148e9565b614ad960208301846148e9565b9392505050565b6000606082019050614af560008301866148e9565b614b0260208301856148e9565b614b0f6040830184614907565b949350505050565b6000602082019050614b2c6000830184614907565b92915050565b6000602082019050614b476000830184614916565b92915050565b600081519050919050565b600082825260208201905092915050565b6000614b7482614bb5565b9050919050565b60008115159050919050565b6000614b9282614b69565b9050919050565b60006fffffffffffffffffffffffffffffffff82169050919050565b600073ffffffffffffffffffffffffffffffffffffffff82169050919050565b6000819050919050565b600060ff82169050919050565b6000614bf782614bfe565b9050919050565b6000614c0982614bb5565b9050919050565b6000614c1b82614c22565b9050919050565b6000614c2d82614bb5565b9050919050565b6000614c3f82614b99565b9050919050565b60005b83811015614c64578082015181840152602081019050614c49565b83811115614c73576000848401525b50505050565b6000601f19601f8301169050919050565b614c9381614b69565b8114614c9e57600080fd5b50565b614caa81614b87565b8114614cb557600080fd5b50565b614cc181614b99565b8114614ccc57600080fd5b50565b614cd881614bd5565b8114614ce357600080fd5b50565b614cef81614bdf565b8114614cfa57600080fd5b5056fe45524332303a207472616e7366657220746f20746865207a65726f206164647265737345524332303a206275726e20616d6f756e7420657863656564732062616c616e636545524332303a20617070726f766520746f20746865207a65726f206164647265737345524332303a207472616e7366657220616d6f756e7420657863656564732062616c616e6365536166654d6174683a206d756c7469706c69636174696f6e206f766572666c6f7745524332303a207472616e7366657220616d6f756e74206578636565647320616c6c6f77616e6365436f6e747261637420696e7374616e63652068617320616c7265616479206265656e20696e697469616c697a656445524332303a206275726e2066726f6d20746865207a65726f206164647265737345524332303a207472616e736665722066726f6d20746865207a65726f206164647265737345524332303a20617070726f76652066726f6d20746865207a65726f20616464726573735361666545524332303a204552433230206f7065726174696f6e20646964206e6f74207375636365656445524332303a2064656372656173656420616c6c6f77616e63652062656c6f77207a65726fa26469706673582212205eb3fdf393ab04b1ab73a4c9269ae8619d7f47e5d08670d2d6b711f05f6ebd3364736f6c63430007050033",
  "linkReferences": {},
  "deployedLinkReferences": {}
}