{
  "_format": "hh-sol-artifact-1",
  "contractName": "StakedToken",
  "sourceName": "contracts/stake/StakedToken.sol",
  "abi": [
    {
      "inputs": [
        {
          "internalType": "contract IERC20",
          "name": "stakedToken",
          "type": "address"
        },
        {
          "internalType": "contract IERC20",
          "name": "rewardToken",
          "type": "address"
        },
        {
          "internalType": "uint256",
          "name": "cooldownSeconds",
          "type": "uint256"
        },
        {
          "internalType": "uint256",
          "name": "unstakeWindow",
          "type": "uint256"
        },
        {
          "internalType": "address",
          "name": "rewardsVault",
          "type": "address"
        },
        {
          "internalType": "address",
          "name": "emissionManager",
          "type": "address"
        },
        {
          "internalType": "uint128",
          "name": "distributionDuration",
          "type": "uint128"
        },
        {
          "internalType": "string",
          "name": "name",
          "type": "string"
        },
        {
          "internalType": "string",
          "name": "symbol",
          "type": "string"
        },
        {
          "internalType": "uint8",
          "name": "decimals",
          "type": "uint8"
        }
      ],
      "stateMutability": "nonpayable",
      "type": "constructor"
    },
    {
      "anonymous": false,
      "inputs": [
        {
          "indexed": true,
          "internalType": "address",
          "name": "owner",
          "type": "address"
        },
        {
          "indexed": true,
          "internalType": "address",
          "name": "spender",
          "type": "address"
        },
        {
          "indexed": false,
          "internalType": "uint256",
          "name": "value",
          "type": "uint256"
        }
      ],
      "name": "Approval",
      "type": "event"
    },
    {
      "anonymous": false,
      "inputs": [
        {
          "indexed": true,
          "internalType": "address",
          "name": "asset",
          "type": "address"
        },
        {
          "indexed": false,
          "internalType": "uint256",
          "name": "emission",
          "type": "uint256"
        }
      ],
      "name": "AssetConfigUpdated",
      "type": "event"
    },
    {
      "anonymous": false,
      "inputs": [
        {
          "indexed": true,
          "internalType": "address",
          "name": "asset",
          "type": "address"
        },
        {
          "indexed": false,
          "internalType": "uint256",
          "name": "index",
          "type": "uint256"
        }
      ],
      "name": "AssetIndexUpdated",
      "type": "event"
    },
    {
      "anonymous": false,
      "inputs": [
        {
          "indexed": true,
          "internalType": "address",
          "name": "user",
          "type": "address"
        }
      ],
      "name": "Cooldown",
      "type": "event"
    },
    {
      "anonymous": false,
      "inputs": [
        {
          "indexed": true,
          "internalType": "address",
          "name": "from",
          "type": "address"
        },
        {
          "indexed": true,
          "internalType": "address",
          "name": "to",
          "type": "address"
        },
        {
          "indexed": false,
          "internalType": "uint256",
          "name": "amount",
          "type": "uint256"
        }
      ],
      "name": "Redeem",
      "type": "event"
    },
    {
      "anonymous": false,
      "inputs": [
        {
          "indexed": false,
          "internalType": "address",
          "name": "user",
          "type": "address"
        },
        {
          "indexed": false,
          "internalType": "uint256",
          "name": "amount",
          "type": "uint256"
        }
      ],
      "name": "RewardsAccrued",
      "type": "event"
    },
    {
      "anonymous": false,
      "inputs": [
        {
          "indexed": true,
          "internalType": "address",
          "name": "from",
          "type": "address"
        },
        {
          "indexed": true,
          "internalType": "address",
          "name": "to",
          "type": "address"
        },
        {
          "indexed": false,
          "internalType": "uint256",
          "name": "amount",
          "type": "uint256"
        }
      ],
      "name": "RewardsClaimed",
      "type": "event"
    },
    {
      "anonymous": false,
      "inputs": [
        {
          "indexed": false,
          "internalType": "address",
          "name": "owner",
          "type": "address"
        },
        {
          "indexed": false,
          "internalType": "uint128",
          "name": "oldValue",
          "type": "uint128"
        },
        {
          "indexed": false,
          "internalType": "uint128",
          "name": "newValue",
          "type": "uint128"
        }
      ],
      "name": "SnapshotDone",
      "type": "event"
    },
    {
      "anonymous": false,
      "inputs": [
        {
          "indexed": true,
          "internalType": "address",
          "name": "from",
          "type": "address"
        },
        {
          "indexed": true,
          "internalType": "address",
          "name": "onBehalfOf",
          "type": "address"
        },
        {
          "indexed": false,
          "internalType": "uint256",
          "name": "amount",
          "type": "uint256"
        }
      ],
      "name": "Staked",
      "type": "event"
    },
    {
      "anonymous": false,
      "inputs": [
        {
          "indexed": true,
          "internalType": "address",
          "name": "from",
          "type": "address"
        },
        {
          "indexed": true,
          "internalType": "address",
          "name": "to",
          "type": "address"
        },
        {
          "indexed": false,
          "internalType": "uint256",
          "name": "value",
          "type": "uint256"
        }
      ],
      "name": "Transfer",
      "type": "event"
    },
    {
      "anonymous": false,
      "inputs": [
        {
          "indexed": true,
          "internalType": "address",
          "name": "user",
          "type": "address"
        },
        {
          "indexed": true,
          "internalType": "address",
          "name": "asset",
          "type": "address"
        },
        {
          "indexed": false,
          "internalType": "uint256",
          "name": "index",
          "type": "uint256"
        }
      ],
      "name": "UserIndexUpdated",
      "type": "event"
    },
    {
      "inputs": [],
      "name": "COOLDOWN_SECONDS",
      "outputs": [
        {
          "internalType": "uint256",
          "name": "",
          "type": "uint256"
        }
      ],
      "stateMutability": "view",
      "type": "function"
    },
    {
      "inputs": [],
      "name": "DISTRIBUTION_END",
      "outputs": [
        {
          "internalType": "uint256",
          "name": "",
          "type": "uint256"
        }
      ],
      "stateMutability": "view",
      "type": "function"
    },
    {
      "inputs": [],
      "name": "EMISSION_MANAGER",
      "outputs": [
        {
          "internalType": "address",
          "name": "",
          "type": "address"
        }
      ],
      "stateMutability": "view",
      "type": "function"
    },
    {
      "inputs": [],
      "name": "LOCK_TIME",
      "outputs": [
        {
          "internalType": "uint256",
          "name": "",
          "type": "uint256"
        }
      ],
      "stateMutability": "view",
      "type": "function"
    },
    {
      "inputs": [],
      "name": "PRECISION",
      "outputs": [
        {
          "internalType": "uint8",
          "name": "",
          "type": "uint8"
        }
      ],
      "stateMutability": "view",
      "type": "function"
    },
    {
      "inputs": [],
      "name": "REVISION",
      "outputs": [
        {
          "internalType": "uint256",
          "name": "",
          "type": "uint256"
        }
      ],
      "stateMutability": "view",
      "type": "function"
    },
    {
      "inputs": [],
      "name": "REWARDS_VAULT",
      "outputs": [
        {
          "internalType": "address",
          "name": "",
          "type": "address"
        }
      ],
      "stateMutability": "view",
      "type": "function"
    },
    {
      "inputs": [],
      "name": "REWARD_TOKEN",
      "outputs": [
        {
          "internalType": "contract IERC20",
          "name": "",
          "type": "address"
        }
      ],
      "stateMutability": "view",
      "type": "function"
    },
    {
      "inputs": [],
      "name": "STAKED_TOKEN",
      "outputs": [
        {
          "internalType": "contract IERC20",
          "name": "",
          "type": "address"
        }
      ],
      "stateMutability": "view",
      "type": "function"
    },
    {
      "inputs": [],
      "name": "TOTAL_STAKED",
      "outputs": [
        {
          "internalType": "uint256",
          "name": "",
          "type": "uint256"
        }
      ],
      "stateMutability": "view",
      "type": "function"
    },
    {
      "inputs": [],
      "name": "UNSTAKE_WINDOW",
      "outputs": [
        {
          "internalType": "uint256",
          "name": "",
          "type": "uint256"
        }
      ],
      "stateMutability": "view",
      "type": "function"
    },
    {
      "inputs": [],
      "name": "_aaveGovernance",
      "outputs": [
        {
          "internalType": "contract ITransferHook",
          "name": "",
          "type": "address"
        }
      ],
      "stateMutability": "view",
      "type": "function"
    },
    {
      "inputs": [
        {
          "internalType": "address",
          "name": "",
          "type": "address"
        }
      ],
      "name": "_countsSnapshots",
      "outputs": [
        {
          "internalType": "uint256",
          "name": "",
          "type": "uint256"
        }
      ],
      "stateMutability": "view",
      "type": "function"
    },
    {
      "inputs": [
        {
          "internalType": "address",
          "name": "",
          "type": "address"
        },
        {
          "internalType": "uint256",
          "name": "",
          "type": "uint256"
        }
      ],
      "name": "_snapshots",
      "outputs": [
        {
          "internalType": "uint128",
          "name": "blockNumber",
          "type": "uint128"
        },
        {
          "internalType": "uint128",
          "name": "value",
          "type": "uint128"
        }
      ],
      "stateMutability": "view",
      "type": "function"
    },
    {
      "inputs": [
        {
          "internalType": "address",
          "name": "owner",
          "type": "address"
        },
        {
          "internalType": "address",
          "name": "spender",
          "type": "address"
        }
      ],
      "name": "allowance",
      "outputs": [
        {
          "internalType": "uint256",
          "name": "",
          "type": "uint256"
        }
      ],
      "stateMutability": "view",
      "type": "function"
    },
    {
      "inputs": [
        {
          "internalType": "uint256",
          "name": "",
          "type": "uint256"
        }
      ],
      "name": "amountOfLockedRewards",
      "outputs": [
        {
          "internalType": "uint256",
          "name": "",
          "type": "uint256"
        }
      ],
      "stateMutability": "view",
      "type": "function"
    },
    {
      "inputs": [
        {
          "internalType": "address",
          "name": "spender",
          "type": "address"
        },
        {
          "internalType": "uint256",
          "name": "amount",
          "type": "uint256"
        }
      ],
      "name": "approve",
      "outputs": [
        {
          "internalType": "bool",
          "name": "",
          "type": "bool"
        }
      ],
      "stateMutability": "nonpayable",
      "type": "function"
    },
    {
      "inputs": [
        {
          "internalType": "address",
          "name": "",
          "type": "address"
        }
      ],
      "name": "assets",
      "outputs": [
        {
          "internalType": "uint128",
          "name": "emissionPerSecond",
          "type": "uint128"
        },
        {
          "internalType": "uint128",
          "name": "lastUpdateTimestamp",
          "type": "uint128"
        },
        {
          "internalType": "uint256",
          "name": "index",
          "type": "uint256"
        }
      ],
      "stateMutability": "view",
      "type": "function"
    },
    {
      "inputs": [
        {
          "internalType": "address",
          "name": "account",
          "type": "address"
        }
      ],
      "name": "balanceOf",
      "outputs": [
        {
          "internalType": "uint256",
          "name": "",
          "type": "uint256"
        }
      ],
      "stateMutability": "view",
      "type": "function"
    },
    {
      "inputs": [
        {
          "internalType": "address",
          "name": "to",
          "type": "address"
        },
        {
          "internalType": "uint256",
          "name": "amount",
          "type": "uint256"
        }
      ],
      "name": "claimRewards",
      "outputs": [],
      "stateMutability": "nonpayable",
      "type": "function"
    },
    {
      "inputs": [
        {
          "components": [
            {
              "internalType": "uint128",
              "name": "emissionPerSecond",
              "type": "uint128"
            },
            {
              "internalType": "uint256",
              "name": "totalStaked",
              "type": "uint256"
            },
            {
              "internalType": "address",
              "name": "underlyingAsset",
              "type": "address"
            }
          ],
          "internalType": "struct DistributionTypes.AssetConfigInput[]",
          "name": "assetsConfigInput",
          "type": "tuple[]"
        }
      ],
      "name": "configureAssets",
      "outputs": [],
      "stateMutability": "nonpayable",
      "type": "function"
    },
    {
      "inputs": [],
      "name": "cooldown",
      "outputs": [],
      "stateMutability": "nonpayable",
      "type": "function"
    },
    {
      "inputs": [],
      "name": "decimals",
      "outputs": [
        {
          "internalType": "uint8",
          "name": "",
          "type": "uint8"
        }
      ],
      "stateMutability": "view",
      "type": "function"
    },
    {
      "inputs": [
        {
          "internalType": "address",
          "name": "spender",
          "type": "address"
        },
        {
          "internalType": "uint256",
          "name": "subtractedValue",
          "type": "uint256"
        }
      ],
      "name": "decreaseAllowance",
      "outputs": [
        {
          "internalType": "bool",
          "name": "",
          "type": "bool"
        }
      ],
      "stateMutability": "nonpayable",
      "type": "function"
    },
    {
      "inputs": [
        {
          "internalType": "uint256",
          "name": "fromCooldownTimestamp",
          "type": "uint256"
        },
        {
          "internalType": "uint256",
          "name": "amountToReceive",
          "type": "uint256"
        },
        {
          "internalType": "address",
          "name": "toAddress",
          "type": "address"
        },
        {
          "internalType": "uint256",
          "name": "toBalance",
          "type": "uint256"
        }
      ],
      "name": "getNextCooldownTimestamp",
      "outputs": [
        {
          "internalType": "uint256",
          "name": "",
          "type": "uint256"
        }
      ],
      "stateMutability": "view",
      "type": "function"
    },
    {
      "inputs": [
        {
          "internalType": "address",
          "name": "staker",
          "type": "address"
        }
      ],
      "name": "getTotalRewardsBalance",
      "outputs": [
        {
          "internalType": "uint256",
          "name": "",
          "type": "uint256"
        }
      ],
      "stateMutability": "view",
      "type": "function"
    },
    {
      "inputs": [
        {
          "internalType": "address",
          "name": "user",
          "type": "address"
        },
        {
          "internalType": "address",
          "name": "asset",
          "type": "address"
        }
      ],
      "name": "getUserAssetData",
      "outputs": [
        {
          "internalType": "uint256",
          "name": "",
          "type": "uint256"
        }
      ],
      "stateMutability": "view",
      "type": "function"
    },
    {
      "inputs": [
        {
          "internalType": "address",
          "name": "spender",
          "type": "address"
        },
        {
          "internalType": "uint256",
          "name": "addedValue",
          "type": "uint256"
        }
      ],
      "name": "increaseAllowance",
      "outputs": [
        {
          "internalType": "bool",
          "name": "",
          "type": "bool"
        }
      ],
      "stateMutability": "nonpayable",
      "type": "function"
    },
    {
      "inputs": [
        {
          "internalType": "contract ITransferHook",
          "name": "aaveGovernance",
          "type": "address"
        },
        {
          "internalType": "string",
          "name": "name",
          "type": "string"
        },
        {
          "internalType": "string",
          "name": "symbol",
          "type": "string"
        },
        {
          "internalType": "uint8",
          "name": "decimals",
          "type": "uint8"
        }
      ],
      "name": "initialize",
      "outputs": [],
      "stateMutability": "nonpayable",
      "type": "function"
    },
    {
      "inputs": [
        {
          "internalType": "uint256",
          "name": "",
          "type": "uint256"
        }
      ],
      "name": "lockTimestampOfUsers",
      "outputs": [
        {
          "internalType": "uint256",
          "name": "",
          "type": "uint256"
        }
      ],
      "stateMutability": "view",
      "type": "function"
    },
    {
      "inputs": [],
      "name": "name",
      "outputs": [
        {
          "internalType": "string",
          "name": "",
          "type": "string"
        }
      ],
      "stateMutability": "view",
      "type": "function"
    },
    {
      "inputs": [
        {
          "internalType": "address",
          "name": "to",
          "type": "address"
        },
        {
          "internalType": "uint256",
          "name": "amount",
          "type": "uint256"
        }
      ],
      "name": "redeem",
      "outputs": [],
      "stateMutability": "nonpayable",
      "type": "function"
    },
    {
      "inputs": [
        {
          "internalType": "address",
          "name": "onBehalfOf",
          "type": "address"
        },
        {
          "internalType": "uint256",
          "name": "amount",
          "type": "uint256"
        }
      ],
      "name": "stake",
      "outputs": [],
      "stateMutability": "nonpayable",
      "type": "function"
    },
    {
      "inputs": [
        {
          "internalType": "address",
          "name": "",
          "type": "address"
        }
      ],
      "name": "stakerRewardLockTime",
      "outputs": [
        {
          "internalType": "uint256",
          "name": "",
          "type": "uint256"
        }
      ],
      "stateMutability": "view",
      "type": "function"
    },
    {
      "inputs": [
        {
          "internalType": "address",
          "name": "",
          "type": "address"
        }
      ],
      "name": "stakerRewardsToClaim",
      "outputs": [
        {
          "internalType": "uint256",
          "name": "",
          "type": "uint256"
        }
      ],
      "stateMutability": "view",
      "type": "function"
    },
    {
      "inputs": [
        {
          "internalType": "address",
          "name": "",
          "type": "address"
        }
      ],
      "name": "stakersCooldowns",
      "outputs": [
        {
          "internalType": "uint256",
          "name": "",
          "type": "uint256"
        }
      ],
      "stateMutability": "view",
      "type": "function"
    },
    {
      "inputs": [
        {
          "internalType": "uint256",
          "name": "",
          "type": "uint256"
        }
      ],
      "name": "subAmountAfterLockTime",
      "outputs": [
        {
          "internalType": "uint256",
          "name": "",
          "type": "uint256"
        }
      ],
      "stateMutability": "view",
      "type": "function"
    },
    {
      "inputs": [],
      "name": "symbol",
      "outputs": [
        {
          "internalType": "string",
          "name": "",
          "type": "string"
        }
      ],
      "stateMutability": "view",
      "type": "function"
    },
    {
      "inputs": [
        {
          "internalType": "uint256",
          "name": "",
          "type": "uint256"
        }
      ],
      "name": "timestampToIndexOfUsers",
      "outputs": [
        {
          "internalType": "uint256",
          "name": "",
          "type": "uint256"
        }
      ],
      "stateMutability": "view",
      "type": "function"
    },
    {
      "inputs": [],
      "name": "totalSupply",
      "outputs": [
        {
          "internalType": "uint256",
          "name": "",
          "type": "uint256"
        }
      ],
      "stateMutability": "view",
      "type": "function"
    },
    {
      "inputs": [
        {
          "internalType": "address",
          "name": "recipient",
          "type": "address"
        },
        {
          "internalType": "uint256",
          "name": "amount",
          "type": "uint256"
        }
      ],
      "name": "transfer",
      "outputs": [
        {
          "internalType": "bool",
          "name": "",
          "type": "bool"
        }
      ],
      "stateMutability": "nonpayable",
      "type": "function"
    },
    {
      "inputs": [
        {
          "internalType": "address",
          "name": "sender",
          "type": "address"
        },
        {
          "internalType": "address",
          "name": "recipient",
          "type": "address"
        },
        {
          "internalType": "uint256",
          "name": "amount",
          "type": "uint256"
        }
      ],
      "name": "transferFrom",
      "outputs": [
        {
          "internalType": "bool",
          "name": "",
          "type": "bool"
        }
      ],
      "stateMutability": "nonpayable",
      "type": "function"
    }
  ],
  "bytecode": "0x610180604052600060095562093a80610120908152503480156200002257600080fd5b5060405162005415380380620054158339818101604052810190620000489190620003e5565b84846fffffffffffffffffffffffffffffffff1684848482828282600390805190602001906200007a92919062000260565b5081600490805190602001906200009392919062000260565b5080600560006101000a81548160ff021916908360ff160217905550505050505050620000cf8142620001d760201b620021611790919060201c565b608081815250508173ffffffffffffffffffffffffffffffffffffffff1660a08173ffffffffffffffffffffffffffffffffffffffff1660601b8152505050508973ffffffffffffffffffffffffffffffffffffffff1660c08173ffffffffffffffffffffffffffffffffffffffff1660601b815250508873ffffffffffffffffffffffffffffffffffffffff1660e08173ffffffffffffffffffffffffffffffffffffffff1660601b815250508761010081815250508661014081815250508573ffffffffffffffffffffffffffffffffffffffff166101608173ffffffffffffffffffffffffffffffffffffffff1660601b8152505050505050505050505050620006a3565b60008082840190508381101562000256576040517f08c379a000000000000000000000000000000000000000000000000000000000815260040180806020018281038252601b8152602001807f536166654d6174683a206164646974696f6e206f766572666c6f77000000000081525060200191505060405180910390fd5b8091505092915050565b828054600181600116156101000203166002900490600052602060002090601f016020900481019282620002985760008555620002e4565b82601f10620002b357805160ff1916838001178555620002e4565b82800160010185558215620002e4579182015b82811115620002e3578251825591602001919060010190620002c6565b5b509050620002f39190620002f7565b5090565b5b8082111562000312576000816000905550600101620002f8565b5090565b600081519050620003278162000621565b92915050565b6000815190506200033e816200063b565b92915050565b600082601f8301126200035657600080fd5b81516200036d62000367826200053b565b62000507565b915080825260208301602083018583830111156200038a57600080fd5b62000397838284620005e9565b50505092915050565b600081519050620003b18162000655565b92915050565b600081519050620003c8816200066f565b92915050565b600081519050620003df8162000689565b92915050565b6000806000806000806000806000806101408b8d0312156200040657600080fd5b6000620004168d828e016200032d565b9a50506020620004298d828e016200032d565b99505060406200043c8d828e01620003b7565b98505060606200044f8d828e01620003b7565b9750506080620004628d828e0162000316565b96505060a0620004758d828e0162000316565b95505060c0620004888d828e01620003a0565b94505060e08b015167ffffffffffffffff811115620004a657600080fd5b620004b48d828e0162000344565b9350506101008b015167ffffffffffffffff811115620004d357600080fd5b620004e18d828e0162000344565b925050610120620004f58d828e01620003ce565b9150509295989b9194979a5092959850565b6000604051905081810181811067ffffffffffffffff821117156200053157620005306200061f565b5b8060405250919050565b600067ffffffffffffffff8211156200055957620005586200061f565b5b601f19601f8301169050602081019050919050565b60006200057b82620005b2565b9050919050565b60006200058f826200056e565b9050919050565b60006fffffffffffffffffffffffffffffffff82169050919050565b600073ffffffffffffffffffffffffffffffffffffffff82169050919050565b6000819050919050565b600060ff82169050919050565b60005b8381101562000609578082015181840152602081019050620005ec565b8381111562000619576000848401525b50505050565bfe5b6200062c816200056e565b81146200063857600080fd5b50565b620006468162000582565b81146200065257600080fd5b50565b620006608162000596565b81146200066c57600080fd5b50565b6200067a81620005d2565b81146200068657600080fd5b50565b6200069481620005dc565b8114620006a057600080fd5b50565b60805160a05160601c60c05160601c60e05160601c6101005161012051610140516101605160601c614cb3620007626000398061142952806115ee525080610a825280610ec25280611f39525080610f995280611974525080610a115280610aa952806110715280611f5d5250806114ef5280611611525080610bc65280610dfd5280611aa6525080611b595280611dca52508061140552806129f75280612a3d5280612a6a5280613b445280613b8a5280613bb75250614cb36000f3fe608060405234801561001057600080fd5b506004361061025e5760003560e01c80637e90d7ef11610146578063a9059cbb116100c3578063cbcbb50711610087578063cbcbb507146107b2578063dd62ed3e146107d0578063dde43cba14610800578063f11b81881461081e578063f1cc432a14610850578063f6d2ee86146108805761025e565b8063a9059cbb1461070e578063aaf5eb681461073e578063adc9772e1461075c578063b2a5dbfa14610778578063c3863ada146107945761025e565b8063946776cd1161010a578063946776cd1461066857806395d89b411461068657806399248ea7146106a45780639a99b4f0146106c2578063a457c2d7146106de5761025e565b80637e90d7ef1461058a5780637fe696b6146105ba5780638779588c146105ea5780638dbefee21461061a578063919cd40f1461064a5761025e565b80633373ee4c116101df5780634781dbb7116101a35780634781dbb7146104a257806357527234146104d2578063610f4dc71461050257806370a082311461053257806372b49d6314610562578063787a08a6146105805761025e565b80633373ee4c146103d6578063359c4a96146104065780633950935114610424578063413d9c3a14610454578063454a03cf146104725761025e565b80631e9a6950116102265780631e9a69501461031d57806323b872dd146103395780632acbf82314610369578063312f6b831461039a578063313ce567146103b85761025e565b8063040ad7591461026357806306fdde0314610281578063091030c31461029f578063095ea7b3146102cf57806318160ddd146102ff575b600080fd5b61026b61089c565b60405161027891906148da565b60405180910390f35b6102896108a2565b604051610296919061477d565b60405180910390f35b6102b960048036038101906102b49190614232565b610944565b6040516102c691906148da565b60405180910390f35b6102e960048036038101906102e491906142e6565b61095c565b6040516102f6919061472c565b60405180910390f35b61030761097a565b60405161031491906148da565b60405180910390f35b610337600480360381019061033291906142e6565b610984565b005b610353600480360381019061034e9190614297565b610cb9565b604051610360919061472c565b60405180910390f35b610383600480360381019061037e91906142e6565b610d92565b60405161039192919061487a565b60405180910390f35b6103a2610dfb565b6040516103af9190614747565b60405180910390f35b6103c0610e1f565b6040516103cd91906148f5565b60405180910390f35b6103f060048036038101906103eb919061425b565b610e36565b6040516103fd91906148da565b60405180910390f35b61040e610ec0565b60405161041b91906148da565b60405180910390f35b61043e600480360381019061043991906142e6565b610ee4565b60405161044b919061472c565b60405180910390f35b61045c610f97565b60405161046991906148da565b60405180910390f35b61048c60048036038101906104879190614232565b610fbb565b60405161049991906148da565b60405180910390f35b6104bc60048036038101906104b7919061442b565b610fd3565b6040516104c991906148da565b60405180910390f35b6104ec60048036038101906104e7919061442b565b610ff7565b6040516104f991906148da565b60405180910390f35b61051c6004803603810190610517919061442b565b61100f565b60405161052991906148da565b60405180910390f35b61054c60048036038101906105479190614232565b611027565b60405161055991906148da565b60405180910390f35b61056a61106f565b60405161057791906148da565b60405180910390f35b610588611093565b005b6105a4600480360381019061059f9190614232565b611168565b6040516105b191906148da565b60405180910390f35b6105d460048036038101906105cf919061442b565b611180565b6040516105e191906148da565b60405180910390f35b61060460048036038101906105ff9190614232565b611198565b60405161061191906148da565b60405180910390f35b610634600480360381019061062f9190614232565b6111b0565b60405161064191906148da565b60405180910390f35b610652611403565b60405161065f91906148da565b60405180910390f35b610670611427565b60405161067d91906146e8565b60405180910390f35b61068e61144b565b60405161069b919061477d565b60405180910390f35b6106ac6114ed565b6040516106b99190614747565b60405180910390f35b6106dc60048036038101906106d791906142e6565b611511565b005b6106f860048036038101906106f391906142e6565b6116c1565b604051610705919061472c565b60405180910390f35b610728600480360381019061072391906142e6565b61178e565b604051610735919061472c565b60405180910390f35b6107466117ac565b60405161075391906148f5565b60405180910390f35b610776600480360381019061077191906142e6565b6117b1565b005b610792600480360381019061078d9190614322565b611b57565b005b61079c611da2565b6040516107a99190614762565b60405180910390f35b6107ba611dc8565b6040516107c791906146e8565b60405180910390f35b6107ea60048036038101906107e5919061425b565b611dec565b6040516107f791906148da565b60405180910390f35b610808611e73565b60405161081591906148da565b60405180910390f35b61083860048036038101906108339190614232565b611e78565b604051610847939291906148a3565b60405180910390f35b61086a60048036038101906108659190614454565b611eda565b60405161087791906148da565b60405180910390f35b61089a60048036038101906108959190614367565b61203f565b005b603d5481565b606060038054600181600116156101000203166002900480601f01602080910402602001604051908101604052809291908181526020018280546001816001161561010002031660029004801561093a5780601f1061090f5761010080835404028352916020019161093a565b820191906000526020600020905b81548152906001019060200180831161091d57829003601f168201915b5050505050905090565b603f6020528060005260406000206000915090505481565b60006109706109696121e9565b84846121f1565b6001905092915050565b6000600254905090565b60008114156109c8576040517f08c379a00000000000000000000000000000000000000000000000000000000081526004016109bf9061479f565b60405180910390fd5b6000603f60003373ffffffffffffffffffffffffffffffffffffffff1673ffffffffffffffffffffffffffffffffffffffff168152602001908152602001600020549050610a3f7f00000000000000000000000000000000000000000000000000000000000000008261216190919063ffffffff16565b4211610a80576040517f08c379a0000000000000000000000000000000000000000000000000000000008152600401610a77906147bf565b60405180910390fd5b7f0000000000000000000000000000000000000000000000000000000000000000610ae6610ad77f00000000000000000000000000000000000000000000000000000000000000008461216190919063ffffffff16565b426123e890919063ffffffff16565b1115610b27576040517f08c379a0000000000000000000000000000000000000000000000000000000008152600401610b1e9061481f565b60405180910390fd5b6000610b3233611027565b90506000818411610b435783610b45565b815b9050610b5333836001612432565b50610b5e3382612534565b6000610b7382846123e890919063ffffffff16565b1415610bbf576000603f60003373ffffffffffffffffffffffffffffffffffffffff1673ffffffffffffffffffffffffffffffffffffffff168152602001908152602001600020819055505b610c0a85827f000000000000000000000000000000000000000000000000000000000000000073ffffffffffffffffffffffffffffffffffffffff166126f89092919063ffffffff16565b604260003373ffffffffffffffffffffffffffffffffffffffff1673ffffffffffffffffffffffffffffffffffffffff168152602001908152602001600020600090558473ffffffffffffffffffffffffffffffffffffffff163373ffffffffffffffffffffffffffffffffffffffff167fd12200efa34901b99367694174c3b0d32c99585fdf37c7c26892136ddd0836d983604051610caa91906148da565b60405180910390a35050505050565b6000610cc684848461279a565b610d8784610cd26121e9565b610d8285604051806060016040528060288152602001614b6f60289139600160008b73ffffffffffffffffffffffffffffffffffffffff1673ffffffffffffffffffffffffffffffffffffffff1681526020019081526020016000206000610d386121e9565b73ffffffffffffffffffffffffffffffffffffffff1673ffffffffffffffffffffffffffffffffffffffff168152602001908152602001600020546129039092919063ffffffff16565b6121f1565b600190509392505050565b6006602052816000526040600020602052806000526040600020600091509150508060000160009054906101000a90046fffffffffffffffffffffffffffffffff16908060000160109054906101000a90046fffffffffffffffffffffffffffffffff16905082565b7f000000000000000000000000000000000000000000000000000000000000000081565b6000600560009054906101000a900460ff16905090565b6000603c60008373ffffffffffffffffffffffffffffffffffffffff1673ffffffffffffffffffffffffffffffffffffffff16815260200190815260200160002060020160008473ffffffffffffffffffffffffffffffffffffffff1673ffffffffffffffffffffffffffffffffffffffff16815260200190815260200160002054905092915050565b7f000000000000000000000000000000000000000000000000000000000000000081565b6000610f8d610ef16121e9565b84610f888560016000610f026121e9565b73ffffffffffffffffffffffffffffffffffffffff1673ffffffffffffffffffffffffffffffffffffffff16815260200190815260200160002060008973ffffffffffffffffffffffffffffffffffffffff1673ffffffffffffffffffffffffffffffffffffffff1681526020019081526020016000205461216190919063ffffffff16565b6121f1565b6001905092915050565b7f000000000000000000000000000000000000000000000000000000000000000081565b60426020528060005260406000206000915090505481565b60418181548110610fe357600080fd5b906000526020600020016000915090505481565b60406020528060005260406000206000915090505481565b60446020528060005260406000206000915090505481565b60008060008373ffffffffffffffffffffffffffffffffffffffff1673ffffffffffffffffffffffffffffffffffffffff168152602001908152602001600020549050919050565b7f000000000000000000000000000000000000000000000000000000000000000081565b600061109e33611027565b14156110df576040517f08c379a00000000000000000000000000000000000000000000000000000000081526004016110d69061483f565b60405180910390fd5b42603f60003373ffffffffffffffffffffffffffffffffffffffff1673ffffffffffffffffffffffffffffffffffffffff168152602001908152602001600020819055503373ffffffffffffffffffffffffffffffffffffffff167ff52f50426b32362d3e6bb8cb36b7074756b224622def6352a59eac7f66ebe6e860405160405180910390a2565b603e6020528060005260406000206000915090505481565b60436020528060005260406000206000915090505481565b60076020528060005260406000206000915090505481565b600080603c60003073ffffffffffffffffffffffffffffffffffffffff1673ffffffffffffffffffffffffffffffffffffffff168152602001908152602001600020905060008060436000604260008873ffffffffffffffffffffffffffffffffffffffff1673ffffffffffffffffffffffffffffffffffffffff1681526020019081526020016000205481526020019081526020016000205414156112f9576112f482600101548360000160009054906101000a90046fffffffffffffffffffffffffffffffff166fffffffffffffffffffffffffffffffff168460000160109054906101000a90046fffffffffffffffffffffffffffffffff16603d54604260008a73ffffffffffffffffffffffffffffffffffffffff1673ffffffffffffffffffffffffffffffffffffffff168152602001908152602001600020546129c3565b61134d565b60436000604260008773ffffffffffffffffffffffffffffffffffffffff1673ffffffffffffffffffffffffffffffffffffffff168152602001908152602001600020548152602001908152602001600020545b905060006113a561135d86611027565b838560020160008973ffffffffffffffffffffffffffffffffffffffff1673ffffffffffffffffffffffffffffffffffffffff16815260200190815260200160002054612b13565b90506113f981603e60008873ffffffffffffffffffffffffffffffffffffffff1673ffffffffffffffffffffffffffffffffffffffff1681526020019081526020016000205461216190919063ffffffff16565b9350505050919050565b7f000000000000000000000000000000000000000000000000000000000000000081565b7f000000000000000000000000000000000000000000000000000000000000000081565b606060048054600181600116156101000203166002900480601f0160208091040260200160405190810160405280929190818152602001828054600181600116156101000203166002900480156114e35780601f106114b8576101008083540402835291602001916114e3565b820191906000526020600020905b8154815290600101906020018083116114c657829003601f168201915b5050505050905090565b7f000000000000000000000000000000000000000000000000000000000000000081565b60006115273361152033611027565b6000612432565b905060007fffffffffffffffffffffffffffffffffffffffffffffffffffffffffffffffff8314611558578261155a565b815b90506115a6816040518060400160405280600e81526020017f494e56414c49445f414d4f554e54000000000000000000000000000000000000815250846129039092919063ffffffff16565b603e60003373ffffffffffffffffffffffffffffffffffffffff1673ffffffffffffffffffffffffffffffffffffffff168152602001908152602001600020819055506116567f000000000000000000000000000000000000000000000000000000000000000085837f000000000000000000000000000000000000000000000000000000000000000073ffffffffffffffffffffffffffffffffffffffff16612b5c909392919063ffffffff16565b8373ffffffffffffffffffffffffffffffffffffffff163373ffffffffffffffffffffffffffffffffffffffff167f9310ccfcb8de723f578a9e4282ea9f521f05ae40dc08f3068dfad528a65ee3c7836040516116b391906148da565b60405180910390a350505050565b60006117846116ce6121e9565b8461177f85604051806060016040528060258152602001614c5960259139600160006116f86121e9565b73ffffffffffffffffffffffffffffffffffffffff1673ffffffffffffffffffffffffffffffffffffffff16815260200190815260200160002060008a73ffffffffffffffffffffffffffffffffffffffff1673ffffffffffffffffffffffffffffffffffffffff168152602001908152602001600020546129039092919063ffffffff16565b6121f1565b6001905092915050565b60006117a261179b6121e9565b848461279a565b6001905092915050565b601281565b60008114156117f5576040517f08c379a00000000000000000000000000000000000000000000000000000000081526004016117ec9061479f565b60405180910390fd5b6000604260003373ffffffffffffffffffffffffffffffffffffffff1673ffffffffffffffffffffffffffffffffffffffff1681526020019081526020016000205414611877576040517f08c379a000000000000000000000000000000000000000000000000000000000815260040161186e906147df565b60405180910390fd5b600061188283611027565b90506000611894843084603d54612c1d565b90506000811461196d577f2468f9268c60ad90e2d49edb0032c8a001e733ae888b3ab8e982edf535be1a7684826040516118cf929190614703565b60405180910390a161192981603e60008773ffffffffffffffffffffffffffffffffffffffff1673ffffffffffffffffffffffffffffffffffffffff1681526020019081526020016000205461216190919063ffffffff16565b603e60008673ffffffffffffffffffffffffffffffffffffffff1673ffffffffffffffffffffffffffffffffffffffff168152602001908152602001600020819055505b60006119a27f00000000000000000000000000000000000000000000000000000000000000004261216190919063ffffffff16565b905080604260003373ffffffffffffffffffffffffffffffffffffffff1673ffffffffffffffffffffffffffffffffffffffff168152602001908152602001600020819055506041819080600181540180825580915050600190039060005260206000200160009091909190915055611a2684603d5461216190919063ffffffff16565b603d81905550836044600083815260200190815260200160002081905550611a516000858786611eda565b603f60008773ffffffffffffffffffffffffffffffffffffffff1673ffffffffffffffffffffffffffffffffffffffff16815260200190815260200160002081905550611a9e8585612e2c565b611aeb3330867f000000000000000000000000000000000000000000000000000000000000000073ffffffffffffffffffffffffffffffffffffffff16612b5c909392919063ffffffff16565b8473ffffffffffffffffffffffffffffffffffffffff163373ffffffffffffffffffffffffffffffffffffffff167f5dac0c1b1112564a045ba943c9d50270893e8e826c49be8e7073adc713ab7bd786604051611b4891906148da565b60405180910390a35050505050565b7f000000000000000000000000000000000000000000000000000000000000000073ffffffffffffffffffffffffffffffffffffffff163373ffffffffffffffffffffffffffffffffffffffff1614611be5576040517f08c379a0000000000000000000000000000000000000000000000000000000008152600401611bdc906147ff565b60405180910390fd5b60005b82829050811015611d9d576000603c6000858585818110611c0557fe5b9050606002016040016020810190611c1d9190614232565b73ffffffffffffffffffffffffffffffffffffffff1673ffffffffffffffffffffffffffffffffffffffff1681526020019081526020016000209050611c9c848484818110611c6857fe5b9050606002016040016020810190611c809190614232565b82868686818110611c8d57fe5b90506060020160200135612ff3565b50838383818110611ca957fe5b9050606002016000016020810190611cc19190614402565b8160000160006101000a8154816fffffffffffffffffffffffffffffffff02191690836fffffffffffffffffffffffffffffffff160217905550838383818110611d0757fe5b9050606002016040016020810190611d1f9190614232565b73ffffffffffffffffffffffffffffffffffffffff167f87fa03892a0556cb6b8f97e6d533a150d4d55fcbf275fff5fa003fa636bcc7fa858585818110611d6257fe5b9050606002016000016020810190611d7a9190614402565b604051611d87919061485f565b60405180910390a2508080600101915050611be8565b505050565b600860009054906101000a900473ffffffffffffffffffffffffffffffffffffffff1681565b7f000000000000000000000000000000000000000000000000000000000000000081565b6000600160008473ffffffffffffffffffffffffffffffffffffffff1673ffffffffffffffffffffffffffffffffffffffff16815260200190815260200160002060008373ffffffffffffffffffffffffffffffffffffffff1673ffffffffffffffffffffffffffffffffffffffff16815260200190815260200160002054905092915050565b600181565b603c6020528060005260406000206000915090508060000160009054906101000a90046fffffffffffffffffffffffffffffffff16908060000160109054906101000a90046fffffffffffffffffffffffffffffffff16908060010154905083565b600080603f60008573ffffffffffffffffffffffffffffffffffffffff1673ffffffffffffffffffffffffffffffffffffffff1681526020019081526020016000205490506000811415611f32576000915050612037565b6000611f997f0000000000000000000000000000000000000000000000000000000000000000611f8b7f0000000000000000000000000000000000000000000000000000000000000000426123e890919063ffffffff16565b6123e890919063ffffffff16565b905081811115611fac5760009150612031565b6000878211611fbb5787611fbd565b425b905082811015611fd257829350505050612037565b61202d611fe8868961216190919063ffffffff16565b61201f611ffe868961329290919063ffffffff16565b612011858c61329290919063ffffffff16565b61216190919063ffffffff16565b61331890919063ffffffff16565b9250505b81925050505b949350505050565b6000612049613362565b905060095481116120a5576040517f08c379a000000000000000000000000000000000000000000000000000000000815260040180806020018281038252602e815260200180614b97602e913960400191505060405180910390fd5b806009819055506120f986868080601f016020809104026020016040519081016040528093929190818152602001838380828437600081840152601f19601f8201169050808301925050505050505061336b565b61214684848080601f016020809104026020016040519081016040528093929190818152602001838380828437600081840152601f19601f82011690508083019250505050505050613385565b61214f8261339f565b612158876133bd565b50505050505050565b6000808284019050838110156121df576040517f08c379a000000000000000000000000000000000000000000000000000000000815260040180806020018281038252601b8152602001807f536166654d6174683a206164646974696f6e206f766572666c6f77000000000081525060200191505060405180910390fd5b8091505092915050565b600033905090565b600073ffffffffffffffffffffffffffffffffffffffff168373ffffffffffffffffffffffffffffffffffffffff161415612277576040517f08c379a0000000000000000000000000000000000000000000000000000000008152600401808060200182810382526024815260200180614c0b6024913960400191505060405180910390fd5b600073ffffffffffffffffffffffffffffffffffffffff168273ffffffffffffffffffffffffffffffffffffffff1614156122fd576040517f08c379a0000000000000000000000000000000000000000000000000000000008152600401808060200182810382526022815260200180614b066022913960400191505060405180910390fd5b80600160008573ffffffffffffffffffffffffffffffffffffffff1673ffffffffffffffffffffffffffffffffffffffff16815260200190815260200160002060008473ffffffffffffffffffffffffffffffffffffffff1673ffffffffffffffffffffffffffffffffffffffff168152602001908152602001600020819055508173ffffffffffffffffffffffffffffffffffffffff168373ffffffffffffffffffffffffffffffffffffffff167f8c5be1e5ebec7d5bd14f71427d1e84f3dd0314c0f7b2291e5b200ac8c7c3b925836040518082815260200191505060405180910390a3505050565b600061242a83836040518060400160405280601e81526020017f536166654d6174683a207375627472616374696f6e206f766572666c6f770000815250612903565b905092915050565b600080612443853086603d54612c1d565b9050600061249982603e60008973ffffffffffffffffffffffffffffffffffffffff1673ffffffffffffffffffffffffffffffffffffffff1681526020019081526020016000205461216190919063ffffffff16565b9050600082146125285783156124ee5780603e60008873ffffffffffffffffffffffffffffffffffffffff1673ffffffffffffffffffffffffffffffffffffffff168152602001908152602001600020819055505b7f2468f9268c60ad90e2d49edb0032c8a001e733ae888b3ab8e982edf535be1a76868360405161251f929190614703565b60405180910390a15b80925050509392505050565b600073ffffffffffffffffffffffffffffffffffffffff168273ffffffffffffffffffffffffffffffffffffffff1614156125ba576040517f08c379a0000000000000000000000000000000000000000000000000000000008152600401808060200182810382526021815260200180614bc56021913960400191505060405180910390fd5b6125c682600083613401565b61263181604051806060016040528060228152602001614ae4602291396000808673ffffffffffffffffffffffffffffffffffffffff1673ffffffffffffffffffffffffffffffffffffffff168152602001908152602001600020546129039092919063ffffffff16565b6000808473ffffffffffffffffffffffffffffffffffffffff1673ffffffffffffffffffffffffffffffffffffffff16815260200190815260200160002081905550612688816002546123e890919063ffffffff16565b600281905550600073ffffffffffffffffffffffffffffffffffffffff168273ffffffffffffffffffffffffffffffffffffffff167fddf252ad1be2c89b69c2b068fc378daa952ba7f163c4a11628f55a4df523b3ef836040518082815260200191505060405180910390a35050565b6127958363a9059cbb60e01b8484604051602401808373ffffffffffffffffffffffffffffffffffffffff16815260200182815260200192505050604051602081830303815290604052907bffffffffffffffffffffffffffffffffffffffffffffffffffffffff19166020820180517bffffffffffffffffffffffffffffffffffffffffffffffffffffffff8381831617835250505050613604565b505050565b60006127a584611027565b90506127b384826001612432565b508273ffffffffffffffffffffffffffffffffffffffff168473ffffffffffffffffffffffffffffffffffffffff16146128f25760006127f284611027565b905061280084826001612432565b506000603f60008773ffffffffffffffffffffffffffffffffffffffff1673ffffffffffffffffffffffffffffffffffffffff16815260200190815260200160002054905061285181858785611eda565b603f60008773ffffffffffffffffffffffffffffffffffffffff1673ffffffffffffffffffffffffffffffffffffffff1681526020019081526020016000208190555083831480156128a4575060008114155b156128ef576000603f60008873ffffffffffffffffffffffffffffffffffffffff1673ffffffffffffffffffffffffffffffffffffffff168152602001908152602001600020819055505b50505b6128fd84848461384f565b50505050565b60008383111582906129b0576040517f08c379a00000000000000000000000000000000000000000000000000000000081526004018080602001828103825283818151815260200191508051906020019080838360005b8381101561297557808201518184015260208101905061295a565b50505050905090810190601f1680156129a25780820380516001836020036101000a031916815260200191505b509250505060405180910390fd5b5060008385039050809150509392505050565b6000808514806129d35750600083145b806129ef575081846fffffffffffffffffffffffffffffffff16145b80612a2c57507f0000000000000000000000000000000000000000000000000000000000000000846fffffffffffffffffffffffffffffffff1610155b15612a3957859050612b0a565b60007f00000000000000000000000000000000000000000000000000000000000000008311612a685782612a8a565b7f00000000000000000000000000000000000000000000000000000000000000005b90506000612ab3866fffffffffffffffffffffffffffffffff16836123e890919063ffffffff16565b9050612b0588612af787612ae9601260ff16600a0a612adb878e61329290919063ffffffff16565b61329290919063ffffffff16565b61331890919063ffffffff16565b61216190919063ffffffff16565b925050505b95945050505050565b6000612b53601260ff16600a0a612b45612b3685876123e890919063ffffffff16565b8761329290919063ffffffff16565b61331890919063ffffffff16565b90509392505050565b612c17846323b872dd60e01b858585604051602401808473ffffffffffffffffffffffffffffffffffffffff1681526020018373ffffffffffffffffffffffffffffffffffffffff1681526020018281526020019350505050604051602081830303815290604052907bffffffffffffffffffffffffffffffffffffffffffffffffffffffff19166020820180517bffffffffffffffffffffffffffffffffffffffffffffffffffffffff8381831617835250505050613604565b50505050565b600080603c60008673ffffffffffffffffffffffffffffffffffffffff1673ffffffffffffffffffffffffffffffffffffffff168152602001908152602001600020905060008160020160008873ffffffffffffffffffffffffffffffffffffffff1673ffffffffffffffffffffffffffffffffffffffff16815260200190815260200160002054905060008080604260008b73ffffffffffffffffffffffffffffffffffffffff1673ffffffffffffffffffffffffffffffffffffffff1681526020019081526020016000205414158015612d0f575060418381548110612d0157fe5b906000526020600020015442115b15612d46576043600060418581548110612d2557fe5b90600052602060002001548152602001908152602001600020549050612d54565b612d51888588612ff3565b90505b808314612e1d5760008714612d7157612d6e878285612b13565b91505b808460020160008b73ffffffffffffffffffffffffffffffffffffffff1673ffffffffffffffffffffffffffffffffffffffff168152602001908152602001600020819055508773ffffffffffffffffffffffffffffffffffffffff168973ffffffffffffffffffffffffffffffffffffffff167fbb123b5c06d5408bbea3c4fef481578175cfb432e3b482c6186f02ed9086585b83604051612e1491906148da565b60405180910390a35b81945050505050949350505050565b600073ffffffffffffffffffffffffffffffffffffffff168273ffffffffffffffffffffffffffffffffffffffff161415612ecf576040517f08c379a000000000000000000000000000000000000000000000000000000000815260040180806020018281038252601f8152602001807f45524332303a206d696e7420746f20746865207a65726f20616464726573730081525060200191505060405180910390fd5b612edb60008383613401565b612ef08160025461216190919063ffffffff16565b600281905550612f47816000808573ffffffffffffffffffffffffffffffffffffffff1673ffffffffffffffffffffffffffffffffffffffff1681526020019081526020016000205461216190919063ffffffff16565b6000808473ffffffffffffffffffffffffffffffffffffffff1673ffffffffffffffffffffffffffffffffffffffff168152602001908152602001600020819055508173ffffffffffffffffffffffffffffffffffffffff16600073ffffffffffffffffffffffffffffffffffffffff167fddf252ad1be2c89b69c2b068fc378daa952ba7f163c4a11628f55a4df523b3ef836040518082815260200191505060405180910390a35050565b6000808360010154905060008460000160109054906101000a90046fffffffffffffffffffffffffffffffff16905060005b60418054905081101561318357426041828154811061304057fe5b90600052602060002001541115801561308357506000604360006041848154811061306757fe5b9060005260206000200154815260200190815260200160002054145b15613176576130de838760000160009054906101000a90046fffffffffffffffffffffffffffffffff166fffffffffffffffffffffffffffffffff168488604186815481106130ce57fe5b90600052602060002001546129c3565b60436000604184815481106130ef57fe5b906000526020600020015481526020019081526020016000208190555061314b604060006041848154811061312057fe5b9060005260206000200154815260200190815260200160002054603d546123e890919063ffffffff16565b603d81905550426041828154811061315f57fe5b9060005260206000200154111561317557613183565b5b8080600101915050613025565b50806fffffffffffffffffffffffffffffffff164214156131a857819250505061328b565b60006131e8838760000160009054906101000a90046fffffffffffffffffffffffffffffffff166fffffffffffffffffffffffffffffffff168488613b10565b9050828114613249578086600101819055508673ffffffffffffffffffffffffffffffffffffffff167f5777ca300dfe5bead41006fbce4389794dbc0ed8d6cccebfaf94630aa04184bc8260405161324091906148da565b60405180910390a25b428660000160106101000a8154816fffffffffffffffffffffffffffffffff02191690836fffffffffffffffffffffffffffffffff1602179055508093505050505b9392505050565b6000808314156132a55760009050613312565b60008284029050828482816132b657fe5b041461330d576040517f08c379a0000000000000000000000000000000000000000000000000000000008152600401808060200182810382526021815260200180614b4e6021913960400191505060405180910390fd5b809150505b92915050565b600061335a83836040518060400160405280601a81526020017f536166654d6174683a206469766973696f6e206279207a65726f000000000000815250613c5f565b905092915050565b60006001905090565b806003908051906020019061338192919061408a565b5050565b806004908051906020019061339b92919061408a565b5050565b80600560006101000a81548160ff021916908360ff16021790555050565b80600860006101000a81548173ffffffffffffffffffffffffffffffffffffffff021916908373ffffffffffffffffffffffffffffffffffffffff16021790555050565b8173ffffffffffffffffffffffffffffffffffffffff168373ffffffffffffffffffffffffffffffffffffffff16141561343a576135ff565b600073ffffffffffffffffffffffffffffffffffffffff168373ffffffffffffffffffffffffffffffffffffffff161461349a57600061347984611027565b9050613498848261349385856123e890919063ffffffff16565b613d25565b505b600073ffffffffffffffffffffffffffffffffffffffff168273ffffffffffffffffffffffffffffffffffffffff16146134fa5760006134d983611027565b90506134f883826134f3858561216190919063ffffffff16565b613d25565b505b6000600860009054906101000a900473ffffffffffffffffffffffffffffffffffffffff169050600073ffffffffffffffffffffffffffffffffffffffff168173ffffffffffffffffffffffffffffffffffffffff16146135fd578073ffffffffffffffffffffffffffffffffffffffff16634a3931498585856040518463ffffffff1660e01b8152600401808473ffffffffffffffffffffffffffffffffffffffff1681526020018373ffffffffffffffffffffffffffffffffffffffff1681526020018281526020019350505050600060405180830381600087803b1580156135e457600080fd5b505af11580156135f8573d6000803e3d6000fd5b505050505b505b505050565b6136238273ffffffffffffffffffffffffffffffffffffffff1661403f565b613695576040517f08c379a000000000000000000000000000000000000000000000000000000000815260040180806020018281038252601f8152602001807f5361666545524332303a2063616c6c20746f206e6f6e2d636f6e74726163740081525060200191505060405180910390fd5b600060608373ffffffffffffffffffffffffffffffffffffffff16836040518082805190602001908083835b602083106136e457805182526020820191506020810190506020830392506136c1565b6001836020036101000a0380198251168184511680821785525050505050509050019150506000604051808303816000865af19150503d8060008114613746576040519150601f19603f3d011682016040523d82523d6000602084013e61374b565b606091505b5091509150816137c3576040517f08c379a00000000000000000000000000000000000000000000000000000000081526004018080602001828103825260208152602001807f5361666545524332303a206c6f772d6c6576656c2063616c6c206661696c656481525060200191505060405180910390fd5b600081511115613849578080602001905160208110156137e257600080fd5b8101908080519060200190929190505050613848576040517f08c379a000000000000000000000000000000000000000000000000000000000815260040180806020018281038252602a815260200180614c2f602a913960400191505060405180910390fd5b5b50505050565b600073ffffffffffffffffffffffffffffffffffffffff168373ffffffffffffffffffffffffffffffffffffffff1614156138d5576040517f08c379a0000000000000000000000000000000000000000000000000000000008152600401808060200182810382526025815260200180614be66025913960400191505060405180910390fd5b600073ffffffffffffffffffffffffffffffffffffffff168273ffffffffffffffffffffffffffffffffffffffff16141561395b576040517f08c379a0000000000000000000000000000000000000000000000000000000008152600401808060200182810382526023815260200180614ac16023913960400191505060405180910390fd5b613966838383613401565b6139d181604051806060016040528060268152602001614b28602691396000808773ffffffffffffffffffffffffffffffffffffffff1673ffffffffffffffffffffffffffffffffffffffff168152602001908152602001600020546129039092919063ffffffff16565b6000808573ffffffffffffffffffffffffffffffffffffffff1673ffffffffffffffffffffffffffffffffffffffff16815260200190815260200160002081905550613a64816000808573ffffffffffffffffffffffffffffffffffffffff1673ffffffffffffffffffffffffffffffffffffffff1681526020019081526020016000205461216190919063ffffffff16565b6000808473ffffffffffffffffffffffffffffffffffffffff1673ffffffffffffffffffffffffffffffffffffffff168152602001908152602001600020819055508173ffffffffffffffffffffffffffffffffffffffff168373ffffffffffffffffffffffffffffffffffffffff167fddf252ad1be2c89b69c2b068fc378daa952ba7f163c4a11628f55a4df523b3ef836040518082815260200191505060405180910390a3505050565b600080841480613b205750600082145b80613b3c575042836fffffffffffffffffffffffffffffffff16145b80613b7957507f0000000000000000000000000000000000000000000000000000000000000000836fffffffffffffffffffffffffffffffff1610155b15613b8657849050613c57565b60007f00000000000000000000000000000000000000000000000000000000000000004211613bb55742613bd7565b7f00000000000000000000000000000000000000000000000000000000000000005b90506000613c00856fffffffffffffffffffffffffffffffff16836123e890919063ffffffff16565b9050613c5287613c4486613c36601260ff16600a0a613c28878d61329290919063ffffffff16565b61329290919063ffffffff16565b61331890919063ffffffff16565b61216190919063ffffffff16565b925050505b949350505050565b60008083118290613d0b576040517f08c379a00000000000000000000000000000000000000000000000000000000081526004018080602001828103825283818151815260200191508051906020019080838360005b83811015613cd0578082015181840152602081019050613cb5565b50505050905090810190601f168015613cfd5780820380516001836020036101000a031916815260200191505b509250505060405180910390fd5b506000838581613d1757fe5b049050809150509392505050565b60004390506000600760008673ffffffffffffffffffffffffffffffffffffffff1673ffffffffffffffffffffffffffffffffffffffff1681526020019081526020016000205490506000600660008773ffffffffffffffffffffffffffffffffffffffff1673ffffffffffffffffffffffffffffffffffffffff168152602001908152602001600020905060008214158015613e295750826fffffffffffffffffffffffffffffffff16816000613de76001866123e890919063ffffffff16565b815260200190815260200160002060000160009054906101000a90046fffffffffffffffffffffffffffffffff166fffffffffffffffffffffffffffffffff16145b15613e925783816000613e466001866123e890919063ffffffff16565b815260200190815260200160002060000160106101000a8154816fffffffffffffffffffffffffffffffff02191690836fffffffffffffffffffffffffffffffff160217905550613fb6565b6040518060400160405280846fffffffffffffffffffffffffffffffff168152602001856fffffffffffffffffffffffffffffffff1681525081600084815260200190815260200160002060008201518160000160006101000a8154816fffffffffffffffffffffffffffffffff02191690836fffffffffffffffffffffffffffffffff16021790555060208201518160000160106101000a8154816fffffffffffffffffffffffffffffffff02191690836fffffffffffffffffffffffffffffffff160217905550905050613f7260018361216190919063ffffffff16565b600760008873ffffffffffffffffffffffffffffffffffffffff1673ffffffffffffffffffffffffffffffffffffffff168152602001908152602001600020819055505b7f2cd3c83ddac2953ee75f53265d9ea4463eaf05030e5459a1b7e63819b7ce88f7868686604051808473ffffffffffffffffffffffffffffffffffffffff168152602001836fffffffffffffffffffffffffffffffff168152602001826fffffffffffffffffffffffffffffffff168152602001935050505060405180910390a1505050505050565b60008060007fc5d2460186f7233c927e7db2dcc703c0e500b653ca82273b7bfad8045d85a47060001b9050833f915080821415801561408157506000801b8214155b92505050919050565b828054600181600116156101000203166002900490600052602060002090601f0160209004810192826140c05760008555614107565b82601f106140d957805160ff1916838001178555614107565b82800160010185558215614107579182015b828111156141065782518255916020019190600101906140eb565b5b5090506141149190614118565b5090565b5b80821115614131576000816000905550600101614119565b5090565b60008135905061414481614a4d565b92915050565b60008083601f84011261415c57600080fd5b8235905067ffffffffffffffff81111561417557600080fd5b60208301915083606082028301111561418d57600080fd5b9250929050565b6000813590506141a381614a64565b92915050565b60008083601f8401126141bb57600080fd5b8235905067ffffffffffffffff8111156141d457600080fd5b6020830191508360018202830111156141ec57600080fd5b9250929050565b60008135905061420281614a7b565b92915050565b60008135905061421781614a92565b92915050565b60008135905061422c81614aa9565b92915050565b60006020828403121561424457600080fd5b600061425284828501614135565b91505092915050565b6000806040838503121561426e57600080fd5b600061427c85828601614135565b925050602061428d85828601614135565b9150509250929050565b6000806000606084860312156142ac57600080fd5b60006142ba86828701614135565b93505060206142cb86828701614135565b92505060406142dc86828701614208565b9150509250925092565b600080604083850312156142f957600080fd5b600061430785828601614135565b925050602061431885828601614208565b9150509250929050565b6000806020838503121561433557600080fd5b600083013567ffffffffffffffff81111561434f57600080fd5b61435b8582860161414a565b92509250509250929050565b6000806000806000806080878903121561438057600080fd5b600061438e89828a01614194565b965050602087013567ffffffffffffffff8111156143ab57600080fd5b6143b789828a016141a9565b9550955050604087013567ffffffffffffffff8111156143d657600080fd5b6143e289828a016141a9565b935093505060606143f589828a0161421d565b9150509295509295509295565b60006020828403121561441457600080fd5b6000614422848285016141f3565b91505092915050565b60006020828403121561443d57600080fd5b600061444b84828501614208565b91505092915050565b6000806000806080858703121561446a57600080fd5b600061447887828801614208565b945050602061448987828801614208565b935050604061449a87828801614135565b92505060606144ab87828801614208565b91505092959194509250565b6144c08161492c565b82525050565b6144cf8161493e565b82525050565b6144de816149af565b82525050565b6144ed816149d3565b82525050565b60006144fe82614910565b614508818561491b565b9350614518818560208601614a09565b61452181614a3c565b840191505092915050565b600061453960138361491b565b91507f494e56414c49445f5a45524f5f414d4f554e54000000000000000000000000006000830152602082019050919050565b600061457960158361491b565b91507f494e53554646494349454e545f434f4f4c444f574e00000000000000000000006000830152602082019050919050565b60006145b9600e8361491b565b91507f594f5520415245205354414b45440000000000000000000000000000000000006000830152602082019050919050565b60006145f960158361491b565b91507f4f4e4c595f454d495353494f4e5f4d414e4147455200000000000000000000006000830152602082019050919050565b600061463960178361491b565b91507f554e5354414b455f57494e444f575f46494e49534845440000000000000000006000830152602082019050919050565b6000614679601b8361491b565b91507f494e56414c49445f42414c414e43455f4f4e5f434f4f4c444f574e00000000006000830152602082019050919050565b6146b58161495c565b82525050565b6146c4816149f7565b82525050565b6146d381614998565b82525050565b6146e2816149a2565b82525050565b60006020820190506146fd60008301846144b7565b92915050565b600060408201905061471860008301856144b7565b61472560208301846146ca565b9392505050565b600060208201905061474160008301846144c6565b92915050565b600060208201905061475c60008301846144d5565b92915050565b600060208201905061477760008301846144e4565b92915050565b6000602082019050818103600083015261479781846144f3565b905092915050565b600060208201905081810360008301526147b88161452c565b9050919050565b600060208201905081810360008301526147d88161456c565b9050919050565b600060208201905081810360008301526147f8816145ac565b9050919050565b60006020820190508181036000830152614818816145ec565b9050919050565b600060208201905081810360008301526148388161462c565b9050919050565b600060208201905081810360008301526148588161466c565b9050919050565b600060208201905061487460008301846146bb565b92915050565b600060408201905061488f60008301856146ac565b61489c60208301846146ac565b9392505050565b60006060820190506148b860008301866146ac565b6148c560208301856146ac565b6148d260408301846146ca565b949350505050565b60006020820190506148ef60008301846146ca565b92915050565b600060208201905061490a60008301846146d9565b92915050565b600081519050919050565b600082825260208201905092915050565b600061493782614978565b9050919050565b60008115159050919050565b60006149558261492c565b9050919050565b60006fffffffffffffffffffffffffffffffff82169050919050565b600073ffffffffffffffffffffffffffffffffffffffff82169050919050565b6000819050919050565b600060ff82169050919050565b60006149ba826149c1565b9050919050565b60006149cc82614978565b9050919050565b60006149de826149e5565b9050919050565b60006149f082614978565b9050919050565b6000614a028261495c565b9050919050565b60005b83811015614a27578082015181840152602081019050614a0c565b83811115614a36576000848401525b50505050565b6000601f19601f8301169050919050565b614a568161492c565b8114614a6157600080fd5b50565b614a6d8161494a565b8114614a7857600080fd5b50565b614a848161495c565b8114614a8f57600080fd5b50565b614a9b81614998565b8114614aa657600080fd5b50565b614ab2816149a2565b8114614abd57600080fd5b5056fe45524332303a207472616e7366657220746f20746865207a65726f206164647265737345524332303a206275726e20616d6f756e7420657863656564732062616c616e636545524332303a20617070726f766520746f20746865207a65726f206164647265737345524332303a207472616e7366657220616d6f756e7420657863656564732062616c616e6365536166654d6174683a206d756c7469706c69636174696f6e206f766572666c6f7745524332303a207472616e7366657220616d6f756e74206578636565647320616c6c6f77616e6365436f6e747261637420696e7374616e63652068617320616c7265616479206265656e20696e697469616c697a656445524332303a206275726e2066726f6d20746865207a65726f206164647265737345524332303a207472616e736665722066726f6d20746865207a65726f206164647265737345524332303a20617070726f76652066726f6d20746865207a65726f20616464726573735361666545524332303a204552433230206f7065726174696f6e20646964206e6f74207375636365656445524332303a2064656372656173656420616c6c6f77616e63652062656c6f77207a65726fa26469706673582212203431fa48b8565b2901813978db37f2567c2453090ca8066cbbeb4c833627af7864736f6c63430007050033",
  "linkReferences": {},
  "deployedLinkReferences": {}
}