{
  "_format": "hh-sol-artifact-1",
  "contractName": "StakedToken",
  "sourceName": "contracts/stake/StakedToken.sol",
  "abi": [
    {
      "inputs": [
        {
          "internalType": "contract IERC20",
          "name": "stakedToken",
          "type": "address"
        },
        {
          "internalType": "contract IERC20",
          "name": "rewardToken",
          "type": "address"
        },
        {
          "internalType": "uint256",
          "name": "cooldownSeconds",
          "type": "uint256"
        },
        {
          "internalType": "uint256",
          "name": "unstakeWindow",
          "type": "uint256"
        },
        {
          "internalType": "address",
          "name": "rewardsVault",
          "type": "address"
        },
        {
          "internalType": "address",
          "name": "emissionManager",
          "type": "address"
        },
        {
          "internalType": "uint128",
          "name": "distributionDuration",
          "type": "uint128"
        },
        {
          "internalType": "string",
          "name": "name",
          "type": "string"
        },
        {
          "internalType": "string",
          "name": "symbol",
          "type": "string"
        },
        {
          "internalType": "uint8",
          "name": "decimals",
          "type": "uint8"
        }
      ],
      "stateMutability": "nonpayable",
      "type": "constructor"
    },
    {
      "anonymous": false,
      "inputs": [
        {
          "indexed": true,
          "internalType": "address",
          "name": "owner",
          "type": "address"
        },
        {
          "indexed": true,
          "internalType": "address",
          "name": "spender",
          "type": "address"
        },
        {
          "indexed": false,
          "internalType": "uint256",
          "name": "value",
          "type": "uint256"
        }
      ],
      "name": "Approval",
      "type": "event"
    },
    {
      "anonymous": false,
      "inputs": [
        {
          "indexed": true,
          "internalType": "address",
          "name": "asset",
          "type": "address"
        },
        {
          "indexed": false,
          "internalType": "uint256",
          "name": "emission",
          "type": "uint256"
        }
      ],
      "name": "AssetConfigUpdated",
      "type": "event"
    },
    {
      "anonymous": false,
      "inputs": [
        {
          "indexed": true,
          "internalType": "address",
          "name": "asset",
          "type": "address"
        },
        {
          "indexed": false,
          "internalType": "uint256",
          "name": "index",
          "type": "uint256"
        }
      ],
      "name": "AssetIndexUpdated",
      "type": "event"
    },
    {
      "anonymous": false,
      "inputs": [
        {
          "indexed": true,
          "internalType": "address",
          "name": "user",
          "type": "address"
        }
      ],
      "name": "Cooldown",
      "type": "event"
    },
    {
      "anonymous": false,
      "inputs": [
        {
          "indexed": true,
          "internalType": "address",
          "name": "from",
          "type": "address"
        },
        {
          "indexed": true,
          "internalType": "address",
          "name": "to",
          "type": "address"
        },
        {
          "indexed": false,
          "internalType": "uint256",
          "name": "amount",
          "type": "uint256"
        }
      ],
      "name": "Redeem",
      "type": "event"
    },
    {
      "anonymous": false,
      "inputs": [
        {
          "indexed": false,
          "internalType": "address",
          "name": "user",
          "type": "address"
        },
        {
          "indexed": false,
          "internalType": "uint256",
          "name": "amount",
          "type": "uint256"
        }
      ],
      "name": "RewardsAccrued",
      "type": "event"
    },
    {
      "anonymous": false,
      "inputs": [
        {
          "indexed": true,
          "internalType": "address",
          "name": "from",
          "type": "address"
        },
        {
          "indexed": true,
          "internalType": "address",
          "name": "to",
          "type": "address"
        },
        {
          "indexed": false,
          "internalType": "uint256",
          "name": "amount",
          "type": "uint256"
        }
      ],
      "name": "RewardsClaimed",
      "type": "event"
    },
    {
      "anonymous": false,
      "inputs": [
        {
          "indexed": false,
          "internalType": "address",
          "name": "owner",
          "type": "address"
        },
        {
          "indexed": false,
          "internalType": "uint128",
          "name": "oldValue",
          "type": "uint128"
        },
        {
          "indexed": false,
          "internalType": "uint128",
          "name": "newValue",
          "type": "uint128"
        }
      ],
      "name": "SnapshotDone",
      "type": "event"
    },
    {
      "anonymous": false,
      "inputs": [
        {
          "indexed": true,
          "internalType": "address",
          "name": "from",
          "type": "address"
        },
        {
          "indexed": true,
          "internalType": "address",
          "name": "onBehalfOf",
          "type": "address"
        },
        {
          "indexed": false,
          "internalType": "uint256",
          "name": "amount",
          "type": "uint256"
        }
      ],
      "name": "Staked",
      "type": "event"
    },
    {
      "anonymous": false,
      "inputs": [
        {
          "indexed": true,
          "internalType": "address",
          "name": "from",
          "type": "address"
        },
        {
          "indexed": true,
          "internalType": "address",
          "name": "to",
          "type": "address"
        },
        {
          "indexed": false,
          "internalType": "uint256",
          "name": "value",
          "type": "uint256"
        }
      ],
      "name": "Transfer",
      "type": "event"
    },
    {
      "anonymous": false,
      "inputs": [
        {
          "indexed": true,
          "internalType": "address",
          "name": "user",
          "type": "address"
        },
        {
          "indexed": true,
          "internalType": "address",
          "name": "asset",
          "type": "address"
        },
        {
          "indexed": false,
          "internalType": "uint256",
          "name": "index",
          "type": "uint256"
        }
      ],
      "name": "UserIndexUpdated",
      "type": "event"
    },
    {
      "inputs": [],
      "name": "COOLDOWN_SECONDS",
      "outputs": [
        {
          "internalType": "uint256",
          "name": "",
          "type": "uint256"
        }
      ],
      "stateMutability": "view",
      "type": "function"
    },
    {
      "inputs": [],
      "name": "DISTRIBUTION_END",
      "outputs": [
        {
          "internalType": "uint256",
          "name": "",
          "type": "uint256"
        }
      ],
      "stateMutability": "view",
      "type": "function"
    },
    {
      "inputs": [],
      "name": "EMISSION_MANAGER",
      "outputs": [
        {
          "internalType": "address",
          "name": "",
          "type": "address"
        }
      ],
      "stateMutability": "view",
      "type": "function"
    },
    {
      "inputs": [],
      "name": "LOCK_SECONDS",
      "outputs": [
        {
          "internalType": "uint256",
          "name": "",
          "type": "uint256"
        }
      ],
      "stateMutability": "view",
      "type": "function"
    },
    {
      "inputs": [],
      "name": "PRECISION",
      "outputs": [
        {
          "internalType": "uint8",
          "name": "",
          "type": "uint8"
        }
      ],
      "stateMutability": "view",
      "type": "function"
    },
    {
      "inputs": [],
      "name": "REVISION",
      "outputs": [
        {
          "internalType": "uint256",
          "name": "",
          "type": "uint256"
        }
      ],
      "stateMutability": "view",
      "type": "function"
    },
    {
      "inputs": [],
      "name": "REWARDS_VAULT",
      "outputs": [
        {
          "internalType": "address",
          "name": "",
          "type": "address"
        }
      ],
      "stateMutability": "view",
      "type": "function"
    },
    {
      "inputs": [],
      "name": "REWARD_TOKEN",
      "outputs": [
        {
          "internalType": "contract IERC20",
          "name": "",
          "type": "address"
        }
      ],
      "stateMutability": "view",
      "type": "function"
    },
    {
      "inputs": [],
      "name": "STAKED_TOKEN",
      "outputs": [
        {
          "internalType": "contract IERC20",
          "name": "",
          "type": "address"
        }
      ],
      "stateMutability": "view",
      "type": "function"
    },
    {
      "inputs": [],
      "name": "UNSTAKE_WINDOW",
      "outputs": [
        {
          "internalType": "uint256",
          "name": "",
          "type": "uint256"
        }
      ],
      "stateMutability": "view",
      "type": "function"
    },
    {
      "inputs": [],
      "name": "_aaveGovernance",
      "outputs": [
        {
          "internalType": "contract ITransferHook",
          "name": "",
          "type": "address"
        }
      ],
      "stateMutability": "view",
      "type": "function"
    },
    {
      "inputs": [
        {
          "internalType": "address",
          "name": "",
          "type": "address"
        }
      ],
      "name": "_countsSnapshots",
      "outputs": [
        {
          "internalType": "uint256",
          "name": "",
          "type": "uint256"
        }
      ],
      "stateMutability": "view",
      "type": "function"
    },
    {
      "inputs": [
        {
          "internalType": "uint256",
          "name": "X",
          "type": "uint256"
        },
        {
          "internalType": "uint256",
          "name": "Y",
          "type": "uint256"
        },
        {
          "internalType": "uint256",
          "name": "Z",
          "type": "uint256"
        },
        {
          "internalType": "uint256",
          "name": "m",
          "type": "uint256"
        }
      ],
      "name": "_getCoefficientA",
      "outputs": [
        {
          "internalType": "uint256",
          "name": "",
          "type": "uint256"
        }
      ],
      "stateMutability": "pure",
      "type": "function"
    },
    {
      "inputs": [
        {
          "internalType": "uint256",
          "name": "X",
          "type": "uint256"
        },
        {
          "internalType": "uint256",
          "name": "Y",
          "type": "uint256"
        },
        {
          "internalType": "uint256",
          "name": "Z",
          "type": "uint256"
        },
        {
          "internalType": "uint256",
          "name": "m",
          "type": "uint256"
        }
      ],
      "name": "_getCoefficientB",
      "outputs": [
        {
          "internalType": "uint256",
          "name": "",
          "type": "uint256"
        }
      ],
      "stateMutability": "pure",
      "type": "function"
    },
    {
      "inputs": [
        {
          "internalType": "uint256",
          "name": "X",
          "type": "uint256"
        },
        {
          "internalType": "uint256",
          "name": "Y",
          "type": "uint256"
        },
        {
          "internalType": "uint256",
          "name": "Z",
          "type": "uint256"
        },
        {
          "internalType": "uint256",
          "name": "m",
          "type": "uint256"
        }
      ],
      "name": "_getCoefficientC",
      "outputs": [
        {
          "internalType": "uint256",
          "name": "",
          "type": "uint256"
        }
      ],
      "stateMutability": "pure",
      "type": "function"
    },
    {
      "inputs": [
        {
          "internalType": "uint256",
          "name": "X",
          "type": "uint256"
        },
        {
          "internalType": "uint256",
          "name": "Y",
          "type": "uint256"
        },
        {
          "internalType": "uint256",
          "name": "Z",
          "type": "uint256"
        }
      ],
      "name": "_getCoefficientU",
      "outputs": [
        {
          "internalType": "uint256",
          "name": "",
          "type": "uint256"
        }
      ],
      "stateMutability": "pure",
      "type": "function"
    },
    {
      "inputs": [
        {
          "internalType": "uint256",
          "name": "X",
          "type": "uint256"
        },
        {
          "internalType": "uint256",
          "name": "Y",
          "type": "uint256"
        },
        {
          "internalType": "uint256",
          "name": "Z",
          "type": "uint256"
        },
        {
          "internalType": "uint256",
          "name": "m",
          "type": "uint256"
        },
        {
          "internalType": "uint256",
          "name": "userCount",
          "type": "uint256"
        }
      ],
      "name": "_getEmissionPerSecond",
      "outputs": [
        {
          "internalType": "uint128",
          "name": "",
          "type": "uint128"
        }
      ],
      "stateMutability": "pure",
      "type": "function"
    },
    {
      "inputs": [
        {
          "internalType": "address",
          "name": "",
          "type": "address"
        },
        {
          "internalType": "uint256",
          "name": "",
          "type": "uint256"
        }
      ],
      "name": "_snapshots",
      "outputs": [
        {
          "internalType": "uint128",
          "name": "blockNumber",
          "type": "uint128"
        },
        {
          "internalType": "uint128",
          "name": "value",
          "type": "uint128"
        }
      ],
      "stateMutability": "view",
      "type": "function"
    },
    {
      "inputs": [
        {
          "internalType": "address",
          "name": "owner",
          "type": "address"
        },
        {
          "internalType": "address",
          "name": "spender",
          "type": "address"
        }
      ],
      "name": "allowance",
      "outputs": [
        {
          "internalType": "uint256",
          "name": "",
          "type": "uint256"
        }
      ],
      "stateMutability": "view",
      "type": "function"
    },
    {
      "inputs": [
        {
          "internalType": "address",
          "name": "spender",
          "type": "address"
        },
        {
          "internalType": "uint256",
          "name": "amount",
          "type": "uint256"
        }
      ],
      "name": "approve",
      "outputs": [
        {
          "internalType": "bool",
          "name": "",
          "type": "bool"
        }
      ],
      "stateMutability": "nonpayable",
      "type": "function"
    },
    {
      "inputs": [
        {
          "internalType": "address",
          "name": "",
          "type": "address"
        }
      ],
      "name": "assets",
      "outputs": [
        {
          "internalType": "uint128",
          "name": "emissionPerSecond",
          "type": "uint128"
        },
        {
          "internalType": "uint128",
          "name": "lastUpdateTimestamp",
          "type": "uint128"
        },
        {
          "internalType": "uint256",
          "name": "index",
          "type": "uint256"
        }
      ],
      "stateMutability": "view",
      "type": "function"
    },
    {
      "inputs": [
        {
          "internalType": "address",
          "name": "account",
          "type": "address"
        }
      ],
      "name": "balanceOf",
      "outputs": [
        {
          "internalType": "uint256",
          "name": "",
          "type": "uint256"
        }
      ],
      "stateMutability": "view",
      "type": "function"
    },
    {
      "inputs": [
        {
          "internalType": "address",
          "name": "to",
          "type": "address"
        },
        {
          "internalType": "uint256",
          "name": "amount",
          "type": "uint256"
        }
      ],
      "name": "claimRewards",
      "outputs": [],
      "stateMutability": "nonpayable",
      "type": "function"
    },
    {
      "inputs": [
        {
          "components": [
            {
              "internalType": "uint128",
              "name": "emissionPerSecond",
              "type": "uint128"
            },
            {
              "internalType": "uint256",
              "name": "totalStaked",
              "type": "uint256"
            },
            {
              "internalType": "address",
              "name": "underlyingAsset",
              "type": "address"
            }
          ],
          "internalType": "struct DistributionTypes.AssetConfigInput[]",
          "name": "assetsConfigInput",
          "type": "tuple[]"
        }
      ],
      "name": "configureAssets",
      "outputs": [],
      "stateMutability": "nonpayable",
      "type": "function"
    },
    {
      "inputs": [
        {
          "internalType": "uint256",
          "name": "X",
          "type": "uint256"
        },
        {
          "internalType": "uint256",
          "name": "Y",
          "type": "uint256"
        },
        {
          "internalType": "uint256",
          "name": "Z",
          "type": "uint256"
        },
        {
          "internalType": "uint256",
          "name": "m",
          "type": "uint256"
        }
      ],
      "name": "configureEmissionPerSecond",
      "outputs": [],
      "stateMutability": "nonpayable",
      "type": "function"
    },
    {
      "inputs": [],
      "name": "cooldown",
      "outputs": [],
      "stateMutability": "nonpayable",
      "type": "function"
    },
    {
      "inputs": [],
      "name": "currentSupply",
      "outputs": [
        {
          "internalType": "uint256",
          "name": "",
          "type": "uint256"
        }
      ],
      "stateMutability": "view",
      "type": "function"
    },
    {
      "inputs": [],
      "name": "decimals",
      "outputs": [
        {
          "internalType": "uint8",
          "name": "",
          "type": "uint8"
        }
      ],
      "stateMutability": "view",
      "type": "function"
    },
    {
      "inputs": [
        {
          "internalType": "address",
          "name": "spender",
          "type": "address"
        },
        {
          "internalType": "uint256",
          "name": "subtractedValue",
          "type": "uint256"
        }
      ],
      "name": "decreaseAllowance",
      "outputs": [
        {
          "internalType": "bool",
          "name": "",
          "type": "bool"
        }
      ],
      "stateMutability": "nonpayable",
      "type": "function"
    },
    {
      "inputs": [],
      "name": "getAssetEmissionPerSecond",
      "outputs": [
        {
          "internalType": "uint256",
          "name": "",
          "type": "uint256"
        }
      ],
      "stateMutability": "view",
      "type": "function"
    },
    {
      "inputs": [
        {
          "internalType": "uint256",
          "name": "fromCooldownTimestamp",
          "type": "uint256"
        },
        {
          "internalType": "uint256",
          "name": "amountToReceive",
          "type": "uint256"
        },
        {
          "internalType": "address",
          "name": "toAddress",
          "type": "address"
        },
        {
          "internalType": "uint256",
          "name": "toBalance",
          "type": "uint256"
        }
      ],
      "name": "getNextCooldownTimestamp",
      "outputs": [
        {
          "internalType": "uint256",
          "name": "",
          "type": "uint256"
        }
      ],
      "stateMutability": "view",
      "type": "function"
    },
    {
      "inputs": [
        {
          "internalType": "address",
          "name": "staker",
          "type": "address"
        }
      ],
      "name": "getTotalRewardsBalance",
      "outputs": [
        {
          "internalType": "uint256",
          "name": "",
          "type": "uint256"
        }
      ],
      "stateMutability": "view",
      "type": "function"
    },
    {
      "inputs": [
        {
          "internalType": "address",
          "name": "user",
          "type": "address"
        },
        {
          "internalType": "address",
          "name": "asset",
          "type": "address"
        }
      ],
      "name": "getUserAssetData",
      "outputs": [
        {
          "internalType": "uint256",
          "name": "",
          "type": "uint256"
        }
      ],
      "stateMutability": "view",
      "type": "function"
    },
    {
      "inputs": [
        {
          "internalType": "address",
          "name": "user",
          "type": "address"
        }
      ],
      "name": "getUserLockEndTimestamp",
      "outputs": [
        {
          "internalType": "uint256",
          "name": "",
          "type": "uint256"
        }
      ],
      "stateMutability": "view",
      "type": "function"
    },
    {
      "inputs": [
        {
          "internalType": "address",
          "name": "spender",
          "type": "address"
        },
        {
          "internalType": "uint256",
          "name": "addedValue",
          "type": "uint256"
        }
      ],
      "name": "increaseAllowance",
      "outputs": [
        {
          "internalType": "bool",
          "name": "",
          "type": "bool"
        }
      ],
      "stateMutability": "nonpayable",
      "type": "function"
    },
    {
      "inputs": [
        {
          "internalType": "uint256",
          "name": "",
          "type": "uint256"
        }
      ],
      "name": "indexAtTimestamp",
      "outputs": [
        {
          "internalType": "uint256",
          "name": "",
          "type": "uint256"
        }
      ],
      "stateMutability": "view",
      "type": "function"
    },
    {
      "inputs": [
        {
          "internalType": "contract ITransferHook",
          "name": "aaveGovernance",
          "type": "address"
        },
        {
          "internalType": "string",
          "name": "name",
          "type": "string"
        },
        {
          "internalType": "string",
          "name": "symbol",
          "type": "string"
        },
        {
          "internalType": "uint8",
          "name": "decimals",
          "type": "uint8"
        }
      ],
      "name": "initialize",
      "outputs": [],
      "stateMutability": "nonpayable",
      "type": "function"
    },
    {
      "inputs": [],
      "name": "name",
      "outputs": [
        {
          "internalType": "string",
          "name": "",
          "type": "string"
        }
      ],
      "stateMutability": "view",
      "type": "function"
    },
    {
      "inputs": [
        {
          "internalType": "address",
          "name": "to",
          "type": "address"
        },
        {
          "internalType": "uint256",
          "name": "amount",
          "type": "uint256"
        }
      ],
      "name": "redeem",
      "outputs": [],
      "stateMutability": "nonpayable",
      "type": "function"
    },
    {
      "inputs": [
        {
          "internalType": "address",
          "name": "onBehalfOf",
          "type": "address"
        },
        {
          "internalType": "uint256",
          "name": "amount",
          "type": "uint256"
        }
      ],
      "name": "stake",
      "outputs": [],
      "stateMutability": "nonpayable",
      "type": "function"
    },
    {
      "inputs": [
        {
          "internalType": "address",
          "name": "",
          "type": "address"
        }
      ],
      "name": "stakerRewardsToClaim",
      "outputs": [
        {
          "internalType": "uint256",
          "name": "",
          "type": "uint256"
        }
      ],
      "stateMutability": "view",
      "type": "function"
    },
    {
      "inputs": [
        {
          "internalType": "address",
          "name": "",
          "type": "address"
        }
      ],
      "name": "stakersCooldowns",
      "outputs": [
        {
          "internalType": "uint256",
          "name": "",
          "type": "uint256"
        }
      ],
      "stateMutability": "view",
      "type": "function"
    },
    {
      "inputs": [
        {
          "internalType": "address",
          "name": "",
          "type": "address"
        }
      ],
      "name": "stakersLockEndTimestamp",
      "outputs": [
        {
          "internalType": "uint256",
          "name": "",
          "type": "uint256"
        }
      ],
      "stateMutability": "view",
      "type": "function"
    },
    {
      "inputs": [
        {
          "internalType": "uint256",
          "name": "",
          "type": "uint256"
        }
      ],
      "name": "subSupplyAtTimestamp",
      "outputs": [
        {
          "internalType": "uint256",
          "name": "",
          "type": "uint256"
        }
      ],
      "stateMutability": "view",
      "type": "function"
    },
    {
      "inputs": [
        {
          "internalType": "uint256",
          "name": "",
          "type": "uint256"
        }
      ],
      "name": "subUserCountAtTimestamp",
      "outputs": [
        {
          "internalType": "uint256",
          "name": "",
          "type": "uint256"
        }
      ],
      "stateMutability": "view",
      "type": "function"
    },
    {
      "inputs": [],
      "name": "symbol",
      "outputs": [
        {
          "internalType": "string",
          "name": "",
          "type": "string"
        }
      ],
      "stateMutability": "view",
      "type": "function"
    },
    {
      "inputs": [],
      "name": "totalSupply",
      "outputs": [
        {
          "internalType": "uint256",
          "name": "",
          "type": "uint256"
        }
      ],
      "stateMutability": "view",
      "type": "function"
    },
    {
      "inputs": [
        {
          "internalType": "address",
          "name": "recipient",
          "type": "address"
        },
        {
          "internalType": "uint256",
          "name": "amount",
          "type": "uint256"
        }
      ],
      "name": "transfer",
      "outputs": [
        {
          "internalType": "bool",
          "name": "",
          "type": "bool"
        }
      ],
      "stateMutability": "nonpayable",
      "type": "function"
    },
    {
      "inputs": [
        {
          "internalType": "address",
          "name": "sender",
          "type": "address"
        },
        {
          "internalType": "address",
          "name": "recipient",
          "type": "address"
        },
        {
          "internalType": "uint256",
          "name": "amount",
          "type": "uint256"
        }
      ],
      "name": "transferFrom",
      "outputs": [
        {
          "internalType": "bool",
          "name": "",
          "type": "bool"
        }
      ],
      "stateMutability": "nonpayable",
      "type": "function"
    },
    {
      "inputs": [],
      "name": "userCount",
      "outputs": [
        {
          "internalType": "uint256",
          "name": "",
          "type": "uint256"
        }
      ],
      "stateMutability": "view",
      "type": "function"
    }
  ],
  "bytecode": "0x610180604052600060095562093a80610120908152503480156200002257600080fd5b5060405162005ec838038062005ec88339818101604052810190620000489190620003e5565b84846fffffffffffffffffffffffffffffffff1684848482828282600390805190602001906200007a92919062000260565b5081600490805190602001906200009392919062000260565b5080600560006101000a81548160ff021916908360ff160217905550505050505050620000cf8142620001d760201b620029d81790919060201c565b608081815250508173ffffffffffffffffffffffffffffffffffffffff1660a08173ffffffffffffffffffffffffffffffffffffffff1660601b8152505050508973ffffffffffffffffffffffffffffffffffffffff1660c08173ffffffffffffffffffffffffffffffffffffffff1660601b815250508873ffffffffffffffffffffffffffffffffffffffff1660e08173ffffffffffffffffffffffffffffffffffffffff1660601b815250508761010081815250508661014081815250508573ffffffffffffffffffffffffffffffffffffffff166101608173ffffffffffffffffffffffffffffffffffffffff1660601b8152505050505050505050505050620006a3565b60008082840190508381101562000256576040517f08c379a000000000000000000000000000000000000000000000000000000000815260040180806020018281038252601b8152602001807f536166654d6174683a206164646974696f6e206f766572666c6f77000000000081525060200191505060405180910390fd5b8091505092915050565b828054600181600116156101000203166002900490600052602060002090601f016020900481019282620002985760008555620002e4565b82601f10620002b357805160ff1916838001178555620002e4565b82800160010185558215620002e4579182015b82811115620002e3578251825591602001919060010190620002c6565b5b509050620002f39190620002f7565b5090565b5b8082111562000312576000816000905550600101620002f8565b5090565b600081519050620003278162000621565b92915050565b6000815190506200033e816200063b565b92915050565b600082601f8301126200035657600080fd5b81516200036d62000367826200053b565b62000507565b915080825260208301602083018583830111156200038a57600080fd5b62000397838284620005e9565b50505092915050565b600081519050620003b18162000655565b92915050565b600081519050620003c8816200066f565b92915050565b600081519050620003df8162000689565b92915050565b6000806000806000806000806000806101408b8d0312156200040657600080fd5b6000620004168d828e016200032d565b9a50506020620004298d828e016200032d565b99505060406200043c8d828e01620003b7565b98505060606200044f8d828e01620003b7565b9750506080620004628d828e0162000316565b96505060a0620004758d828e0162000316565b95505060c0620004888d828e01620003a0565b94505060e08b015167ffffffffffffffff811115620004a657600080fd5b620004b48d828e0162000344565b9350506101008b015167ffffffffffffffff811115620004d357600080fd5b620004e18d828e0162000344565b925050610120620004f58d828e01620003ce565b9150509295989b9194979a5092959850565b6000604051905081810181811067ffffffffffffffff821117156200053157620005306200061f565b5b8060405250919050565b600067ffffffffffffffff8211156200055957620005586200061f565b5b601f19601f8301169050602081019050919050565b60006200057b82620005b2565b9050919050565b60006200058f826200056e565b9050919050565b60006fffffffffffffffffffffffffffffffff82169050919050565b600073ffffffffffffffffffffffffffffffffffffffff82169050919050565b6000819050919050565b600060ff82169050919050565b60005b8381101562000609578082015181840152602081019050620005ec565b8381111562000619576000848401525b50505050565bfe5b6200062c816200056e565b81146200063857600080fd5b50565b620006468162000582565b81146200065257600080fd5b50565b620006608162000596565b81146200066c57600080fd5b50565b6200067a81620005d2565b81146200068657600080fd5b50565b6200069481620005dc565b8114620006a057600080fd5b50565b60805160a05160601c60c05160601c60e05160601c6101005161012051610140516101605160601c6157616200076760003980611b445280611d09525080610c8b528061123752806127b0525080611f8752806125df525080610c1a5280610cb2528061151752806127d4525080611c0a5280611d2c525080610ecd52806110c252806122295250806122dc52806125275280612629525080611b205280613431528061347752806134a4528061457452806145ba52806145e752506157616000f3fe608060405234801561001057600080fd5b50600436106102d65760003560e01c80638779588c11610182578063aaf5eb68116100e9578063cbcbb507116100a2578063eff016661161007c578063eff01666146109ae578063f11b8188146109de578063f1cc432a14610a10578063f6d2ee8614610a40576102d6565b8063cbcbb50714610942578063dd62ed3e14610960578063dde43cba14610990576102d6565b8063aaf5eb6814610894578063adc9772e146108b2578063b2a5dbfa146108ce578063b60b6587146108ea578063be95118314610906578063c3863ada14610924576102d6565b806395d89b411161013b57806395d89b41146107ac57806399248ea7146107ca5780639a99b4f0146107e8578063a457c2d714610804578063a727437a14610834578063a9059cbb14610864576102d6565b80638779588c146106b05780638926b622146106e05780638ae9f0fa146107105780638dbefee214610740578063919cd40f14610770578063946776cd1461078e576102d6565b80633373ee4c116102415780636bd1dd91116101fa5780637403b06d116101d45780637403b06d1461063a578063771282f614610658578063787a08a6146106765780637e90d7ef14610680576102d6565b80636bd1dd91146105bc57806370a08231146105ec57806372b49d631461061c576102d6565b80633373ee4c146104ae578063359c4a96146104de57806339509351146104fc5780633a260b2b1461052c578063496a7cf81461055c5780636b4638821461058c576102d6565b80631e9a6950116102935780631e9a6950146103c557806323b872dd146103e15780632acbf82314610411578063312f6b8314610442578063313ce56714610460578063326564ff1461047e576102d6565b806306fdde03146102db57806307973ccf146102f9578063091030c314610317578063095ea7b3146103475780631754a7ad1461037757806318160ddd146103a7575b600080fd5b6102e3610a5c565b6040516102f09190615210565b60405180910390f35b610301610afe565b60405161030e9190615388565b60405180910390f35b610331600480360381019061032c9190614b9c565b610b04565b60405161033e9190615388565b60405180910390f35b610361600480360381019061035c9190614c50565b610b1c565b60405161036e91906151bf565b60405180910390f35b610391600480360381019061038c9190614b9c565b610b3a565b60405161039e9190615388565b60405180910390f35b6103af610b83565b6040516103bc9190615388565b60405180910390f35b6103df60048036038101906103da9190614c50565b610b8d565b005b6103fb60048036038101906103f69190614c01565b610f7e565b60405161040891906151bf565b60405180910390f35b61042b60048036038101906104269190614c50565b611057565b604051610439929190615328565b60405180910390f35b61044a6110c0565b60405161045791906151da565b60405180910390f35b6104686110e4565b60405161047591906153a3565b60405180910390f35b61049860048036038101906104939190614e70565b6110fb565b6040516104a59190615388565b60405180910390f35b6104c860048036038101906104c39190614bc5565b6111ab565b6040516104d59190615388565b60405180910390f35b6104e6611235565b6040516104f39190615388565b60405180910390f35b61051660048036038101906105119190614c50565b611259565b60405161052391906151bf565b60405180910390f35b61054660048036038101906105419190614e70565b61130c565b6040516105539190615388565b60405180910390f35b61057660048036038101906105719190614e70565b6113a9565b6040516105839190615388565b60405180910390f35b6105a660048036038101906105a19190614b9c565b611412565b6040516105b39190615388565b60405180910390f35b6105d660048036038101906105d19190614e21565b61142a565b6040516105e39190615388565b60405180910390f35b61060660048036038101906106019190614b9c565b6114cd565b6040516106139190615388565b60405180910390f35b610624611515565b6040516106319190615388565b60405180910390f35b610642611539565b60405161064f9190615388565b60405180910390f35b6106606115b1565b60405161066d9190615388565b60405180910390f35b61067e6115b7565b005b61069a60048036038101906106959190614b9c565b61168c565b6040516106a79190615388565b60405180910390f35b6106ca60048036038101906106c59190614b9c565b6116a4565b6040516106d79190615388565b60405180910390f35b6106fa60048036038101906106f59190614d95565b6116bc565b6040516107079190615388565b60405180910390f35b61072a60048036038101906107259190614ed3565b6116d4565b60405161073791906152f2565b60405180910390f35b61075a60048036038101906107559190614b9c565b61187d565b6040516107679190615388565b60405180910390f35b610778611b1e565b6040516107859190615388565b60405180910390f35b610796611b42565b6040516107a3919061517b565b60405180910390f35b6107b4611b66565b6040516107c19190615210565b60405180910390f35b6107d2611c08565b6040516107df91906151da565b60405180910390f35b61080260048036038101906107fd9190614c50565b611c2c565b005b61081e60048036038101906108199190614c50565b611ddc565b60405161082b91906151bf565b60405180910390f35b61084e60048036038101906108499190614d95565b611ea9565b60405161085b9190615388565b60405180910390f35b61087e60048036038101906108799190614c50565b611ec1565b60405161088b91906151bf565b60405180910390f35b61089c611edf565b6040516108a991906153a3565b60405180910390f35b6108cc60048036038101906108c79190614c50565b611ee4565b005b6108e860048036038101906108e39190614c8c565b6122da565b005b61090460048036038101906108ff9190614e70565b612525565b005b61090e6125dd565b60405161091b9190615388565b60405180910390f35b61092c612601565b60405161093991906151f5565b60405180910390f35b61094a612627565b604051610957919061517b565b60405180910390f35b61097a60048036038101906109759190614bc5565b61264b565b6040516109879190615388565b60405180910390f35b6109986126d2565b6040516109a59190615388565b60405180910390f35b6109c860048036038101906109c39190614d95565b6126d7565b6040516109d59190615388565b60405180910390f35b6109f860048036038101906109f39190614b9c565b6126ef565b604051610a0793929190615351565b60405180910390f35b610a2a6004803603810190610a259190614dbe565b612751565b604051610a379190615388565b60405180910390f35b610a5a6004803603810190610a559190614cd1565b6128b6565b005b606060038054600181600116156101000203166002900480601f016020809104026020016040519081016040528092919081815260200182805460018160011615610100020316600290048015610af45780601f10610ac957610100808354040283529160200191610af4565b820191906000526020600020905b815481529060010190602001808311610ad757829003601f168201915b5050505050905090565b60475481565b60426020528060005260406000206000915090505481565b6000610b30610b29612a60565b8484612a68565b6001905092915050565b6000604360008373ffffffffffffffffffffffffffffffffffffffff1673ffffffffffffffffffffffffffffffffffffffff168152602001908152602001600020549050919050565b6000600254905090565b6000811415610bd1576040517f08c379a0000000000000000000000000000000000000000000000000000000008152600401610bc890615232565b60405180910390fd5b6000604260003373ffffffffffffffffffffffffffffffffffffffff1673ffffffffffffffffffffffffffffffffffffffff168152602001908152602001600020549050610c487f0000000000000000000000000000000000000000000000000000000000000000826129d890919063ffffffff16565b4211610c89576040517f08c379a0000000000000000000000000000000000000000000000000000000008152600401610c8090615252565b60405180910390fd5b7f0000000000000000000000000000000000000000000000000000000000000000610cef610ce07f0000000000000000000000000000000000000000000000000000000000000000846129d890919063ffffffff16565b42612c5f90919063ffffffff16565b1115610d30576040517f08c379a0000000000000000000000000000000000000000000000000000000008152600401610d27906152b2565b60405180910390fd5b6000610d3b336114cd565b90506000818411610d4c5783610d4e565b815b9050610d5c33836001612ca9565b50610d673382612dab565b6000604360003373ffffffffffffffffffffffffffffffffffffffff1673ffffffffffffffffffffffffffffffffffffffff1681526020019081526020016000205490506000610dc08385612c5f90919063ffffffff16565b1415610e6e576000604260003373ffffffffffffffffffffffffffffffffffffffff1673ffffffffffffffffffffffffffffffffffffffff16815260200190815260200160002081905550610e216001604754612c5f90919063ffffffff16565b604781905550610e2f612f6f565b610e5660016046600084815260200190815260200160002054612c5f90919063ffffffff16565b60466000838152602001908152602001600020819055505b610e8385604954612c5f90919063ffffffff16565b604981905550610eaf856045600084815260200190815260200160002054612c5f90919063ffffffff16565b6045600083815260200190815260200160002081905550610f1186837f000000000000000000000000000000000000000000000000000000000000000073ffffffffffffffffffffffffffffffffffffffff166130009092919063ffffffff16565b8573ffffffffffffffffffffffffffffffffffffffff163373ffffffffffffffffffffffffffffffffffffffff167fd12200efa34901b99367694174c3b0d32c99585fdf37c7c26892136ddd0836d984604051610f6e9190615388565b60405180910390a3505050505050565b6000610f8b8484846130a2565b61104c84610f97612a60565b6110478560405180606001604052806028815260200161561d60289139600160008b73ffffffffffffffffffffffffffffffffffffffff1673ffffffffffffffffffffffffffffffffffffffff1681526020019081526020016000206000610ffd612a60565b73ffffffffffffffffffffffffffffffffffffffff1673ffffffffffffffffffffffffffffffffffffffff1681526020019081526020016000205461320b9092919063ffffffff16565b612a68565b600190509392505050565b6006602052816000526040600020602052806000526040600020600091509150508060000160009054906101000a90046fffffffffffffffffffffffffffffffff16908060000160109054906101000a90046fffffffffffffffffffffffffffffffff16905082565b7f000000000000000000000000000000000000000000000000000000000000000081565b6000600560009054906101000a900460ff16905090565b60008061110986868661142a565b9050600061116e633b9aca0061116061112c600188612c5f90919063ffffffff16565b61115260026111448b8d612c5f90919063ffffffff16565b6132cb90919063ffffffff16565b6132cb90919063ffffffff16565b6132cb90919063ffffffff16565b90506000611189633b9aca00846129d890919063ffffffff16565b905061119e818361335190919063ffffffff16565b9350505050949350505050565b6000603c60008373ffffffffffffffffffffffffffffffffffffffff1673ffffffffffffffffffffffffffffffffffffffff16815260200190815260200160002060020160008473ffffffffffffffffffffffffffffffffffffffff1673ffffffffffffffffffffffffffffffffffffffff16815260200190815260200160002054905092915050565b7f000000000000000000000000000000000000000000000000000000000000000081565b6000611302611266612a60565b846112fd8560016000611277612a60565b73ffffffffffffffffffffffffffffffffffffffff1673ffffffffffffffffffffffffffffffffffffffff16815260200190815260200160002060008973ffffffffffffffffffffffffffffffffffffffff1673ffffffffffffffffffffffffffffffffffffffff168152602001908152602001600020546129d890919063ffffffff16565b612a68565b6001905092915050565b600080611339605a61132b633b9aca00866132cb90919063ffffffff16565b612c5f90919063ffffffff16565b9050600061134887878761142a565b90506000611363633b9aca00836129d890919063ffffffff16565b905061139c61137b828561335190919063ffffffff16565b61138e838661335190919063ffffffff16565b6132cb90919063ffffffff16565b9350505050949350505050565b6000806113b786868661142a565b90506114076113d3633b9aca00836129d890919063ffffffff16565b6113f9836113eb600188612c5f90919063ffffffff16565b6132cb90919063ffffffff16565b61335190919063ffffffff16565b915050949350505050565b60436020528060005260406000206000915090505481565b60008061147a6114438685612c5f90919063ffffffff16565b61146c633b9aca0061145e8789612c5f90919063ffffffff16565b6132cb90919063ffffffff16565b61335190919063ffffffff16565b90506114c36114b46114af670de0b6b3a76400006114a185866132cb90919063ffffffff16565b612c5f90919063ffffffff16565b61339b565b82612c5f90919063ffffffff16565b9150509392505050565b60008060008373ffffffffffffffffffffffffffffffffffffffff1673ffffffffffffffffffffffffffffffffffffffff168152602001908152602001600020549050919050565b7f000000000000000000000000000000000000000000000000000000000000000081565b6000603c60003073ffffffffffffffffffffffffffffffffffffffff1673ffffffffffffffffffffffffffffffffffffffff16815260200190815260200160002060000160009054906101000a90046fffffffffffffffffffffffffffffffff166fffffffffffffffffffffffffffffffff16905090565b60495481565b60006115c2336114cd565b1415611603576040517f08c379a00000000000000000000000000000000000000000000000000000000081526004016115fa906152d2565b60405180910390fd5b42604260003373ffffffffffffffffffffffffffffffffffffffff1673ffffffffffffffffffffffffffffffffffffffff168152602001908152602001600020819055503373ffffffffffffffffffffffffffffffffffffffff167ff52f50426b32362d3e6bb8cb36b7074756b224622def6352a59eac7f66ebe6e860405160405180910390a2565b60416020528060005260406000206000915090505481565b60076020528060005260406000206000915090505481565b60466020528060005260406000206000915090505481565b6000806116e287878761142a565b905060006116f2888888886110fb565b90506000611702898989896113a9565b905060006117128a8a8a8a61130c565b9050600061172a6001846129d890919063ffffffff16565b8711156117705761176961175a600161174c868b612c5f90919063ffffffff16565b612c5f90919063ffffffff16565b856132cb90919063ffffffff16565b90506117aa565b6117a86117998861178b6001876129d890919063ffffffff16565b612c5f90919063ffffffff16565b856132cb90919063ffffffff16565b505b60006117c06001856129d890919063ffffffff16565b881115611809576118028360026117f360016117e5898e612c5f90919063ffffffff16565b612c5f90919063ffffffff16565b0a6129d890919063ffffffff16565b9050611847565b6118448360026118358b61182760018a6129d890919063ffffffff16565b612c5f90919063ffffffff16565b0a6129d890919063ffffffff16565b90505b61186c8a61185e838561335190919063ffffffff16565b6129d890919063ffffffff16565b965050505050505095945050505050565b600080603c60003073ffffffffffffffffffffffffffffffffffffffff1673ffffffffffffffffffffffffffffffffffffffff168152602001908152602001600020905060008060446000604360008873ffffffffffffffffffffffffffffffffffffffff1673ffffffffffffffffffffffffffffffffffffffff168152602001908152602001600020548152602001908152602001600020541415611a1457611a0f82600101548360000160009054906101000a90046fffffffffffffffffffffffffffffffff166fffffffffffffffffffffffffffffffff168460000160109054906101000a90046fffffffffffffffffffffffffffffffff16604954604360008a73ffffffffffffffffffffffffffffffffffffffff1673ffffffffffffffffffffffffffffffffffffffff16815260200190815260200160002054421115611a0857604360008a73ffffffffffffffffffffffffffffffffffffffff1673ffffffffffffffffffffffffffffffffffffffff16815260200190815260200160002054611a0a565b425b6133fd565b611a68565b60446000604360008773ffffffffffffffffffffffffffffffffffffffff1673ffffffffffffffffffffffffffffffffffffffff168152602001908152602001600020548152602001908152602001600020545b90506000611ac0611a78866114cd565b838560020160008973ffffffffffffffffffffffffffffffffffffffff1673ffffffffffffffffffffffffffffffffffffffff1681526020019081526020016000205461354d565b9050611b1481604160008873ffffffffffffffffffffffffffffffffffffffff1673ffffffffffffffffffffffffffffffffffffffff168152602001908152602001600020546129d890919063ffffffff16565b9350505050919050565b7f000000000000000000000000000000000000000000000000000000000000000081565b7f000000000000000000000000000000000000000000000000000000000000000081565b606060048054600181600116156101000203166002900480601f016020809104026020016040519081016040528092919081815260200182805460018160011615610100020316600290048015611bfe5780601f10611bd357610100808354040283529160200191611bfe565b820191906000526020600020905b815481529060010190602001808311611be157829003601f168201915b5050505050905090565b7f000000000000000000000000000000000000000000000000000000000000000081565b6000611c4233611c3b336114cd565b6000612ca9565b905060007fffffffffffffffffffffffffffffffffffffffffffffffffffffffffffffffff8314611c735782611c75565b815b9050611cc1816040518060400160405280600e81526020017f494e56414c49445f414d4f554e540000000000000000000000000000000000008152508461320b9092919063ffffffff16565b604160003373ffffffffffffffffffffffffffffffffffffffff1673ffffffffffffffffffffffffffffffffffffffff16815260200190815260200160002081905550611d717f000000000000000000000000000000000000000000000000000000000000000085837f000000000000000000000000000000000000000000000000000000000000000073ffffffffffffffffffffffffffffffffffffffff16613596909392919063ffffffff16565b8373ffffffffffffffffffffffffffffffffffffffff163373ffffffffffffffffffffffffffffffffffffffff167f9310ccfcb8de723f578a9e4282ea9f521f05ae40dc08f3068dfad528a65ee3c783604051611dce9190615388565b60405180910390a350505050565b6000611e9f611de9612a60565b84611e9a856040518060600160405280602581526020016157076025913960016000611e13612a60565b73ffffffffffffffffffffffffffffffffffffffff1673ffffffffffffffffffffffffffffffffffffffff16815260200190815260200160002060008a73ffffffffffffffffffffffffffffffffffffffff1673ffffffffffffffffffffffffffffffffffffffff1681526020019081526020016000205461320b9092919063ffffffff16565b612a68565b6001905092915050565b60446020528060005260406000206000915090505481565b6000611ed5611ece612a60565b84846130a2565b6001905092915050565b601281565b6000811415611f28576040517f08c379a0000000000000000000000000000000000000000000000000000000008152600401611f1f90615232565b60405180910390fd5b6000611f33836114cd565b90506000611f40336114cd565b14611f80576040517f08c379a0000000000000000000000000000000000000000000000000000000008152600401611f7790615272565b60405180910390fd5b6000611fb57f0000000000000000000000000000000000000000000000000000000000000000426129d890919063ffffffff16565b905080604360003373ffffffffffffffffffffffffffffffffffffffff1673ffffffffffffffffffffffffffffffffffffffff168152602001908152602001600020819055506048819080600181540180825580915050600190039060005260206000200160009091909190915055612039836049546129d890919063ffffffff16565b60498190555061205560016047546129d890919063ffffffff16565b604781905550612063612f6f565b6120898360456000848152602001908152602001600020546129d890919063ffffffff16565b60456000838152602001908152602001600020819055506120c7600160466000848152602001908152602001600020546129d890919063ffffffff16565b604660008381526020019081526020016000208190555060006120ee853085604954613657565b9050600081146121c7577f2468f9268c60ad90e2d49edb0032c8a001e733ae888b3ab8e982edf535be1a768582604051612129929190615196565b60405180910390a161218381604160008873ffffffffffffffffffffffffffffffffffffffff1673ffffffffffffffffffffffffffffffffffffffff168152602001908152602001600020546129d890919063ffffffff16565b604160008773ffffffffffffffffffffffffffffffffffffffff1673ffffffffffffffffffffffffffffffffffffffff168152602001908152602001600020819055505b6121d46000858786612751565b604260008773ffffffffffffffffffffffffffffffffffffffff1673ffffffffffffffffffffffffffffffffffffffff1681526020019081526020016000208190555061222185856138b3565b61226e3330867f000000000000000000000000000000000000000000000000000000000000000073ffffffffffffffffffffffffffffffffffffffff16613596909392919063ffffffff16565b8473ffffffffffffffffffffffffffffffffffffffff163373ffffffffffffffffffffffffffffffffffffffff167f5dac0c1b1112564a045ba943c9d50270893e8e826c49be8e7073adc713ab7bd7866040516122cb9190615388565b60405180910390a35050505050565b7f000000000000000000000000000000000000000000000000000000000000000073ffffffffffffffffffffffffffffffffffffffff163373ffffffffffffffffffffffffffffffffffffffff1614612368576040517f08c379a000000000000000000000000000000000000000000000000000000000815260040161235f90615292565b60405180910390fd5b60005b82829050811015612520576000603c600085858581811061238857fe5b90506060020160400160208101906123a09190614b9c565b73ffffffffffffffffffffffffffffffffffffffff1673ffffffffffffffffffffffffffffffffffffffff168152602001908152602001600020905061241f8484848181106123eb57fe5b90506060020160400160208101906124039190614b9c565b8286868681811061241057fe5b90506060020160200135613a7a565b5083838381811061242c57fe5b90506060020160000160208101906124449190614d6c565b8160000160006101000a8154816fffffffffffffffffffffffffffffffff02191690836fffffffffffffffffffffffffffffffff16021790555083838381811061248a57fe5b90506060020160400160208101906124a29190614b9c565b73ffffffffffffffffffffffffffffffffffffffff167f87fa03892a0556cb6b8f97e6d533a150d4d55fcbf275fff5fa003fa636bcc7fa8585858181106124e557fe5b90506060020160000160208101906124fd9190614d6c565b60405161250a919061530d565b60405180910390a250808060010191505061236b565b505050565b7f000000000000000000000000000000000000000000000000000000000000000073ffffffffffffffffffffffffffffffffffffffff163373ffffffffffffffffffffffffffffffffffffffff16146125b3576040517f08c379a00000000000000000000000000000000000000000000000000000000081526004016125aa90615292565b60405180910390fd5b83603d8190555082603e8190555081603f81905550806040819055506125d7612f6f565b50505050565b7f000000000000000000000000000000000000000000000000000000000000000081565b600860009054906101000a900473ffffffffffffffffffffffffffffffffffffffff1681565b7f000000000000000000000000000000000000000000000000000000000000000081565b6000600160008473ffffffffffffffffffffffffffffffffffffffff1673ffffffffffffffffffffffffffffffffffffffff16815260200190815260200160002060008373ffffffffffffffffffffffffffffffffffffffff1673ffffffffffffffffffffffffffffffffffffffff16815260200190815260200160002054905092915050565b600181565b60456020528060005260406000206000915090505481565b603c6020528060005260406000206000915090508060000160009054906101000a90046fffffffffffffffffffffffffffffffff16908060000160109054906101000a90046fffffffffffffffffffffffffffffffff16908060010154905083565b600080604260008573ffffffffffffffffffffffffffffffffffffffff1673ffffffffffffffffffffffffffffffffffffffff16815260200190815260200160002054905060008114156127a95760009150506128ae565b60006128107f00000000000000000000000000000000000000000000000000000000000000006128027f000000000000000000000000000000000000000000000000000000000000000042612c5f90919063ffffffff16565b612c5f90919063ffffffff16565b90508181111561282357600091506128a8565b60008782116128325787612834565b425b905082811015612849578293505050506128ae565b6128a461285f86896129d890919063ffffffff16565b61289661287586896132cb90919063ffffffff16565b612888858c6132cb90919063ffffffff16565b6129d890919063ffffffff16565b61335190919063ffffffff16565b9250505b81925050505b949350505050565b60006128c0613ccc565b9050600954811161291c576040517f08c379a000000000000000000000000000000000000000000000000000000000815260040180806020018281038252602e815260200180615645602e913960400191505060405180910390fd5b8060098190555061297086868080601f016020809104026020016040519081016040528093929190818152602001838380828437600081840152601f19601f82011690508083019250505050505050613cd5565b6129bd84848080601f016020809104026020016040519081016040528093929190818152602001838380828437600081840152601f19601f82011690508083019250505050505050613cef565b6129c682613d09565b6129cf87613d27565b50505050505050565b600080828401905083811015612a56576040517f08c379a000000000000000000000000000000000000000000000000000000000815260040180806020018281038252601b8152602001807f536166654d6174683a206164646974696f6e206f766572666c6f77000000000081525060200191505060405180910390fd5b8091505092915050565b600033905090565b600073ffffffffffffffffffffffffffffffffffffffff168373ffffffffffffffffffffffffffffffffffffffff161415612aee576040517f08c379a00000000000000000000000000000000000000000000000000000000081526004018080602001828103825260248152602001806156b96024913960400191505060405180910390fd5b600073ffffffffffffffffffffffffffffffffffffffff168273ffffffffffffffffffffffffffffffffffffffff161415612b74576040517f08c379a00000000000000000000000000000000000000000000000000000000081526004018080602001828103825260228152602001806155b46022913960400191505060405180910390fd5b80600160008573ffffffffffffffffffffffffffffffffffffffff1673ffffffffffffffffffffffffffffffffffffffff16815260200190815260200160002060008473ffffffffffffffffffffffffffffffffffffffff1673ffffffffffffffffffffffffffffffffffffffff168152602001908152602001600020819055508173ffffffffffffffffffffffffffffffffffffffff168373ffffffffffffffffffffffffffffffffffffffff167f8c5be1e5ebec7d5bd14f71427d1e84f3dd0314c0f7b2291e5b200ac8c7c3b925836040518082815260200191505060405180910390a3505050565b6000612ca183836040518060400160405280601e81526020017f536166654d6174683a207375627472616374696f6e206f766572666c6f77000081525061320b565b905092915050565b600080612cba853086604954613657565b90506000612d1082604160008973ffffffffffffffffffffffffffffffffffffffff1673ffffffffffffffffffffffffffffffffffffffff168152602001908152602001600020546129d890919063ffffffff16565b905060008214612d9f578315612d655780604160008873ffffffffffffffffffffffffffffffffffffffff1673ffffffffffffffffffffffffffffffffffffffff168152602001908152602001600020819055505b7f2468f9268c60ad90e2d49edb0032c8a001e733ae888b3ab8e982edf535be1a768683604051612d96929190615196565b60405180910390a15b80925050509392505050565b600073ffffffffffffffffffffffffffffffffffffffff168273ffffffffffffffffffffffffffffffffffffffff161415612e31576040517f08c379a00000000000000000000000000000000000000000000000000000000081526004018080602001828103825260218152602001806156736021913960400191505060405180910390fd5b612e3d82600083613d6b565b612ea881604051806060016040528060228152602001615592602291396000808673ffffffffffffffffffffffffffffffffffffffff1673ffffffffffffffffffffffffffffffffffffffff1681526020019081526020016000205461320b9092919063ffffffff16565b6000808473ffffffffffffffffffffffffffffffffffffffff1673ffffffffffffffffffffffffffffffffffffffff16815260200190815260200160002081905550612eff81600254612c5f90919063ffffffff16565b600281905550600073ffffffffffffffffffffffffffffffffffffffff168273ffffffffffffffffffffffffffffffffffffffff167fddf252ad1be2c89b69c2b068fc378daa952ba7f163c4a11628f55a4df523b3ef836040518082815260200191505060405180910390a35050565b612f86603d54603e54603f546040546047546116d4565b603c60003073ffffffffffffffffffffffffffffffffffffffff1673ffffffffffffffffffffffffffffffffffffffff16815260200190815260200160002060000160006101000a8154816fffffffffffffffffffffffffffffffff02191690836fffffffffffffffffffffffffffffffff160217905550565b61309d8363a9059cbb60e01b8484604051602401808373ffffffffffffffffffffffffffffffffffffffff16815260200182815260200192505050604051602081830303815290604052907bffffffffffffffffffffffffffffffffffffffffffffffffffffffff19166020820180517bffffffffffffffffffffffffffffffffffffffffffffffffffffffff8381831617835250505050613f6e565b505050565b60006130ad846114cd565b90506130bb84826001612ca9565b508273ffffffffffffffffffffffffffffffffffffffff168473ffffffffffffffffffffffffffffffffffffffff16146131fa5760006130fa846114cd565b905061310884826001612ca9565b506000604260008773ffffffffffffffffffffffffffffffffffffffff1673ffffffffffffffffffffffffffffffffffffffff16815260200190815260200160002054905061315981858785612751565b604260008773ffffffffffffffffffffffffffffffffffffffff1673ffffffffffffffffffffffffffffffffffffffff1681526020019081526020016000208190555083831480156131ac575060008114155b156131f7576000604260008873ffffffffffffffffffffffffffffffffffffffff1673ffffffffffffffffffffffffffffffffffffffff168152602001908152602001600020819055505b50505b6132058484846141b9565b50505050565b60008383111582906132b8576040517f08c379a00000000000000000000000000000000000000000000000000000000081526004018080602001828103825283818151815260200191508051906020019080838360005b8381101561327d578082015181840152602081019050613262565b50505050905090810190601f1680156132aa5780820380516001836020036101000a031916815260200191505b509250505060405180910390fd5b5060008385039050809150509392505050565b6000808314156132de576000905061334b565b60008284029050828482816132ef57fe5b0414613346576040517f08c379a00000000000000000000000000000000000000000000000000000000081526004018080602001828103825260218152602001806155fc6021913960400191505060405180910390fd5b809150505b92915050565b600061339383836040518060400160405280601a81526020017f536166654d6174683a206469766973696f6e206279207a65726f00000000000081525061447a565b905092915050565b600060038211156133ea5781905060006001600284816133b757fe5b040190505b818110156133e4578091506002818285816133d357fe5b0401816133dc57fe5b0490506133bc565b506133f8565b600082146133f757600190505b5b919050565b60008085148061340d5750600083145b80613429575081846fffffffffffffffffffffffffffffffff16145b8061346657507f0000000000000000000000000000000000000000000000000000000000000000846fffffffffffffffffffffffffffffffff1610155b1561347357859050613544565b60007f000000000000000000000000000000000000000000000000000000000000000083116134a257826134c4565b7f00000000000000000000000000000000000000000000000000000000000000005b905060006134ed866fffffffffffffffffffffffffffffffff1683612c5f90919063ffffffff16565b905061353f8861353187613523601260ff16600a0a613515878e6132cb90919063ffffffff16565b6132cb90919063ffffffff16565b61335190919063ffffffff16565b6129d890919063ffffffff16565b925050505b95945050505050565b600061358d601260ff16600a0a61357f6135708587612c5f90919063ffffffff16565b876132cb90919063ffffffff16565b61335190919063ffffffff16565b90509392505050565b613651846323b872dd60e01b858585604051602401808473ffffffffffffffffffffffffffffffffffffffff1681526020018373ffffffffffffffffffffffffffffffffffffffff1681526020018281526020019350505050604051602081830303815290604052907bffffffffffffffffffffffffffffffffffffffffffffffffffffffff19166020820180517bffffffffffffffffffffffffffffffffffffffffffffffffffffffff8381831617835250505050613f6e565b50505050565b600080603c60008673ffffffffffffffffffffffffffffffffffffffff1673ffffffffffffffffffffffffffffffffffffffff168152602001908152602001600020905060008160020160008873ffffffffffffffffffffffffffffffffffffffff1673ffffffffffffffffffffffffffffffffffffffff1681526020019081526020016000205490506000806136ef888588613a7a565b90506000604360008b73ffffffffffffffffffffffffffffffffffffffff1673ffffffffffffffffffffffffffffffffffffffff1681526020019081526020016000205414158015613780575042604360008b73ffffffffffffffffffffffffffffffffffffffff1673ffffffffffffffffffffffffffffffffffffffff1681526020019081526020016000205411155b156137db5760446000604360008c73ffffffffffffffffffffffffffffffffffffffff1673ffffffffffffffffffffffffffffffffffffffff1681526020019081526020016000205481526020019081526020016000205490505b8083146138a457600087146137f8576137f587828561354d565b91505b808460020160008b73ffffffffffffffffffffffffffffffffffffffff1673ffffffffffffffffffffffffffffffffffffffff168152602001908152602001600020819055508773ffffffffffffffffffffffffffffffffffffffff168973ffffffffffffffffffffffffffffffffffffffff167fbb123b5c06d5408bbea3c4fef481578175cfb432e3b482c6186f02ed9086585b8360405161389b9190615388565b60405180910390a35b81945050505050949350505050565b600073ffffffffffffffffffffffffffffffffffffffff168273ffffffffffffffffffffffffffffffffffffffff161415613956576040517f08c379a000000000000000000000000000000000000000000000000000000000815260040180806020018281038252601f8152602001807f45524332303a206d696e7420746f20746865207a65726f20616464726573730081525060200191505060405180910390fd5b61396260008383613d6b565b613977816002546129d890919063ffffffff16565b6002819055506139ce816000808573ffffffffffffffffffffffffffffffffffffffff1673ffffffffffffffffffffffffffffffffffffffff168152602001908152602001600020546129d890919063ffffffff16565b6000808473ffffffffffffffffffffffffffffffffffffffff1673ffffffffffffffffffffffffffffffffffffffff168152602001908152602001600020819055508173ffffffffffffffffffffffffffffffffffffffff16600073ffffffffffffffffffffffffffffffffffffffff167fddf252ad1be2c89b69c2b068fc378daa952ba7f163c4a11628f55a4df523b3ef836040518082815260200191505060405180910390a35050565b6000808360010154905060008460000160109054906101000a90046fffffffffffffffffffffffffffffffff169050806fffffffffffffffffffffffffffffffff16421415613acd578192505050613cc5565b6000604a5490505b604880549050811015613bd857600060488281548110613af157fe5b90600052602060002001549050428111613bc457613b44848860000160009054906101000a90046fffffffffffffffffffffffffffffffff166fffffffffffffffffffffffffffffffff168589856133fd565b6044600083815260200190815260200160002081905550613b836046600083815260200190815260200160002054604754612c5f90919063ffffffff16565b604781905550613b91612f6f565b613bb96045600083815260200190815260200160002054604954612c5f90919063ffffffff16565b604981905550613bca565b50613bd8565b508080600101915050613ad5565b80604a819055506000613c21848860000160009054906101000a90046fffffffffffffffffffffffffffffffff166fffffffffffffffffffffffffffffffff1685604954614540565b9050838114613c82578087600101819055508773ffffffffffffffffffffffffffffffffffffffff167f5777ca300dfe5bead41006fbce4389794dbc0ed8d6cccebfaf94630aa04184bc82604051613c799190615388565b60405180910390a25b428760000160106101000a8154816fffffffffffffffffffffffffffffffff02191690836fffffffffffffffffffffffffffffffff160217905550809450505050505b9392505050565b60006001905090565b8060039080519060200190613ceb9291906149f4565b5050565b8060049080519060200190613d059291906149f4565b5050565b80600560006101000a81548160ff021916908360ff16021790555050565b80600860006101000a81548173ffffffffffffffffffffffffffffffffffffffff021916908373ffffffffffffffffffffffffffffffffffffffff16021790555050565b8173ffffffffffffffffffffffffffffffffffffffff168373ffffffffffffffffffffffffffffffffffffffff161415613da457613f69565b600073ffffffffffffffffffffffffffffffffffffffff168373ffffffffffffffffffffffffffffffffffffffff1614613e04576000613de3846114cd565b9050613e028482613dfd8585612c5f90919063ffffffff16565b61468f565b505b600073ffffffffffffffffffffffffffffffffffffffff168273ffffffffffffffffffffffffffffffffffffffff1614613e64576000613e43836114cd565b9050613e628382613e5d85856129d890919063ffffffff16565b61468f565b505b6000600860009054906101000a900473ffffffffffffffffffffffffffffffffffffffff169050600073ffffffffffffffffffffffffffffffffffffffff168173ffffffffffffffffffffffffffffffffffffffff1614613f67578073ffffffffffffffffffffffffffffffffffffffff16634a3931498585856040518463ffffffff1660e01b8152600401808473ffffffffffffffffffffffffffffffffffffffff1681526020018373ffffffffffffffffffffffffffffffffffffffff1681526020018281526020019350505050600060405180830381600087803b158015613f4e57600080fd5b505af1158015613f62573d6000803e3d6000fd5b505050505b505b505050565b613f8d8273ffffffffffffffffffffffffffffffffffffffff166149a9565b613fff576040517f08c379a000000000000000000000000000000000000000000000000000000000815260040180806020018281038252601f8152602001807f5361666545524332303a2063616c6c20746f206e6f6e2d636f6e74726163740081525060200191505060405180910390fd5b600060608373ffffffffffffffffffffffffffffffffffffffff16836040518082805190602001908083835b6020831061404e578051825260208201915060208101905060208303925061402b565b6001836020036101000a0380198251168184511680821785525050505050509050019150506000604051808303816000865af19150503d80600081146140b0576040519150601f19603f3d011682016040523d82523d6000602084013e6140b5565b606091505b50915091508161412d576040517f08c379a00000000000000000000000000000000000000000000000000000000081526004018080602001828103825260208152602001807f5361666545524332303a206c6f772d6c6576656c2063616c6c206661696c656481525060200191505060405180910390fd5b6000815111156141b35780806020019051602081101561414c57600080fd5b81019080805190602001909291905050506141b2576040517f08c379a000000000000000000000000000000000000000000000000000000000815260040180806020018281038252602a8152602001806156dd602a913960400191505060405180910390fd5b5b50505050565b600073ffffffffffffffffffffffffffffffffffffffff168373ffffffffffffffffffffffffffffffffffffffff16141561423f576040517f08c379a00000000000000000000000000000000000000000000000000000000081526004018080602001828103825260258152602001806156946025913960400191505060405180910390fd5b600073ffffffffffffffffffffffffffffffffffffffff168273ffffffffffffffffffffffffffffffffffffffff1614156142c5576040517f08c379a000000000000000000000000000000000000000000000000000000000815260040180806020018281038252602381526020018061556f6023913960400191505060405180910390fd5b6142d0838383613d6b565b61433b816040518060600160405280602681526020016155d6602691396000808773ffffffffffffffffffffffffffffffffffffffff1673ffffffffffffffffffffffffffffffffffffffff1681526020019081526020016000205461320b9092919063ffffffff16565b6000808573ffffffffffffffffffffffffffffffffffffffff1673ffffffffffffffffffffffffffffffffffffffff168152602001908152602001600020819055506143ce816000808573ffffffffffffffffffffffffffffffffffffffff1673ffffffffffffffffffffffffffffffffffffffff168152602001908152602001600020546129d890919063ffffffff16565b6000808473ffffffffffffffffffffffffffffffffffffffff1673ffffffffffffffffffffffffffffffffffffffff168152602001908152602001600020819055508173ffffffffffffffffffffffffffffffffffffffff168373ffffffffffffffffffffffffffffffffffffffff167fddf252ad1be2c89b69c2b068fc378daa952ba7f163c4a11628f55a4df523b3ef836040518082815260200191505060405180910390a3505050565b60008083118290614526576040517f08c379a00000000000000000000000000000000000000000000000000000000081526004018080602001828103825283818151815260200191508051906020019080838360005b838110156144eb5780820151818401526020810190506144d0565b50505050905090810190601f1680156145185780820380516001836020036101000a031916815260200191505b509250505060405180910390fd5b50600083858161453257fe5b049050809150509392505050565b6000808414806145505750600082145b8061456c575042836fffffffffffffffffffffffffffffffff16145b806145a957507f0000000000000000000000000000000000000000000000000000000000000000836fffffffffffffffffffffffffffffffff1610155b156145b657849050614687565b60007f000000000000000000000000000000000000000000000000000000000000000042116145e55742614607565b7f00000000000000000000000000000000000000000000000000000000000000005b90506000614630856fffffffffffffffffffffffffffffffff1683612c5f90919063ffffffff16565b90506146828761467486614666601260ff16600a0a614658878d6132cb90919063ffffffff16565b6132cb90919063ffffffff16565b61335190919063ffffffff16565b6129d890919063ffffffff16565b925050505b949350505050565b60004390506000600760008673ffffffffffffffffffffffffffffffffffffffff1673ffffffffffffffffffffffffffffffffffffffff1681526020019081526020016000205490506000600660008773ffffffffffffffffffffffffffffffffffffffff1673ffffffffffffffffffffffffffffffffffffffff1681526020019081526020016000209050600082141580156147935750826fffffffffffffffffffffffffffffffff16816000614751600186612c5f90919063ffffffff16565b815260200190815260200160002060000160009054906101000a90046fffffffffffffffffffffffffffffffff166fffffffffffffffffffffffffffffffff16145b156147fc57838160006147b0600186612c5f90919063ffffffff16565b815260200190815260200160002060000160106101000a8154816fffffffffffffffffffffffffffffffff02191690836fffffffffffffffffffffffffffffffff160217905550614920565b6040518060400160405280846fffffffffffffffffffffffffffffffff168152602001856fffffffffffffffffffffffffffffffff1681525081600084815260200190815260200160002060008201518160000160006101000a8154816fffffffffffffffffffffffffffffffff02191690836fffffffffffffffffffffffffffffffff16021790555060208201518160000160106101000a8154816fffffffffffffffffffffffffffffffff02191690836fffffffffffffffffffffffffffffffff1602179055509050506148dc6001836129d890919063ffffffff16565b600760008873ffffffffffffffffffffffffffffffffffffffff1673ffffffffffffffffffffffffffffffffffffffff168152602001908152602001600020819055505b7f2cd3c83ddac2953ee75f53265d9ea4463eaf05030e5459a1b7e63819b7ce88f7868686604051808473ffffffffffffffffffffffffffffffffffffffff168152602001836fffffffffffffffffffffffffffffffff168152602001826fffffffffffffffffffffffffffffffff168152602001935050505060405180910390a1505050505050565b60008060007fc5d2460186f7233c927e7db2dcc703c0e500b653ca82273b7bfad8045d85a47060001b9050833f91508082141580156149eb57506000801b8214155b92505050919050565b828054600181600116156101000203166002900490600052602060002090601f016020900481019282614a2a5760008555614a71565b82601f10614a4357805160ff1916838001178555614a71565b82800160010185558215614a71579182015b82811115614a70578251825591602001919060010190614a55565b5b509050614a7e9190614a82565b5090565b5b80821115614a9b576000816000905550600101614a83565b5090565b600081359050614aae816154fb565b92915050565b60008083601f840112614ac657600080fd5b8235905067ffffffffffffffff811115614adf57600080fd5b602083019150836060820283011115614af757600080fd5b9250929050565b600081359050614b0d81615512565b92915050565b60008083601f840112614b2557600080fd5b8235905067ffffffffffffffff811115614b3e57600080fd5b602083019150836001820283011115614b5657600080fd5b9250929050565b600081359050614b6c81615529565b92915050565b600081359050614b8181615540565b92915050565b600081359050614b9681615557565b92915050565b600060208284031215614bae57600080fd5b6000614bbc84828501614a9f565b91505092915050565b60008060408385031215614bd857600080fd5b6000614be685828601614a9f565b9250506020614bf785828601614a9f565b9150509250929050565b600080600060608486031215614c1657600080fd5b6000614c2486828701614a9f565b9350506020614c3586828701614a9f565b9250506040614c4686828701614b72565b9150509250925092565b60008060408385031215614c6357600080fd5b6000614c7185828601614a9f565b9250506020614c8285828601614b72565b9150509250929050565b60008060208385031215614c9f57600080fd5b600083013567ffffffffffffffff811115614cb957600080fd5b614cc585828601614ab4565b92509250509250929050565b60008060008060008060808789031215614cea57600080fd5b6000614cf889828a01614afe565b965050602087013567ffffffffffffffff811115614d1557600080fd5b614d2189828a01614b13565b9550955050604087013567ffffffffffffffff811115614d4057600080fd5b614d4c89828a01614b13565b93509350506060614d5f89828a01614b87565b9150509295509295509295565b600060208284031215614d7e57600080fd5b6000614d8c84828501614b5d565b91505092915050565b600060208284031215614da757600080fd5b6000614db584828501614b72565b91505092915050565b60008060008060808587031215614dd457600080fd5b6000614de287828801614b72565b9450506020614df387828801614b72565b9350506040614e0487828801614a9f565b9250506060614e1587828801614b72565b91505092959194509250565b600080600060608486031215614e3657600080fd5b6000614e4486828701614b72565b9350506020614e5586828701614b72565b9250506040614e6686828701614b72565b9150509250925092565b60008060008060808587031215614e8657600080fd5b6000614e9487828801614b72565b9450506020614ea587828801614b72565b9350506040614eb687828801614b72565b9250506060614ec787828801614b72565b91505092959194509250565b600080600080600060a08688031215614eeb57600080fd5b6000614ef988828901614b72565b9550506020614f0a88828901614b72565b9450506040614f1b88828901614b72565b9350506060614f2c88828901614b72565b9250506080614f3d88828901614b72565b9150509295509295909350565b614f53816153da565b82525050565b614f62816153ec565b82525050565b614f718161545d565b82525050565b614f8081615481565b82525050565b6000614f91826153be565b614f9b81856153c9565b9350614fab8185602086016154b7565b614fb4816154ea565b840191505092915050565b6000614fcc6013836153c9565b91507f494e56414c49445f5a45524f5f414d4f554e54000000000000000000000000006000830152602082019050919050565b600061500c6015836153c9565b91507f494e53554646494349454e545f434f4f4c444f574e00000000000000000000006000830152602082019050919050565b600061504c600b836153c9565b91507f555345525f5354414b45440000000000000000000000000000000000000000006000830152602082019050919050565b600061508c6015836153c9565b91507f4f4e4c595f454d495353494f4e5f4d414e4147455200000000000000000000006000830152602082019050919050565b60006150cc6017836153c9565b91507f554e5354414b455f57494e444f575f46494e49534845440000000000000000006000830152602082019050919050565b600061510c601b836153c9565b91507f494e56414c49445f42414c414e43455f4f4e5f434f4f4c444f574e00000000006000830152602082019050919050565b6151488161540a565b82525050565b615157816154a5565b82525050565b61516681615446565b82525050565b61517581615450565b82525050565b60006020820190506151906000830184614f4a565b92915050565b60006040820190506151ab6000830185614f4a565b6151b8602083018461515d565b9392505050565b60006020820190506151d46000830184614f59565b92915050565b60006020820190506151ef6000830184614f68565b92915050565b600060208201905061520a6000830184614f77565b92915050565b6000602082019050818103600083015261522a8184614f86565b905092915050565b6000602082019050818103600083015261524b81614fbf565b9050919050565b6000602082019050818103600083015261526b81614fff565b9050919050565b6000602082019050818103600083015261528b8161503f565b9050919050565b600060208201905081810360008301526152ab8161507f565b9050919050565b600060208201905081810360008301526152cb816150bf565b9050919050565b600060208201905081810360008301526152eb816150ff565b9050919050565b6000602082019050615307600083018461513f565b92915050565b6000602082019050615322600083018461514e565b92915050565b600060408201905061533d600083018561513f565b61534a602083018461513f565b9392505050565b6000606082019050615366600083018661513f565b615373602083018561513f565b615380604083018461515d565b949350505050565b600060208201905061539d600083018461515d565b92915050565b60006020820190506153b8600083018461516c565b92915050565b600081519050919050565b600082825260208201905092915050565b60006153e582615426565b9050919050565b60008115159050919050565b6000615403826153da565b9050919050565b60006fffffffffffffffffffffffffffffffff82169050919050565b600073ffffffffffffffffffffffffffffffffffffffff82169050919050565b6000819050919050565b600060ff82169050919050565b60006154688261546f565b9050919050565b600061547a82615426565b9050919050565b600061548c82615493565b9050919050565b600061549e82615426565b9050919050565b60006154b08261540a565b9050919050565b60005b838110156154d55780820151818401526020810190506154ba565b838111156154e4576000848401525b50505050565b6000601f19601f8301169050919050565b615504816153da565b811461550f57600080fd5b50565b61551b816153f8565b811461552657600080fd5b50565b6155328161540a565b811461553d57600080fd5b50565b61554981615446565b811461555457600080fd5b50565b61556081615450565b811461556b57600080fd5b5056fe45524332303a207472616e7366657220746f20746865207a65726f206164647265737345524332303a206275726e20616d6f756e7420657863656564732062616c616e636545524332303a20617070726f766520746f20746865207a65726f206164647265737345524332303a207472616e7366657220616d6f756e7420657863656564732062616c616e6365536166654d6174683a206d756c7469706c69636174696f6e206f766572666c6f7745524332303a207472616e7366657220616d6f756e74206578636565647320616c6c6f77616e6365436f6e747261637420696e7374616e63652068617320616c7265616479206265656e20696e697469616c697a656445524332303a206275726e2066726f6d20746865207a65726f206164647265737345524332303a207472616e736665722066726f6d20746865207a65726f206164647265737345524332303a20617070726f76652066726f6d20746865207a65726f20616464726573735361666545524332303a204552433230206f7065726174696f6e20646964206e6f74207375636365656445524332303a2064656372656173656420616c6c6f77616e63652062656c6f77207a65726fa26469706673582212200d545560b0e0c86fa7c2a80b442f05e834797fa85395af3784061d5c022cc20f64736f6c63430007050033",
  "linkReferences": {},
  "deployedLinkReferences": {}
}