{
  "_format": "hh-sol-artifact-1",
  "contractName": "AaveDistributionManager",
  "sourceName": "contracts/stake/AaveDistributionManager.sol",
  "abi": [
    {
      "inputs": [
        {
          "internalType": "address",
          "name": "emissionManager",
          "type": "address"
        },
        {
          "internalType": "uint256",
          "name": "distributionDuration",
          "type": "uint256"
        }
      ],
      "stateMutability": "nonpayable",
      "type": "constructor"
    },
    {
      "anonymous": false,
      "inputs": [
        {
          "indexed": true,
          "internalType": "address",
          "name": "asset",
          "type": "address"
        },
        {
          "indexed": false,
          "internalType": "uint256",
          "name": "emission",
          "type": "uint256"
        }
      ],
      "name": "AssetConfigUpdated",
      "type": "event"
    },
    {
      "anonymous": false,
      "inputs": [
        {
          "indexed": true,
          "internalType": "address",
          "name": "asset",
          "type": "address"
        },
        {
          "indexed": false,
          "internalType": "uint256",
          "name": "index",
          "type": "uint256"
        }
      ],
      "name": "AssetIndexUpdated",
      "type": "event"
    },
    {
      "anonymous": false,
      "inputs": [
        {
          "indexed": true,
          "internalType": "address",
          "name": "user",
          "type": "address"
        },
        {
          "indexed": true,
          "internalType": "address",
          "name": "asset",
          "type": "address"
        },
        {
          "indexed": false,
          "internalType": "uint256",
          "name": "index",
          "type": "uint256"
        }
      ],
      "name": "UserIndexUpdated",
      "type": "event"
    },
    {
      "inputs": [],
      "name": "DISTRIBUTION_END",
      "outputs": [
        {
          "internalType": "uint256",
          "name": "",
          "type": "uint256"
        }
      ],
      "stateMutability": "view",
      "type": "function"
    },
    {
      "inputs": [],
      "name": "EMISSION_MANAGER",
      "outputs": [
        {
          "internalType": "address",
          "name": "",
          "type": "address"
        }
      ],
      "stateMutability": "view",
      "type": "function"
    },
    {
      "inputs": [],
      "name": "PRECISION",
      "outputs": [
        {
          "internalType": "uint8",
          "name": "",
          "type": "uint8"
        }
      ],
      "stateMutability": "view",
      "type": "function"
    },
    {
      "inputs": [
        {
          "internalType": "address",
          "name": "",
          "type": "address"
        }
      ],
      "name": "assets",
      "outputs": [
        {
          "internalType": "uint128",
          "name": "emissionPerSecond",
          "type": "uint128"
        },
        {
          "internalType": "uint128",
          "name": "lastUpdateTimestamp",
          "type": "uint128"
        },
        {
          "internalType": "uint256",
          "name": "index",
          "type": "uint256"
        },
        {
          "internalType": "uint256",
          "name": "A",
          "type": "uint256"
        },
        {
          "internalType": "uint256",
          "name": "B",
          "type": "uint256"
        },
        {
          "internalType": "uint256",
          "name": "C",
          "type": "uint256"
        },
        {
          "internalType": "uint256",
          "name": "D",
          "type": "uint256"
        }
      ],
      "stateMutability": "view",
      "type": "function"
    },
    {
      "inputs": [
        {
          "components": [
            {
              "internalType": "uint128",
              "name": "emissionPerSecond",
              "type": "uint128"
            },
            {
              "internalType": "uint256",
              "name": "totalStaked",
              "type": "uint256"
            },
            {
              "internalType": "uint256",
              "name": "A",
              "type": "uint256"
            },
            {
              "internalType": "uint256",
              "name": "B",
              "type": "uint256"
            },
            {
              "internalType": "uint256",
              "name": "C",
              "type": "uint256"
            },
            {
              "internalType": "uint256",
              "name": "D",
              "type": "uint256"
            },
            {
              "internalType": "address",
              "name": "underlyingAsset",
              "type": "address"
            }
          ],
          "internalType": "struct DistributionTypes.AssetConfigInput[]",
          "name": "assetsConfigInput",
          "type": "tuple[]"
        }
      ],
      "name": "configureAssets",
      "outputs": [],
      "stateMutability": "nonpayable",
      "type": "function"
    },
    {
      "inputs": [
        {
          "internalType": "address",
          "name": "user",
          "type": "address"
        },
        {
          "internalType": "address",
          "name": "asset",
          "type": "address"
        }
      ],
      "name": "getUserAssetData",
      "outputs": [
        {
          "internalType": "uint256",
          "name": "",
          "type": "uint256"
        }
      ],
      "stateMutability": "view",
      "type": "function"
    }
  ],
  "bytecode": "0x60c06040523480156200001157600080fd5b50604051620011373803806200113783398181016040528101906200003791906200014e565b6200005181426200009760201b620005691790919060201c565b608081815250508173ffffffffffffffffffffffffffffffffffffffff1660a08173ffffffffffffffffffffffffffffffffffffffff1660601b81525050505062000201565b60008082840190508381101562000116576040517f08c379a000000000000000000000000000000000000000000000000000000000815260040180806020018281038252601b8152602001807f536166654d6174683a206164646974696f6e206f766572666c6f77000000000081525060200191505060405180910390fd5b8091505092915050565b6000815190506200013181620001cd565b92915050565b6000815190506200014881620001e7565b92915050565b600080604083850312156200016257600080fd5b6000620001728582860162000120565b9250506020620001858582860162000137565b9150509250929050565b60006200019c82620001a3565b9050919050565b600073ffffffffffffffffffffffffffffffffffffffff82169050919050565b6000819050919050565b620001d8816200018f565b8114620001e457600080fd5b50565b620001f281620001c3565b8114620001fe57600080fd5b50565b60805160a05160601c610efb6200023c600039806101ce52806104cd5250806104a4528061076652806107ac52806107d95250610efb6000f3fe608060405234801561001057600080fd5b50600436106100625760003560e01c80633373ee4c1461006757806364010f9614610097578063919cd40f146100b3578063aaf5eb68146100d1578063cbcbb507146100ef578063f11b81881461010d575b600080fd5b610081600480360381019061007c9190610bbe565b610143565b60405161008e9190610db8565b60405180910390f35b6100b160048036038101906100ac9190610bfa565b6101cc565b005b6100bb6104a2565b6040516100c89190610db8565b60405180910390f35b6100d96104c6565b6040516100e69190610dd3565b60405180910390f35b6100f76104cb565b6040516101049190610cf3565b60405180910390f35b61012760048036038101906101229190610b95565b6104ef565b60405161013a9796959493929190610d49565b60405180910390f35b60008060008373ffffffffffffffffffffffffffffffffffffffff1673ffffffffffffffffffffffffffffffffffffffff16815260200190815260200160002060060160008473ffffffffffffffffffffffffffffffffffffffff1673ffffffffffffffffffffffffffffffffffffffff16815260200190815260200160002054905092915050565b7f000000000000000000000000000000000000000000000000000000000000000073ffffffffffffffffffffffffffffffffffffffff163373ffffffffffffffffffffffffffffffffffffffff161461025a576040517f08c379a000000000000000000000000000000000000000000000000000000000815260040161025190610d0e565b60405180910390fd5b60005b8282905081101561049d57600080600085858581811061027957fe5b905060e0020160c00160208101906102919190610b95565b73ffffffffffffffffffffffffffffffffffffffff1673ffffffffffffffffffffffffffffffffffffffff16815260200190815260200160002090508383838181106102d957fe5b905060e002016040013581600201819055508383838181106102f757fe5b905060e0020160600135816003018190555083838381811061031557fe5b905060e0020160800135816004018190555083838381811061033357fe5b905060e0020160a00135816005018190555061039c84848481811061035457fe5b905060e0020160c001602081019061036c9190610b95565b8286868681811061037957fe5b905060e002016020013584600201548560030154866004015487600501546105f1565b508383838181106103a957fe5b905060e0020160000160208101906103c19190610c3f565b8160000160006101000a8154816fffffffffffffffffffffffffffffffff02191690836fffffffffffffffffffffffffffffffff16021790555083838381811061040757fe5b905060e0020160c001602081019061041f9190610b95565b73ffffffffffffffffffffffffffffffffffffffff167f87fa03892a0556cb6b8f97e6d533a150d4d55fcbf275fff5fa003fa636bcc7fa85858581811061046257fe5b905060e00201600001602081019061047a9190610c3f565b6040516104879190610d2e565b60405180910390a250808060010191505061025d565b505050565b7f000000000000000000000000000000000000000000000000000000000000000081565b601281565b7f000000000000000000000000000000000000000000000000000000000000000081565b60006020528060005260406000206000915090508060000160009054906101000a90046fffffffffffffffffffffffffffffffff16908060000160109054906101000a90046fffffffffffffffffffffffffffffffff16908060010154908060020154908060030154908060040154908060050154905087565b6000808284019050838110156105e7576040517f08c379a000000000000000000000000000000000000000000000000000000000815260040180806020018281038252601b8152602001807f536166654d6174683a206164646974696f6e206f766572666c6f77000000000081525060200191505060405180910390fd5b8091505092915050565b6000808760010154905060008860000160109054906101000a90046fffffffffffffffffffffffffffffffff169050806fffffffffffffffffffffffffffffffff16421415610644578192505050610727565b6000610684838b60000160009054906101000a90046fffffffffffffffffffffffffffffffff166fffffffffffffffffffffffffffffffff16848c610732565b90508281146106e557808a600101819055508a73ffffffffffffffffffffffffffffffffffffffff167f5777ca300dfe5bead41006fbce4389794dbc0ed8d6cccebfaf94630aa04184bc826040516106dc9190610db8565b60405180910390a25b428a60000160106101000a8154816fffffffffffffffffffffffffffffffff02191690836fffffffffffffffffffffffffffffffff1602179055508093505050505b979650505050505050565b6000808414806107425750600082145b8061075e575042836fffffffffffffffffffffffffffffffff16145b8061079b57507f0000000000000000000000000000000000000000000000000000000000000000836fffffffffffffffffffffffffffffffff1610155b156107a857849050610879565b60007f000000000000000000000000000000000000000000000000000000000000000042116107d757426107f9565b7f00000000000000000000000000000000000000000000000000000000000000005b90506000610822856fffffffffffffffffffffffffffffffff168361088190919063ffffffff16565b90506108748761086686610858601260ff16600a0a61084a878d6108cb90919063ffffffff16565b6108cb90919063ffffffff16565b61095190919063ffffffff16565b61056990919063ffffffff16565b925050505b949350505050565b60006108c383836040518060400160405280601e81526020017f536166654d6174683a207375627472616374696f6e206f766572666c6f77000081525061099b565b905092915050565b6000808314156108de576000905061094b565b60008284029050828482816108ef57fe5b0414610946576040517f08c379a0000000000000000000000000000000000000000000000000000000008152600401808060200182810382526021815260200180610ea56021913960400191505060405180910390fd5b809150505b92915050565b600061099383836040518060400160405280601a81526020017f536166654d6174683a206469766973696f6e206279207a65726f000000000000815250610a5b565b905092915050565b6000838311158290610a48576040517f08c379a00000000000000000000000000000000000000000000000000000000081526004018080602001828103825283818151815260200191508051906020019080838360005b83811015610a0d5780820151818401526020810190506109f2565b50505050905090810190601f168015610a3a5780820380516001836020036101000a031916815260200191505b509250505060405180910390fd5b5060008385039050809150509392505050565b60008083118290610b07576040517f08c379a00000000000000000000000000000000000000000000000000000000081526004018080602001828103825283818151815260200191508051906020019080838360005b83811015610acc578082015181840152602081019050610ab1565b50505050905090810190601f168015610af95780820380516001836020036101000a031916815260200191505b509250505060405180910390fd5b506000838581610b1357fe5b049050809150509392505050565b600081359050610b3081610e76565b92915050565b60008083601f840112610b4857600080fd5b8235905067ffffffffffffffff811115610b6157600080fd5b6020830191508360e0820283011115610b7957600080fd5b9250929050565b600081359050610b8f81610e8d565b92915050565b600060208284031215610ba757600080fd5b6000610bb584828501610b21565b91505092915050565b60008060408385031215610bd157600080fd5b6000610bdf85828601610b21565b9250506020610bf085828601610b21565b9150509250929050565b60008060208385031215610c0d57600080fd5b600083013567ffffffffffffffff811115610c2757600080fd5b610c3385828601610b36565b92509250509250929050565b600060208284031215610c5157600080fd5b6000610c5f84828501610b80565b91505092915050565b610c7181610dff565b82525050565b6000610c84601583610dee565b91507f4f4e4c595f454d495353494f4e5f4d414e4147455200000000000000000000006000830152602082019050919050565b610cc081610e11565b82525050565b610ccf81610e64565b82525050565b610cde81610e4d565b82525050565b610ced81610e57565b82525050565b6000602082019050610d086000830184610c68565b92915050565b60006020820190508181036000830152610d2781610c77565b9050919050565b6000602082019050610d436000830184610cc6565b92915050565b600060e082019050610d5e600083018a610cb7565b610d6b6020830189610cb7565b610d786040830188610cd5565b610d856060830187610cd5565b610d926080830186610cd5565b610d9f60a0830185610cd5565b610dac60c0830184610cd5565b98975050505050505050565b6000602082019050610dcd6000830184610cd5565b92915050565b6000602082019050610de86000830184610ce4565b92915050565b600082825260208201905092915050565b6000610e0a82610e2d565b9050919050565b60006fffffffffffffffffffffffffffffffff82169050919050565b600073ffffffffffffffffffffffffffffffffffffffff82169050919050565b6000819050919050565b600060ff82169050919050565b6000610e6f82610e11565b9050919050565b610e7f81610dff565b8114610e8a57600080fd5b50565b610e9681610e11565b8114610ea157600080fd5b5056fe536166654d6174683a206d756c7469706c69636174696f6e206f766572666c6f77a264697066735822122047d1bbb8b5a681342c8a627aaf6d82f1fcd41d86eb0767f97ca0fc2fbe28af5164736f6c63430007050033",
  "linkReferences": {},
  "deployedLinkReferences": {}
}