{
  "_format": "hh-sol-artifact-1",
  "contractName": "StakedTVB",
  "sourceName": "contracts/stake/StakedAave.sol",
  "abi": [
    {
      "inputs": [
        {
          "internalType": "contract IERC20",
          "name": "stakedToken",
          "type": "address"
        },
        {
          "internalType": "contract IERC20",
          "name": "rewardToken",
          "type": "address"
        },
        {
          "internalType": "uint256",
          "name": "cooldownSeconds",
          "type": "uint256"
        },
        {
          "internalType": "uint256",
          "name": "unstakeWindow",
          "type": "uint256"
        },
        {
          "internalType": "address",
          "name": "rewardsVault",
          "type": "address"
        },
        {
          "internalType": "address",
          "name": "emissionManager",
          "type": "address"
        },
        {
          "internalType": "uint128",
          "name": "distributionDuration",
          "type": "uint128"
        }
      ],
      "stateMutability": "nonpayable",
      "type": "constructor"
    },
    {
      "anonymous": false,
      "inputs": [
        {
          "indexed": true,
          "internalType": "address",
          "name": "owner",
          "type": "address"
        },
        {
          "indexed": true,
          "internalType": "address",
          "name": "spender",
          "type": "address"
        },
        {
          "indexed": false,
          "internalType": "uint256",
          "name": "value",
          "type": "uint256"
        }
      ],
      "name": "Approval",
      "type": "event"
    },
    {
      "anonymous": false,
      "inputs": [
        {
          "indexed": true,
          "internalType": "address",
          "name": "asset",
          "type": "address"
        },
        {
          "indexed": false,
          "internalType": "uint256",
          "name": "emission",
          "type": "uint256"
        }
      ],
      "name": "AssetConfigUpdated",
      "type": "event"
    },
    {
      "anonymous": false,
      "inputs": [
        {
          "indexed": true,
          "internalType": "address",
          "name": "asset",
          "type": "address"
        },
        {
          "indexed": false,
          "internalType": "uint256",
          "name": "index",
          "type": "uint256"
        }
      ],
      "name": "AssetIndexUpdated",
      "type": "event"
    },
    {
      "anonymous": false,
      "inputs": [
        {
          "indexed": true,
          "internalType": "address",
          "name": "user",
          "type": "address"
        }
      ],
      "name": "Cooldown",
      "type": "event"
    },
    {
      "anonymous": false,
      "inputs": [
        {
          "indexed": true,
          "internalType": "address",
          "name": "from",
          "type": "address"
        },
        {
          "indexed": true,
          "internalType": "address",
          "name": "to",
          "type": "address"
        },
        {
          "indexed": false,
          "internalType": "uint256",
          "name": "amount",
          "type": "uint256"
        }
      ],
      "name": "Redeem",
      "type": "event"
    },
    {
      "anonymous": false,
      "inputs": [
        {
          "indexed": false,
          "internalType": "address",
          "name": "user",
          "type": "address"
        },
        {
          "indexed": false,
          "internalType": "uint256",
          "name": "amount",
          "type": "uint256"
        }
      ],
      "name": "RewardsAccrued",
      "type": "event"
    },
    {
      "anonymous": false,
      "inputs": [
        {
          "indexed": true,
          "internalType": "address",
          "name": "from",
          "type": "address"
        },
        {
          "indexed": true,
          "internalType": "address",
          "name": "to",
          "type": "address"
        },
        {
          "indexed": false,
          "internalType": "uint256",
          "name": "amount",
          "type": "uint256"
        }
      ],
      "name": "RewardsClaimed",
      "type": "event"
    },
    {
      "anonymous": false,
      "inputs": [
        {
          "indexed": false,
          "internalType": "address",
          "name": "owner",
          "type": "address"
        },
        {
          "indexed": false,
          "internalType": "uint128",
          "name": "oldValue",
          "type": "uint128"
        },
        {
          "indexed": false,
          "internalType": "uint128",
          "name": "newValue",
          "type": "uint128"
        }
      ],
      "name": "SnapshotDone",
      "type": "event"
    },
    {
      "anonymous": false,
      "inputs": [
        {
          "indexed": true,
          "internalType": "address",
          "name": "from",
          "type": "address"
        },
        {
          "indexed": true,
          "internalType": "address",
          "name": "onBehalfOf",
          "type": "address"
        },
        {
          "indexed": false,
          "internalType": "uint256",
          "name": "amount",
          "type": "uint256"
        }
      ],
      "name": "Staked",
      "type": "event"
    },
    {
      "anonymous": false,
      "inputs": [
        {
          "indexed": true,
          "internalType": "address",
          "name": "from",
          "type": "address"
        },
        {
          "indexed": true,
          "internalType": "address",
          "name": "to",
          "type": "address"
        },
        {
          "indexed": false,
          "internalType": "uint256",
          "name": "value",
          "type": "uint256"
        }
      ],
      "name": "Transfer",
      "type": "event"
    },
    {
      "anonymous": false,
      "inputs": [
        {
          "indexed": true,
          "internalType": "address",
          "name": "user",
          "type": "address"
        },
        {
          "indexed": true,
          "internalType": "address",
          "name": "asset",
          "type": "address"
        },
        {
          "indexed": false,
          "internalType": "uint256",
          "name": "index",
          "type": "uint256"
        }
      ],
      "name": "UserIndexUpdated",
      "type": "event"
    },
    {
      "inputs": [],
      "name": "COOLDOWN_SECONDS",
      "outputs": [
        {
          "internalType": "uint256",
          "name": "",
          "type": "uint256"
        }
      ],
      "stateMutability": "view",
      "type": "function"
    },
    {
      "inputs": [],
      "name": "DISTRIBUTION_END",
      "outputs": [
        {
          "internalType": "uint256",
          "name": "",
          "type": "uint256"
        }
      ],
      "stateMutability": "view",
      "type": "function"
    },
    {
      "inputs": [],
      "name": "EMISSION_MANAGER",
      "outputs": [
        {
          "internalType": "address",
          "name": "",
          "type": "address"
        }
      ],
      "stateMutability": "view",
      "type": "function"
    },
    {
      "inputs": [],
      "name": "LOCK_TIME",
      "outputs": [
        {
          "internalType": "uint256",
          "name": "",
          "type": "uint256"
        }
      ],
      "stateMutability": "view",
      "type": "function"
    },
    {
      "inputs": [],
      "name": "PRECISION",
      "outputs": [
        {
          "internalType": "uint8",
          "name": "",
          "type": "uint8"
        }
      ],
      "stateMutability": "view",
      "type": "function"
    },
    {
      "inputs": [],
      "name": "REVISION",
      "outputs": [
        {
          "internalType": "uint256",
          "name": "",
          "type": "uint256"
        }
      ],
      "stateMutability": "view",
      "type": "function"
    },
    {
      "inputs": [],
      "name": "REWARDS_VAULT",
      "outputs": [
        {
          "internalType": "address",
          "name": "",
          "type": "address"
        }
      ],
      "stateMutability": "view",
      "type": "function"
    },
    {
      "inputs": [],
      "name": "REWARD_TOKEN",
      "outputs": [
        {
          "internalType": "contract IERC20",
          "name": "",
          "type": "address"
        }
      ],
      "stateMutability": "view",
      "type": "function"
    },
    {
      "inputs": [],
      "name": "STAKED_TOKEN",
      "outputs": [
        {
          "internalType": "contract IERC20",
          "name": "",
          "type": "address"
        }
      ],
      "stateMutability": "view",
      "type": "function"
    },
    {
      "inputs": [],
      "name": "TOTAL_STAKED",
      "outputs": [
        {
          "internalType": "uint256",
          "name": "",
          "type": "uint256"
        }
      ],
      "stateMutability": "view",
      "type": "function"
    },
    {
      "inputs": [],
      "name": "TOTAL_USERS",
      "outputs": [
        {
          "internalType": "uint256",
          "name": "",
          "type": "uint256"
        }
      ],
      "stateMutability": "view",
      "type": "function"
    },
    {
      "inputs": [],
      "name": "UNSTAKE_WINDOW",
      "outputs": [
        {
          "internalType": "uint256",
          "name": "",
          "type": "uint256"
        }
      ],
      "stateMutability": "view",
      "type": "function"
    },
    {
      "inputs": [],
      "name": "_aaveGovernance",
      "outputs": [
        {
          "internalType": "contract ITransferHook",
          "name": "",
          "type": "address"
        }
      ],
      "stateMutability": "view",
      "type": "function"
    },
    {
      "inputs": [
        {
          "internalType": "address",
          "name": "",
          "type": "address"
        }
      ],
      "name": "_countsSnapshots",
      "outputs": [
        {
          "internalType": "uint256",
          "name": "",
          "type": "uint256"
        }
      ],
      "stateMutability": "view",
      "type": "function"
    },
    {
      "inputs": [
        {
          "internalType": "uint256",
          "name": "X",
          "type": "uint256"
        },
        {
          "internalType": "uint256",
          "name": "Y",
          "type": "uint256"
        },
        {
          "internalType": "uint256",
          "name": "Z",
          "type": "uint256"
        },
        {
          "internalType": "uint256",
          "name": "m",
          "type": "uint256"
        }
      ],
      "name": "_getEmissionPerSecondA",
      "outputs": [
        {
          "internalType": "uint256",
          "name": "",
          "type": "uint256"
        }
      ],
      "stateMutability": "pure",
      "type": "function"
    },
    {
      "inputs": [
        {
          "internalType": "uint256",
          "name": "X",
          "type": "uint256"
        },
        {
          "internalType": "uint256",
          "name": "Y",
          "type": "uint256"
        },
        {
          "internalType": "uint256",
          "name": "Z",
          "type": "uint256"
        },
        {
          "internalType": "uint256",
          "name": "m",
          "type": "uint256"
        }
      ],
      "name": "_getEmissionPerSecondB",
      "outputs": [
        {
          "internalType": "uint256",
          "name": "",
          "type": "uint256"
        }
      ],
      "stateMutability": "pure",
      "type": "function"
    },
    {
      "inputs": [
        {
          "internalType": "uint256",
          "name": "X",
          "type": "uint256"
        },
        {
          "internalType": "uint256",
          "name": "Y",
          "type": "uint256"
        },
        {
          "internalType": "uint256",
          "name": "Z",
          "type": "uint256"
        },
        {
          "internalType": "uint256",
          "name": "m",
          "type": "uint256"
        }
      ],
      "name": "_getEmissionPerSecondC",
      "outputs": [
        {
          "internalType": "uint256",
          "name": "",
          "type": "uint256"
        }
      ],
      "stateMutability": "pure",
      "type": "function"
    },
    {
      "inputs": [
        {
          "internalType": "uint256",
          "name": "X",
          "type": "uint256"
        },
        {
          "internalType": "uint256",
          "name": "Y",
          "type": "uint256"
        },
        {
          "internalType": "uint256",
          "name": "Z",
          "type": "uint256"
        }
      ],
      "name": "_getEmissionPerSecondU",
      "outputs": [
        {
          "internalType": "uint256",
          "name": "",
          "type": "uint256"
        }
      ],
      "stateMutability": "pure",
      "type": "function"
    },
    {
      "inputs": [
        {
          "internalType": "uint256",
          "name": "X",
          "type": "uint256"
        },
        {
          "internalType": "uint256",
          "name": "Y",
          "type": "uint256"
        },
        {
          "internalType": "uint256",
          "name": "Z",
          "type": "uint256"
        },
        {
          "internalType": "uint256",
          "name": "m",
          "type": "uint256"
        },
        {
          "internalType": "uint256",
          "name": "totalUsers",
          "type": "uint256"
        }
      ],
      "name": "_getEmissionPerSecondVault",
      "outputs": [
        {
          "internalType": "uint128",
          "name": "",
          "type": "uint128"
        }
      ],
      "stateMutability": "pure",
      "type": "function"
    },
    {
      "inputs": [
        {
          "internalType": "address",
          "name": "",
          "type": "address"
        },
        {
          "internalType": "uint256",
          "name": "",
          "type": "uint256"
        }
      ],
      "name": "_snapshots",
      "outputs": [
        {
          "internalType": "uint128",
          "name": "blockNumber",
          "type": "uint128"
        },
        {
          "internalType": "uint128",
          "name": "value",
          "type": "uint128"
        }
      ],
      "stateMutability": "view",
      "type": "function"
    },
    {
      "inputs": [
        {
          "internalType": "address",
          "name": "owner",
          "type": "address"
        },
        {
          "internalType": "address",
          "name": "spender",
          "type": "address"
        }
      ],
      "name": "allowance",
      "outputs": [
        {
          "internalType": "uint256",
          "name": "",
          "type": "uint256"
        }
      ],
      "stateMutability": "view",
      "type": "function"
    },
    {
      "inputs": [
        {
          "internalType": "address",
          "name": "spender",
          "type": "address"
        },
        {
          "internalType": "uint256",
          "name": "amount",
          "type": "uint256"
        }
      ],
      "name": "approve",
      "outputs": [
        {
          "internalType": "bool",
          "name": "",
          "type": "bool"
        }
      ],
      "stateMutability": "nonpayable",
      "type": "function"
    },
    {
      "inputs": [
        {
          "internalType": "address",
          "name": "",
          "type": "address"
        }
      ],
      "name": "assets",
      "outputs": [
        {
          "internalType": "uint128",
          "name": "emissionPerSecond",
          "type": "uint128"
        },
        {
          "internalType": "uint128",
          "name": "lastUpdateTimestamp",
          "type": "uint128"
        },
        {
          "internalType": "uint256",
          "name": "index",
          "type": "uint256"
        }
      ],
      "stateMutability": "view",
      "type": "function"
    },
    {
      "inputs": [
        {
          "internalType": "address",
          "name": "account",
          "type": "address"
        }
      ],
      "name": "balanceOf",
      "outputs": [
        {
          "internalType": "uint256",
          "name": "",
          "type": "uint256"
        }
      ],
      "stateMutability": "view",
      "type": "function"
    },
    {
      "inputs": [
        {
          "internalType": "address",
          "name": "to",
          "type": "address"
        },
        {
          "internalType": "uint256",
          "name": "amount",
          "type": "uint256"
        }
      ],
      "name": "claimRewards",
      "outputs": [],
      "stateMutability": "nonpayable",
      "type": "function"
    },
    {
      "inputs": [
        {
          "components": [
            {
              "internalType": "uint128",
              "name": "emissionPerSecond",
              "type": "uint128"
            },
            {
              "internalType": "uint256",
              "name": "totalStaked",
              "type": "uint256"
            },
            {
              "internalType": "address",
              "name": "underlyingAsset",
              "type": "address"
            }
          ],
          "internalType": "struct DistributionTypes.AssetConfigInput[]",
          "name": "assetsConfigInput",
          "type": "tuple[]"
        }
      ],
      "name": "configureAssets",
      "outputs": [],
      "stateMutability": "nonpayable",
      "type": "function"
    },
    {
      "inputs": [],
      "name": "cooldown",
      "outputs": [],
      "stateMutability": "nonpayable",
      "type": "function"
    },
    {
      "inputs": [],
      "name": "decimals",
      "outputs": [
        {
          "internalType": "uint8",
          "name": "",
          "type": "uint8"
        }
      ],
      "stateMutability": "view",
      "type": "function"
    },
    {
      "inputs": [
        {
          "internalType": "address",
          "name": "spender",
          "type": "address"
        },
        {
          "internalType": "uint256",
          "name": "subtractedValue",
          "type": "uint256"
        }
      ],
      "name": "decreaseAllowance",
      "outputs": [
        {
          "internalType": "bool",
          "name": "",
          "type": "bool"
        }
      ],
      "stateMutability": "nonpayable",
      "type": "function"
    },
    {
      "inputs": [],
      "name": "getAssetEmissionPerSecond",
      "outputs": [
        {
          "internalType": "uint256",
          "name": "",
          "type": "uint256"
        }
      ],
      "stateMutability": "view",
      "type": "function"
    },
    {
      "inputs": [
        {
          "internalType": "uint256",
          "name": "fromCooldownTimestamp",
          "type": "uint256"
        },
        {
          "internalType": "uint256",
          "name": "amountToReceive",
          "type": "uint256"
        },
        {
          "internalType": "address",
          "name": "toAddress",
          "type": "address"
        },
        {
          "internalType": "uint256",
          "name": "toBalance",
          "type": "uint256"
        }
      ],
      "name": "getNextCooldownTimestamp",
      "outputs": [
        {
          "internalType": "uint256",
          "name": "",
          "type": "uint256"
        }
      ],
      "stateMutability": "view",
      "type": "function"
    },
    {
      "inputs": [
        {
          "internalType": "address",
          "name": "staker",
          "type": "address"
        }
      ],
      "name": "getTotalRewardsBalance",
      "outputs": [
        {
          "internalType": "uint256",
          "name": "",
          "type": "uint256"
        }
      ],
      "stateMutability": "view",
      "type": "function"
    },
    {
      "inputs": [
        {
          "internalType": "address",
          "name": "user",
          "type": "address"
        },
        {
          "internalType": "address",
          "name": "asset",
          "type": "address"
        }
      ],
      "name": "getUserAssetData",
      "outputs": [
        {
          "internalType": "uint256",
          "name": "",
          "type": "uint256"
        }
      ],
      "stateMutability": "view",
      "type": "function"
    },
    {
      "inputs": [
        {
          "internalType": "address",
          "name": "user",
          "type": "address"
        }
      ],
      "name": "getUserLockEndTimestamp",
      "outputs": [
        {
          "internalType": "uint256",
          "name": "",
          "type": "uint256"
        }
      ],
      "stateMutability": "view",
      "type": "function"
    },
    {
      "inputs": [
        {
          "internalType": "address",
          "name": "spender",
          "type": "address"
        },
        {
          "internalType": "uint256",
          "name": "addedValue",
          "type": "uint256"
        }
      ],
      "name": "increaseAllowance",
      "outputs": [
        {
          "internalType": "bool",
          "name": "",
          "type": "bool"
        }
      ],
      "stateMutability": "nonpayable",
      "type": "function"
    },
    {
      "inputs": [
        {
          "internalType": "contract ITransferHook",
          "name": "aaveGovernance",
          "type": "address"
        },
        {
          "internalType": "string",
          "name": "name",
          "type": "string"
        },
        {
          "internalType": "string",
          "name": "symbol",
          "type": "string"
        },
        {
          "internalType": "uint8",
          "name": "decimals",
          "type": "uint8"
        }
      ],
      "name": "initialize",
      "outputs": [],
      "stateMutability": "nonpayable",
      "type": "function"
    },
    {
      "inputs": [],
      "name": "name",
      "outputs": [
        {
          "internalType": "string",
          "name": "",
          "type": "string"
        }
      ],
      "stateMutability": "view",
      "type": "function"
    },
    {
      "inputs": [
        {
          "internalType": "address",
          "name": "to",
          "type": "address"
        },
        {
          "internalType": "uint256",
          "name": "amount",
          "type": "uint256"
        }
      ],
      "name": "redeem",
      "outputs": [],
      "stateMutability": "nonpayable",
      "type": "function"
    },
    {
      "inputs": [
        {
          "internalType": "address",
          "name": "onBehalfOf",
          "type": "address"
        },
        {
          "internalType": "uint256",
          "name": "amount",
          "type": "uint256"
        }
      ],
      "name": "stake",
      "outputs": [],
      "stateMutability": "nonpayable",
      "type": "function"
    },
    {
      "inputs": [
        {
          "internalType": "address",
          "name": "",
          "type": "address"
        }
      ],
      "name": "stakerRewardLockTime",
      "outputs": [
        {
          "internalType": "uint256",
          "name": "",
          "type": "uint256"
        }
      ],
      "stateMutability": "view",
      "type": "function"
    },
    {
      "inputs": [
        {
          "internalType": "address",
          "name": "",
          "type": "address"
        }
      ],
      "name": "stakerRewardsToClaim",
      "outputs": [
        {
          "internalType": "uint256",
          "name": "",
          "type": "uint256"
        }
      ],
      "stateMutability": "view",
      "type": "function"
    },
    {
      "inputs": [
        {
          "internalType": "address",
          "name": "",
          "type": "address"
        }
      ],
      "name": "stakersCooldowns",
      "outputs": [
        {
          "internalType": "uint256",
          "name": "",
          "type": "uint256"
        }
      ],
      "stateMutability": "view",
      "type": "function"
    },
    {
      "inputs": [
        {
          "internalType": "uint256",
          "name": "",
          "type": "uint256"
        }
      ],
      "name": "subAmountAfterLockTime",
      "outputs": [
        {
          "internalType": "uint256",
          "name": "",
          "type": "uint256"
        }
      ],
      "stateMutability": "view",
      "type": "function"
    },
    {
      "inputs": [],
      "name": "symbol",
      "outputs": [
        {
          "internalType": "string",
          "name": "",
          "type": "string"
        }
      ],
      "stateMutability": "view",
      "type": "function"
    },
    {
      "inputs": [
        {
          "internalType": "uint256",
          "name": "",
          "type": "uint256"
        }
      ],
      "name": "timestampToIndexOfUsers",
      "outputs": [
        {
          "internalType": "uint256",
          "name": "",
          "type": "uint256"
        }
      ],
      "stateMutability": "view",
      "type": "function"
    },
    {
      "inputs": [],
      "name": "totalSupply",
      "outputs": [
        {
          "internalType": "uint256",
          "name": "",
          "type": "uint256"
        }
      ],
      "stateMutability": "view",
      "type": "function"
    },
    {
      "inputs": [
        {
          "internalType": "address",
          "name": "recipient",
          "type": "address"
        },
        {
          "internalType": "uint256",
          "name": "amount",
          "type": "uint256"
        }
      ],
      "name": "transfer",
      "outputs": [
        {
          "internalType": "bool",
          "name": "",
          "type": "bool"
        }
      ],
      "stateMutability": "nonpayable",
      "type": "function"
    },
    {
      "inputs": [
        {
          "internalType": "address",
          "name": "sender",
          "type": "address"
        },
        {
          "internalType": "address",
          "name": "recipient",
          "type": "address"
        },
        {
          "internalType": "uint256",
          "name": "amount",
          "type": "uint256"
        }
      ],
      "name": "transferFrom",
      "outputs": [
        {
          "internalType": "bool",
          "name": "",
          "type": "bool"
        }
      ],
      "stateMutability": "nonpayable",
      "type": "function"
    }
  ],
  "bytecode": "0x610180604052600060095562093a80610120908152503480156200002257600080fd5b5060405162005b4e38038062005b4e8339818101604052810190620000489190620003ee565b868686868686866040518060400160405280600b81526020017f5374616b656420416176650000000000000000000000000000000000000000008152506040518060400160405280600781526020017f73746b4141564500000000000000000000000000000000000000000000000000815250601284846fffffffffffffffffffffffffffffffff168484848282828260039080519060200190620000ef929190620002dc565b50816004908051906020019062000108929190620002dc565b5080600560006101000a81548160ff021916908360ff1602179055505050505050506200014481426200025360201b6200271a1790919060201c565b608081815250508173ffffffffffffffffffffffffffffffffffffffff1660a08173ffffffffffffffffffffffffffffffffffffffff1660601b8152505050508973ffffffffffffffffffffffffffffffffffffffff1660c08173ffffffffffffffffffffffffffffffffffffffff1660601b815250508873ffffffffffffffffffffffffffffffffffffffff1660e08173ffffffffffffffffffffffffffffffffffffffff1660601b815250508761010081815250508661014081815250508573ffffffffffffffffffffffffffffffffffffffff166101608173ffffffffffffffffffffffffffffffffffffffff1660601b81525050505050505050505050505050505050505062000571565b600080828401905083811015620002d2576040517f08c379a000000000000000000000000000000000000000000000000000000000815260040180806020018281038252601b8152602001807f536166654d6174683a206164646974696f6e206f766572666c6f77000000000081525060200191505060405180910390fd5b8091505092915050565b828054600181600116156101000203166002900490600052602060002090601f01602090048101928262000314576000855562000360565b82601f106200032f57805160ff191683800117855562000360565b8280016001018555821562000360579182015b828111156200035f57825182559160200191906001019062000342565b5b5090506200036f919062000373565b5090565b5b808211156200038e57600081600090555060010162000374565b5090565b600081519050620003a38162000509565b92915050565b600081519050620003ba8162000523565b92915050565b600081519050620003d1816200053d565b92915050565b600081519050620003e88162000557565b92915050565b600080600080600080600060e0888a0312156200040a57600080fd5b60006200041a8a828b01620003a9565b97505060206200042d8a828b01620003a9565b9650506040620004408a828b01620003d7565b9550506060620004538a828b01620003d7565b9450506080620004668a828b0162000392565b93505060a0620004798a828b0162000392565b92505060c06200048c8a828b01620003c0565b91505092959891949750929550565b6000620004a882620004df565b9050919050565b6000620004bc826200049b565b9050919050565b60006fffffffffffffffffffffffffffffffff82169050919050565b600073ffffffffffffffffffffffffffffffffffffffff82169050919050565b6000819050919050565b62000514816200049b565b81146200052057600080fd5b50565b6200052e81620004af565b81146200053a57600080fd5b50565b6200054881620004c3565b81146200055457600080fd5b50565b6200056281620004ff565b81146200056e57600080fd5b50565b60805160a05160601c60c05160601c60e05160601c6101005161012051610140516101605160601c61551e62000630600039806117935280611958525080610c09528061104952806124f25250806111265280611e93525080610b985280610c3052806112725280612516525080611859528061197b525080610d4d5280610f845280611e47525080611ff6528061226752508061176f52806130e2528061312852806131555280614331528061437752806143a4525061551e6000f3fe608060405234801561001057600080fd5b50600436106102a05760003560e01c80637fe696b611610167578063aaf5eb68116100ce578063dde43cba11610087578063dde43cba146108de578063e23119a7146108fc578063e6376c251461092c578063f11b81881461095c578063f1cc432a1461098e578063f6d2ee86146109be576102a0565b8063aaf5eb681461081c578063adc9772e1461083a578063b2a5dbfa14610856578063c3863ada14610872578063cbcbb50714610890578063dd62ed3e146108ae576102a0565b806395d89b411161012057806395d89b411461073457806399248ea7146107525780639a99b4f014610770578063a457c2d71461078c578063a9059cbb146107bc578063a9fe9b2e146107ec576102a0565b80637fe696b61461063857806384aa1e7d146106685780638779588c146106985780638dbefee2146106c8578063919cd40f146106f8578063946776cd14610716576102a0565b8063359c4a961161020b57806366bb0bf8116101c457806366bb0bf81461056257806370a082311461059257806372b49d63146105c25780637403b06d146105e0578063787a08a6146105fe5780637e90d7ef14610608576102a0565b8063359c4a9614610478578063386a0eee1461049657806339509351146104b4578063413d9c3a146104e4578063454a03cf14610502578063610f4dc714610532576102a0565b80631e9a69501161025d5780631e9a69501461038f57806323b872dd146103ab5780632acbf823146103db578063312f6b831461040c578063313ce5671461042a5780633373ee4c14610448576102a0565b8063040ad759146102a557806306fdde03146102c3578063091030c3146102e1578063095ea7b3146103115780631754a7ad1461034157806318160ddd14610371575b600080fd5b6102ad6109da565b6040516102ba9190615145565b60405180910390f35b6102cb6109e0565b6040516102d89190614fcd565b60405180910390f35b6102fb60048036038101906102f69190614959565b610a82565b6040516103089190615145565b60405180910390f35b61032b60048036038101906103269190614a0d565b610a9a565b6040516103389190614f7c565b60405180910390f35b61035b60048036038101906103569190614959565b610ab8565b6040516103689190615145565b60405180910390f35b610379610b01565b6040516103869190615145565b60405180910390f35b6103a960048036038101906103a49190614a0d565b610b0b565b005b6103c560048036038101906103c091906149be565b610e40565b6040516103d29190614f7c565b60405180910390f35b6103f560048036038101906103f09190614a0d565b610f19565b6040516104039291906150e5565b60405180910390f35b610414610f82565b6040516104219190614f97565b60405180910390f35b610432610fa6565b60405161043f9190615160565b60405180910390f35b610462600480360381019061045d9190614982565b610fbd565b60405161046f9190615145565b60405180910390f35b610480611047565b60405161048d9190615145565b60405180910390f35b61049e61106b565b6040516104ab9190615145565b60405180910390f35b6104ce60048036038101906104c99190614a0d565b611071565b6040516104db9190614f7c565b60405180910390f35b6104ec611124565b6040516104f99190615145565b60405180910390f35b61051c60048036038101906105179190614959565b611148565b6040516105299190615145565b60405180910390f35b61054c60048036038101906105479190614b52565b611160565b6040516105599190615145565b60405180910390f35b61057c60048036038101906105779190614c2d565b611178565b6040516105899190615145565b60405180910390f35b6105ac60048036038101906105a79190614959565b611228565b6040516105b99190615145565b60405180910390f35b6105ca611270565b6040516105d79190615145565b60405180910390f35b6105e8611294565b6040516105f59190615145565b60405180910390f35b61060661130c565b005b610622600480360381019061061d9190614959565b6113e1565b60405161062f9190615145565b60405180910390f35b610652600480360381019061064d9190614b52565b6113f9565b60405161065f9190615145565b60405180910390f35b610682600480360381019061067d9190614bde565b611411565b60405161068f9190615145565b60405180910390f35b6106b260048036038101906106ad9190614959565b6114b4565b6040516106bf9190615145565b60405180910390f35b6106e260048036038101906106dd9190614959565b6114cc565b6040516106ef9190615145565b60405180910390f35b61070061176d565b60405161070d9190615145565b60405180910390f35b61071e611791565b60405161072b9190614f38565b60405180910390f35b61073c6117b5565b6040516107499190614fcd565b60405180910390f35b61075a611857565b6040516107679190614f97565b60405180910390f35b61078a60048036038101906107859190614a0d565b61187b565b005b6107a660048036038101906107a19190614a0d565b611a2b565b6040516107b39190614f7c565b60405180910390f35b6107d660048036038101906107d19190614a0d565b611af8565b6040516107e39190614f7c565b60405180910390f35b61080660048036038101906108019190614c90565b611b16565b60405161081391906150af565b60405180910390f35b610824611c08565b6040516108319190615160565b60405180910390f35b610854600480360381019061084f9190614a0d565b611c0d565b005b610870600480360381019061086b9190614a49565b611ff4565b005b61087a61223f565b6040516108879190614fb2565b60405180910390f35b610898612265565b6040516108a59190614f38565b60405180910390f35b6108c860048036038101906108c39190614982565b612289565b6040516108d59190615145565b60405180910390f35b6108e6612310565b6040516108f39190615145565b60405180910390f35b61091660048036038101906109119190614c2d565b612315565b6040516109239190615145565b60405180910390f35b61094660048036038101906109419190614c2d565b6123b2565b6040516109539190615145565b60405180910390f35b61097660048036038101906109719190614959565b612431565b6040516109859392919061510e565b60405180910390f35b6109a860048036038101906109a39190614b7b565b612493565b6040516109b59190615145565b60405180910390f35b6109d860048036038101906109d39190614a8e565b6125f8565b005b60445481565b606060038054600181600116156101000203166002900480601f016020809104026020016040519081016040528092919081815260200182805460018160011615610100020316600290048015610a785780601f10610a4d57610100808354040283529160200191610a78565b820191906000526020600020905b815481529060010190602001808311610a5b57829003601f168201915b5050505050905090565b603e6020528060005260406000206000915090505481565b6000610aae610aa76127a2565b84846127aa565b6001905092915050565b6000603f60008373ffffffffffffffffffffffffffffffffffffffff1673ffffffffffffffffffffffffffffffffffffffff168152602001908152602001600020549050919050565b6000600254905090565b6000811415610b4f576040517f08c379a0000000000000000000000000000000000000000000000000000000008152600401610b4690614fef565b60405180910390fd5b6000603e60003373ffffffffffffffffffffffffffffffffffffffff1673ffffffffffffffffffffffffffffffffffffffff168152602001908152602001600020549050610bc67f00000000000000000000000000000000000000000000000000000000000000008261271a90919063ffffffff16565b4211610c07576040517f08c379a0000000000000000000000000000000000000000000000000000000008152600401610bfe9061500f565b60405180910390fd5b7f0000000000000000000000000000000000000000000000000000000000000000610c6d610c5e7f00000000000000000000000000000000000000000000000000000000000000008461271a90919063ffffffff16565b426129a190919063ffffffff16565b1115610cae576040517f08c379a0000000000000000000000000000000000000000000000000000000008152600401610ca59061506f565b60405180910390fd5b6000610cb933611228565b90506000818411610cca5783610ccc565b815b9050610cda338360016129eb565b50610ce53382612aed565b6000610cfa82846129a190919063ffffffff16565b1415610d46576000603e60003373ffffffffffffffffffffffffffffffffffffffff1673ffffffffffffffffffffffffffffffffffffffff168152602001908152602001600020819055505b610d9185827f000000000000000000000000000000000000000000000000000000000000000073ffffffffffffffffffffffffffffffffffffffff16612cb19092919063ffffffff16565b603f60003373ffffffffffffffffffffffffffffffffffffffff1673ffffffffffffffffffffffffffffffffffffffff168152602001908152602001600020600090558473ffffffffffffffffffffffffffffffffffffffff163373ffffffffffffffffffffffffffffffffffffffff167fd12200efa34901b99367694174c3b0d32c99585fdf37c7c26892136ddd0836d983604051610e319190615145565b60405180910390a35050505050565b6000610e4d848484612d53565b610f0e84610e596127a2565b610f09856040518060600160405280602881526020016153da60289139600160008b73ffffffffffffffffffffffffffffffffffffffff1673ffffffffffffffffffffffffffffffffffffffff1681526020019081526020016000206000610ebf6127a2565b73ffffffffffffffffffffffffffffffffffffffff1673ffffffffffffffffffffffffffffffffffffffff16815260200190815260200160002054612ebc9092919063ffffffff16565b6127aa565b600190509392505050565b6006602052816000526040600020602052806000526040600020600091509150508060000160009054906101000a90046fffffffffffffffffffffffffffffffff16908060000160109054906101000a90046fffffffffffffffffffffffffffffffff16905082565b7f000000000000000000000000000000000000000000000000000000000000000081565b6000600560009054906101000a900460ff16905090565b6000603c60008373ffffffffffffffffffffffffffffffffffffffff1673ffffffffffffffffffffffffffffffffffffffff16815260200190815260200160002060020160008473ffffffffffffffffffffffffffffffffffffffff1673ffffffffffffffffffffffffffffffffffffffff16815260200190815260200160002054905092915050565b7f000000000000000000000000000000000000000000000000000000000000000081565b60425481565b600061111a61107e6127a2565b84611115856001600061108f6127a2565b73ffffffffffffffffffffffffffffffffffffffff1673ffffffffffffffffffffffffffffffffffffffff16815260200190815260200160002060008973ffffffffffffffffffffffffffffffffffffffff1673ffffffffffffffffffffffffffffffffffffffff1681526020019081526020016000205461271a90919063ffffffff16565b6127aa565b6001905092915050565b7f000000000000000000000000000000000000000000000000000000000000000081565b603f6020528060005260406000206000915090505481565b60416020528060005260406000206000915090505481565b600080611186868686611411565b905060006111eb633b9aca006111dd6111a96001886129a190919063ffffffff16565b6111cf60026111c18b8d6129a190919063ffffffff16565b612f7c90919063ffffffff16565b612f7c90919063ffffffff16565b612f7c90919063ffffffff16565b90506000611206633b9aca008461271a90919063ffffffff16565b905061121b818361300290919063ffffffff16565b9350505050949350505050565b60008060008373ffffffffffffffffffffffffffffffffffffffff1673ffffffffffffffffffffffffffffffffffffffff168152602001908152602001600020549050919050565b7f000000000000000000000000000000000000000000000000000000000000000081565b6000603c60003073ffffffffffffffffffffffffffffffffffffffff1673ffffffffffffffffffffffffffffffffffffffff16815260200190815260200160002060000160009054906101000a90046fffffffffffffffffffffffffffffffff166fffffffffffffffffffffffffffffffff16905090565b600061131733611228565b1415611358576040517f08c379a000000000000000000000000000000000000000000000000000000000815260040161134f9061508f565b60405180910390fd5b42603e60003373ffffffffffffffffffffffffffffffffffffffff1673ffffffffffffffffffffffffffffffffffffffff168152602001908152602001600020819055503373ffffffffffffffffffffffffffffffffffffffff167ff52f50426b32362d3e6bb8cb36b7074756b224622def6352a59eac7f66ebe6e860405160405180910390a2565b603d6020528060005260406000206000915090505481565b60406020528060005260406000206000915090505481565b60008061146161142a86856129a190919063ffffffff16565b611453633b9aca0061144587896129a190919063ffffffff16565b612f7c90919063ffffffff16565b61300290919063ffffffff16565b90506114aa61149b611496670de0b6b3a76400006114888586612f7c90919063ffffffff16565b6129a190919063ffffffff16565b61304c565b826129a190919063ffffffff16565b9150509392505050565b60076020528060005260406000206000915090505481565b600080603c60003073ffffffffffffffffffffffffffffffffffffffff1673ffffffffffffffffffffffffffffffffffffffff168152602001908152602001600020905060008060406000603f60008873ffffffffffffffffffffffffffffffffffffffff1673ffffffffffffffffffffffffffffffffffffffff1681526020019081526020016000205481526020019081526020016000205414156116635761165e82600101548360000160009054906101000a90046fffffffffffffffffffffffffffffffff166fffffffffffffffffffffffffffffffff168460000160109054906101000a90046fffffffffffffffffffffffffffffffff16604454603f60008a73ffffffffffffffffffffffffffffffffffffffff1673ffffffffffffffffffffffffffffffffffffffff1681526020019081526020016000205442111561165757603f60008a73ffffffffffffffffffffffffffffffffffffffff1673ffffffffffffffffffffffffffffffffffffffff16815260200190815260200160002054611659565b425b6130ae565b6116b7565b60406000603f60008773ffffffffffffffffffffffffffffffffffffffff1673ffffffffffffffffffffffffffffffffffffffff168152602001908152602001600020548152602001908152602001600020545b9050600061170f6116c786611228565b838560020160008973ffffffffffffffffffffffffffffffffffffffff1673ffffffffffffffffffffffffffffffffffffffff168152602001908152602001600020546131fe565b905061176381603d60008873ffffffffffffffffffffffffffffffffffffffff1673ffffffffffffffffffffffffffffffffffffffff1681526020019081526020016000205461271a90919063ffffffff16565b9350505050919050565b7f000000000000000000000000000000000000000000000000000000000000000081565b7f000000000000000000000000000000000000000000000000000000000000000081565b606060048054600181600116156101000203166002900480601f01602080910402602001604051908101604052809291908181526020018280546001816001161561010002031660029004801561184d5780601f106118225761010080835404028352916020019161184d565b820191906000526020600020905b81548152906001019060200180831161183057829003601f168201915b5050505050905090565b7f000000000000000000000000000000000000000000000000000000000000000081565b60006118913361188a33611228565b60006129eb565b905060007fffffffffffffffffffffffffffffffffffffffffffffffffffffffffffffffff83146118c257826118c4565b815b9050611910816040518060400160405280600e81526020017f494e56414c49445f414d4f554e5400000000000000000000000000000000000081525084612ebc9092919063ffffffff16565b603d60003373ffffffffffffffffffffffffffffffffffffffff1673ffffffffffffffffffffffffffffffffffffffff168152602001908152602001600020819055506119c07f000000000000000000000000000000000000000000000000000000000000000085837f000000000000000000000000000000000000000000000000000000000000000073ffffffffffffffffffffffffffffffffffffffff16613247909392919063ffffffff16565b8373ffffffffffffffffffffffffffffffffffffffff163373ffffffffffffffffffffffffffffffffffffffff167f9310ccfcb8de723f578a9e4282ea9f521f05ae40dc08f3068dfad528a65ee3c783604051611a1d9190615145565b60405180910390a350505050565b6000611aee611a386127a2565b84611ae9856040518060600160405280602581526020016154c46025913960016000611a626127a2565b73ffffffffffffffffffffffffffffffffffffffff1673ffffffffffffffffffffffffffffffffffffffff16815260200190815260200160002060008a73ffffffffffffffffffffffffffffffffffffffff1673ffffffffffffffffffffffffffffffffffffffff16815260200190815260200160002054612ebc9092919063ffffffff16565b6127aa565b6001905092915050565b6000611b0c611b056127a2565b8484612d53565b6001905092915050565b600080611b24878787611411565b90506000611b3488888888611178565b90506000611b44898989896123b2565b90506000611b548a8a8a8a612315565b9050611b8e611b7f6001611b71858a6129a190919063ffffffff16565b6129a190919063ffffffff16565b84612f7c90919063ffffffff16565b9250611bcb816002611bbc6001611bae878c6129a190919063ffffffff16565b6129a190919063ffffffff16565b0a61271a90919063ffffffff16565b95506000611bf489611be6898761300290919063ffffffff16565b61271a90919063ffffffff16565b905060019550505050505095945050505050565b601281565b6000811415611c51576040517f08c379a0000000000000000000000000000000000000000000000000000000008152600401611c4890614fef565b60405180910390fd5b6000611c5c83611228565b90506000603f60003373ffffffffffffffffffffffffffffffffffffffff1673ffffffffffffffffffffffffffffffffffffffff1681526020019081526020016000205414611ce0576040517f08c379a0000000000000000000000000000000000000000000000000000000008152600401611cd79061502f565b60405180910390fd5b611cf6600160425461271a90919063ffffffff16565b6042819055506000611d0c843084604454613308565b905060008114611de5577f2468f9268c60ad90e2d49edb0032c8a001e733ae888b3ab8e982edf535be1a768482604051611d47929190614f53565b60405180910390a1611da181603d60008773ffffffffffffffffffffffffffffffffffffffff1673ffffffffffffffffffffffffffffffffffffffff1681526020019081526020016000205461271a90919063ffffffff16565b603d60008673ffffffffffffffffffffffffffffffffffffffff1673ffffffffffffffffffffffffffffffffffffffff168152602001908152602001600020819055505b611df26000848685612493565b603e60008673ffffffffffffffffffffffffffffffffffffffff1673ffffffffffffffffffffffffffffffffffffffff16815260200190815260200160002081905550611e3f8484613564565b611e8c3330857f000000000000000000000000000000000000000000000000000000000000000073ffffffffffffffffffffffffffffffffffffffff16613247909392919063ffffffff16565b6000611ec17f00000000000000000000000000000000000000000000000000000000000000004261271a90919063ffffffff16565b905080603f60003373ffffffffffffffffffffffffffffffffffffffff1673ffffffffffffffffffffffffffffffffffffffff168152602001908152602001600020819055506043819080600181540180825580915050600190039060005260206000200160009091909190915055611f458460445461271a90919063ffffffff16565b604481905550611f7184604160008481526020019081526020016000205461271a90919063ffffffff16565b60416000838152602001908152602001600020819055508473ffffffffffffffffffffffffffffffffffffffff163373ffffffffffffffffffffffffffffffffffffffff167f5dac0c1b1112564a045ba943c9d50270893e8e826c49be8e7073adc713ab7bd786604051611fe59190615145565b60405180910390a35050505050565b7f000000000000000000000000000000000000000000000000000000000000000073ffffffffffffffffffffffffffffffffffffffff163373ffffffffffffffffffffffffffffffffffffffff1614612082576040517f08c379a00000000000000000000000000000000000000000000000000000000081526004016120799061504f565b60405180910390fd5b60005b8282905081101561223a576000603c60008585858181106120a257fe5b90506060020160400160208101906120ba9190614959565b73ffffffffffffffffffffffffffffffffffffffff1673ffffffffffffffffffffffffffffffffffffffff168152602001908152602001600020905061213984848481811061210557fe5b905060600201604001602081019061211d9190614959565b8286868681811061212a57fe5b9050606002016020013561372b565b5083838381811061214657fe5b905060600201600001602081019061215e9190614b29565b8160000160006101000a8154816fffffffffffffffffffffffffffffffff02191690836fffffffffffffffffffffffffffffffff1602179055508383838181106121a457fe5b90506060020160400160208101906121bc9190614959565b73ffffffffffffffffffffffffffffffffffffffff167f87fa03892a0556cb6b8f97e6d533a150d4d55fcbf275fff5fa003fa636bcc7fa8585858181106121ff57fe5b90506060020160000160208101906122179190614b29565b60405161222491906150ca565b60405180910390a2508080600101915050612085565b505050565b600860009054906101000a900473ffffffffffffffffffffffffffffffffffffffff1681565b7f000000000000000000000000000000000000000000000000000000000000000081565b6000600160008473ffffffffffffffffffffffffffffffffffffffff1673ffffffffffffffffffffffffffffffffffffffff16815260200190815260200160002060008373ffffffffffffffffffffffffffffffffffffffff1673ffffffffffffffffffffffffffffffffffffffff16815260200190815260200160002054905092915050565b600181565b600080612342605a612334633b9aca0086612f7c90919063ffffffff16565b6129a190919063ffffffff16565b90506000612351878787611411565b9050600061236c633b9aca008361271a90919063ffffffff16565b90506123a5612384828561300290919063ffffffff16565b612397838661300290919063ffffffff16565b612f7c90919063ffffffff16565b9350505050949350505050565b6000806123c0868686611411565b90506124266123dc633b9aca008361271a90919063ffffffff16565b6124188361240a633b9aca006123fc60018a6129a190919063ffffffff16565b612f7c90919063ffffffff16565b612f7c90919063ffffffff16565b61300290919063ffffffff16565b915050949350505050565b603c6020528060005260406000206000915090508060000160009054906101000a90046fffffffffffffffffffffffffffffffff16908060000160109054906101000a90046fffffffffffffffffffffffffffffffff16908060010154905083565b600080603e60008573ffffffffffffffffffffffffffffffffffffffff1673ffffffffffffffffffffffffffffffffffffffff16815260200190815260200160002054905060008114156124eb5760009150506125f0565b60006125527f00000000000000000000000000000000000000000000000000000000000000006125447f0000000000000000000000000000000000000000000000000000000000000000426129a190919063ffffffff16565b6129a190919063ffffffff16565b90508181111561256557600091506125ea565b60008782116125745787612576565b425b90508281101561258b578293505050506125f0565b6125e66125a1868961271a90919063ffffffff16565b6125d86125b78689612f7c90919063ffffffff16565b6125ca858c612f7c90919063ffffffff16565b61271a90919063ffffffff16565b61300290919063ffffffff16565b9250505b81925050505b949350505050565b60006126026139e4565b9050600954811161265e576040517f08c379a000000000000000000000000000000000000000000000000000000000815260040180806020018281038252602e815260200180615402602e913960400191505060405180910390fd5b806009819055506126b286868080601f016020809104026020016040519081016040528093929190818152602001838380828437600081840152601f19601f820116905080830192505050505050506139ed565b6126ff84848080601f016020809104026020016040519081016040528093929190818152602001838380828437600081840152601f19601f82011690508083019250505050505050613a07565b61270882613a21565b61271187613a3f565b50505050505050565b600080828401905083811015612798576040517f08c379a000000000000000000000000000000000000000000000000000000000815260040180806020018281038252601b8152602001807f536166654d6174683a206164646974696f6e206f766572666c6f77000000000081525060200191505060405180910390fd5b8091505092915050565b600033905090565b600073ffffffffffffffffffffffffffffffffffffffff168373ffffffffffffffffffffffffffffffffffffffff161415612830576040517f08c379a00000000000000000000000000000000000000000000000000000000081526004018080602001828103825260248152602001806154766024913960400191505060405180910390fd5b600073ffffffffffffffffffffffffffffffffffffffff168273ffffffffffffffffffffffffffffffffffffffff1614156128b6576040517f08c379a00000000000000000000000000000000000000000000000000000000081526004018080602001828103825260228152602001806153716022913960400191505060405180910390fd5b80600160008573ffffffffffffffffffffffffffffffffffffffff1673ffffffffffffffffffffffffffffffffffffffff16815260200190815260200160002060008473ffffffffffffffffffffffffffffffffffffffff1673ffffffffffffffffffffffffffffffffffffffff168152602001908152602001600020819055508173ffffffffffffffffffffffffffffffffffffffff168373ffffffffffffffffffffffffffffffffffffffff167f8c5be1e5ebec7d5bd14f71427d1e84f3dd0314c0f7b2291e5b200ac8c7c3b925836040518082815260200191505060405180910390a3505050565b60006129e383836040518060400160405280601e81526020017f536166654d6174683a207375627472616374696f6e206f766572666c6f770000815250612ebc565b905092915050565b6000806129fc853086604454613308565b90506000612a5282603d60008973ffffffffffffffffffffffffffffffffffffffff1673ffffffffffffffffffffffffffffffffffffffff1681526020019081526020016000205461271a90919063ffffffff16565b905060008214612ae1578315612aa75780603d60008873ffffffffffffffffffffffffffffffffffffffff1673ffffffffffffffffffffffffffffffffffffffff168152602001908152602001600020819055505b7f2468f9268c60ad90e2d49edb0032c8a001e733ae888b3ab8e982edf535be1a768683604051612ad8929190614f53565b60405180910390a15b80925050509392505050565b600073ffffffffffffffffffffffffffffffffffffffff168273ffffffffffffffffffffffffffffffffffffffff161415612b73576040517f08c379a00000000000000000000000000000000000000000000000000000000081526004018080602001828103825260218152602001806154306021913960400191505060405180910390fd5b612b7f82600083613a83565b612bea8160405180606001604052806022815260200161534f602291396000808673ffffffffffffffffffffffffffffffffffffffff1673ffffffffffffffffffffffffffffffffffffffff16815260200190815260200160002054612ebc9092919063ffffffff16565b6000808473ffffffffffffffffffffffffffffffffffffffff1673ffffffffffffffffffffffffffffffffffffffff16815260200190815260200160002081905550612c41816002546129a190919063ffffffff16565b600281905550600073ffffffffffffffffffffffffffffffffffffffff168273ffffffffffffffffffffffffffffffffffffffff167fddf252ad1be2c89b69c2b068fc378daa952ba7f163c4a11628f55a4df523b3ef836040518082815260200191505060405180910390a35050565b612d4e8363a9059cbb60e01b8484604051602401808373ffffffffffffffffffffffffffffffffffffffff16815260200182815260200192505050604051602081830303815290604052907bffffffffffffffffffffffffffffffffffffffffffffffffffffffff19166020820180517bffffffffffffffffffffffffffffffffffffffffffffffffffffffff8381831617835250505050613c86565b505050565b6000612d5e84611228565b9050612d6c848260016129eb565b508273ffffffffffffffffffffffffffffffffffffffff168473ffffffffffffffffffffffffffffffffffffffff1614612eab576000612dab84611228565b9050612db9848260016129eb565b506000603e60008773ffffffffffffffffffffffffffffffffffffffff1673ffffffffffffffffffffffffffffffffffffffff168152602001908152602001600020549050612e0a81858785612493565b603e60008773ffffffffffffffffffffffffffffffffffffffff1673ffffffffffffffffffffffffffffffffffffffff168152602001908152602001600020819055508383148015612e5d575060008114155b15612ea8576000603e60008873ffffffffffffffffffffffffffffffffffffffff1673ffffffffffffffffffffffffffffffffffffffff168152602001908152602001600020819055505b50505b612eb6848484613ed1565b50505050565b6000838311158290612f69576040517f08c379a00000000000000000000000000000000000000000000000000000000081526004018080602001828103825283818151815260200191508051906020019080838360005b83811015612f2e578082015181840152602081019050612f13565b50505050905090810190601f168015612f5b5780820380516001836020036101000a031916815260200191505b509250505060405180910390fd5b5060008385039050809150509392505050565b600080831415612f8f5760009050612ffc565b6000828402905082848281612fa057fe5b0414612ff7576040517f08c379a00000000000000000000000000000000000000000000000000000000081526004018080602001828103825260218152602001806153b96021913960400191505060405180910390fd5b809150505b92915050565b600061304483836040518060400160405280601a81526020017f536166654d6174683a206469766973696f6e206279207a65726f000000000000815250614192565b905092915050565b6000600382111561309b57819050600060016002848161306857fe5b040190505b818110156130955780915060028182858161308457fe5b04018161308d57fe5b04905061306d565b506130a9565b600082146130a857600190505b5b919050565b6000808514806130be5750600083145b806130da575081846fffffffffffffffffffffffffffffffff16145b8061311757507f0000000000000000000000000000000000000000000000000000000000000000846fffffffffffffffffffffffffffffffff1610155b15613124578590506131f5565b60007f000000000000000000000000000000000000000000000000000000000000000083116131535782613175565b7f00000000000000000000000000000000000000000000000000000000000000005b9050600061319e866fffffffffffffffffffffffffffffffff16836129a190919063ffffffff16565b90506131f0886131e2876131d4601260ff16600a0a6131c6878e612f7c90919063ffffffff16565b612f7c90919063ffffffff16565b61300290919063ffffffff16565b61271a90919063ffffffff16565b925050505b95945050505050565b600061323e601260ff16600a0a61323061322185876129a190919063ffffffff16565b87612f7c90919063ffffffff16565b61300290919063ffffffff16565b90509392505050565b613302846323b872dd60e01b858585604051602401808473ffffffffffffffffffffffffffffffffffffffff1681526020018373ffffffffffffffffffffffffffffffffffffffff1681526020018281526020019350505050604051602081830303815290604052907bffffffffffffffffffffffffffffffffffffffffffffffffffffffff19166020820180517bffffffffffffffffffffffffffffffffffffffffffffffffffffffff8381831617835250505050613c86565b50505050565b600080603c60008673ffffffffffffffffffffffffffffffffffffffff1673ffffffffffffffffffffffffffffffffffffffff168152602001908152602001600020905060008160020160008873ffffffffffffffffffffffffffffffffffffffff1673ffffffffffffffffffffffffffffffffffffffff1681526020019081526020016000205490506000806133a088858861372b565b90506000603f60008b73ffffffffffffffffffffffffffffffffffffffff1673ffffffffffffffffffffffffffffffffffffffff1681526020019081526020016000205414158015613431575042603f60008b73ffffffffffffffffffffffffffffffffffffffff1673ffffffffffffffffffffffffffffffffffffffff1681526020019081526020016000205411155b1561348c5760406000603f60008c73ffffffffffffffffffffffffffffffffffffffff1673ffffffffffffffffffffffffffffffffffffffff1681526020019081526020016000205481526020019081526020016000205490505b80831461355557600087146134a9576134a68782856131fe565b91505b808460020160008b73ffffffffffffffffffffffffffffffffffffffff1673ffffffffffffffffffffffffffffffffffffffff168152602001908152602001600020819055508773ffffffffffffffffffffffffffffffffffffffff168973ffffffffffffffffffffffffffffffffffffffff167fbb123b5c06d5408bbea3c4fef481578175cfb432e3b482c6186f02ed9086585b8360405161354c9190615145565b60405180910390a35b81945050505050949350505050565b600073ffffffffffffffffffffffffffffffffffffffff168273ffffffffffffffffffffffffffffffffffffffff161415613607576040517f08c379a000000000000000000000000000000000000000000000000000000000815260040180806020018281038252601f8152602001807f45524332303a206d696e7420746f20746865207a65726f20616464726573730081525060200191505060405180910390fd5b61361360008383613a83565b6136288160025461271a90919063ffffffff16565b60028190555061367f816000808573ffffffffffffffffffffffffffffffffffffffff1673ffffffffffffffffffffffffffffffffffffffff1681526020019081526020016000205461271a90919063ffffffff16565b6000808473ffffffffffffffffffffffffffffffffffffffff1673ffffffffffffffffffffffffffffffffffffffff168152602001908152602001600020819055508173ffffffffffffffffffffffffffffffffffffffff16600073ffffffffffffffffffffffffffffffffffffffff167fddf252ad1be2c89b69c2b068fc378daa952ba7f163c4a11628f55a4df523b3ef836040518082815260200191505060405180910390a35050565b6000808360010154905060008460000160109054906101000a90046fffffffffffffffffffffffffffffffff169050806fffffffffffffffffffffffffffffffff1642141561377e5781925050506139dd565b613789604254614258565b8560000160006101000a8154816fffffffffffffffffffffffffffffffff02191690836fffffffffffffffffffffffffffffffff160217905550600060455490505b6043805490508110156138f25742604382815481106137e657fe5b9060005260206000200154116138e05761384c838760000160009054906101000a90046fffffffffffffffffffffffffffffffff166fffffffffffffffffffffffffffffffff1684886043868154811061383c57fe5b90600052602060002001546130ae565b604060006043848154811061385d57fe5b906000526020600020015481526020019081526020016000208190555061389060016042546129a190919063ffffffff16565b6042819055506138d560416000604384815481106138aa57fe5b90600052602060002001548152602001908152602001600020546044546129a190919063ffffffff16565b6044819055506138e5565b6138f2565b80806001019150506137cb565b806045819055506000613939848860000160009054906101000a90046fffffffffffffffffffffffffffffffff166fffffffffffffffffffffffffffffffff1685896142fd565b905083811461399a578087600101819055508773ffffffffffffffffffffffffffffffffffffffff167f5777ca300dfe5bead41006fbce4389794dbc0ed8d6cccebfaf94630aa04184bc826040516139919190615145565b60405180910390a25b428760000160106101000a8154816fffffffffffffffffffffffffffffffff02191690836fffffffffffffffffffffffffffffffff160217905550809450505050505b9392505050565b60006001905090565b8060039080519060200190613a039291906147b1565b5050565b8060049080519060200190613a1d9291906147b1565b5050565b80600560006101000a81548160ff021916908360ff16021790555050565b80600860006101000a81548173ffffffffffffffffffffffffffffffffffffffff021916908373ffffffffffffffffffffffffffffffffffffffff16021790555050565b8173ffffffffffffffffffffffffffffffffffffffff168373ffffffffffffffffffffffffffffffffffffffff161415613abc57613c81565b600073ffffffffffffffffffffffffffffffffffffffff168373ffffffffffffffffffffffffffffffffffffffff1614613b1c576000613afb84611228565b9050613b1a8482613b1585856129a190919063ffffffff16565b61444c565b505b600073ffffffffffffffffffffffffffffffffffffffff168273ffffffffffffffffffffffffffffffffffffffff1614613b7c576000613b5b83611228565b9050613b7a8382613b75858561271a90919063ffffffff16565b61444c565b505b6000600860009054906101000a900473ffffffffffffffffffffffffffffffffffffffff169050600073ffffffffffffffffffffffffffffffffffffffff168173ffffffffffffffffffffffffffffffffffffffff1614613c7f578073ffffffffffffffffffffffffffffffffffffffff16634a3931498585856040518463ffffffff1660e01b8152600401808473ffffffffffffffffffffffffffffffffffffffff1681526020018373ffffffffffffffffffffffffffffffffffffffff1681526020018281526020019350505050600060405180830381600087803b158015613c6657600080fd5b505af1158015613c7a573d6000803e3d6000fd5b505050505b505b505050565b613ca58273ffffffffffffffffffffffffffffffffffffffff16614766565b613d17576040517f08c379a000000000000000000000000000000000000000000000000000000000815260040180806020018281038252601f8152602001807f5361666545524332303a2063616c6c20746f206e6f6e2d636f6e74726163740081525060200191505060405180910390fd5b600060608373ffffffffffffffffffffffffffffffffffffffff16836040518082805190602001908083835b60208310613d665780518252602082019150602081019050602083039250613d43565b6001836020036101000a0380198251168184511680821785525050505050509050019150506000604051808303816000865af19150503d8060008114613dc8576040519150601f19603f3d011682016040523d82523d6000602084013e613dcd565b606091505b509150915081613e45576040517f08c379a00000000000000000000000000000000000000000000000000000000081526004018080602001828103825260208152602001807f5361666545524332303a206c6f772d6c6576656c2063616c6c206661696c656481525060200191505060405180910390fd5b600081511115613ecb57808060200190516020811015613e6457600080fd5b8101908080519060200190929190505050613eca576040517f08c379a000000000000000000000000000000000000000000000000000000000815260040180806020018281038252602a81526020018061549a602a913960400191505060405180910390fd5b5b50505050565b600073ffffffffffffffffffffffffffffffffffffffff168373ffffffffffffffffffffffffffffffffffffffff161415613f57576040517f08c379a00000000000000000000000000000000000000000000000000000000081526004018080602001828103825260258152602001806154516025913960400191505060405180910390fd5b600073ffffffffffffffffffffffffffffffffffffffff168273ffffffffffffffffffffffffffffffffffffffff161415613fdd576040517f08c379a000000000000000000000000000000000000000000000000000000000815260040180806020018281038252602381526020018061532c6023913960400191505060405180910390fd5b613fe8838383613a83565b61405381604051806060016040528060268152602001615393602691396000808773ffffffffffffffffffffffffffffffffffffffff1673ffffffffffffffffffffffffffffffffffffffff16815260200190815260200160002054612ebc9092919063ffffffff16565b6000808573ffffffffffffffffffffffffffffffffffffffff1673ffffffffffffffffffffffffffffffffffffffff168152602001908152602001600020819055506140e6816000808573ffffffffffffffffffffffffffffffffffffffff1673ffffffffffffffffffffffffffffffffffffffff1681526020019081526020016000205461271a90919063ffffffff16565b6000808473ffffffffffffffffffffffffffffffffffffffff1673ffffffffffffffffffffffffffffffffffffffff168152602001908152602001600020819055508173ffffffffffffffffffffffffffffffffffffffff168373ffffffffffffffffffffffffffffffffffffffff167fddf252ad1be2c89b69c2b068fc378daa952ba7f163c4a11628f55a4df523b3ef836040518082815260200191505060405180910390a3505050565b6000808311829061423e576040517f08c379a00000000000000000000000000000000000000000000000000000000081526004018080602001828103825283818151815260200191508051906020019080838360005b838110156142035780820151818401526020810190506141e8565b50505050905090810190601f1680156142305780820380516001836020036101000a031916815260200191505b509250505060405180910390fd5b50600083858161424a57fe5b049050809150509392505050565b600080612710905060006001905060006113b1905060006005905060006142888588612f7c90919063ffffffff16565b905060006142c3846142b58a6142a78c8a612f7c90919063ffffffff16565b612f7c90919063ffffffff16565b61271a90919063ffffffff16565b905060006142ec846142de848661300290919063ffffffff16565b61271a90919063ffffffff16565b905080975050505050505050919050565b60008084148061430d5750600082145b80614329575042836fffffffffffffffffffffffffffffffff16145b8061436657507f0000000000000000000000000000000000000000000000000000000000000000836fffffffffffffffffffffffffffffffff1610155b1561437357849050614444565b60007f000000000000000000000000000000000000000000000000000000000000000042116143a257426143c4565b7f00000000000000000000000000000000000000000000000000000000000000005b905060006143ed856fffffffffffffffffffffffffffffffff16836129a190919063ffffffff16565b905061443f8761443186614423601260ff16600a0a614415878d612f7c90919063ffffffff16565b612f7c90919063ffffffff16565b61300290919063ffffffff16565b61271a90919063ffffffff16565b925050505b949350505050565b60004390506000600760008673ffffffffffffffffffffffffffffffffffffffff1673ffffffffffffffffffffffffffffffffffffffff1681526020019081526020016000205490506000600660008773ffffffffffffffffffffffffffffffffffffffff1673ffffffffffffffffffffffffffffffffffffffff1681526020019081526020016000209050600082141580156145505750826fffffffffffffffffffffffffffffffff1681600061450e6001866129a190919063ffffffff16565b815260200190815260200160002060000160009054906101000a90046fffffffffffffffffffffffffffffffff166fffffffffffffffffffffffffffffffff16145b156145b9578381600061456d6001866129a190919063ffffffff16565b815260200190815260200160002060000160106101000a8154816fffffffffffffffffffffffffffffffff02191690836fffffffffffffffffffffffffffffffff1602179055506146dd565b6040518060400160405280846fffffffffffffffffffffffffffffffff168152602001856fffffffffffffffffffffffffffffffff1681525081600084815260200190815260200160002060008201518160000160006101000a8154816fffffffffffffffffffffffffffffffff02191690836fffffffffffffffffffffffffffffffff16021790555060208201518160000160106101000a8154816fffffffffffffffffffffffffffffffff02191690836fffffffffffffffffffffffffffffffff16021790555090505061469960018361271a90919063ffffffff16565b600760008873ffffffffffffffffffffffffffffffffffffffff1673ffffffffffffffffffffffffffffffffffffffff168152602001908152602001600020819055505b7f2cd3c83ddac2953ee75f53265d9ea4463eaf05030e5459a1b7e63819b7ce88f7868686604051808473ffffffffffffffffffffffffffffffffffffffff168152602001836fffffffffffffffffffffffffffffffff168152602001826fffffffffffffffffffffffffffffffff168152602001935050505060405180910390a1505050505050565b60008060007fc5d2460186f7233c927e7db2dcc703c0e500b653ca82273b7bfad8045d85a47060001b9050833f91508082141580156147a857506000801b8214155b92505050919050565b828054600181600116156101000203166002900490600052602060002090601f0160209004810192826147e7576000855561482e565b82601f1061480057805160ff191683800117855561482e565b8280016001018555821561482e579182015b8281111561482d578251825591602001919060010190614812565b5b50905061483b919061483f565b5090565b5b80821115614858576000816000905550600101614840565b5090565b60008135905061486b816152b8565b92915050565b60008083601f84011261488357600080fd5b8235905067ffffffffffffffff81111561489c57600080fd5b6020830191508360608202830111156148b457600080fd5b9250929050565b6000813590506148ca816152cf565b92915050565b60008083601f8401126148e257600080fd5b8235905067ffffffffffffffff8111156148fb57600080fd5b60208301915083600182028301111561491357600080fd5b9250929050565b600081359050614929816152e6565b92915050565b60008135905061493e816152fd565b92915050565b60008135905061495381615314565b92915050565b60006020828403121561496b57600080fd5b60006149798482850161485c565b91505092915050565b6000806040838503121561499557600080fd5b60006149a38582860161485c565b92505060206149b48582860161485c565b9150509250929050565b6000806000606084860312156149d357600080fd5b60006149e18682870161485c565b93505060206149f28682870161485c565b9250506040614a038682870161492f565b9150509250925092565b60008060408385031215614a2057600080fd5b6000614a2e8582860161485c565b9250506020614a3f8582860161492f565b9150509250929050565b60008060208385031215614a5c57600080fd5b600083013567ffffffffffffffff811115614a7657600080fd5b614a8285828601614871565b92509250509250929050565b60008060008060008060808789031215614aa757600080fd5b6000614ab589828a016148bb565b965050602087013567ffffffffffffffff811115614ad257600080fd5b614ade89828a016148d0565b9550955050604087013567ffffffffffffffff811115614afd57600080fd5b614b0989828a016148d0565b93509350506060614b1c89828a01614944565b9150509295509295509295565b600060208284031215614b3b57600080fd5b6000614b498482850161491a565b91505092915050565b600060208284031215614b6457600080fd5b6000614b728482850161492f565b91505092915050565b60008060008060808587031215614b9157600080fd5b6000614b9f8782880161492f565b9450506020614bb08782880161492f565b9350506040614bc18782880161485c565b9250506060614bd28782880161492f565b91505092959194509250565b600080600060608486031215614bf357600080fd5b6000614c018682870161492f565b9350506020614c128682870161492f565b9250506040614c238682870161492f565b9150509250925092565b60008060008060808587031215614c4357600080fd5b6000614c518782880161492f565b9450506020614c628782880161492f565b9350506040614c738782880161492f565b9250506060614c848782880161492f565b91505092959194509250565b600080600080600060a08688031215614ca857600080fd5b6000614cb68882890161492f565b9550506020614cc78882890161492f565b9450506040614cd88882890161492f565b9350506060614ce98882890161492f565b9250506080614cfa8882890161492f565b9150509295509295909350565b614d1081615197565b82525050565b614d1f816151a9565b82525050565b614d2e8161521a565b82525050565b614d3d8161523e565b82525050565b6000614d4e8261517b565b614d588185615186565b9350614d68818560208601615274565b614d71816152a7565b840191505092915050565b6000614d89601383615186565b91507f494e56414c49445f5a45524f5f414d4f554e54000000000000000000000000006000830152602082019050919050565b6000614dc9601583615186565b91507f494e53554646494349454e545f434f4f4c444f574e00000000000000000000006000830152602082019050919050565b6000614e09600b83615186565b91507f555345525f5354414b45440000000000000000000000000000000000000000006000830152602082019050919050565b6000614e49601583615186565b91507f4f4e4c595f454d495353494f4e5f4d414e4147455200000000000000000000006000830152602082019050919050565b6000614e89601783615186565b91507f554e5354414b455f57494e444f575f46494e49534845440000000000000000006000830152602082019050919050565b6000614ec9601b83615186565b91507f494e56414c49445f42414c414e43455f4f4e5f434f4f4c444f574e00000000006000830152602082019050919050565b614f05816151c7565b82525050565b614f1481615262565b82525050565b614f2381615203565b82525050565b614f328161520d565b82525050565b6000602082019050614f4d6000830184614d07565b92915050565b6000604082019050614f686000830185614d07565b614f756020830184614f1a565b9392505050565b6000602082019050614f916000830184614d16565b92915050565b6000602082019050614fac6000830184614d25565b92915050565b6000602082019050614fc76000830184614d34565b92915050565b60006020820190508181036000830152614fe78184614d43565b905092915050565b6000602082019050818103600083015261500881614d7c565b9050919050565b6000602082019050818103600083015261502881614dbc565b9050919050565b6000602082019050818103600083015261504881614dfc565b9050919050565b6000602082019050818103600083015261506881614e3c565b9050919050565b6000602082019050818103600083015261508881614e7c565b9050919050565b600060208201905081810360008301526150a881614ebc565b9050919050565b60006020820190506150c46000830184614efc565b92915050565b60006020820190506150df6000830184614f0b565b92915050565b60006040820190506150fa6000830185614efc565b6151076020830184614efc565b9392505050565b60006060820190506151236000830186614efc565b6151306020830185614efc565b61513d6040830184614f1a565b949350505050565b600060208201905061515a6000830184614f1a565b92915050565b60006020820190506151756000830184614f29565b92915050565b600081519050919050565b600082825260208201905092915050565b60006151a2826151e3565b9050919050565b60008115159050919050565b60006151c082615197565b9050919050565b60006fffffffffffffffffffffffffffffffff82169050919050565b600073ffffffffffffffffffffffffffffffffffffffff82169050919050565b6000819050919050565b600060ff82169050919050565b60006152258261522c565b9050919050565b6000615237826151e3565b9050919050565b600061524982615250565b9050919050565b600061525b826151e3565b9050919050565b600061526d826151c7565b9050919050565b60005b83811015615292578082015181840152602081019050615277565b838111156152a1576000848401525b50505050565b6000601f19601f8301169050919050565b6152c181615197565b81146152cc57600080fd5b50565b6152d8816151b5565b81146152e357600080fd5b50565b6152ef816151c7565b81146152fa57600080fd5b50565b61530681615203565b811461531157600080fd5b50565b61531d8161520d565b811461532857600080fd5b5056fe45524332303a207472616e7366657220746f20746865207a65726f206164647265737345524332303a206275726e20616d6f756e7420657863656564732062616c616e636545524332303a20617070726f766520746f20746865207a65726f206164647265737345524332303a207472616e7366657220616d6f756e7420657863656564732062616c616e6365536166654d6174683a206d756c7469706c69636174696f6e206f766572666c6f7745524332303a207472616e7366657220616d6f756e74206578636565647320616c6c6f77616e6365436f6e747261637420696e7374616e63652068617320616c7265616479206265656e20696e697469616c697a656445524332303a206275726e2066726f6d20746865207a65726f206164647265737345524332303a207472616e736665722066726f6d20746865207a65726f206164647265737345524332303a20617070726f76652066726f6d20746865207a65726f20616464726573735361666545524332303a204552433230206f7065726174696f6e20646964206e6f74207375636365656445524332303a2064656372656173656420616c6c6f77616e63652062656c6f77207a65726fa2646970667358221220f266674e7f5d0a44ee5723ae1a9d3a6ca2fda1a16f73a0f03bcb4762b1fd7d3164736f6c63430007050033",
  "linkReferences": {},
  "deployedLinkReferences": {}
}