{
  "_format": "hh-sol-artifact-1",
  "contractName": "StakedAave",
  "sourceName": "contracts/stake/StakedAave.sol",
  "abi": [
    {
      "inputs": [
        {
          "internalType": "contract IERC20",
          "name": "stakedToken",
          "type": "address"
        },
        {
          "internalType": "contract IERC20",
          "name": "rewardToken",
          "type": "address"
        },
        {
          "internalType": "uint256",
          "name": "cooldownSeconds",
          "type": "uint256"
        },
        {
          "internalType": "uint256",
          "name": "unstakeWindow",
          "type": "uint256"
        },
        {
          "internalType": "address",
          "name": "rewardsVault",
          "type": "address"
        },
        {
          "internalType": "address",
          "name": "emissionManager",
          "type": "address"
        },
        {
          "internalType": "uint128",
          "name": "distributionDuration",
          "type": "uint128"
        }
      ],
      "stateMutability": "nonpayable",
      "type": "constructor"
    },
    {
      "anonymous": false,
      "inputs": [
        {
          "indexed": true,
          "internalType": "address",
          "name": "owner",
          "type": "address"
        },
        {
          "indexed": true,
          "internalType": "address",
          "name": "spender",
          "type": "address"
        },
        {
          "indexed": false,
          "internalType": "uint256",
          "name": "value",
          "type": "uint256"
        }
      ],
      "name": "Approval",
      "type": "event"
    },
    {
      "anonymous": false,
      "inputs": [
        {
          "indexed": true,
          "internalType": "address",
          "name": "asset",
          "type": "address"
        },
        {
          "indexed": false,
          "internalType": "uint256",
          "name": "emission",
          "type": "uint256"
        }
      ],
      "name": "AssetConfigUpdated",
      "type": "event"
    },
    {
      "anonymous": false,
      "inputs": [
        {
          "indexed": true,
          "internalType": "address",
          "name": "asset",
          "type": "address"
        },
        {
          "indexed": false,
          "internalType": "uint256",
          "name": "index",
          "type": "uint256"
        }
      ],
      "name": "AssetIndexUpdated",
      "type": "event"
    },
    {
      "anonymous": false,
      "inputs": [
        {
          "indexed": true,
          "internalType": "address",
          "name": "user",
          "type": "address"
        }
      ],
      "name": "Cooldown",
      "type": "event"
    },
    {
      "anonymous": false,
      "inputs": [
        {
          "indexed": true,
          "internalType": "address",
          "name": "from",
          "type": "address"
        },
        {
          "indexed": true,
          "internalType": "address",
          "name": "to",
          "type": "address"
        },
        {
          "indexed": false,
          "internalType": "uint256",
          "name": "amount",
          "type": "uint256"
        }
      ],
      "name": "Redeem",
      "type": "event"
    },
    {
      "anonymous": false,
      "inputs": [
        {
          "indexed": false,
          "internalType": "address",
          "name": "user",
          "type": "address"
        },
        {
          "indexed": false,
          "internalType": "uint256",
          "name": "amount",
          "type": "uint256"
        }
      ],
      "name": "RewardsAccrued",
      "type": "event"
    },
    {
      "anonymous": false,
      "inputs": [
        {
          "indexed": true,
          "internalType": "address",
          "name": "from",
          "type": "address"
        },
        {
          "indexed": true,
          "internalType": "address",
          "name": "to",
          "type": "address"
        },
        {
          "indexed": false,
          "internalType": "uint256",
          "name": "amount",
          "type": "uint256"
        }
      ],
      "name": "RewardsClaimed",
      "type": "event"
    },
    {
      "anonymous": false,
      "inputs": [
        {
          "indexed": false,
          "internalType": "address",
          "name": "owner",
          "type": "address"
        },
        {
          "indexed": false,
          "internalType": "uint128",
          "name": "oldValue",
          "type": "uint128"
        },
        {
          "indexed": false,
          "internalType": "uint128",
          "name": "newValue",
          "type": "uint128"
        }
      ],
      "name": "SnapshotDone",
      "type": "event"
    },
    {
      "anonymous": false,
      "inputs": [
        {
          "indexed": true,
          "internalType": "address",
          "name": "from",
          "type": "address"
        },
        {
          "indexed": true,
          "internalType": "address",
          "name": "onBehalfOf",
          "type": "address"
        },
        {
          "indexed": false,
          "internalType": "uint256",
          "name": "amount",
          "type": "uint256"
        }
      ],
      "name": "Staked",
      "type": "event"
    },
    {
      "anonymous": false,
      "inputs": [
        {
          "indexed": true,
          "internalType": "address",
          "name": "from",
          "type": "address"
        },
        {
          "indexed": true,
          "internalType": "address",
          "name": "to",
          "type": "address"
        },
        {
          "indexed": false,
          "internalType": "uint256",
          "name": "value",
          "type": "uint256"
        }
      ],
      "name": "Transfer",
      "type": "event"
    },
    {
      "anonymous": false,
      "inputs": [
        {
          "indexed": true,
          "internalType": "address",
          "name": "user",
          "type": "address"
        },
        {
          "indexed": true,
          "internalType": "address",
          "name": "asset",
          "type": "address"
        },
        {
          "indexed": false,
          "internalType": "uint256",
          "name": "index",
          "type": "uint256"
        }
      ],
      "name": "UserIndexUpdated",
      "type": "event"
    },
    {
      "inputs": [],
      "name": "COOLDOWN_SECONDS",
      "outputs": [
        {
          "internalType": "uint256",
          "name": "",
          "type": "uint256"
        }
      ],
      "stateMutability": "view",
      "type": "function"
    },
    {
      "inputs": [],
      "name": "DISTRIBUTION_END",
      "outputs": [
        {
          "internalType": "uint256",
          "name": "",
          "type": "uint256"
        }
      ],
      "stateMutability": "view",
      "type": "function"
    },
    {
      "inputs": [],
      "name": "EMISSION_MANAGER",
      "outputs": [
        {
          "internalType": "address",
          "name": "",
          "type": "address"
        }
      ],
      "stateMutability": "view",
      "type": "function"
    },
    {
      "inputs": [],
      "name": "LOCK_TIME",
      "outputs": [
        {
          "internalType": "uint256",
          "name": "",
          "type": "uint256"
        }
      ],
      "stateMutability": "view",
      "type": "function"
    },
    {
      "inputs": [],
      "name": "PRECISION",
      "outputs": [
        {
          "internalType": "uint8",
          "name": "",
          "type": "uint8"
        }
      ],
      "stateMutability": "view",
      "type": "function"
    },
    {
      "inputs": [],
      "name": "REVISION",
      "outputs": [
        {
          "internalType": "uint256",
          "name": "",
          "type": "uint256"
        }
      ],
      "stateMutability": "view",
      "type": "function"
    },
    {
      "inputs": [],
      "name": "REWARDS_VAULT",
      "outputs": [
        {
          "internalType": "address",
          "name": "",
          "type": "address"
        }
      ],
      "stateMutability": "view",
      "type": "function"
    },
    {
      "inputs": [],
      "name": "REWARD_TOKEN",
      "outputs": [
        {
          "internalType": "contract IERC20",
          "name": "",
          "type": "address"
        }
      ],
      "stateMutability": "view",
      "type": "function"
    },
    {
      "inputs": [],
      "name": "STAKED_TOKEN",
      "outputs": [
        {
          "internalType": "contract IERC20",
          "name": "",
          "type": "address"
        }
      ],
      "stateMutability": "view",
      "type": "function"
    },
    {
      "inputs": [],
      "name": "TOTAL_STAKED",
      "outputs": [
        {
          "internalType": "uint256",
          "name": "",
          "type": "uint256"
        }
      ],
      "stateMutability": "view",
      "type": "function"
    },
    {
      "inputs": [],
      "name": "TOTAL_USERS",
      "outputs": [
        {
          "internalType": "uint256",
          "name": "",
          "type": "uint256"
        }
      ],
      "stateMutability": "view",
      "type": "function"
    },
    {
      "inputs": [],
      "name": "UNSTAKE_WINDOW",
      "outputs": [
        {
          "internalType": "uint256",
          "name": "",
          "type": "uint256"
        }
      ],
      "stateMutability": "view",
      "type": "function"
    },
    {
      "inputs": [],
      "name": "_aaveGovernance",
      "outputs": [
        {
          "internalType": "contract ITransferHook",
          "name": "",
          "type": "address"
        }
      ],
      "stateMutability": "view",
      "type": "function"
    },
    {
      "inputs": [
        {
          "internalType": "address",
          "name": "",
          "type": "address"
        }
      ],
      "name": "_countsSnapshots",
      "outputs": [
        {
          "internalType": "uint256",
          "name": "",
          "type": "uint256"
        }
      ],
      "stateMutability": "view",
      "type": "function"
    },
    {
      "inputs": [
        {
          "internalType": "uint256",
          "name": "totalUsers",
          "type": "uint256"
        },
        {
          "internalType": "uint256",
          "name": "A",
          "type": "uint256"
        },
        {
          "internalType": "uint256",
          "name": "B",
          "type": "uint256"
        },
        {
          "internalType": "uint256",
          "name": "C",
          "type": "uint256"
        },
        {
          "internalType": "uint256",
          "name": "D",
          "type": "uint256"
        }
      ],
      "name": "_getEmissionPerSecondByTotalUsers",
      "outputs": [
        {
          "internalType": "uint128",
          "name": "",
          "type": "uint128"
        }
      ],
      "stateMutability": "pure",
      "type": "function"
    },
    {
      "inputs": [
        {
          "internalType": "address",
          "name": "",
          "type": "address"
        },
        {
          "internalType": "uint256",
          "name": "",
          "type": "uint256"
        }
      ],
      "name": "_snapshots",
      "outputs": [
        {
          "internalType": "uint128",
          "name": "blockNumber",
          "type": "uint128"
        },
        {
          "internalType": "uint128",
          "name": "value",
          "type": "uint128"
        }
      ],
      "stateMutability": "view",
      "type": "function"
    },
    {
      "inputs": [
        {
          "internalType": "address",
          "name": "owner",
          "type": "address"
        },
        {
          "internalType": "address",
          "name": "spender",
          "type": "address"
        }
      ],
      "name": "allowance",
      "outputs": [
        {
          "internalType": "uint256",
          "name": "",
          "type": "uint256"
        }
      ],
      "stateMutability": "view",
      "type": "function"
    },
    {
      "inputs": [
        {
          "internalType": "uint256",
          "name": "",
          "type": "uint256"
        }
      ],
      "name": "amountOfLockedRewards",
      "outputs": [
        {
          "internalType": "uint256",
          "name": "",
          "type": "uint256"
        }
      ],
      "stateMutability": "view",
      "type": "function"
    },
    {
      "inputs": [
        {
          "internalType": "address",
          "name": "spender",
          "type": "address"
        },
        {
          "internalType": "uint256",
          "name": "amount",
          "type": "uint256"
        }
      ],
      "name": "approve",
      "outputs": [
        {
          "internalType": "bool",
          "name": "",
          "type": "bool"
        }
      ],
      "stateMutability": "nonpayable",
      "type": "function"
    },
    {
      "inputs": [
        {
          "internalType": "address",
          "name": "",
          "type": "address"
        }
      ],
      "name": "assets",
      "outputs": [
        {
          "internalType": "uint128",
          "name": "emissionPerSecond",
          "type": "uint128"
        },
        {
          "internalType": "uint128",
          "name": "lastUpdateTimestamp",
          "type": "uint128"
        },
        {
          "internalType": "uint256",
          "name": "index",
          "type": "uint256"
        },
        {
          "internalType": "uint256",
          "name": "A",
          "type": "uint256"
        },
        {
          "internalType": "uint256",
          "name": "B",
          "type": "uint256"
        },
        {
          "internalType": "uint256",
          "name": "C",
          "type": "uint256"
        },
        {
          "internalType": "uint256",
          "name": "D",
          "type": "uint256"
        }
      ],
      "stateMutability": "view",
      "type": "function"
    },
    {
      "inputs": [
        {
          "internalType": "address",
          "name": "account",
          "type": "address"
        }
      ],
      "name": "balanceOf",
      "outputs": [
        {
          "internalType": "uint256",
          "name": "",
          "type": "uint256"
        }
      ],
      "stateMutability": "view",
      "type": "function"
    },
    {
      "inputs": [
        {
          "internalType": "address",
          "name": "to",
          "type": "address"
        },
        {
          "internalType": "uint256",
          "name": "amount",
          "type": "uint256"
        }
      ],
      "name": "claimRewards",
      "outputs": [],
      "stateMutability": "nonpayable",
      "type": "function"
    },
    {
      "inputs": [
        {
          "components": [
            {
              "internalType": "uint128",
              "name": "emissionPerSecond",
              "type": "uint128"
            },
            {
              "internalType": "uint256",
              "name": "totalStaked",
              "type": "uint256"
            },
            {
              "internalType": "uint256",
              "name": "A",
              "type": "uint256"
            },
            {
              "internalType": "uint256",
              "name": "B",
              "type": "uint256"
            },
            {
              "internalType": "uint256",
              "name": "C",
              "type": "uint256"
            },
            {
              "internalType": "uint256",
              "name": "D",
              "type": "uint256"
            },
            {
              "internalType": "address",
              "name": "underlyingAsset",
              "type": "address"
            }
          ],
          "internalType": "struct DistributionTypes.AssetConfigInput[]",
          "name": "assetsConfigInput",
          "type": "tuple[]"
        }
      ],
      "name": "configureAssets",
      "outputs": [],
      "stateMutability": "nonpayable",
      "type": "function"
    },
    {
      "inputs": [],
      "name": "cooldown",
      "outputs": [],
      "stateMutability": "nonpayable",
      "type": "function"
    },
    {
      "inputs": [],
      "name": "decimals",
      "outputs": [
        {
          "internalType": "uint8",
          "name": "",
          "type": "uint8"
        }
      ],
      "stateMutability": "view",
      "type": "function"
    },
    {
      "inputs": [
        {
          "internalType": "address",
          "name": "spender",
          "type": "address"
        },
        {
          "internalType": "uint256",
          "name": "subtractedValue",
          "type": "uint256"
        }
      ],
      "name": "decreaseAllowance",
      "outputs": [
        {
          "internalType": "bool",
          "name": "",
          "type": "bool"
        }
      ],
      "stateMutability": "nonpayable",
      "type": "function"
    },
    {
      "inputs": [
        {
          "internalType": "uint256",
          "name": "fromCooldownTimestamp",
          "type": "uint256"
        },
        {
          "internalType": "uint256",
          "name": "amountToReceive",
          "type": "uint256"
        },
        {
          "internalType": "address",
          "name": "toAddress",
          "type": "address"
        },
        {
          "internalType": "uint256",
          "name": "toBalance",
          "type": "uint256"
        }
      ],
      "name": "getNextCooldownTimestamp",
      "outputs": [
        {
          "internalType": "uint256",
          "name": "",
          "type": "uint256"
        }
      ],
      "stateMutability": "view",
      "type": "function"
    },
    {
      "inputs": [
        {
          "internalType": "address",
          "name": "staker",
          "type": "address"
        }
      ],
      "name": "getTotalRewardsBalance",
      "outputs": [
        {
          "internalType": "uint256",
          "name": "",
          "type": "uint256"
        }
      ],
      "stateMutability": "view",
      "type": "function"
    },
    {
      "inputs": [
        {
          "internalType": "address",
          "name": "user",
          "type": "address"
        },
        {
          "internalType": "address",
          "name": "asset",
          "type": "address"
        }
      ],
      "name": "getUserAssetData",
      "outputs": [
        {
          "internalType": "uint256",
          "name": "",
          "type": "uint256"
        }
      ],
      "stateMutability": "view",
      "type": "function"
    },
    {
      "inputs": [
        {
          "internalType": "address",
          "name": "spender",
          "type": "address"
        },
        {
          "internalType": "uint256",
          "name": "addedValue",
          "type": "uint256"
        }
      ],
      "name": "increaseAllowance",
      "outputs": [
        {
          "internalType": "bool",
          "name": "",
          "type": "bool"
        }
      ],
      "stateMutability": "nonpayable",
      "type": "function"
    },
    {
      "inputs": [
        {
          "internalType": "contract ITransferHook",
          "name": "aaveGovernance",
          "type": "address"
        },
        {
          "internalType": "string",
          "name": "name",
          "type": "string"
        },
        {
          "internalType": "string",
          "name": "symbol",
          "type": "string"
        },
        {
          "internalType": "uint8",
          "name": "decimals",
          "type": "uint8"
        }
      ],
      "name": "initialize",
      "outputs": [],
      "stateMutability": "nonpayable",
      "type": "function"
    },
    {
      "inputs": [
        {
          "internalType": "uint256",
          "name": "",
          "type": "uint256"
        }
      ],
      "name": "lockTimestampOfUsers",
      "outputs": [
        {
          "internalType": "uint256",
          "name": "",
          "type": "uint256"
        }
      ],
      "stateMutability": "view",
      "type": "function"
    },
    {
      "inputs": [],
      "name": "name",
      "outputs": [
        {
          "internalType": "string",
          "name": "",
          "type": "string"
        }
      ],
      "stateMutability": "view",
      "type": "function"
    },
    {
      "inputs": [
        {
          "internalType": "address",
          "name": "to",
          "type": "address"
        },
        {
          "internalType": "uint256",
          "name": "amount",
          "type": "uint256"
        }
      ],
      "name": "redeem",
      "outputs": [],
      "stateMutability": "nonpayable",
      "type": "function"
    },
    {
      "inputs": [
        {
          "internalType": "address",
          "name": "onBehalfOf",
          "type": "address"
        },
        {
          "internalType": "uint256",
          "name": "amount",
          "type": "uint256"
        }
      ],
      "name": "stake",
      "outputs": [],
      "stateMutability": "nonpayable",
      "type": "function"
    },
    {
      "inputs": [
        {
          "internalType": "address",
          "name": "",
          "type": "address"
        }
      ],
      "name": "stakerRewardLockTime",
      "outputs": [
        {
          "internalType": "uint256",
          "name": "",
          "type": "uint256"
        }
      ],
      "stateMutability": "view",
      "type": "function"
    },
    {
      "inputs": [
        {
          "internalType": "address",
          "name": "",
          "type": "address"
        }
      ],
      "name": "stakerRewardsToClaim",
      "outputs": [
        {
          "internalType": "uint256",
          "name": "",
          "type": "uint256"
        }
      ],
      "stateMutability": "view",
      "type": "function"
    },
    {
      "inputs": [
        {
          "internalType": "address",
          "name": "",
          "type": "address"
        }
      ],
      "name": "stakersCooldowns",
      "outputs": [
        {
          "internalType": "uint256",
          "name": "",
          "type": "uint256"
        }
      ],
      "stateMutability": "view",
      "type": "function"
    },
    {
      "inputs": [
        {
          "internalType": "uint256",
          "name": "",
          "type": "uint256"
        }
      ],
      "name": "subAmountAfterLockTime",
      "outputs": [
        {
          "internalType": "uint256",
          "name": "",
          "type": "uint256"
        }
      ],
      "stateMutability": "view",
      "type": "function"
    },
    {
      "inputs": [],
      "name": "symbol",
      "outputs": [
        {
          "internalType": "string",
          "name": "",
          "type": "string"
        }
      ],
      "stateMutability": "view",
      "type": "function"
    },
    {
      "inputs": [
        {
          "internalType": "uint256",
          "name": "",
          "type": "uint256"
        }
      ],
      "name": "timestampToIndexOfUsers",
      "outputs": [
        {
          "internalType": "uint256",
          "name": "",
          "type": "uint256"
        }
      ],
      "stateMutability": "view",
      "type": "function"
    },
    {
      "inputs": [],
      "name": "totalSupply",
      "outputs": [
        {
          "internalType": "uint256",
          "name": "",
          "type": "uint256"
        }
      ],
      "stateMutability": "view",
      "type": "function"
    },
    {
      "inputs": [
        {
          "internalType": "address",
          "name": "recipient",
          "type": "address"
        },
        {
          "internalType": "uint256",
          "name": "amount",
          "type": "uint256"
        }
      ],
      "name": "transfer",
      "outputs": [
        {
          "internalType": "bool",
          "name": "",
          "type": "bool"
        }
      ],
      "stateMutability": "nonpayable",
      "type": "function"
    },
    {
      "inputs": [
        {
          "internalType": "address",
          "name": "sender",
          "type": "address"
        },
        {
          "internalType": "address",
          "name": "recipient",
          "type": "address"
        },
        {
          "internalType": "uint256",
          "name": "amount",
          "type": "uint256"
        }
      ],
      "name": "transferFrom",
      "outputs": [
        {
          "internalType": "bool",
          "name": "",
          "type": "bool"
        }
      ],
      "stateMutability": "nonpayable",
      "type": "function"
    }
  ],
  "bytecode": "0x610180604052600060095562093a80610120908152503480156200002257600080fd5b5060405162005654380380620056548339818101604052810190620000489190620003ee565b868686868686866040518060400160405280600b81526020017f5374616b656420416176650000000000000000000000000000000000000000008152506040518060400160405280600781526020017f73746b4141564500000000000000000000000000000000000000000000000000815250601284846fffffffffffffffffffffffffffffffff168484848282828260039080519060200190620000ef929190620002dc565b50816004908051906020019062000108929190620002dc565b5080600560006101000a81548160ff021916908360ff1602179055505050505050506200014481426200025360201b6200238d1790919060201c565b608081815250508173ffffffffffffffffffffffffffffffffffffffff1660a08173ffffffffffffffffffffffffffffffffffffffff1660601b8152505050508973ffffffffffffffffffffffffffffffffffffffff1660c08173ffffffffffffffffffffffffffffffffffffffff1660601b815250508873ffffffffffffffffffffffffffffffffffffffff1660e08173ffffffffffffffffffffffffffffffffffffffff1660601b815250508761010081815250508661014081815250508573ffffffffffffffffffffffffffffffffffffffff166101608173ffffffffffffffffffffffffffffffffffffffff1660601b81525050505050505050505050505050505050505062000571565b600080828401905083811015620002d2576040517f08c379a000000000000000000000000000000000000000000000000000000000815260040180806020018281038252601b8152602001807f536166654d6174683a206164646974696f6e206f766572666c6f77000000000081525060200191505060405180910390fd5b8091505092915050565b828054600181600116156101000203166002900490600052602060002090601f01602090048101928262000314576000855562000360565b82601f106200032f57805160ff191683800117855562000360565b8280016001018555821562000360579182015b828111156200035f57825182559160200191906001019062000342565b5b5090506200036f919062000373565b5090565b5b808211156200038e57600081600090555060010162000374565b5090565b600081519050620003a38162000509565b92915050565b600081519050620003ba8162000523565b92915050565b600081519050620003d1816200053d565b92915050565b600081519050620003e88162000557565b92915050565b600080600080600080600060e0888a0312156200040a57600080fd5b60006200041a8a828b01620003a9565b97505060206200042d8a828b01620003a9565b9650506040620004408a828b01620003d7565b9550506060620004538a828b01620003d7565b9450506080620004668a828b0162000392565b93505060a0620004798a828b0162000392565b92505060c06200048c8a828b01620003c0565b91505092959891949750929550565b6000620004a882620004df565b9050919050565b6000620004bc826200049b565b9050919050565b60006fffffffffffffffffffffffffffffffff82169050919050565b600073ffffffffffffffffffffffffffffffffffffffff82169050919050565b6000819050919050565b62000514816200049b565b81146200052057600080fd5b50565b6200052e81620004af565b81146200053a57600080fd5b50565b6200054881620004c3565b81146200055457600080fd5b50565b6200056281620004ff565b81146200056e57600080fd5b50565b60805160a05160601c60c05160601c60e05160601c6101005161012051610140516101605160601c61502462000630600039806117bc5280611981525080610aea5280610f2a52806121655250806110075280611d23525080610a795280610b1152806113b6528061218952508061188252806119a4525080610c2e5280610e655280611e7a5250806110975280611f535250806117985280612f2d5280612f735280612fa05280613deb5280613e315280613e5e52506150246000f3fe608060405234801561001057600080fd5b50600436106102745760003560e01c8063787a08a611610151578063a9059cbb116100c3578063d798904c11610087578063d798904c14610804578063dd62ed3e14610834578063dde43cba14610864578063f11b818814610882578063f1cc432a146108b8578063f6d2ee86146108e857610274565b8063a9059cbb1461075e578063aaf5eb681461078e578063adc9772e146107ac578063c3863ada146107c8578063cbcbb507146107e657610274565b8063919cd40f11610115578063919cd40f1461069a578063946776cd146106b857806395d89b41146106d657806399248ea7146106f45780639a99b4f014610712578063a457c2d71461072e57610274565b8063787a08a6146105d05780637e90d7ef146105da5780637fe696b61461060a5780638779588c1461063a5780638dbefee21461066a57610274565b8063359c4a96116101ea5780634781dbb7116101ae5780634781dbb7146104d65780635752723414610506578063610f4dc71461053657806364010f961461056657806370a082311461058257806372b49d63146105b257610274565b8063359c4a961461041c578063386a0eee1461043a5780633950935114610458578063413d9c3a14610488578063454a03cf146104a657610274565b80631e9a69501161023c5780631e9a69501461033357806323b872dd1461034f5780632acbf8231461037f578063312f6b83146103b0578063313ce567146103ce5780633373ee4c146103ec57610274565b8063040ad7591461027957806306fdde0314610297578063091030c3146102b5578063095ea7b3146102e557806318160ddd14610315575b600080fd5b610281610904565b60405161028e9190614c4b565b60405180910390f35b61029f61090a565b6040516102ac9190614a9b565b60405180910390f35b6102cf60048036038101906102ca91906144d9565b6109ac565b6040516102dc9190614c4b565b60405180910390f35b6102ff60048036038101906102fa919061458d565b6109c4565b60405161030c9190614a4a565b60405180910390f35b61031d6109e2565b60405161032a9190614c4b565b60405180910390f35b61034d6004803603810190610348919061458d565b6109ec565b005b6103696004803603810190610364919061453e565b610d21565b6040516103769190614a4a565b60405180910390f35b6103996004803603810190610394919061458d565b610dfa565b6040516103a7929190614bb3565b60405180910390f35b6103b8610e63565b6040516103c59190614a65565b60405180910390f35b6103d6610e87565b6040516103e39190614c66565b60405180910390f35b61040660048036038101906104019190614502565b610e9e565b6040516104139190614c4b565b60405180910390f35b610424610f28565b6040516104319190614c4b565b60405180910390f35b610442610f4c565b60405161044f9190614c4b565b60405180910390f35b610472600480360381019061046d919061458d565b610f52565b60405161047f9190614a4a565b60405180910390f35b610490611005565b60405161049d9190614c4b565b60405180910390f35b6104c060048036038101906104bb91906144d9565b611029565b6040516104cd9190614c4b565b60405180910390f35b6104f060048036038101906104eb91906146d2565b611041565b6040516104fd9190614c4b565b60405180910390f35b610520600480360381019061051b91906146d2565b611065565b60405161052d9190614c4b565b60405180910390f35b610550600480360381019061054b91906146d2565b61107d565b60405161055d9190614c4b565b60405180910390f35b610580600480360381019061057b91906145c9565b611095565b005b61059c600480360381019061059791906144d9565b61136c565b6040516105a99190614c4b565b60405180910390f35b6105ba6113b4565b6040516105c79190614c4b565b60405180910390f35b6105d86113d8565b005b6105f460048036038101906105ef91906144d9565b6114ad565b6040516106019190614c4b565b60405180910390f35b610624600480360381019061061f91906146d2565b6114c5565b6040516106319190614c4b565b60405180910390f35b610654600480360381019061064f91906144d9565b6114dd565b6040516106619190614c4b565b60405180910390f35b610684600480360381019061067f91906144d9565b6114f5565b6040516106919190614c4b565b60405180910390f35b6106a2611796565b6040516106af9190614c4b565b60405180910390f35b6106c06117ba565b6040516106cd9190614a06565b60405180910390f35b6106de6117de565b6040516106eb9190614a9b565b60405180910390f35b6106fc611880565b6040516107099190614a65565b60405180910390f35b61072c6004803603810190610727919061458d565b6118a4565b005b6107486004803603810190610743919061458d565b611a54565b6040516107559190614a4a565b60405180910390f35b6107786004803603810190610773919061458d565b611b21565b6040516107859190614a4a565b60405180910390f35b610796611b3f565b6040516107a39190614c66565b60405180910390f35b6107c660048036038101906107c1919061458d565b611b44565b005b6107d0611f2b565b6040516107dd9190614a80565b60405180910390f35b6107ee611f51565b6040516107fb9190614a06565b60405180910390f35b61081e6004803603810190610819919061475e565b611f75565b60405161082b9190614b7d565b60405180910390f35b61084e60048036038101906108499190614502565b612000565b60405161085b9190614c4b565b60405180910390f35b61086c612087565b6040516108799190614c4b565b60405180910390f35b61089c600480360381019061089791906144d9565b61208c565b6040516108af9796959493929190614bdc565b60405180910390f35b6108d260048036038101906108cd91906146fb565b612106565b6040516108df9190614c4b565b60405180910390f35b61090260048036038101906108fd919061460e565b61226b565b005b603d5481565b606060038054600181600116156101000203166002900480601f0160208091040260200160405190810160405280929190818152602001828054600181600116156101000203166002900480156109a25780601f10610977576101008083540402835291602001916109a2565b820191906000526020600020905b81548152906001019060200180831161098557829003601f168201915b5050505050905090565b60406020528060005260406000206000915090505481565b60006109d86109d1612415565b848461241d565b6001905092915050565b6000600254905090565b6000811415610a30576040517f08c379a0000000000000000000000000000000000000000000000000000000008152600401610a2790614abd565b60405180910390fd5b6000604060003373ffffffffffffffffffffffffffffffffffffffff1673ffffffffffffffffffffffffffffffffffffffff168152602001908152602001600020549050610aa77f00000000000000000000000000000000000000000000000000000000000000008261238d90919063ffffffff16565b4211610ae8576040517f08c379a0000000000000000000000000000000000000000000000000000000008152600401610adf90614add565b60405180910390fd5b7f0000000000000000000000000000000000000000000000000000000000000000610b4e610b3f7f00000000000000000000000000000000000000000000000000000000000000008461238d90919063ffffffff16565b4261261490919063ffffffff16565b1115610b8f576040517f08c379a0000000000000000000000000000000000000000000000000000000008152600401610b8690614b3d565b60405180910390fd5b6000610b9a3361136c565b90506000818411610bab5783610bad565b815b9050610bbb3383600161265e565b50610bc63382612760565b6000610bdb828461261490919063ffffffff16565b1415610c27576000604060003373ffffffffffffffffffffffffffffffffffffffff1673ffffffffffffffffffffffffffffffffffffffff168152602001908152602001600020819055505b610c7285827f000000000000000000000000000000000000000000000000000000000000000073ffffffffffffffffffffffffffffffffffffffff166129249092919063ffffffff16565b604360003373ffffffffffffffffffffffffffffffffffffffff1673ffffffffffffffffffffffffffffffffffffffff168152602001908152602001600020600090558473ffffffffffffffffffffffffffffffffffffffff163373ffffffffffffffffffffffffffffffffffffffff167fd12200efa34901b99367694174c3b0d32c99585fdf37c7c26892136ddd0836d983604051610d129190614c4b565b60405180910390a35050505050565b6000610d2e8484846129c6565b610def84610d3a612415565b610dea85604051806060016040528060288152602001614ee060289139600160008b73ffffffffffffffffffffffffffffffffffffffff1673ffffffffffffffffffffffffffffffffffffffff1681526020019081526020016000206000610da0612415565b73ffffffffffffffffffffffffffffffffffffffff1673ffffffffffffffffffffffffffffffffffffffff16815260200190815260200160002054612b2f9092919063ffffffff16565b61241d565b600190509392505050565b6006602052816000526040600020602052806000526040600020600091509150508060000160009054906101000a90046fffffffffffffffffffffffffffffffff16908060000160109054906101000a90046fffffffffffffffffffffffffffffffff16905082565b7f000000000000000000000000000000000000000000000000000000000000000081565b6000600560009054906101000a900460ff16905090565b6000603c60008373ffffffffffffffffffffffffffffffffffffffff1673ffffffffffffffffffffffffffffffffffffffff16815260200190815260200160002060060160008473ffffffffffffffffffffffffffffffffffffffff1673ffffffffffffffffffffffffffffffffffffffff16815260200190815260200160002054905092915050565b7f000000000000000000000000000000000000000000000000000000000000000081565b603e5481565b6000610ffb610f5f612415565b84610ff68560016000610f70612415565b73ffffffffffffffffffffffffffffffffffffffff1673ffffffffffffffffffffffffffffffffffffffff16815260200190815260200160002060008973ffffffffffffffffffffffffffffffffffffffff1673ffffffffffffffffffffffffffffffffffffffff1681526020019081526020016000205461238d90919063ffffffff16565b61241d565b6001905092915050565b7f000000000000000000000000000000000000000000000000000000000000000081565b60436020528060005260406000206000915090505481565b6042818154811061105157600080fd5b906000526020600020016000915090505481565b60416020528060005260406000206000915090505481565b60456020528060005260406000206000915090505481565b7f000000000000000000000000000000000000000000000000000000000000000073ffffffffffffffffffffffffffffffffffffffff163373ffffffffffffffffffffffffffffffffffffffff1614611123576040517f08c379a000000000000000000000000000000000000000000000000000000000815260040161111a90614b1d565b60405180910390fd5b60005b82829050811015611367576000603c600085858581811061114357fe5b905060e0020160c001602081019061115b91906144d9565b73ffffffffffffffffffffffffffffffffffffffff1673ffffffffffffffffffffffffffffffffffffffff16815260200190815260200160002090508383838181106111a357fe5b905060e002016040013581600201819055508383838181106111c157fe5b905060e002016060013581600301819055508383838181106111df57fe5b905060e002016080013581600401819055508383838181106111fd57fe5b905060e0020160a00135816005018190555061126684848481811061121e57fe5b905060e0020160c001602081019061123691906144d9565b8286868681811061124357fe5b905060e00201602001358460020154856003015486600401548760050154612bef565b5083838381811061127357fe5b905060e00201600001602081019061128b91906146a9565b8160000160006101000a8154816fffffffffffffffffffffffffffffffff02191690836fffffffffffffffffffffffffffffffff1602179055508383838181106112d157fe5b905060e0020160c00160208101906112e991906144d9565b73ffffffffffffffffffffffffffffffffffffffff167f87fa03892a0556cb6b8f97e6d533a150d4d55fcbf275fff5fa003fa636bcc7fa85858581811061132c57fe5b905060e00201600001602081019061134491906146a9565b6040516113519190614b98565b60405180910390a2508080600101915050611126565b505050565b60008060008373ffffffffffffffffffffffffffffffffffffffff1673ffffffffffffffffffffffffffffffffffffffff168152602001908152602001600020549050919050565b7f000000000000000000000000000000000000000000000000000000000000000081565b60006113e33361136c565b1415611424576040517f08c379a000000000000000000000000000000000000000000000000000000000815260040161141b90614b5d565b60405180910390fd5b42604060003373ffffffffffffffffffffffffffffffffffffffff1673ffffffffffffffffffffffffffffffffffffffff168152602001908152602001600020819055503373ffffffffffffffffffffffffffffffffffffffff167ff52f50426b32362d3e6bb8cb36b7074756b224622def6352a59eac7f66ebe6e860405160405180910390a2565b603f6020528060005260406000206000915090505481565b60446020528060005260406000206000915090505481565b60076020528060005260406000206000915090505481565b600080603c60003073ffffffffffffffffffffffffffffffffffffffff1673ffffffffffffffffffffffffffffffffffffffff168152602001908152602001600020905060008060446000604360008873ffffffffffffffffffffffffffffffffffffffff1673ffffffffffffffffffffffffffffffffffffffff16815260200190815260200160002054815260200190815260200160002054141561168c5761168782600101548360000160009054906101000a90046fffffffffffffffffffffffffffffffff166fffffffffffffffffffffffffffffffff168460000160109054906101000a90046fffffffffffffffffffffffffffffffff16603d54604360008a73ffffffffffffffffffffffffffffffffffffffff1673ffffffffffffffffffffffffffffffffffffffff1681526020019081526020016000205442111561168057604360008a73ffffffffffffffffffffffffffffffffffffffff1673ffffffffffffffffffffffffffffffffffffffff16815260200190815260200160002054611682565b425b612ef9565b6116e0565b60446000604360008773ffffffffffffffffffffffffffffffffffffffff1673ffffffffffffffffffffffffffffffffffffffff168152602001908152602001600020548152602001908152602001600020545b905060006117386116f08661136c565b838560060160008973ffffffffffffffffffffffffffffffffffffffff1673ffffffffffffffffffffffffffffffffffffffff16815260200190815260200160002054613049565b905061178c81603f60008873ffffffffffffffffffffffffffffffffffffffff1673ffffffffffffffffffffffffffffffffffffffff1681526020019081526020016000205461238d90919063ffffffff16565b9350505050919050565b7f000000000000000000000000000000000000000000000000000000000000000081565b7f000000000000000000000000000000000000000000000000000000000000000081565b606060048054600181600116156101000203166002900480601f0160208091040260200160405190810160405280929190818152602001828054600181600116156101000203166002900480156118765780601f1061184b57610100808354040283529160200191611876565b820191906000526020600020905b81548152906001019060200180831161185957829003601f168201915b5050505050905090565b7f000000000000000000000000000000000000000000000000000000000000000081565b60006118ba336118b33361136c565b600061265e565b905060007fffffffffffffffffffffffffffffffffffffffffffffffffffffffffffffffff83146118eb57826118ed565b815b9050611939816040518060400160405280600e81526020017f494e56414c49445f414d4f554e5400000000000000000000000000000000000081525084612b2f9092919063ffffffff16565b603f60003373ffffffffffffffffffffffffffffffffffffffff1673ffffffffffffffffffffffffffffffffffffffff168152602001908152602001600020819055506119e97f000000000000000000000000000000000000000000000000000000000000000085837f000000000000000000000000000000000000000000000000000000000000000073ffffffffffffffffffffffffffffffffffffffff16613092909392919063ffffffff16565b8373ffffffffffffffffffffffffffffffffffffffff163373ffffffffffffffffffffffffffffffffffffffff167f9310ccfcb8de723f578a9e4282ea9f521f05ae40dc08f3068dfad528a65ee3c783604051611a469190614c4b565b60405180910390a350505050565b6000611b17611a61612415565b84611b1285604051806060016040528060258152602001614fca6025913960016000611a8b612415565b73ffffffffffffffffffffffffffffffffffffffff1673ffffffffffffffffffffffffffffffffffffffff16815260200190815260200160002060008a73ffffffffffffffffffffffffffffffffffffffff1673ffffffffffffffffffffffffffffffffffffffff16815260200190815260200160002054612b2f9092919063ffffffff16565b61241d565b6001905092915050565b6000611b35611b2e612415565b84846129c6565b6001905092915050565b601281565b6000811415611b88576040517f08c379a0000000000000000000000000000000000000000000000000000000008152600401611b7f90614abd565b60405180910390fd5b6000604360003373ffffffffffffffffffffffffffffffffffffffff1673ffffffffffffffffffffffffffffffffffffffff1681526020019081526020016000205414611c0a576040517f08c379a0000000000000000000000000000000000000000000000000000000008152600401611c0190614afd565b60405180910390fd5b6000611c158361136c565b9050611c2d6001603e5461238d90919063ffffffff16565b603e819055506000611c43843084603d54613153565b905060008114611d1c577f2468f9268c60ad90e2d49edb0032c8a001e733ae888b3ab8e982edf535be1a768482604051611c7e929190614a21565b60405180910390a1611cd881603f60008773ffffffffffffffffffffffffffffffffffffffff1673ffffffffffffffffffffffffffffffffffffffff1681526020019081526020016000205461238d90919063ffffffff16565b603f60008673ffffffffffffffffffffffffffffffffffffffff1673ffffffffffffffffffffffffffffffffffffffff168152602001908152602001600020819055505b6000611d517f00000000000000000000000000000000000000000000000000000000000000004261238d90919063ffffffff16565b905080604360003373ffffffffffffffffffffffffffffffffffffffff1673ffffffffffffffffffffffffffffffffffffffff168152602001908152602001600020819055506042819080600181540180825580915050600190039060005260206000200160009091909190915055611dd584603d5461238d90919063ffffffff16565b603d81905550611e0184604560008481526020019081526020016000205461238d90919063ffffffff16565b6045600083815260200190815260200160002081905550611e256000858786612106565b604060008773ffffffffffffffffffffffffffffffffffffffff1673ffffffffffffffffffffffffffffffffffffffff16815260200190815260200160002081905550611e728585613372565b611ebf3330867f000000000000000000000000000000000000000000000000000000000000000073ffffffffffffffffffffffffffffffffffffffff16613092909392919063ffffffff16565b8473ffffffffffffffffffffffffffffffffffffffff163373ffffffffffffffffffffffffffffffffffffffff167f5dac0c1b1112564a045ba943c9d50270893e8e826c49be8e7073adc713ab7bd786604051611f1c9190614c4b565b60405180910390a35050505050565b600860009054906101000a900473ffffffffffffffffffffffffffffffffffffffff1681565b7f000000000000000000000000000000000000000000000000000000000000000081565b600080611f8b868861353990919063ffffffff16565b90506000611fc685611fb88a611faa8c8b61353990919063ffffffff16565b61353990919063ffffffff16565b61238d90919063ffffffff16565b90506000611fef85611fe184866135bf90919063ffffffff16565b61238d90919063ffffffff16565b905080935050505095945050505050565b6000600160008473ffffffffffffffffffffffffffffffffffffffff1673ffffffffffffffffffffffffffffffffffffffff16815260200190815260200160002060008373ffffffffffffffffffffffffffffffffffffffff1673ffffffffffffffffffffffffffffffffffffffff16815260200190815260200160002054905092915050565b600181565b603c6020528060005260406000206000915090508060000160009054906101000a90046fffffffffffffffffffffffffffffffff16908060000160109054906101000a90046fffffffffffffffffffffffffffffffff16908060010154908060020154908060030154908060040154908060050154905087565b600080604060008573ffffffffffffffffffffffffffffffffffffffff1673ffffffffffffffffffffffffffffffffffffffff168152602001908152602001600020549050600081141561215e576000915050612263565b60006121c57f00000000000000000000000000000000000000000000000000000000000000006121b77f00000000000000000000000000000000000000000000000000000000000000004261261490919063ffffffff16565b61261490919063ffffffff16565b9050818111156121d8576000915061225d565b60008782116121e757876121e9565b425b9050828110156121fe57829350505050612263565b612259612214868961238d90919063ffffffff16565b61224b61222a868961353990919063ffffffff16565b61223d858c61353990919063ffffffff16565b61238d90919063ffffffff16565b6135bf90919063ffffffff16565b9250505b81925050505b949350505050565b6000612275613609565b905060095481116122d1576040517f08c379a000000000000000000000000000000000000000000000000000000000815260040180806020018281038252602e815260200180614f08602e913960400191505060405180910390fd5b8060098190555061232586868080601f016020809104026020016040519081016040528093929190818152602001838380828437600081840152601f19601f82011690508083019250505050505050613612565b61237284848080601f016020809104026020016040519081016040528093929190818152602001838380828437600081840152601f19601f8201169050808301925050505050505061362c565b61237b82613646565b61238487613664565b50505050505050565b60008082840190508381101561240b576040517f08c379a000000000000000000000000000000000000000000000000000000000815260040180806020018281038252601b8152602001807f536166654d6174683a206164646974696f6e206f766572666c6f77000000000081525060200191505060405180910390fd5b8091505092915050565b600033905090565b600073ffffffffffffffffffffffffffffffffffffffff168373ffffffffffffffffffffffffffffffffffffffff1614156124a3576040517f08c379a0000000000000000000000000000000000000000000000000000000008152600401808060200182810382526024815260200180614f7c6024913960400191505060405180910390fd5b600073ffffffffffffffffffffffffffffffffffffffff168273ffffffffffffffffffffffffffffffffffffffff161415612529576040517f08c379a0000000000000000000000000000000000000000000000000000000008152600401808060200182810382526022815260200180614e776022913960400191505060405180910390fd5b80600160008573ffffffffffffffffffffffffffffffffffffffff1673ffffffffffffffffffffffffffffffffffffffff16815260200190815260200160002060008473ffffffffffffffffffffffffffffffffffffffff1673ffffffffffffffffffffffffffffffffffffffff168152602001908152602001600020819055508173ffffffffffffffffffffffffffffffffffffffff168373ffffffffffffffffffffffffffffffffffffffff167f8c5be1e5ebec7d5bd14f71427d1e84f3dd0314c0f7b2291e5b200ac8c7c3b925836040518082815260200191505060405180910390a3505050565b600061265683836040518060400160405280601e81526020017f536166654d6174683a207375627472616374696f6e206f766572666c6f770000815250612b2f565b905092915050565b60008061266f853086603d54613153565b905060006126c582603f60008973ffffffffffffffffffffffffffffffffffffffff1673ffffffffffffffffffffffffffffffffffffffff1681526020019081526020016000205461238d90919063ffffffff16565b90506000821461275457831561271a5780603f60008873ffffffffffffffffffffffffffffffffffffffff1673ffffffffffffffffffffffffffffffffffffffff168152602001908152602001600020819055505b7f2468f9268c60ad90e2d49edb0032c8a001e733ae888b3ab8e982edf535be1a76868360405161274b929190614a21565b60405180910390a15b80925050509392505050565b600073ffffffffffffffffffffffffffffffffffffffff168273ffffffffffffffffffffffffffffffffffffffff1614156127e6576040517f08c379a0000000000000000000000000000000000000000000000000000000008152600401808060200182810382526021815260200180614f366021913960400191505060405180910390fd5b6127f2826000836136a8565b61285d81604051806060016040528060228152602001614e55602291396000808673ffffffffffffffffffffffffffffffffffffffff1673ffffffffffffffffffffffffffffffffffffffff16815260200190815260200160002054612b2f9092919063ffffffff16565b6000808473ffffffffffffffffffffffffffffffffffffffff1673ffffffffffffffffffffffffffffffffffffffff168152602001908152602001600020819055506128b48160025461261490919063ffffffff16565b600281905550600073ffffffffffffffffffffffffffffffffffffffff168273ffffffffffffffffffffffffffffffffffffffff167fddf252ad1be2c89b69c2b068fc378daa952ba7f163c4a11628f55a4df523b3ef836040518082815260200191505060405180910390a35050565b6129c18363a9059cbb60e01b8484604051602401808373ffffffffffffffffffffffffffffffffffffffff16815260200182815260200192505050604051602081830303815290604052907bffffffffffffffffffffffffffffffffffffffffffffffffffffffff19166020820180517bffffffffffffffffffffffffffffffffffffffffffffffffffffffff83818316178352505050506138ab565b505050565b60006129d18461136c565b90506129df8482600161265e565b508273ffffffffffffffffffffffffffffffffffffffff168473ffffffffffffffffffffffffffffffffffffffff1614612b1e576000612a1e8461136c565b9050612a2c8482600161265e565b506000604060008773ffffffffffffffffffffffffffffffffffffffff1673ffffffffffffffffffffffffffffffffffffffff168152602001908152602001600020549050612a7d81858785612106565b604060008773ffffffffffffffffffffffffffffffffffffffff1673ffffffffffffffffffffffffffffffffffffffff168152602001908152602001600020819055508383148015612ad0575060008114155b15612b1b576000604060008873ffffffffffffffffffffffffffffffffffffffff1673ffffffffffffffffffffffffffffffffffffffff168152602001908152602001600020819055505b50505b612b29848484613af6565b50505050565b6000838311158290612bdc576040517f08c379a00000000000000000000000000000000000000000000000000000000081526004018080602001828103825283818151815260200191508051906020019080838360005b83811015612ba1578082015181840152602081019050612b86565b50505050905090810190601f168015612bce5780820380516001836020036101000a031916815260200191505b509250505060405180910390fd5b5060008385039050809150509392505050565b6000808760010154905060008860000160109054906101000a90046fffffffffffffffffffffffffffffffff169050612c2d603e5488888888611f75565b8960000160006101000a8154816fffffffffffffffffffffffffffffffff02191690836fffffffffffffffffffffffffffffffff16021790555060005b604280549050811015612de6574260428281548110612c8557fe5b906000526020600020015411158015612cc8575060006044600060428481548110612cac57fe5b9060005260206000200154815260200190815260200160002054145b15612dd957612d25838b60000160009054906101000a90046fffffffffffffffffffffffffffffffff166fffffffffffffffffffffffffffffffff1684603d5460428681548110612d1557fe5b9060005260206000200154612ef9565b6044600060428481548110612d3657fe5b9060005260206000200154815260200190815260200160002081905550612d926045600060428481548110612d6757fe5b9060005260206000200154815260200190815260200160002054603d5461261490919063ffffffff16565b603d81905550612dae6001603e5461261490919063ffffffff16565b603e819055504260428281548110612dc257fe5b90600052602060002001541115612dd857612de6565b5b8080600101915050612c6a565b50806fffffffffffffffffffffffffffffffff16421415612e0b578192505050612eee565b6000612e4b838b60000160009054906101000a90046fffffffffffffffffffffffffffffffff166fffffffffffffffffffffffffffffffff16848c613db7565b9050828114612eac57808a600101819055508a73ffffffffffffffffffffffffffffffffffffffff167f5777ca300dfe5bead41006fbce4389794dbc0ed8d6cccebfaf94630aa04184bc82604051612ea39190614c4b565b60405180910390a25b428a60000160106101000a8154816fffffffffffffffffffffffffffffffff02191690836fffffffffffffffffffffffffffffffff1602179055508093505050505b979650505050505050565b600080851480612f095750600083145b80612f25575081846fffffffffffffffffffffffffffffffff16145b80612f6257507f0000000000000000000000000000000000000000000000000000000000000000846fffffffffffffffffffffffffffffffff1610155b15612f6f57859050613040565b60007f00000000000000000000000000000000000000000000000000000000000000008311612f9e5782612fc0565b7f00000000000000000000000000000000000000000000000000000000000000005b90506000612fe9866fffffffffffffffffffffffffffffffff168361261490919063ffffffff16565b905061303b8861302d8761301f601260ff16600a0a613011878e61353990919063ffffffff16565b61353990919063ffffffff16565b6135bf90919063ffffffff16565b61238d90919063ffffffff16565b925050505b95945050505050565b6000613089601260ff16600a0a61307b61306c858761261490919063ffffffff16565b8761353990919063ffffffff16565b6135bf90919063ffffffff16565b90509392505050565b61314d846323b872dd60e01b858585604051602401808473ffffffffffffffffffffffffffffffffffffffff1681526020018373ffffffffffffffffffffffffffffffffffffffff1681526020018281526020019350505050604051602081830303815290604052907bffffffffffffffffffffffffffffffffffffffffffffffffffffffff19166020820180517bffffffffffffffffffffffffffffffffffffffffffffffffffffffff83818316178352505050506138ab565b50505050565b600080603c60008673ffffffffffffffffffffffffffffffffffffffff1673ffffffffffffffffffffffffffffffffffffffff168152602001908152602001600020905060008160060160008873ffffffffffffffffffffffffffffffffffffffff1673ffffffffffffffffffffffffffffffffffffffff1681526020019081526020016000205490506000806131ff8885888760020154886003015489600401548a60050154612bef565b90506000604360008b73ffffffffffffffffffffffffffffffffffffffff1673ffffffffffffffffffffffffffffffffffffffff168152602001908152602001600020541415801561326757506042838154811061325957fe5b906000526020600020015442115b1561329a57604460006042858154811061327d57fe5b906000526020600020015481526020019081526020016000205490505b80831461336357600087146132b7576132b4878285613049565b91505b808460060160008b73ffffffffffffffffffffffffffffffffffffffff1673ffffffffffffffffffffffffffffffffffffffff168152602001908152602001600020819055508773ffffffffffffffffffffffffffffffffffffffff168973ffffffffffffffffffffffffffffffffffffffff167fbb123b5c06d5408bbea3c4fef481578175cfb432e3b482c6186f02ed9086585b8360405161335a9190614c4b565b60405180910390a35b81945050505050949350505050565b600073ffffffffffffffffffffffffffffffffffffffff168273ffffffffffffffffffffffffffffffffffffffff161415613415576040517f08c379a000000000000000000000000000000000000000000000000000000000815260040180806020018281038252601f8152602001807f45524332303a206d696e7420746f20746865207a65726f20616464726573730081525060200191505060405180910390fd5b613421600083836136a8565b6134368160025461238d90919063ffffffff16565b60028190555061348d816000808573ffffffffffffffffffffffffffffffffffffffff1673ffffffffffffffffffffffffffffffffffffffff1681526020019081526020016000205461238d90919063ffffffff16565b6000808473ffffffffffffffffffffffffffffffffffffffff1673ffffffffffffffffffffffffffffffffffffffff168152602001908152602001600020819055508173ffffffffffffffffffffffffffffffffffffffff16600073ffffffffffffffffffffffffffffffffffffffff167fddf252ad1be2c89b69c2b068fc378daa952ba7f163c4a11628f55a4df523b3ef836040518082815260200191505060405180910390a35050565b60008083141561354c57600090506135b9565b600082840290508284828161355d57fe5b04146135b4576040517f08c379a0000000000000000000000000000000000000000000000000000000008152600401808060200182810382526021815260200180614ebf6021913960400191505060405180910390fd5b809150505b92915050565b600061360183836040518060400160405280601a81526020017f536166654d6174683a206469766973696f6e206279207a65726f000000000000815250613f06565b905092915050565b60006001905090565b8060039080519060200190613628929190614331565b5050565b8060049080519060200190613642929190614331565b5050565b80600560006101000a81548160ff021916908360ff16021790555050565b80600860006101000a81548173ffffffffffffffffffffffffffffffffffffffff021916908373ffffffffffffffffffffffffffffffffffffffff16021790555050565b8173ffffffffffffffffffffffffffffffffffffffff168373ffffffffffffffffffffffffffffffffffffffff1614156136e1576138a6565b600073ffffffffffffffffffffffffffffffffffffffff168373ffffffffffffffffffffffffffffffffffffffff16146137415760006137208461136c565b905061373f848261373a858561261490919063ffffffff16565b613fcc565b505b600073ffffffffffffffffffffffffffffffffffffffff168273ffffffffffffffffffffffffffffffffffffffff16146137a15760006137808361136c565b905061379f838261379a858561238d90919063ffffffff16565b613fcc565b505b6000600860009054906101000a900473ffffffffffffffffffffffffffffffffffffffff169050600073ffffffffffffffffffffffffffffffffffffffff168173ffffffffffffffffffffffffffffffffffffffff16146138a4578073ffffffffffffffffffffffffffffffffffffffff16634a3931498585856040518463ffffffff1660e01b8152600401808473ffffffffffffffffffffffffffffffffffffffff1681526020018373ffffffffffffffffffffffffffffffffffffffff1681526020018281526020019350505050600060405180830381600087803b15801561388b57600080fd5b505af115801561389f573d6000803e3d6000fd5b505050505b505b505050565b6138ca8273ffffffffffffffffffffffffffffffffffffffff166142e6565b61393c576040517f08c379a000000000000000000000000000000000000000000000000000000000815260040180806020018281038252601f8152602001807f5361666545524332303a2063616c6c20746f206e6f6e2d636f6e74726163740081525060200191505060405180910390fd5b600060608373ffffffffffffffffffffffffffffffffffffffff16836040518082805190602001908083835b6020831061398b5780518252602082019150602081019050602083039250613968565b6001836020036101000a0380198251168184511680821785525050505050509050019150506000604051808303816000865af19150503d80600081146139ed576040519150601f19603f3d011682016040523d82523d6000602084013e6139f2565b606091505b509150915081613a6a576040517f08c379a00000000000000000000000000000000000000000000000000000000081526004018080602001828103825260208152602001807f5361666545524332303a206c6f772d6c6576656c2063616c6c206661696c656481525060200191505060405180910390fd5b600081511115613af057808060200190516020811015613a8957600080fd5b8101908080519060200190929190505050613aef576040517f08c379a000000000000000000000000000000000000000000000000000000000815260040180806020018281038252602a815260200180614fa0602a913960400191505060405180910390fd5b5b50505050565b600073ffffffffffffffffffffffffffffffffffffffff168373ffffffffffffffffffffffffffffffffffffffff161415613b7c576040517f08c379a0000000000000000000000000000000000000000000000000000000008152600401808060200182810382526025815260200180614f576025913960400191505060405180910390fd5b600073ffffffffffffffffffffffffffffffffffffffff168273ffffffffffffffffffffffffffffffffffffffff161415613c02576040517f08c379a0000000000000000000000000000000000000000000000000000000008152600401808060200182810382526023815260200180614e326023913960400191505060405180910390fd5b613c0d8383836136a8565b613c7881604051806060016040528060268152602001614e99602691396000808773ffffffffffffffffffffffffffffffffffffffff1673ffffffffffffffffffffffffffffffffffffffff16815260200190815260200160002054612b2f9092919063ffffffff16565b6000808573ffffffffffffffffffffffffffffffffffffffff1673ffffffffffffffffffffffffffffffffffffffff16815260200190815260200160002081905550613d0b816000808573ffffffffffffffffffffffffffffffffffffffff1673ffffffffffffffffffffffffffffffffffffffff1681526020019081526020016000205461238d90919063ffffffff16565b6000808473ffffffffffffffffffffffffffffffffffffffff1673ffffffffffffffffffffffffffffffffffffffff168152602001908152602001600020819055508173ffffffffffffffffffffffffffffffffffffffff168373ffffffffffffffffffffffffffffffffffffffff167fddf252ad1be2c89b69c2b068fc378daa952ba7f163c4a11628f55a4df523b3ef836040518082815260200191505060405180910390a3505050565b600080841480613dc75750600082145b80613de3575042836fffffffffffffffffffffffffffffffff16145b80613e2057507f0000000000000000000000000000000000000000000000000000000000000000836fffffffffffffffffffffffffffffffff1610155b15613e2d57849050613efe565b60007f00000000000000000000000000000000000000000000000000000000000000004211613e5c5742613e7e565b7f00000000000000000000000000000000000000000000000000000000000000005b90506000613ea7856fffffffffffffffffffffffffffffffff168361261490919063ffffffff16565b9050613ef987613eeb86613edd601260ff16600a0a613ecf878d61353990919063ffffffff16565b61353990919063ffffffff16565b6135bf90919063ffffffff16565b61238d90919063ffffffff16565b925050505b949350505050565b60008083118290613fb2576040517f08c379a00000000000000000000000000000000000000000000000000000000081526004018080602001828103825283818151815260200191508051906020019080838360005b83811015613f77578082015181840152602081019050613f5c565b50505050905090810190601f168015613fa45780820380516001836020036101000a031916815260200191505b509250505060405180910390fd5b506000838581613fbe57fe5b049050809150509392505050565b60004390506000600760008673ffffffffffffffffffffffffffffffffffffffff1673ffffffffffffffffffffffffffffffffffffffff1681526020019081526020016000205490506000600660008773ffffffffffffffffffffffffffffffffffffffff1673ffffffffffffffffffffffffffffffffffffffff1681526020019081526020016000209050600082141580156140d05750826fffffffffffffffffffffffffffffffff1681600061408e60018661261490919063ffffffff16565b815260200190815260200160002060000160009054906101000a90046fffffffffffffffffffffffffffffffff166fffffffffffffffffffffffffffffffff16145b1561413957838160006140ed60018661261490919063ffffffff16565b815260200190815260200160002060000160106101000a8154816fffffffffffffffffffffffffffffffff02191690836fffffffffffffffffffffffffffffffff16021790555061425d565b6040518060400160405280846fffffffffffffffffffffffffffffffff168152602001856fffffffffffffffffffffffffffffffff1681525081600084815260200190815260200160002060008201518160000160006101000a8154816fffffffffffffffffffffffffffffffff02191690836fffffffffffffffffffffffffffffffff16021790555060208201518160000160106101000a8154816fffffffffffffffffffffffffffffffff02191690836fffffffffffffffffffffffffffffffff16021790555090505061421960018361238d90919063ffffffff16565b600760008873ffffffffffffffffffffffffffffffffffffffff1673ffffffffffffffffffffffffffffffffffffffff168152602001908152602001600020819055505b7f2cd3c83ddac2953ee75f53265d9ea4463eaf05030e5459a1b7e63819b7ce88f7868686604051808473ffffffffffffffffffffffffffffffffffffffff168152602001836fffffffffffffffffffffffffffffffff168152602001826fffffffffffffffffffffffffffffffff168152602001935050505060405180910390a1505050505050565b60008060007fc5d2460186f7233c927e7db2dcc703c0e500b653ca82273b7bfad8045d85a47060001b9050833f915080821415801561432857506000801b8214155b92505050919050565b828054600181600116156101000203166002900490600052602060002090601f01602090048101928261436757600085556143ae565b82601f1061438057805160ff19168380011785556143ae565b828001600101855582156143ae579182015b828111156143ad578251825591602001919060010190614392565b5b5090506143bb91906143bf565b5090565b5b808211156143d85760008160009055506001016143c0565b5090565b6000813590506143eb81614dbe565b92915050565b60008083601f84011261440357600080fd5b8235905067ffffffffffffffff81111561441c57600080fd5b6020830191508360e082028301111561443457600080fd5b9250929050565b60008135905061444a81614dd5565b92915050565b60008083601f84011261446257600080fd5b8235905067ffffffffffffffff81111561447b57600080fd5b60208301915083600182028301111561449357600080fd5b9250929050565b6000813590506144a981614dec565b92915050565b6000813590506144be81614e03565b92915050565b6000813590506144d381614e1a565b92915050565b6000602082840312156144eb57600080fd5b60006144f9848285016143dc565b91505092915050565b6000806040838503121561451557600080fd5b6000614523858286016143dc565b9250506020614534858286016143dc565b9150509250929050565b60008060006060848603121561455357600080fd5b6000614561868287016143dc565b9350506020614572868287016143dc565b9250506040614583868287016144af565b9150509250925092565b600080604083850312156145a057600080fd5b60006145ae858286016143dc565b92505060206145bf858286016144af565b9150509250929050565b600080602083850312156145dc57600080fd5b600083013567ffffffffffffffff8111156145f657600080fd5b614602858286016143f1565b92509250509250929050565b6000806000806000806080878903121561462757600080fd5b600061463589828a0161443b565b965050602087013567ffffffffffffffff81111561465257600080fd5b61465e89828a01614450565b9550955050604087013567ffffffffffffffff81111561467d57600080fd5b61468989828a01614450565b9350935050606061469c89828a016144c4565b9150509295509295509295565b6000602082840312156146bb57600080fd5b60006146c98482850161449a565b91505092915050565b6000602082840312156146e457600080fd5b60006146f2848285016144af565b91505092915050565b6000806000806080858703121561471157600080fd5b600061471f878288016144af565b9450506020614730878288016144af565b9350506040614741878288016143dc565b9250506060614752878288016144af565b91505092959194509250565b600080600080600060a0868803121561477657600080fd5b6000614784888289016144af565b9550506020614795888289016144af565b94505060406147a6888289016144af565b93505060606147b7888289016144af565b92505060806147c8888289016144af565b9150509295509295909350565b6147de81614c9d565b82525050565b6147ed81614caf565b82525050565b6147fc81614d20565b82525050565b61480b81614d44565b82525050565b600061481c82614c81565b6148268185614c8c565b9350614836818560208601614d7a565b61483f81614dad565b840191505092915050565b6000614857601383614c8c565b91507f494e56414c49445f5a45524f5f414d4f554e54000000000000000000000000006000830152602082019050919050565b6000614897601583614c8c565b91507f494e53554646494349454e545f434f4f4c444f574e00000000000000000000006000830152602082019050919050565b60006148d7600e83614c8c565b91507f594f5520415245205354414b45440000000000000000000000000000000000006000830152602082019050919050565b6000614917601583614c8c565b91507f4f4e4c595f454d495353494f4e5f4d414e4147455200000000000000000000006000830152602082019050919050565b6000614957601783614c8c565b91507f554e5354414b455f57494e444f575f46494e49534845440000000000000000006000830152602082019050919050565b6000614997601b83614c8c565b91507f494e56414c49445f42414c414e43455f4f4e5f434f4f4c444f574e00000000006000830152602082019050919050565b6149d381614ccd565b82525050565b6149e281614d68565b82525050565b6149f181614d09565b82525050565b614a0081614d13565b82525050565b6000602082019050614a1b60008301846147d5565b92915050565b6000604082019050614a3660008301856147d5565b614a4360208301846149e8565b9392505050565b6000602082019050614a5f60008301846147e4565b92915050565b6000602082019050614a7a60008301846147f3565b92915050565b6000602082019050614a956000830184614802565b92915050565b60006020820190508181036000830152614ab58184614811565b905092915050565b60006020820190508181036000830152614ad68161484a565b9050919050565b60006020820190508181036000830152614af68161488a565b9050919050565b60006020820190508181036000830152614b16816148ca565b9050919050565b60006020820190508181036000830152614b368161490a565b9050919050565b60006020820190508181036000830152614b568161494a565b9050919050565b60006020820190508181036000830152614b768161498a565b9050919050565b6000602082019050614b9260008301846149ca565b92915050565b6000602082019050614bad60008301846149d9565b92915050565b6000604082019050614bc860008301856149ca565b614bd560208301846149ca565b9392505050565b600060e082019050614bf1600083018a6149ca565b614bfe60208301896149ca565b614c0b60408301886149e8565b614c1860608301876149e8565b614c2560808301866149e8565b614c3260a08301856149e8565b614c3f60c08301846149e8565b98975050505050505050565b6000602082019050614c6060008301846149e8565b92915050565b6000602082019050614c7b60008301846149f7565b92915050565b600081519050919050565b600082825260208201905092915050565b6000614ca882614ce9565b9050919050565b60008115159050919050565b6000614cc682614c9d565b9050919050565b60006fffffffffffffffffffffffffffffffff82169050919050565b600073ffffffffffffffffffffffffffffffffffffffff82169050919050565b6000819050919050565b600060ff82169050919050565b6000614d2b82614d32565b9050919050565b6000614d3d82614ce9565b9050919050565b6000614d4f82614d56565b9050919050565b6000614d6182614ce9565b9050919050565b6000614d7382614ccd565b9050919050565b60005b83811015614d98578082015181840152602081019050614d7d565b83811115614da7576000848401525b50505050565b6000601f19601f8301169050919050565b614dc781614c9d565b8114614dd257600080fd5b50565b614dde81614cbb565b8114614de957600080fd5b50565b614df581614ccd565b8114614e0057600080fd5b50565b614e0c81614d09565b8114614e1757600080fd5b50565b614e2381614d13565b8114614e2e57600080fd5b5056fe45524332303a207472616e7366657220746f20746865207a65726f206164647265737345524332303a206275726e20616d6f756e7420657863656564732062616c616e636545524332303a20617070726f766520746f20746865207a65726f206164647265737345524332303a207472616e7366657220616d6f756e7420657863656564732062616c616e6365536166654d6174683a206d756c7469706c69636174696f6e206f766572666c6f7745524332303a207472616e7366657220616d6f756e74206578636565647320616c6c6f77616e6365436f6e747261637420696e7374616e63652068617320616c7265616479206265656e20696e697469616c697a656445524332303a206275726e2066726f6d20746865207a65726f206164647265737345524332303a207472616e736665722066726f6d20746865207a65726f206164647265737345524332303a20617070726f76652066726f6d20746865207a65726f20616464726573735361666545524332303a204552433230206f7065726174696f6e20646964206e6f74207375636365656445524332303a2064656372656173656420616c6c6f77616e63652062656c6f77207a65726fa2646970667358221220181c4389f8b4e7395d98d21a74191b33437c144b3bb742505727cfb43586b22364736f6c63430007050033",
  "linkReferences": {},
  "deployedLinkReferences": {}
}