{
  "_format": "hh-sol-artifact-1",
  "contractName": "StakedTVB",
  "sourceName": "contracts/stake/StakedAave.sol",
  "abi": [
    {
      "inputs": [
        {
          "internalType": "contract IERC20",
          "name": "stakedToken",
          "type": "address"
        },
        {
          "internalType": "contract IERC20",
          "name": "rewardToken",
          "type": "address"
        },
        {
          "internalType": "uint256",
          "name": "cooldownSeconds",
          "type": "uint256"
        },
        {
          "internalType": "uint256",
          "name": "unstakeWindow",
          "type": "uint256"
        },
        {
          "internalType": "address",
          "name": "rewardsVault",
          "type": "address"
        },
        {
          "internalType": "address",
          "name": "emissionManager",
          "type": "address"
        },
        {
          "internalType": "uint128",
          "name": "distributionDuration",
          "type": "uint128"
        }
      ],
      "stateMutability": "nonpayable",
      "type": "constructor"
    },
    {
      "anonymous": false,
      "inputs": [
        {
          "indexed": true,
          "internalType": "address",
          "name": "owner",
          "type": "address"
        },
        {
          "indexed": true,
          "internalType": "address",
          "name": "spender",
          "type": "address"
        },
        {
          "indexed": false,
          "internalType": "uint256",
          "name": "value",
          "type": "uint256"
        }
      ],
      "name": "Approval",
      "type": "event"
    },
    {
      "anonymous": false,
      "inputs": [
        {
          "indexed": true,
          "internalType": "address",
          "name": "asset",
          "type": "address"
        },
        {
          "indexed": false,
          "internalType": "uint256",
          "name": "emission",
          "type": "uint256"
        }
      ],
      "name": "AssetConfigUpdated",
      "type": "event"
    },
    {
      "anonymous": false,
      "inputs": [
        {
          "indexed": true,
          "internalType": "address",
          "name": "asset",
          "type": "address"
        },
        {
          "indexed": false,
          "internalType": "uint256",
          "name": "index",
          "type": "uint256"
        }
      ],
      "name": "AssetIndexUpdated",
      "type": "event"
    },
    {
      "anonymous": false,
      "inputs": [
        {
          "indexed": true,
          "internalType": "address",
          "name": "user",
          "type": "address"
        }
      ],
      "name": "Cooldown",
      "type": "event"
    },
    {
      "anonymous": false,
      "inputs": [
        {
          "indexed": true,
          "internalType": "address",
          "name": "from",
          "type": "address"
        },
        {
          "indexed": true,
          "internalType": "address",
          "name": "to",
          "type": "address"
        },
        {
          "indexed": false,
          "internalType": "uint256",
          "name": "amount",
          "type": "uint256"
        }
      ],
      "name": "Redeem",
      "type": "event"
    },
    {
      "anonymous": false,
      "inputs": [
        {
          "indexed": false,
          "internalType": "address",
          "name": "user",
          "type": "address"
        },
        {
          "indexed": false,
          "internalType": "uint256",
          "name": "amount",
          "type": "uint256"
        }
      ],
      "name": "RewardsAccrued",
      "type": "event"
    },
    {
      "anonymous": false,
      "inputs": [
        {
          "indexed": true,
          "internalType": "address",
          "name": "from",
          "type": "address"
        },
        {
          "indexed": true,
          "internalType": "address",
          "name": "to",
          "type": "address"
        },
        {
          "indexed": false,
          "internalType": "uint256",
          "name": "amount",
          "type": "uint256"
        }
      ],
      "name": "RewardsClaimed",
      "type": "event"
    },
    {
      "anonymous": false,
      "inputs": [
        {
          "indexed": false,
          "internalType": "address",
          "name": "owner",
          "type": "address"
        },
        {
          "indexed": false,
          "internalType": "uint128",
          "name": "oldValue",
          "type": "uint128"
        },
        {
          "indexed": false,
          "internalType": "uint128",
          "name": "newValue",
          "type": "uint128"
        }
      ],
      "name": "SnapshotDone",
      "type": "event"
    },
    {
      "anonymous": false,
      "inputs": [
        {
          "indexed": true,
          "internalType": "address",
          "name": "from",
          "type": "address"
        },
        {
          "indexed": true,
          "internalType": "address",
          "name": "onBehalfOf",
          "type": "address"
        },
        {
          "indexed": false,
          "internalType": "uint256",
          "name": "amount",
          "type": "uint256"
        }
      ],
      "name": "Staked",
      "type": "event"
    },
    {
      "anonymous": false,
      "inputs": [
        {
          "indexed": true,
          "internalType": "address",
          "name": "from",
          "type": "address"
        },
        {
          "indexed": true,
          "internalType": "address",
          "name": "to",
          "type": "address"
        },
        {
          "indexed": false,
          "internalType": "uint256",
          "name": "value",
          "type": "uint256"
        }
      ],
      "name": "Transfer",
      "type": "event"
    },
    {
      "anonymous": false,
      "inputs": [
        {
          "indexed": true,
          "internalType": "address",
          "name": "user",
          "type": "address"
        },
        {
          "indexed": true,
          "internalType": "address",
          "name": "asset",
          "type": "address"
        },
        {
          "indexed": false,
          "internalType": "uint256",
          "name": "index",
          "type": "uint256"
        }
      ],
      "name": "UserIndexUpdated",
      "type": "event"
    },
    {
      "inputs": [],
      "name": "COOLDOWN_SECONDS",
      "outputs": [
        {
          "internalType": "uint256",
          "name": "",
          "type": "uint256"
        }
      ],
      "stateMutability": "view",
      "type": "function"
    },
    {
      "inputs": [],
      "name": "DISTRIBUTION_END",
      "outputs": [
        {
          "internalType": "uint256",
          "name": "",
          "type": "uint256"
        }
      ],
      "stateMutability": "view",
      "type": "function"
    },
    {
      "inputs": [],
      "name": "EMISSION_MANAGER",
      "outputs": [
        {
          "internalType": "address",
          "name": "",
          "type": "address"
        }
      ],
      "stateMutability": "view",
      "type": "function"
    },
    {
      "inputs": [],
      "name": "LOCK_TIME",
      "outputs": [
        {
          "internalType": "uint256",
          "name": "",
          "type": "uint256"
        }
      ],
      "stateMutability": "view",
      "type": "function"
    },
    {
      "inputs": [],
      "name": "PRECISION",
      "outputs": [
        {
          "internalType": "uint8",
          "name": "",
          "type": "uint8"
        }
      ],
      "stateMutability": "view",
      "type": "function"
    },
    {
      "inputs": [],
      "name": "REVISION",
      "outputs": [
        {
          "internalType": "uint256",
          "name": "",
          "type": "uint256"
        }
      ],
      "stateMutability": "view",
      "type": "function"
    },
    {
      "inputs": [],
      "name": "REWARDS_VAULT",
      "outputs": [
        {
          "internalType": "address",
          "name": "",
          "type": "address"
        }
      ],
      "stateMutability": "view",
      "type": "function"
    },
    {
      "inputs": [],
      "name": "REWARD_TOKEN",
      "outputs": [
        {
          "internalType": "contract IERC20",
          "name": "",
          "type": "address"
        }
      ],
      "stateMutability": "view",
      "type": "function"
    },
    {
      "inputs": [],
      "name": "STAKED_TOKEN",
      "outputs": [
        {
          "internalType": "contract IERC20",
          "name": "",
          "type": "address"
        }
      ],
      "stateMutability": "view",
      "type": "function"
    },
    {
      "inputs": [],
      "name": "TOTAL_STAKED",
      "outputs": [
        {
          "internalType": "uint256",
          "name": "",
          "type": "uint256"
        }
      ],
      "stateMutability": "view",
      "type": "function"
    },
    {
      "inputs": [],
      "name": "TOTAL_USERS",
      "outputs": [
        {
          "internalType": "uint256",
          "name": "",
          "type": "uint256"
        }
      ],
      "stateMutability": "view",
      "type": "function"
    },
    {
      "inputs": [],
      "name": "UNSTAKE_WINDOW",
      "outputs": [
        {
          "internalType": "uint256",
          "name": "",
          "type": "uint256"
        }
      ],
      "stateMutability": "view",
      "type": "function"
    },
    {
      "inputs": [],
      "name": "_aaveGovernance",
      "outputs": [
        {
          "internalType": "contract ITransferHook",
          "name": "",
          "type": "address"
        }
      ],
      "stateMutability": "view",
      "type": "function"
    },
    {
      "inputs": [
        {
          "internalType": "address",
          "name": "",
          "type": "address"
        }
      ],
      "name": "_countsSnapshots",
      "outputs": [
        {
          "internalType": "uint256",
          "name": "",
          "type": "uint256"
        }
      ],
      "stateMutability": "view",
      "type": "function"
    },
    {
      "inputs": [
        {
          "internalType": "uint256",
          "name": "X",
          "type": "uint256"
        },
        {
          "internalType": "uint256",
          "name": "Y",
          "type": "uint256"
        },
        {
          "internalType": "uint256",
          "name": "Z",
          "type": "uint256"
        },
        {
          "internalType": "uint256",
          "name": "m",
          "type": "uint256"
        }
      ],
      "name": "_getEmissionPerSecondA",
      "outputs": [
        {
          "internalType": "uint256",
          "name": "",
          "type": "uint256"
        }
      ],
      "stateMutability": "pure",
      "type": "function"
    },
    {
      "inputs": [
        {
          "internalType": "uint256",
          "name": "X",
          "type": "uint256"
        },
        {
          "internalType": "uint256",
          "name": "Y",
          "type": "uint256"
        },
        {
          "internalType": "uint256",
          "name": "Z",
          "type": "uint256"
        },
        {
          "internalType": "uint256",
          "name": "m",
          "type": "uint256"
        }
      ],
      "name": "_getEmissionPerSecondB",
      "outputs": [
        {
          "internalType": "uint256",
          "name": "",
          "type": "uint256"
        }
      ],
      "stateMutability": "pure",
      "type": "function"
    },
    {
      "inputs": [
        {
          "internalType": "uint256",
          "name": "X",
          "type": "uint256"
        },
        {
          "internalType": "uint256",
          "name": "Y",
          "type": "uint256"
        },
        {
          "internalType": "uint256",
          "name": "Z",
          "type": "uint256"
        },
        {
          "internalType": "uint256",
          "name": "m",
          "type": "uint256"
        }
      ],
      "name": "_getEmissionPerSecondC",
      "outputs": [
        {
          "internalType": "uint256",
          "name": "",
          "type": "uint256"
        }
      ],
      "stateMutability": "pure",
      "type": "function"
    },
    {
      "inputs": [
        {
          "internalType": "uint256",
          "name": "X",
          "type": "uint256"
        },
        {
          "internalType": "uint256",
          "name": "Y",
          "type": "uint256"
        },
        {
          "internalType": "uint256",
          "name": "Z",
          "type": "uint256"
        }
      ],
      "name": "_getEmissionPerSecondU",
      "outputs": [
        {
          "internalType": "uint256",
          "name": "",
          "type": "uint256"
        }
      ],
      "stateMutability": "pure",
      "type": "function"
    },
    {
      "inputs": [
        {
          "internalType": "uint256",
          "name": "X",
          "type": "uint256"
        },
        {
          "internalType": "uint256",
          "name": "Y",
          "type": "uint256"
        },
        {
          "internalType": "uint256",
          "name": "Z",
          "type": "uint256"
        },
        {
          "internalType": "uint256",
          "name": "m",
          "type": "uint256"
        },
        {
          "internalType": "uint256",
          "name": "totalUsers",
          "type": "uint256"
        }
      ],
      "name": "_getEmissionPerSecondVault",
      "outputs": [
        {
          "internalType": "uint128",
          "name": "",
          "type": "uint128"
        }
      ],
      "stateMutability": "view",
      "type": "function"
    },
    {
      "inputs": [
        {
          "internalType": "address",
          "name": "",
          "type": "address"
        },
        {
          "internalType": "uint256",
          "name": "",
          "type": "uint256"
        }
      ],
      "name": "_snapshots",
      "outputs": [
        {
          "internalType": "uint128",
          "name": "blockNumber",
          "type": "uint128"
        },
        {
          "internalType": "uint128",
          "name": "value",
          "type": "uint128"
        }
      ],
      "stateMutability": "view",
      "type": "function"
    },
    {
      "inputs": [
        {
          "internalType": "address",
          "name": "owner",
          "type": "address"
        },
        {
          "internalType": "address",
          "name": "spender",
          "type": "address"
        }
      ],
      "name": "allowance",
      "outputs": [
        {
          "internalType": "uint256",
          "name": "",
          "type": "uint256"
        }
      ],
      "stateMutability": "view",
      "type": "function"
    },
    {
      "inputs": [
        {
          "internalType": "address",
          "name": "spender",
          "type": "address"
        },
        {
          "internalType": "uint256",
          "name": "amount",
          "type": "uint256"
        }
      ],
      "name": "approve",
      "outputs": [
        {
          "internalType": "bool",
          "name": "",
          "type": "bool"
        }
      ],
      "stateMutability": "nonpayable",
      "type": "function"
    },
    {
      "inputs": [
        {
          "internalType": "address",
          "name": "",
          "type": "address"
        }
      ],
      "name": "assets",
      "outputs": [
        {
          "internalType": "uint128",
          "name": "emissionPerSecond",
          "type": "uint128"
        },
        {
          "internalType": "uint128",
          "name": "lastUpdateTimestamp",
          "type": "uint128"
        },
        {
          "internalType": "uint256",
          "name": "index",
          "type": "uint256"
        }
      ],
      "stateMutability": "view",
      "type": "function"
    },
    {
      "inputs": [
        {
          "internalType": "address",
          "name": "account",
          "type": "address"
        }
      ],
      "name": "balanceOf",
      "outputs": [
        {
          "internalType": "uint256",
          "name": "",
          "type": "uint256"
        }
      ],
      "stateMutability": "view",
      "type": "function"
    },
    {
      "inputs": [
        {
          "internalType": "address",
          "name": "to",
          "type": "address"
        },
        {
          "internalType": "uint256",
          "name": "amount",
          "type": "uint256"
        }
      ],
      "name": "claimRewards",
      "outputs": [],
      "stateMutability": "nonpayable",
      "type": "function"
    },
    {
      "inputs": [
        {
          "components": [
            {
              "internalType": "uint128",
              "name": "emissionPerSecond",
              "type": "uint128"
            },
            {
              "internalType": "uint256",
              "name": "totalStaked",
              "type": "uint256"
            },
            {
              "internalType": "address",
              "name": "underlyingAsset",
              "type": "address"
            }
          ],
          "internalType": "struct DistributionTypes.AssetConfigInput[]",
          "name": "assetsConfigInput",
          "type": "tuple[]"
        }
      ],
      "name": "configureAssets",
      "outputs": [],
      "stateMutability": "nonpayable",
      "type": "function"
    },
    {
      "inputs": [],
      "name": "cooldown",
      "outputs": [],
      "stateMutability": "nonpayable",
      "type": "function"
    },
    {
      "inputs": [],
      "name": "decimals",
      "outputs": [
        {
          "internalType": "uint8",
          "name": "",
          "type": "uint8"
        }
      ],
      "stateMutability": "view",
      "type": "function"
    },
    {
      "inputs": [
        {
          "internalType": "address",
          "name": "spender",
          "type": "address"
        },
        {
          "internalType": "uint256",
          "name": "subtractedValue",
          "type": "uint256"
        }
      ],
      "name": "decreaseAllowance",
      "outputs": [
        {
          "internalType": "bool",
          "name": "",
          "type": "bool"
        }
      ],
      "stateMutability": "nonpayable",
      "type": "function"
    },
    {
      "inputs": [],
      "name": "getAssetEmissionPerSecond",
      "outputs": [
        {
          "internalType": "uint256",
          "name": "",
          "type": "uint256"
        }
      ],
      "stateMutability": "view",
      "type": "function"
    },
    {
      "inputs": [
        {
          "internalType": "uint256",
          "name": "fromCooldownTimestamp",
          "type": "uint256"
        },
        {
          "internalType": "uint256",
          "name": "amountToReceive",
          "type": "uint256"
        },
        {
          "internalType": "address",
          "name": "toAddress",
          "type": "address"
        },
        {
          "internalType": "uint256",
          "name": "toBalance",
          "type": "uint256"
        }
      ],
      "name": "getNextCooldownTimestamp",
      "outputs": [
        {
          "internalType": "uint256",
          "name": "",
          "type": "uint256"
        }
      ],
      "stateMutability": "view",
      "type": "function"
    },
    {
      "inputs": [
        {
          "internalType": "address",
          "name": "staker",
          "type": "address"
        }
      ],
      "name": "getTotalRewardsBalance",
      "outputs": [
        {
          "internalType": "uint256",
          "name": "",
          "type": "uint256"
        }
      ],
      "stateMutability": "view",
      "type": "function"
    },
    {
      "inputs": [
        {
          "internalType": "address",
          "name": "user",
          "type": "address"
        },
        {
          "internalType": "address",
          "name": "asset",
          "type": "address"
        }
      ],
      "name": "getUserAssetData",
      "outputs": [
        {
          "internalType": "uint256",
          "name": "",
          "type": "uint256"
        }
      ],
      "stateMutability": "view",
      "type": "function"
    },
    {
      "inputs": [
        {
          "internalType": "address",
          "name": "user",
          "type": "address"
        }
      ],
      "name": "getUserLockEndTimestamp",
      "outputs": [
        {
          "internalType": "uint256",
          "name": "",
          "type": "uint256"
        }
      ],
      "stateMutability": "view",
      "type": "function"
    },
    {
      "inputs": [
        {
          "internalType": "address",
          "name": "spender",
          "type": "address"
        },
        {
          "internalType": "uint256",
          "name": "addedValue",
          "type": "uint256"
        }
      ],
      "name": "increaseAllowance",
      "outputs": [
        {
          "internalType": "bool",
          "name": "",
          "type": "bool"
        }
      ],
      "stateMutability": "nonpayable",
      "type": "function"
    },
    {
      "inputs": [
        {
          "internalType": "contract ITransferHook",
          "name": "aaveGovernance",
          "type": "address"
        },
        {
          "internalType": "string",
          "name": "name",
          "type": "string"
        },
        {
          "internalType": "string",
          "name": "symbol",
          "type": "string"
        },
        {
          "internalType": "uint8",
          "name": "decimals",
          "type": "uint8"
        }
      ],
      "name": "initialize",
      "outputs": [],
      "stateMutability": "nonpayable",
      "type": "function"
    },
    {
      "inputs": [],
      "name": "name",
      "outputs": [
        {
          "internalType": "string",
          "name": "",
          "type": "string"
        }
      ],
      "stateMutability": "view",
      "type": "function"
    },
    {
      "inputs": [
        {
          "internalType": "address",
          "name": "to",
          "type": "address"
        },
        {
          "internalType": "uint256",
          "name": "amount",
          "type": "uint256"
        }
      ],
      "name": "redeem",
      "outputs": [],
      "stateMutability": "nonpayable",
      "type": "function"
    },
    {
      "inputs": [
        {
          "internalType": "address",
          "name": "onBehalfOf",
          "type": "address"
        },
        {
          "internalType": "uint256",
          "name": "amount",
          "type": "uint256"
        }
      ],
      "name": "stake",
      "outputs": [],
      "stateMutability": "nonpayable",
      "type": "function"
    },
    {
      "inputs": [
        {
          "internalType": "address",
          "name": "",
          "type": "address"
        }
      ],
      "name": "stakerRewardLockTime",
      "outputs": [
        {
          "internalType": "uint256",
          "name": "",
          "type": "uint256"
        }
      ],
      "stateMutability": "view",
      "type": "function"
    },
    {
      "inputs": [
        {
          "internalType": "address",
          "name": "",
          "type": "address"
        }
      ],
      "name": "stakerRewardsToClaim",
      "outputs": [
        {
          "internalType": "uint256",
          "name": "",
          "type": "uint256"
        }
      ],
      "stateMutability": "view",
      "type": "function"
    },
    {
      "inputs": [
        {
          "internalType": "address",
          "name": "",
          "type": "address"
        }
      ],
      "name": "stakersCooldowns",
      "outputs": [
        {
          "internalType": "uint256",
          "name": "",
          "type": "uint256"
        }
      ],
      "stateMutability": "view",
      "type": "function"
    },
    {
      "inputs": [
        {
          "internalType": "uint256",
          "name": "",
          "type": "uint256"
        }
      ],
      "name": "subAmountAfterLockTime",
      "outputs": [
        {
          "internalType": "uint256",
          "name": "",
          "type": "uint256"
        }
      ],
      "stateMutability": "view",
      "type": "function"
    },
    {
      "inputs": [],
      "name": "symbol",
      "outputs": [
        {
          "internalType": "string",
          "name": "",
          "type": "string"
        }
      ],
      "stateMutability": "view",
      "type": "function"
    },
    {
      "inputs": [
        {
          "internalType": "uint256",
          "name": "",
          "type": "uint256"
        }
      ],
      "name": "timestampToIndexOfUsers",
      "outputs": [
        {
          "internalType": "uint256",
          "name": "",
          "type": "uint256"
        }
      ],
      "stateMutability": "view",
      "type": "function"
    },
    {
      "inputs": [],
      "name": "totalSupply",
      "outputs": [
        {
          "internalType": "uint256",
          "name": "",
          "type": "uint256"
        }
      ],
      "stateMutability": "view",
      "type": "function"
    },
    {
      "inputs": [
        {
          "internalType": "address",
          "name": "recipient",
          "type": "address"
        },
        {
          "internalType": "uint256",
          "name": "amount",
          "type": "uint256"
        }
      ],
      "name": "transfer",
      "outputs": [
        {
          "internalType": "bool",
          "name": "",
          "type": "bool"
        }
      ],
      "stateMutability": "nonpayable",
      "type": "function"
    },
    {
      "inputs": [
        {
          "internalType": "address",
          "name": "sender",
          "type": "address"
        },
        {
          "internalType": "address",
          "name": "recipient",
          "type": "address"
        },
        {
          "internalType": "uint256",
          "name": "amount",
          "type": "uint256"
        }
      ],
      "name": "transferFrom",
      "outputs": [
        {
          "internalType": "bool",
          "name": "",
          "type": "bool"
        }
      ],
      "stateMutability": "nonpayable",
      "type": "function"
    }
  ],
  "bytecode": "0x610180604052600060095562093a80610120908152503480156200002257600080fd5b5060405162005bef38038062005bef8339818101604052810190620000489190620003ee565b868686868686866040518060400160405280600b81526020017f5374616b656420416176650000000000000000000000000000000000000000008152506040518060400160405280600781526020017f73746b4141564500000000000000000000000000000000000000000000000000815250601284846fffffffffffffffffffffffffffffffff168484848282828260039080519060200190620000ef929190620002dc565b50816004908051906020019062000108929190620002dc565b5080600560006101000a81548160ff021916908360ff1602179055505050505050506200014481426200025360201b620027bb1790919060201c565b608081815250508173ffffffffffffffffffffffffffffffffffffffff1660a08173ffffffffffffffffffffffffffffffffffffffff1660601b8152505050508973ffffffffffffffffffffffffffffffffffffffff1660c08173ffffffffffffffffffffffffffffffffffffffff1660601b815250508873ffffffffffffffffffffffffffffffffffffffff1660e08173ffffffffffffffffffffffffffffffffffffffff1660601b815250508761010081815250508661014081815250508573ffffffffffffffffffffffffffffffffffffffff166101608173ffffffffffffffffffffffffffffffffffffffff1660601b81525050505050505050505050505050505050505062000571565b600080828401905083811015620002d2576040517f08c379a000000000000000000000000000000000000000000000000000000000815260040180806020018281038252601b8152602001807f536166654d6174683a206164646974696f6e206f766572666c6f77000000000081525060200191505060405180910390fd5b8091505092915050565b828054600181600116156101000203166002900490600052602060002090601f01602090048101928262000314576000855562000360565b82601f106200032f57805160ff191683800117855562000360565b8280016001018555821562000360579182015b828111156200035f57825182559160200191906001019062000342565b5b5090506200036f919062000373565b5090565b5b808211156200038e57600081600090555060010162000374565b5090565b600081519050620003a38162000509565b92915050565b600081519050620003ba8162000523565b92915050565b600081519050620003d1816200053d565b92915050565b600081519050620003e88162000557565b92915050565b600080600080600080600060e0888a0312156200040a57600080fd5b60006200041a8a828b01620003a9565b97505060206200042d8a828b01620003a9565b9650506040620004408a828b01620003d7565b9550506060620004538a828b01620003d7565b9450506080620004668a828b0162000392565b93505060a0620004798a828b0162000392565b92505060c06200048c8a828b01620003c0565b91505092959891949750929550565b6000620004a882620004df565b9050919050565b6000620004bc826200049b565b9050919050565b60006fffffffffffffffffffffffffffffffff82169050919050565b600073ffffffffffffffffffffffffffffffffffffffff82169050919050565b6000819050919050565b62000514816200049b565b81146200052057600080fd5b50565b6200052e81620004af565b81146200053a57600080fd5b50565b6200054881620004c3565b81146200055457600080fd5b50565b6200056281620004ff565b81146200056e57600080fd5b50565b60805160a05160601c60c05160601c60e05160601c6101005161012051610140516101605160601c6155bf62000630600039806117935280611958525080610c09528061104952806125935250806111265280611f4a525080610b985280610c30528061127252806125b7525080611859528061197b525080610d4d5280610f845280611efe5250806120ad528061231e52508061176f528061318352806131c952806131f652806143d25280614418528061444552506155bf6000f3fe608060405234801561001057600080fd5b50600436106102a05760003560e01c80637fe696b611610167578063aaf5eb68116100ce578063dde43cba11610087578063dde43cba146108de578063e23119a7146108fc578063e6376c251461092c578063f11b81881461095c578063f1cc432a1461098e578063f6d2ee86146109be576102a0565b8063aaf5eb681461081c578063adc9772e1461083a578063b2a5dbfa14610856578063c3863ada14610872578063cbcbb50714610890578063dd62ed3e146108ae576102a0565b806395d89b411161012057806395d89b411461073457806399248ea7146107525780639a99b4f014610770578063a457c2d71461078c578063a9059cbb146107bc578063a9fe9b2e146107ec576102a0565b80637fe696b61461063857806384aa1e7d146106685780638779588c146106985780638dbefee2146106c8578063919cd40f146106f8578063946776cd14610716576102a0565b8063359c4a961161020b57806366bb0bf8116101c457806366bb0bf81461056257806370a082311461059257806372b49d63146105c25780637403b06d146105e0578063787a08a6146105fe5780637e90d7ef14610608576102a0565b8063359c4a9614610478578063386a0eee1461049657806339509351146104b4578063413d9c3a146104e4578063454a03cf14610502578063610f4dc714610532576102a0565b80631e9a69501161025d5780631e9a69501461038f57806323b872dd146103ab5780632acbf823146103db578063312f6b831461040c578063313ce5671461042a5780633373ee4c14610448576102a0565b8063040ad759146102a557806306fdde03146102c3578063091030c3146102e1578063095ea7b3146103115780631754a7ad1461034157806318160ddd14610371575b600080fd5b6102ad6109da565b6040516102ba91906151e6565b60405180910390f35b6102cb6109e0565b6040516102d8919061506e565b60405180910390f35b6102fb60048036038101906102f691906149fa565b610a82565b60405161030891906151e6565b60405180910390f35b61032b60048036038101906103269190614aae565b610a9a565b604051610338919061501d565b60405180910390f35b61035b600480360381019061035691906149fa565b610ab8565b60405161036891906151e6565b60405180910390f35b610379610b01565b60405161038691906151e6565b60405180910390f35b6103a960048036038101906103a49190614aae565b610b0b565b005b6103c560048036038101906103c09190614a5f565b610e40565b6040516103d2919061501d565b60405180910390f35b6103f560048036038101906103f09190614aae565b610f19565b604051610403929190615186565b60405180910390f35b610414610f82565b6040516104219190615038565b60405180910390f35b610432610fa6565b60405161043f9190615201565b60405180910390f35b610462600480360381019061045d9190614a23565b610fbd565b60405161046f91906151e6565b60405180910390f35b610480611047565b60405161048d91906151e6565b60405180910390f35b61049e61106b565b6040516104ab91906151e6565b60405180910390f35b6104ce60048036038101906104c99190614aae565b611071565b6040516104db919061501d565b60405180910390f35b6104ec611124565b6040516104f991906151e6565b60405180910390f35b61051c600480360381019061051791906149fa565b611148565b60405161052991906151e6565b60405180910390f35b61054c60048036038101906105479190614bf3565b611160565b60405161055991906151e6565b60405180910390f35b61057c60048036038101906105779190614cce565b611178565b60405161058991906151e6565b60405180910390f35b6105ac60048036038101906105a791906149fa565b611228565b6040516105b991906151e6565b60405180910390f35b6105ca611270565b6040516105d791906151e6565b60405180910390f35b6105e8611294565b6040516105f591906151e6565b60405180910390f35b61060661130c565b005b610622600480360381019061061d91906149fa565b6113e1565b60405161062f91906151e6565b60405180910390f35b610652600480360381019061064d9190614bf3565b6113f9565b60405161065f91906151e6565b60405180910390f35b610682600480360381019061067d9190614c7f565b611411565b60405161068f91906151e6565b60405180910390f35b6106b260048036038101906106ad91906149fa565b6114b4565b6040516106bf91906151e6565b60405180910390f35b6106e260048036038101906106dd91906149fa565b6114cc565b6040516106ef91906151e6565b60405180910390f35b61070061176d565b60405161070d91906151e6565b60405180910390f35b61071e611791565b60405161072b9190614fd9565b60405180910390f35b61073c6117b5565b604051610749919061506e565b60405180910390f35b61075a611857565b6040516107679190615038565b60405180910390f35b61078a60048036038101906107859190614aae565b61187b565b005b6107a660048036038101906107a19190614aae565b611a2b565b6040516107b3919061501d565b60405180910390f35b6107d660048036038101906107d19190614aae565b611af8565b6040516107e3919061501d565b60405180910390f35b61080660048036038101906108019190614d31565b611b16565b6040516108139190615150565b60405180910390f35b610824611cbf565b6040516108319190615201565b60405180910390f35b610854600480360381019061084f9190614aae565b611cc4565b005b610870600480360381019061086b9190614aea565b6120ab565b005b61087a6122f6565b6040516108879190615053565b60405180910390f35b61089861231c565b6040516108a59190614fd9565b60405180910390f35b6108c860048036038101906108c39190614a23565b612340565b6040516108d591906151e6565b60405180910390f35b6108e66123c7565b6040516108f391906151e6565b60405180910390f35b61091660048036038101906109119190614cce565b6123cc565b60405161092391906151e6565b60405180910390f35b61094660048036038101906109419190614cce565b612469565b60405161095391906151e6565b60405180910390f35b610976600480360381019061097191906149fa565b6124d2565b604051610985939291906151af565b60405180910390f35b6109a860048036038101906109a39190614c1c565b612534565b6040516109b591906151e6565b60405180910390f35b6109d860048036038101906109d39190614b2f565b612699565b005b60445481565b606060038054600181600116156101000203166002900480601f016020809104026020016040519081016040528092919081815260200182805460018160011615610100020316600290048015610a785780601f10610a4d57610100808354040283529160200191610a78565b820191906000526020600020905b815481529060010190602001808311610a5b57829003601f168201915b5050505050905090565b603e6020528060005260406000206000915090505481565b6000610aae610aa7612843565b848461284b565b6001905092915050565b6000603f60008373ffffffffffffffffffffffffffffffffffffffff1673ffffffffffffffffffffffffffffffffffffffff168152602001908152602001600020549050919050565b6000600254905090565b6000811415610b4f576040517f08c379a0000000000000000000000000000000000000000000000000000000008152600401610b4690615090565b60405180910390fd5b6000603e60003373ffffffffffffffffffffffffffffffffffffffff1673ffffffffffffffffffffffffffffffffffffffff168152602001908152602001600020549050610bc67f0000000000000000000000000000000000000000000000000000000000000000826127bb90919063ffffffff16565b4211610c07576040517f08c379a0000000000000000000000000000000000000000000000000000000008152600401610bfe906150b0565b60405180910390fd5b7f0000000000000000000000000000000000000000000000000000000000000000610c6d610c5e7f0000000000000000000000000000000000000000000000000000000000000000846127bb90919063ffffffff16565b42612a4290919063ffffffff16565b1115610cae576040517f08c379a0000000000000000000000000000000000000000000000000000000008152600401610ca590615110565b60405180910390fd5b6000610cb933611228565b90506000818411610cca5783610ccc565b815b9050610cda33836001612a8c565b50610ce53382612b8e565b6000610cfa8284612a4290919063ffffffff16565b1415610d46576000603e60003373ffffffffffffffffffffffffffffffffffffffff1673ffffffffffffffffffffffffffffffffffffffff168152602001908152602001600020819055505b610d9185827f000000000000000000000000000000000000000000000000000000000000000073ffffffffffffffffffffffffffffffffffffffff16612d529092919063ffffffff16565b603f60003373ffffffffffffffffffffffffffffffffffffffff1673ffffffffffffffffffffffffffffffffffffffff168152602001908152602001600020600090558473ffffffffffffffffffffffffffffffffffffffff163373ffffffffffffffffffffffffffffffffffffffff167fd12200efa34901b99367694174c3b0d32c99585fdf37c7c26892136ddd0836d983604051610e3191906151e6565b60405180910390a35050505050565b6000610e4d848484612df4565b610f0e84610e59612843565b610f098560405180606001604052806028815260200161547b60289139600160008b73ffffffffffffffffffffffffffffffffffffffff1673ffffffffffffffffffffffffffffffffffffffff1681526020019081526020016000206000610ebf612843565b73ffffffffffffffffffffffffffffffffffffffff1673ffffffffffffffffffffffffffffffffffffffff16815260200190815260200160002054612f5d9092919063ffffffff16565b61284b565b600190509392505050565b6006602052816000526040600020602052806000526040600020600091509150508060000160009054906101000a90046fffffffffffffffffffffffffffffffff16908060000160109054906101000a90046fffffffffffffffffffffffffffffffff16905082565b7f000000000000000000000000000000000000000000000000000000000000000081565b6000600560009054906101000a900460ff16905090565b6000603c60008373ffffffffffffffffffffffffffffffffffffffff1673ffffffffffffffffffffffffffffffffffffffff16815260200190815260200160002060020160008473ffffffffffffffffffffffffffffffffffffffff1673ffffffffffffffffffffffffffffffffffffffff16815260200190815260200160002054905092915050565b7f000000000000000000000000000000000000000000000000000000000000000081565b60425481565b600061111a61107e612843565b84611115856001600061108f612843565b73ffffffffffffffffffffffffffffffffffffffff1673ffffffffffffffffffffffffffffffffffffffff16815260200190815260200160002060008973ffffffffffffffffffffffffffffffffffffffff1673ffffffffffffffffffffffffffffffffffffffff168152602001908152602001600020546127bb90919063ffffffff16565b61284b565b6001905092915050565b7f000000000000000000000000000000000000000000000000000000000000000081565b603f6020528060005260406000206000915090505481565b60416020528060005260406000206000915090505481565b600080611186868686611411565b905060006111eb633b9aca006111dd6111a9600188612a4290919063ffffffff16565b6111cf60026111c18b8d612a4290919063ffffffff16565b61301d90919063ffffffff16565b61301d90919063ffffffff16565b61301d90919063ffffffff16565b90506000611206633b9aca00846127bb90919063ffffffff16565b905061121b81836130a390919063ffffffff16565b9350505050949350505050565b60008060008373ffffffffffffffffffffffffffffffffffffffff1673ffffffffffffffffffffffffffffffffffffffff168152602001908152602001600020549050919050565b7f000000000000000000000000000000000000000000000000000000000000000081565b6000603c60003073ffffffffffffffffffffffffffffffffffffffff1673ffffffffffffffffffffffffffffffffffffffff16815260200190815260200160002060000160009054906101000a90046fffffffffffffffffffffffffffffffff166fffffffffffffffffffffffffffffffff16905090565b600061131733611228565b1415611358576040517f08c379a000000000000000000000000000000000000000000000000000000000815260040161134f90615130565b60405180910390fd5b42603e60003373ffffffffffffffffffffffffffffffffffffffff1673ffffffffffffffffffffffffffffffffffffffff168152602001908152602001600020819055503373ffffffffffffffffffffffffffffffffffffffff167ff52f50426b32362d3e6bb8cb36b7074756b224622def6352a59eac7f66ebe6e860405160405180910390a2565b603d6020528060005260406000206000915090505481565b60406020528060005260406000206000915090505481565b60008061146161142a8685612a4290919063ffffffff16565b611453633b9aca006114458789612a4290919063ffffffff16565b61301d90919063ffffffff16565b6130a390919063ffffffff16565b90506114aa61149b611496670de0b6b3a7640000611488858661301d90919063ffffffff16565b612a4290919063ffffffff16565b6130ed565b82612a4290919063ffffffff16565b9150509392505050565b60076020528060005260406000206000915090505481565b600080603c60003073ffffffffffffffffffffffffffffffffffffffff1673ffffffffffffffffffffffffffffffffffffffff168152602001908152602001600020905060008060406000603f60008873ffffffffffffffffffffffffffffffffffffffff1673ffffffffffffffffffffffffffffffffffffffff1681526020019081526020016000205481526020019081526020016000205414156116635761165e82600101548360000160009054906101000a90046fffffffffffffffffffffffffffffffff166fffffffffffffffffffffffffffffffff168460000160109054906101000a90046fffffffffffffffffffffffffffffffff16604454603f60008a73ffffffffffffffffffffffffffffffffffffffff1673ffffffffffffffffffffffffffffffffffffffff1681526020019081526020016000205442111561165757603f60008a73ffffffffffffffffffffffffffffffffffffffff1673ffffffffffffffffffffffffffffffffffffffff16815260200190815260200160002054611659565b425b61314f565b6116b7565b60406000603f60008773ffffffffffffffffffffffffffffffffffffffff1673ffffffffffffffffffffffffffffffffffffffff168152602001908152602001600020548152602001908152602001600020545b9050600061170f6116c786611228565b838560020160008973ffffffffffffffffffffffffffffffffffffffff1673ffffffffffffffffffffffffffffffffffffffff1681526020019081526020016000205461329f565b905061176381603d60008873ffffffffffffffffffffffffffffffffffffffff1673ffffffffffffffffffffffffffffffffffffffff168152602001908152602001600020546127bb90919063ffffffff16565b9350505050919050565b7f000000000000000000000000000000000000000000000000000000000000000081565b7f000000000000000000000000000000000000000000000000000000000000000081565b606060048054600181600116156101000203166002900480601f01602080910402602001604051908101604052809291908181526020018280546001816001161561010002031660029004801561184d5780601f106118225761010080835404028352916020019161184d565b820191906000526020600020905b81548152906001019060200180831161183057829003601f168201915b5050505050905090565b7f000000000000000000000000000000000000000000000000000000000000000081565b60006118913361188a33611228565b6000612a8c565b905060007fffffffffffffffffffffffffffffffffffffffffffffffffffffffffffffffff83146118c257826118c4565b815b9050611910816040518060400160405280600e81526020017f494e56414c49445f414d4f554e5400000000000000000000000000000000000081525084612f5d9092919063ffffffff16565b603d60003373ffffffffffffffffffffffffffffffffffffffff1673ffffffffffffffffffffffffffffffffffffffff168152602001908152602001600020819055506119c07f000000000000000000000000000000000000000000000000000000000000000085837f000000000000000000000000000000000000000000000000000000000000000073ffffffffffffffffffffffffffffffffffffffff166132e8909392919063ffffffff16565b8373ffffffffffffffffffffffffffffffffffffffff163373ffffffffffffffffffffffffffffffffffffffff167f9310ccfcb8de723f578a9e4282ea9f521f05ae40dc08f3068dfad528a65ee3c783604051611a1d91906151e6565b60405180910390a350505050565b6000611aee611a38612843565b84611ae9856040518060600160405280602581526020016155656025913960016000611a62612843565b73ffffffffffffffffffffffffffffffffffffffff1673ffffffffffffffffffffffffffffffffffffffff16815260200190815260200160002060008a73ffffffffffffffffffffffffffffffffffffffff1673ffffffffffffffffffffffffffffffffffffffff16815260200190815260200160002054612f5d9092919063ffffffff16565b61284b565b6001905092915050565b6000611b0c611b05612843565b8484612df4565b6001905092915050565b600080611b24878787611411565b90506000611b3488888888611178565b90506000611b4489898989612469565b90506000611b548a8a8a8a6123cc565b90506000611b6c6001846127bb90919063ffffffff16565b871115611bb257611bab611b9c6001611b8e868b612a4290919063ffffffff16565b612a4290919063ffffffff16565b8561301d90919063ffffffff16565b9050611bec565b611bea611bdb88611bcd6001876127bb90919063ffffffff16565b612a4290919063ffffffff16565b8561301d90919063ffffffff16565b505b6000611c026001856127bb90919063ffffffff16565b881115611c4b57611c44836002611c356001611c27898e612a4290919063ffffffff16565b612a4290919063ffffffff16565b0a6127bb90919063ffffffff16565b9050611c89565b611c86836002611c778b611c6960018a6127bb90919063ffffffff16565b612a4290919063ffffffff16565b0a6127bb90919063ffffffff16565b90505b611cae8a611ca083856130a390919063ffffffff16565b6127bb90919063ffffffff16565b965050505050505095945050505050565b601281565b6000811415611d08576040517f08c379a0000000000000000000000000000000000000000000000000000000008152600401611cff90615090565b60405180910390fd5b6000611d1383611228565b90506000603f60003373ffffffffffffffffffffffffffffffffffffffff1673ffffffffffffffffffffffffffffffffffffffff1681526020019081526020016000205414611d97576040517f08c379a0000000000000000000000000000000000000000000000000000000008152600401611d8e906150d0565b60405180910390fd5b611dad60016042546127bb90919063ffffffff16565b6042819055506000611dc38430846044546133a9565b905060008114611e9c577f2468f9268c60ad90e2d49edb0032c8a001e733ae888b3ab8e982edf535be1a768482604051611dfe929190614ff4565b60405180910390a1611e5881603d60008773ffffffffffffffffffffffffffffffffffffffff1673ffffffffffffffffffffffffffffffffffffffff168152602001908152602001600020546127bb90919063ffffffff16565b603d60008673ffffffffffffffffffffffffffffffffffffffff1673ffffffffffffffffffffffffffffffffffffffff168152602001908152602001600020819055505b611ea96000848685612534565b603e60008673ffffffffffffffffffffffffffffffffffffffff1673ffffffffffffffffffffffffffffffffffffffff16815260200190815260200160002081905550611ef68484613605565b611f433330857f000000000000000000000000000000000000000000000000000000000000000073ffffffffffffffffffffffffffffffffffffffff166132e8909392919063ffffffff16565b6000611f787f0000000000000000000000000000000000000000000000000000000000000000426127bb90919063ffffffff16565b905080603f60003373ffffffffffffffffffffffffffffffffffffffff1673ffffffffffffffffffffffffffffffffffffffff168152602001908152602001600020819055506043819080600181540180825580915050600190039060005260206000200160009091909190915055611ffc846044546127bb90919063ffffffff16565b6044819055506120288460416000848152602001908152602001600020546127bb90919063ffffffff16565b60416000838152602001908152602001600020819055508473ffffffffffffffffffffffffffffffffffffffff163373ffffffffffffffffffffffffffffffffffffffff167f5dac0c1b1112564a045ba943c9d50270893e8e826c49be8e7073adc713ab7bd78660405161209c91906151e6565b60405180910390a35050505050565b7f000000000000000000000000000000000000000000000000000000000000000073ffffffffffffffffffffffffffffffffffffffff163373ffffffffffffffffffffffffffffffffffffffff1614612139576040517f08c379a0000000000000000000000000000000000000000000000000000000008152600401612130906150f0565b60405180910390fd5b60005b828290508110156122f1576000603c600085858581811061215957fe5b905060600201604001602081019061217191906149fa565b73ffffffffffffffffffffffffffffffffffffffff1673ffffffffffffffffffffffffffffffffffffffff16815260200190815260200160002090506121f08484848181106121bc57fe5b90506060020160400160208101906121d491906149fa565b828686868181106121e157fe5b905060600201602001356137cc565b508383838181106121fd57fe5b90506060020160000160208101906122159190614bca565b8160000160006101000a8154816fffffffffffffffffffffffffffffffff02191690836fffffffffffffffffffffffffffffffff16021790555083838381811061225b57fe5b905060600201604001602081019061227391906149fa565b73ffffffffffffffffffffffffffffffffffffffff167f87fa03892a0556cb6b8f97e6d533a150d4d55fcbf275fff5fa003fa636bcc7fa8585858181106122b657fe5b90506060020160000160208101906122ce9190614bca565b6040516122db919061516b565b60405180910390a250808060010191505061213c565b505050565b600860009054906101000a900473ffffffffffffffffffffffffffffffffffffffff1681565b7f000000000000000000000000000000000000000000000000000000000000000081565b6000600160008473ffffffffffffffffffffffffffffffffffffffff1673ffffffffffffffffffffffffffffffffffffffff16815260200190815260200160002060008373ffffffffffffffffffffffffffffffffffffffff1673ffffffffffffffffffffffffffffffffffffffff16815260200190815260200160002054905092915050565b600181565b6000806123f9605a6123eb633b9aca008661301d90919063ffffffff16565b612a4290919063ffffffff16565b90506000612408878787611411565b90506000612423633b9aca00836127bb90919063ffffffff16565b905061245c61243b82856130a390919063ffffffff16565b61244e83866130a390919063ffffffff16565b61301d90919063ffffffff16565b9350505050949350505050565b600080612477868686611411565b90506124c7612493633b9aca00836127bb90919063ffffffff16565b6124b9836124ab600188612a4290919063ffffffff16565b61301d90919063ffffffff16565b6130a390919063ffffffff16565b915050949350505050565b603c6020528060005260406000206000915090508060000160009054906101000a90046fffffffffffffffffffffffffffffffff16908060000160109054906101000a90046fffffffffffffffffffffffffffffffff16908060010154905083565b600080603e60008573ffffffffffffffffffffffffffffffffffffffff1673ffffffffffffffffffffffffffffffffffffffff168152602001908152602001600020549050600081141561258c576000915050612691565b60006125f37f00000000000000000000000000000000000000000000000000000000000000006125e57f000000000000000000000000000000000000000000000000000000000000000042612a4290919063ffffffff16565b612a4290919063ffffffff16565b905081811115612606576000915061268b565b60008782116126155787612617565b425b90508281101561262c57829350505050612691565b61268761264286896127bb90919063ffffffff16565b612679612658868961301d90919063ffffffff16565b61266b858c61301d90919063ffffffff16565b6127bb90919063ffffffff16565b6130a390919063ffffffff16565b9250505b81925050505b949350505050565b60006126a3613a85565b905060095481116126ff576040517f08c379a000000000000000000000000000000000000000000000000000000000815260040180806020018281038252602e8152602001806154a3602e913960400191505060405180910390fd5b8060098190555061275386868080601f016020809104026020016040519081016040528093929190818152602001838380828437600081840152601f19601f82011690508083019250505050505050613a8e565b6127a084848080601f016020809104026020016040519081016040528093929190818152602001838380828437600081840152601f19601f82011690508083019250505050505050613aa8565b6127a982613ac2565b6127b287613ae0565b50505050505050565b600080828401905083811015612839576040517f08c379a000000000000000000000000000000000000000000000000000000000815260040180806020018281038252601b8152602001807f536166654d6174683a206164646974696f6e206f766572666c6f77000000000081525060200191505060405180910390fd5b8091505092915050565b600033905090565b600073ffffffffffffffffffffffffffffffffffffffff168373ffffffffffffffffffffffffffffffffffffffff1614156128d1576040517f08c379a00000000000000000000000000000000000000000000000000000000081526004018080602001828103825260248152602001806155176024913960400191505060405180910390fd5b600073ffffffffffffffffffffffffffffffffffffffff168273ffffffffffffffffffffffffffffffffffffffff161415612957576040517f08c379a00000000000000000000000000000000000000000000000000000000081526004018080602001828103825260228152602001806154126022913960400191505060405180910390fd5b80600160008573ffffffffffffffffffffffffffffffffffffffff1673ffffffffffffffffffffffffffffffffffffffff16815260200190815260200160002060008473ffffffffffffffffffffffffffffffffffffffff1673ffffffffffffffffffffffffffffffffffffffff168152602001908152602001600020819055508173ffffffffffffffffffffffffffffffffffffffff168373ffffffffffffffffffffffffffffffffffffffff167f8c5be1e5ebec7d5bd14f71427d1e84f3dd0314c0f7b2291e5b200ac8c7c3b925836040518082815260200191505060405180910390a3505050565b6000612a8483836040518060400160405280601e81526020017f536166654d6174683a207375627472616374696f6e206f766572666c6f770000815250612f5d565b905092915050565b600080612a9d8530866044546133a9565b90506000612af382603d60008973ffffffffffffffffffffffffffffffffffffffff1673ffffffffffffffffffffffffffffffffffffffff168152602001908152602001600020546127bb90919063ffffffff16565b905060008214612b82578315612b485780603d60008873ffffffffffffffffffffffffffffffffffffffff1673ffffffffffffffffffffffffffffffffffffffff168152602001908152602001600020819055505b7f2468f9268c60ad90e2d49edb0032c8a001e733ae888b3ab8e982edf535be1a768683604051612b79929190614ff4565b60405180910390a15b80925050509392505050565b600073ffffffffffffffffffffffffffffffffffffffff168273ffffffffffffffffffffffffffffffffffffffff161415612c14576040517f08c379a00000000000000000000000000000000000000000000000000000000081526004018080602001828103825260218152602001806154d16021913960400191505060405180910390fd5b612c2082600083613b24565b612c8b816040518060600160405280602281526020016153f0602291396000808673ffffffffffffffffffffffffffffffffffffffff1673ffffffffffffffffffffffffffffffffffffffff16815260200190815260200160002054612f5d9092919063ffffffff16565b6000808473ffffffffffffffffffffffffffffffffffffffff1673ffffffffffffffffffffffffffffffffffffffff16815260200190815260200160002081905550612ce281600254612a4290919063ffffffff16565b600281905550600073ffffffffffffffffffffffffffffffffffffffff168273ffffffffffffffffffffffffffffffffffffffff167fddf252ad1be2c89b69c2b068fc378daa952ba7f163c4a11628f55a4df523b3ef836040518082815260200191505060405180910390a35050565b612def8363a9059cbb60e01b8484604051602401808373ffffffffffffffffffffffffffffffffffffffff16815260200182815260200192505050604051602081830303815290604052907bffffffffffffffffffffffffffffffffffffffffffffffffffffffff19166020820180517bffffffffffffffffffffffffffffffffffffffffffffffffffffffff8381831617835250505050613d27565b505050565b6000612dff84611228565b9050612e0d84826001612a8c565b508273ffffffffffffffffffffffffffffffffffffffff168473ffffffffffffffffffffffffffffffffffffffff1614612f4c576000612e4c84611228565b9050612e5a84826001612a8c565b506000603e60008773ffffffffffffffffffffffffffffffffffffffff1673ffffffffffffffffffffffffffffffffffffffff168152602001908152602001600020549050612eab81858785612534565b603e60008773ffffffffffffffffffffffffffffffffffffffff1673ffffffffffffffffffffffffffffffffffffffff168152602001908152602001600020819055508383148015612efe575060008114155b15612f49576000603e60008873ffffffffffffffffffffffffffffffffffffffff1673ffffffffffffffffffffffffffffffffffffffff168152602001908152602001600020819055505b50505b612f57848484613f72565b50505050565b600083831115829061300a576040517f08c379a00000000000000000000000000000000000000000000000000000000081526004018080602001828103825283818151815260200191508051906020019080838360005b83811015612fcf578082015181840152602081019050612fb4565b50505050905090810190601f168015612ffc5780820380516001836020036101000a031916815260200191505b509250505060405180910390fd5b5060008385039050809150509392505050565b600080831415613030576000905061309d565b600082840290508284828161304157fe5b0414613098576040517f08c379a000000000000000000000000000000000000000000000000000000000815260040180806020018281038252602181526020018061545a6021913960400191505060405180910390fd5b809150505b92915050565b60006130e583836040518060400160405280601a81526020017f536166654d6174683a206469766973696f6e206279207a65726f000000000000815250614233565b905092915050565b6000600382111561313c57819050600060016002848161310957fe5b040190505b818110156131365780915060028182858161312557fe5b04018161312e57fe5b04905061310e565b5061314a565b6000821461314957600190505b5b919050565b60008085148061315f5750600083145b8061317b575081846fffffffffffffffffffffffffffffffff16145b806131b857507f0000000000000000000000000000000000000000000000000000000000000000846fffffffffffffffffffffffffffffffff1610155b156131c557859050613296565b60007f000000000000000000000000000000000000000000000000000000000000000083116131f45782613216565b7f00000000000000000000000000000000000000000000000000000000000000005b9050600061323f866fffffffffffffffffffffffffffffffff1683612a4290919063ffffffff16565b90506132918861328387613275601260ff16600a0a613267878e61301d90919063ffffffff16565b61301d90919063ffffffff16565b6130a390919063ffffffff16565b6127bb90919063ffffffff16565b925050505b95945050505050565b60006132df601260ff16600a0a6132d16132c28587612a4290919063ffffffff16565b8761301d90919063ffffffff16565b6130a390919063ffffffff16565b90509392505050565b6133a3846323b872dd60e01b858585604051602401808473ffffffffffffffffffffffffffffffffffffffff1681526020018373ffffffffffffffffffffffffffffffffffffffff1681526020018281526020019350505050604051602081830303815290604052907bffffffffffffffffffffffffffffffffffffffffffffffffffffffff19166020820180517bffffffffffffffffffffffffffffffffffffffffffffffffffffffff8381831617835250505050613d27565b50505050565b600080603c60008673ffffffffffffffffffffffffffffffffffffffff1673ffffffffffffffffffffffffffffffffffffffff168152602001908152602001600020905060008160020160008873ffffffffffffffffffffffffffffffffffffffff1673ffffffffffffffffffffffffffffffffffffffff1681526020019081526020016000205490506000806134418885886137cc565b90506000603f60008b73ffffffffffffffffffffffffffffffffffffffff1673ffffffffffffffffffffffffffffffffffffffff16815260200190815260200160002054141580156134d2575042603f60008b73ffffffffffffffffffffffffffffffffffffffff1673ffffffffffffffffffffffffffffffffffffffff1681526020019081526020016000205411155b1561352d5760406000603f60008c73ffffffffffffffffffffffffffffffffffffffff1673ffffffffffffffffffffffffffffffffffffffff1681526020019081526020016000205481526020019081526020016000205490505b8083146135f6576000871461354a5761354787828561329f565b91505b808460020160008b73ffffffffffffffffffffffffffffffffffffffff1673ffffffffffffffffffffffffffffffffffffffff168152602001908152602001600020819055508773ffffffffffffffffffffffffffffffffffffffff168973ffffffffffffffffffffffffffffffffffffffff167fbb123b5c06d5408bbea3c4fef481578175cfb432e3b482c6186f02ed9086585b836040516135ed91906151e6565b60405180910390a35b81945050505050949350505050565b600073ffffffffffffffffffffffffffffffffffffffff168273ffffffffffffffffffffffffffffffffffffffff1614156136a8576040517f08c379a000000000000000000000000000000000000000000000000000000000815260040180806020018281038252601f8152602001807f45524332303a206d696e7420746f20746865207a65726f20616464726573730081525060200191505060405180910390fd5b6136b460008383613b24565b6136c9816002546127bb90919063ffffffff16565b600281905550613720816000808573ffffffffffffffffffffffffffffffffffffffff1673ffffffffffffffffffffffffffffffffffffffff168152602001908152602001600020546127bb90919063ffffffff16565b6000808473ffffffffffffffffffffffffffffffffffffffff1673ffffffffffffffffffffffffffffffffffffffff168152602001908152602001600020819055508173ffffffffffffffffffffffffffffffffffffffff16600073ffffffffffffffffffffffffffffffffffffffff167fddf252ad1be2c89b69c2b068fc378daa952ba7f163c4a11628f55a4df523b3ef836040518082815260200191505060405180910390a35050565b6000808360010154905060008460000160109054906101000a90046fffffffffffffffffffffffffffffffff169050806fffffffffffffffffffffffffffffffff1642141561381f578192505050613a7e565b61382a6042546142f9565b8560000160006101000a8154816fffffffffffffffffffffffffffffffff02191690836fffffffffffffffffffffffffffffffff160217905550600060455490505b60438054905081101561399357426043828154811061388757fe5b906000526020600020015411613981576138ed838760000160009054906101000a90046fffffffffffffffffffffffffffffffff166fffffffffffffffffffffffffffffffff168488604386815481106138dd57fe5b906000526020600020015461314f565b60406000604384815481106138fe57fe5b90600052602060002001548152602001908152602001600020819055506139316001604254612a4290919063ffffffff16565b604281905550613976604160006043848154811061394b57fe5b9060005260206000200154815260200190815260200160002054604454612a4290919063ffffffff16565b604481905550613986565b613993565b808060010191505061386c565b8060458190555060006139da848860000160009054906101000a90046fffffffffffffffffffffffffffffffff166fffffffffffffffffffffffffffffffff16858961439e565b9050838114613a3b578087600101819055508773ffffffffffffffffffffffffffffffffffffffff167f5777ca300dfe5bead41006fbce4389794dbc0ed8d6cccebfaf94630aa04184bc82604051613a3291906151e6565b60405180910390a25b428760000160106101000a8154816fffffffffffffffffffffffffffffffff02191690836fffffffffffffffffffffffffffffffff160217905550809450505050505b9392505050565b60006001905090565b8060039080519060200190613aa4929190614852565b5050565b8060049080519060200190613abe929190614852565b5050565b80600560006101000a81548160ff021916908360ff16021790555050565b80600860006101000a81548173ffffffffffffffffffffffffffffffffffffffff021916908373ffffffffffffffffffffffffffffffffffffffff16021790555050565b8173ffffffffffffffffffffffffffffffffffffffff168373ffffffffffffffffffffffffffffffffffffffff161415613b5d57613d22565b600073ffffffffffffffffffffffffffffffffffffffff168373ffffffffffffffffffffffffffffffffffffffff1614613bbd576000613b9c84611228565b9050613bbb8482613bb68585612a4290919063ffffffff16565b6144ed565b505b600073ffffffffffffffffffffffffffffffffffffffff168273ffffffffffffffffffffffffffffffffffffffff1614613c1d576000613bfc83611228565b9050613c1b8382613c1685856127bb90919063ffffffff16565b6144ed565b505b6000600860009054906101000a900473ffffffffffffffffffffffffffffffffffffffff169050600073ffffffffffffffffffffffffffffffffffffffff168173ffffffffffffffffffffffffffffffffffffffff1614613d20578073ffffffffffffffffffffffffffffffffffffffff16634a3931498585856040518463ffffffff1660e01b8152600401808473ffffffffffffffffffffffffffffffffffffffff1681526020018373ffffffffffffffffffffffffffffffffffffffff1681526020018281526020019350505050600060405180830381600087803b158015613d0757600080fd5b505af1158015613d1b573d6000803e3d6000fd5b505050505b505b505050565b613d468273ffffffffffffffffffffffffffffffffffffffff16614807565b613db8576040517f08c379a000000000000000000000000000000000000000000000000000000000815260040180806020018281038252601f8152602001807f5361666545524332303a2063616c6c20746f206e6f6e2d636f6e74726163740081525060200191505060405180910390fd5b600060608373ffffffffffffffffffffffffffffffffffffffff16836040518082805190602001908083835b60208310613e075780518252602082019150602081019050602083039250613de4565b6001836020036101000a0380198251168184511680821785525050505050509050019150506000604051808303816000865af19150503d8060008114613e69576040519150601f19603f3d011682016040523d82523d6000602084013e613e6e565b606091505b509150915081613ee6576040517f08c379a00000000000000000000000000000000000000000000000000000000081526004018080602001828103825260208152602001807f5361666545524332303a206c6f772d6c6576656c2063616c6c206661696c656481525060200191505060405180910390fd5b600081511115613f6c57808060200190516020811015613f0557600080fd5b8101908080519060200190929190505050613f6b576040517f08c379a000000000000000000000000000000000000000000000000000000000815260040180806020018281038252602a81526020018061553b602a913960400191505060405180910390fd5b5b50505050565b600073ffffffffffffffffffffffffffffffffffffffff168373ffffffffffffffffffffffffffffffffffffffff161415613ff8576040517f08c379a00000000000000000000000000000000000000000000000000000000081526004018080602001828103825260258152602001806154f26025913960400191505060405180910390fd5b600073ffffffffffffffffffffffffffffffffffffffff168273ffffffffffffffffffffffffffffffffffffffff16141561407e576040517f08c379a00000000000000000000000000000000000000000000000000000000081526004018080602001828103825260238152602001806153cd6023913960400191505060405180910390fd5b614089838383613b24565b6140f481604051806060016040528060268152602001615434602691396000808773ffffffffffffffffffffffffffffffffffffffff1673ffffffffffffffffffffffffffffffffffffffff16815260200190815260200160002054612f5d9092919063ffffffff16565b6000808573ffffffffffffffffffffffffffffffffffffffff1673ffffffffffffffffffffffffffffffffffffffff16815260200190815260200160002081905550614187816000808573ffffffffffffffffffffffffffffffffffffffff1673ffffffffffffffffffffffffffffffffffffffff168152602001908152602001600020546127bb90919063ffffffff16565b6000808473ffffffffffffffffffffffffffffffffffffffff1673ffffffffffffffffffffffffffffffffffffffff168152602001908152602001600020819055508173ffffffffffffffffffffffffffffffffffffffff168373ffffffffffffffffffffffffffffffffffffffff167fddf252ad1be2c89b69c2b068fc378daa952ba7f163c4a11628f55a4df523b3ef836040518082815260200191505060405180910390a3505050565b600080831182906142df576040517f08c379a00000000000000000000000000000000000000000000000000000000081526004018080602001828103825283818151815260200191508051906020019080838360005b838110156142a4578082015181840152602081019050614289565b50505050905090810190601f1680156142d15780820380516001836020036101000a031916815260200191505b509250505060405180910390fd5b5060008385816142eb57fe5b049050809150509392505050565b600080612710905060006001905060006113b190506000600590506000614329858861301d90919063ffffffff16565b90506000614364846143568a6143488c8a61301d90919063ffffffff16565b61301d90919063ffffffff16565b6127bb90919063ffffffff16565b9050600061438d8461437f84866130a390919063ffffffff16565b6127bb90919063ffffffff16565b905080975050505050505050919050565b6000808414806143ae5750600082145b806143ca575042836fffffffffffffffffffffffffffffffff16145b8061440757507f0000000000000000000000000000000000000000000000000000000000000000836fffffffffffffffffffffffffffffffff1610155b15614414578490506144e5565b60007f000000000000000000000000000000000000000000000000000000000000000042116144435742614465565b7f00000000000000000000000000000000000000000000000000000000000000005b9050600061448e856fffffffffffffffffffffffffffffffff1683612a4290919063ffffffff16565b90506144e0876144d2866144c4601260ff16600a0a6144b6878d61301d90919063ffffffff16565b61301d90919063ffffffff16565b6130a390919063ffffffff16565b6127bb90919063ffffffff16565b925050505b949350505050565b60004390506000600760008673ffffffffffffffffffffffffffffffffffffffff1673ffffffffffffffffffffffffffffffffffffffff1681526020019081526020016000205490506000600660008773ffffffffffffffffffffffffffffffffffffffff1673ffffffffffffffffffffffffffffffffffffffff1681526020019081526020016000209050600082141580156145f15750826fffffffffffffffffffffffffffffffff168160006145af600186612a4290919063ffffffff16565b815260200190815260200160002060000160009054906101000a90046fffffffffffffffffffffffffffffffff166fffffffffffffffffffffffffffffffff16145b1561465a578381600061460e600186612a4290919063ffffffff16565b815260200190815260200160002060000160106101000a8154816fffffffffffffffffffffffffffffffff02191690836fffffffffffffffffffffffffffffffff16021790555061477e565b6040518060400160405280846fffffffffffffffffffffffffffffffff168152602001856fffffffffffffffffffffffffffffffff1681525081600084815260200190815260200160002060008201518160000160006101000a8154816fffffffffffffffffffffffffffffffff02191690836fffffffffffffffffffffffffffffffff16021790555060208201518160000160106101000a8154816fffffffffffffffffffffffffffffffff02191690836fffffffffffffffffffffffffffffffff16021790555090505061473a6001836127bb90919063ffffffff16565b600760008873ffffffffffffffffffffffffffffffffffffffff1673ffffffffffffffffffffffffffffffffffffffff168152602001908152602001600020819055505b7f2cd3c83ddac2953ee75f53265d9ea4463eaf05030e5459a1b7e63819b7ce88f7868686604051808473ffffffffffffffffffffffffffffffffffffffff168152602001836fffffffffffffffffffffffffffffffff168152602001826fffffffffffffffffffffffffffffffff168152602001935050505060405180910390a1505050505050565b60008060007fc5d2460186f7233c927e7db2dcc703c0e500b653ca82273b7bfad8045d85a47060001b9050833f915080821415801561484957506000801b8214155b92505050919050565b828054600181600116156101000203166002900490600052602060002090601f01602090048101928261488857600085556148cf565b82601f106148a157805160ff19168380011785556148cf565b828001600101855582156148cf579182015b828111156148ce5782518255916020019190600101906148b3565b5b5090506148dc91906148e0565b5090565b5b808211156148f95760008160009055506001016148e1565b5090565b60008135905061490c81615359565b92915050565b60008083601f84011261492457600080fd5b8235905067ffffffffffffffff81111561493d57600080fd5b60208301915083606082028301111561495557600080fd5b9250929050565b60008135905061496b81615370565b92915050565b60008083601f84011261498357600080fd5b8235905067ffffffffffffffff81111561499c57600080fd5b6020830191508360018202830111156149b457600080fd5b9250929050565b6000813590506149ca81615387565b92915050565b6000813590506149df8161539e565b92915050565b6000813590506149f4816153b5565b92915050565b600060208284031215614a0c57600080fd5b6000614a1a848285016148fd565b91505092915050565b60008060408385031215614a3657600080fd5b6000614a44858286016148fd565b9250506020614a55858286016148fd565b9150509250929050565b600080600060608486031215614a7457600080fd5b6000614a82868287016148fd565b9350506020614a93868287016148fd565b9250506040614aa4868287016149d0565b9150509250925092565b60008060408385031215614ac157600080fd5b6000614acf858286016148fd565b9250506020614ae0858286016149d0565b9150509250929050565b60008060208385031215614afd57600080fd5b600083013567ffffffffffffffff811115614b1757600080fd5b614b2385828601614912565b92509250509250929050565b60008060008060008060808789031215614b4857600080fd5b6000614b5689828a0161495c565b965050602087013567ffffffffffffffff811115614b7357600080fd5b614b7f89828a01614971565b9550955050604087013567ffffffffffffffff811115614b9e57600080fd5b614baa89828a01614971565b93509350506060614bbd89828a016149e5565b9150509295509295509295565b600060208284031215614bdc57600080fd5b6000614bea848285016149bb565b91505092915050565b600060208284031215614c0557600080fd5b6000614c13848285016149d0565b91505092915050565b60008060008060808587031215614c3257600080fd5b6000614c40878288016149d0565b9450506020614c51878288016149d0565b9350506040614c62878288016148fd565b9250506060614c73878288016149d0565b91505092959194509250565b600080600060608486031215614c9457600080fd5b6000614ca2868287016149d0565b9350506020614cb3868287016149d0565b9250506040614cc4868287016149d0565b9150509250925092565b60008060008060808587031215614ce457600080fd5b6000614cf2878288016149d0565b9450506020614d03878288016149d0565b9350506040614d14878288016149d0565b9250506060614d25878288016149d0565b91505092959194509250565b600080600080600060a08688031215614d4957600080fd5b6000614d57888289016149d0565b9550506020614d68888289016149d0565b9450506040614d79888289016149d0565b9350506060614d8a888289016149d0565b9250506080614d9b888289016149d0565b9150509295509295909350565b614db181615238565b82525050565b614dc08161524a565b82525050565b614dcf816152bb565b82525050565b614dde816152df565b82525050565b6000614def8261521c565b614df98185615227565b9350614e09818560208601615315565b614e1281615348565b840191505092915050565b6000614e2a601383615227565b91507f494e56414c49445f5a45524f5f414d4f554e54000000000000000000000000006000830152602082019050919050565b6000614e6a601583615227565b91507f494e53554646494349454e545f434f4f4c444f574e00000000000000000000006000830152602082019050919050565b6000614eaa600b83615227565b91507f555345525f5354414b45440000000000000000000000000000000000000000006000830152602082019050919050565b6000614eea601583615227565b91507f4f4e4c595f454d495353494f4e5f4d414e4147455200000000000000000000006000830152602082019050919050565b6000614f2a601783615227565b91507f554e5354414b455f57494e444f575f46494e49534845440000000000000000006000830152602082019050919050565b6000614f6a601b83615227565b91507f494e56414c49445f42414c414e43455f4f4e5f434f4f4c444f574e00000000006000830152602082019050919050565b614fa681615268565b82525050565b614fb581615303565b82525050565b614fc4816152a4565b82525050565b614fd3816152ae565b82525050565b6000602082019050614fee6000830184614da8565b92915050565b60006040820190506150096000830185614da8565b6150166020830184614fbb565b9392505050565b60006020820190506150326000830184614db7565b92915050565b600060208201905061504d6000830184614dc6565b92915050565b60006020820190506150686000830184614dd5565b92915050565b600060208201905081810360008301526150888184614de4565b905092915050565b600060208201905081810360008301526150a981614e1d565b9050919050565b600060208201905081810360008301526150c981614e5d565b9050919050565b600060208201905081810360008301526150e981614e9d565b9050919050565b6000602082019050818103600083015261510981614edd565b9050919050565b6000602082019050818103600083015261512981614f1d565b9050919050565b6000602082019050818103600083015261514981614f5d565b9050919050565b60006020820190506151656000830184614f9d565b92915050565b60006020820190506151806000830184614fac565b92915050565b600060408201905061519b6000830185614f9d565b6151a86020830184614f9d565b9392505050565b60006060820190506151c46000830186614f9d565b6151d16020830185614f9d565b6151de6040830184614fbb565b949350505050565b60006020820190506151fb6000830184614fbb565b92915050565b60006020820190506152166000830184614fca565b92915050565b600081519050919050565b600082825260208201905092915050565b600061524382615284565b9050919050565b60008115159050919050565b600061526182615238565b9050919050565b60006fffffffffffffffffffffffffffffffff82169050919050565b600073ffffffffffffffffffffffffffffffffffffffff82169050919050565b6000819050919050565b600060ff82169050919050565b60006152c6826152cd565b9050919050565b60006152d882615284565b9050919050565b60006152ea826152f1565b9050919050565b60006152fc82615284565b9050919050565b600061530e82615268565b9050919050565b60005b83811015615333578082015181840152602081019050615318565b83811115615342576000848401525b50505050565b6000601f19601f8301169050919050565b61536281615238565b811461536d57600080fd5b50565b61537981615256565b811461538457600080fd5b50565b61539081615268565b811461539b57600080fd5b50565b6153a7816152a4565b81146153b257600080fd5b50565b6153be816152ae565b81146153c957600080fd5b5056fe45524332303a207472616e7366657220746f20746865207a65726f206164647265737345524332303a206275726e20616d6f756e7420657863656564732062616c616e636545524332303a20617070726f766520746f20746865207a65726f206164647265737345524332303a207472616e7366657220616d6f756e7420657863656564732062616c616e6365536166654d6174683a206d756c7469706c69636174696f6e206f766572666c6f7745524332303a207472616e7366657220616d6f756e74206578636565647320616c6c6f77616e6365436f6e747261637420696e7374616e63652068617320616c7265616479206265656e20696e697469616c697a656445524332303a206275726e2066726f6d20746865207a65726f206164647265737345524332303a207472616e736665722066726f6d20746865207a65726f206164647265737345524332303a20617070726f76652066726f6d20746865207a65726f20616464726573735361666545524332303a204552433230206f7065726174696f6e20646964206e6f74207375636365656445524332303a2064656372656173656420616c6c6f77616e63652062656c6f77207a65726fa26469706673582212201d48ea74b2252733585fa969ba707e8f5fa081bdad1bb800688df69cac5e7eab64736f6c63430007050033",
  "linkReferences": {},
  "deployedLinkReferences": {}
}