{
  "_format": "hh-sol-artifact-1",
  "contractName": "StakedAave",
  "sourceName": "contracts/stake/StakedAave.sol",
  "abi": [
    {
      "inputs": [
        {
          "internalType": "contract IERC20",
          "name": "stakedToken",
          "type": "address"
        },
        {
          "internalType": "contract IERC20",
          "name": "rewardToken",
          "type": "address"
        },
        {
          "internalType": "uint256",
          "name": "cooldownSeconds",
          "type": "uint256"
        },
        {
          "internalType": "uint256",
          "name": "unstakeWindow",
          "type": "uint256"
        },
        {
          "internalType": "address",
          "name": "rewardsVault",
          "type": "address"
        },
        {
          "internalType": "address",
          "name": "emissionManager",
          "type": "address"
        },
        {
          "internalType": "uint128",
          "name": "distributionDuration",
          "type": "uint128"
        }
      ],
      "stateMutability": "nonpayable",
      "type": "constructor"
    },
    {
      "anonymous": false,
      "inputs": [
        {
          "indexed": true,
          "internalType": "address",
          "name": "owner",
          "type": "address"
        },
        {
          "indexed": true,
          "internalType": "address",
          "name": "spender",
          "type": "address"
        },
        {
          "indexed": false,
          "internalType": "uint256",
          "name": "value",
          "type": "uint256"
        }
      ],
      "name": "Approval",
      "type": "event"
    },
    {
      "anonymous": false,
      "inputs": [
        {
          "indexed": true,
          "internalType": "address",
          "name": "asset",
          "type": "address"
        },
        {
          "indexed": false,
          "internalType": "uint256",
          "name": "emission",
          "type": "uint256"
        }
      ],
      "name": "AssetConfigUpdated",
      "type": "event"
    },
    {
      "anonymous": false,
      "inputs": [
        {
          "indexed": true,
          "internalType": "address",
          "name": "asset",
          "type": "address"
        },
        {
          "indexed": false,
          "internalType": "uint256",
          "name": "index",
          "type": "uint256"
        }
      ],
      "name": "AssetIndexUpdated",
      "type": "event"
    },
    {
      "anonymous": false,
      "inputs": [
        {
          "indexed": true,
          "internalType": "address",
          "name": "user",
          "type": "address"
        }
      ],
      "name": "Cooldown",
      "type": "event"
    },
    {
      "anonymous": false,
      "inputs": [
        {
          "indexed": true,
          "internalType": "address",
          "name": "from",
          "type": "address"
        },
        {
          "indexed": true,
          "internalType": "address",
          "name": "to",
          "type": "address"
        },
        {
          "indexed": false,
          "internalType": "uint256",
          "name": "amount",
          "type": "uint256"
        }
      ],
      "name": "Redeem",
      "type": "event"
    },
    {
      "anonymous": false,
      "inputs": [
        {
          "indexed": false,
          "internalType": "address",
          "name": "user",
          "type": "address"
        },
        {
          "indexed": false,
          "internalType": "uint256",
          "name": "amount",
          "type": "uint256"
        }
      ],
      "name": "RewardsAccrued",
      "type": "event"
    },
    {
      "anonymous": false,
      "inputs": [
        {
          "indexed": true,
          "internalType": "address",
          "name": "from",
          "type": "address"
        },
        {
          "indexed": true,
          "internalType": "address",
          "name": "to",
          "type": "address"
        },
        {
          "indexed": false,
          "internalType": "uint256",
          "name": "amount",
          "type": "uint256"
        }
      ],
      "name": "RewardsClaimed",
      "type": "event"
    },
    {
      "anonymous": false,
      "inputs": [
        {
          "indexed": false,
          "internalType": "address",
          "name": "owner",
          "type": "address"
        },
        {
          "indexed": false,
          "internalType": "uint128",
          "name": "oldValue",
          "type": "uint128"
        },
        {
          "indexed": false,
          "internalType": "uint128",
          "name": "newValue",
          "type": "uint128"
        }
      ],
      "name": "SnapshotDone",
      "type": "event"
    },
    {
      "anonymous": false,
      "inputs": [
        {
          "indexed": true,
          "internalType": "address",
          "name": "from",
          "type": "address"
        },
        {
          "indexed": true,
          "internalType": "address",
          "name": "onBehalfOf",
          "type": "address"
        },
        {
          "indexed": false,
          "internalType": "uint256",
          "name": "amount",
          "type": "uint256"
        }
      ],
      "name": "Staked",
      "type": "event"
    },
    {
      "anonymous": false,
      "inputs": [
        {
          "indexed": true,
          "internalType": "address",
          "name": "from",
          "type": "address"
        },
        {
          "indexed": true,
          "internalType": "address",
          "name": "to",
          "type": "address"
        },
        {
          "indexed": false,
          "internalType": "uint256",
          "name": "value",
          "type": "uint256"
        }
      ],
      "name": "Transfer",
      "type": "event"
    },
    {
      "anonymous": false,
      "inputs": [
        {
          "indexed": true,
          "internalType": "address",
          "name": "user",
          "type": "address"
        },
        {
          "indexed": true,
          "internalType": "address",
          "name": "asset",
          "type": "address"
        },
        {
          "indexed": false,
          "internalType": "uint256",
          "name": "index",
          "type": "uint256"
        }
      ],
      "name": "UserIndexUpdated",
      "type": "event"
    },
    {
      "inputs": [],
      "name": "COOLDOWN_SECONDS",
      "outputs": [
        {
          "internalType": "uint256",
          "name": "",
          "type": "uint256"
        }
      ],
      "stateMutability": "view",
      "type": "function"
    },
    {
      "inputs": [],
      "name": "DISTRIBUTION_END",
      "outputs": [
        {
          "internalType": "uint256",
          "name": "",
          "type": "uint256"
        }
      ],
      "stateMutability": "view",
      "type": "function"
    },
    {
      "inputs": [],
      "name": "EMISSION_MANAGER",
      "outputs": [
        {
          "internalType": "address",
          "name": "",
          "type": "address"
        }
      ],
      "stateMutability": "view",
      "type": "function"
    },
    {
      "inputs": [],
      "name": "LOCK_TIME",
      "outputs": [
        {
          "internalType": "uint256",
          "name": "",
          "type": "uint256"
        }
      ],
      "stateMutability": "view",
      "type": "function"
    },
    {
      "inputs": [],
      "name": "PRECISION",
      "outputs": [
        {
          "internalType": "uint8",
          "name": "",
          "type": "uint8"
        }
      ],
      "stateMutability": "view",
      "type": "function"
    },
    {
      "inputs": [],
      "name": "REVISION",
      "outputs": [
        {
          "internalType": "uint256",
          "name": "",
          "type": "uint256"
        }
      ],
      "stateMutability": "view",
      "type": "function"
    },
    {
      "inputs": [],
      "name": "REWARDS_VAULT",
      "outputs": [
        {
          "internalType": "address",
          "name": "",
          "type": "address"
        }
      ],
      "stateMutability": "view",
      "type": "function"
    },
    {
      "inputs": [],
      "name": "REWARD_TOKEN",
      "outputs": [
        {
          "internalType": "contract IERC20",
          "name": "",
          "type": "address"
        }
      ],
      "stateMutability": "view",
      "type": "function"
    },
    {
      "inputs": [],
      "name": "STAKED_TOKEN",
      "outputs": [
        {
          "internalType": "contract IERC20",
          "name": "",
          "type": "address"
        }
      ],
      "stateMutability": "view",
      "type": "function"
    },
    {
      "inputs": [],
      "name": "TOTAL_STAKED",
      "outputs": [
        {
          "internalType": "uint256",
          "name": "",
          "type": "uint256"
        }
      ],
      "stateMutability": "view",
      "type": "function"
    },
    {
      "inputs": [],
      "name": "TOTAL_USERS",
      "outputs": [
        {
          "internalType": "uint256",
          "name": "",
          "type": "uint256"
        }
      ],
      "stateMutability": "view",
      "type": "function"
    },
    {
      "inputs": [],
      "name": "UNSTAKE_WINDOW",
      "outputs": [
        {
          "internalType": "uint256",
          "name": "",
          "type": "uint256"
        }
      ],
      "stateMutability": "view",
      "type": "function"
    },
    {
      "inputs": [],
      "name": "_aaveGovernance",
      "outputs": [
        {
          "internalType": "contract ITransferHook",
          "name": "",
          "type": "address"
        }
      ],
      "stateMutability": "view",
      "type": "function"
    },
    {
      "inputs": [
        {
          "internalType": "address",
          "name": "",
          "type": "address"
        }
      ],
      "name": "_countsSnapshots",
      "outputs": [
        {
          "internalType": "uint256",
          "name": "",
          "type": "uint256"
        }
      ],
      "stateMutability": "view",
      "type": "function"
    },
    {
      "inputs": [
        {
          "internalType": "uint256",
          "name": "totalUsers",
          "type": "uint256"
        }
      ],
      "name": "_getEmissionPerSecondByTotalUsers",
      "outputs": [
        {
          "internalType": "uint128",
          "name": "",
          "type": "uint128"
        }
      ],
      "stateMutability": "pure",
      "type": "function"
    },
    {
      "inputs": [
        {
          "internalType": "address",
          "name": "",
          "type": "address"
        },
        {
          "internalType": "uint256",
          "name": "",
          "type": "uint256"
        }
      ],
      "name": "_snapshots",
      "outputs": [
        {
          "internalType": "uint128",
          "name": "blockNumber",
          "type": "uint128"
        },
        {
          "internalType": "uint128",
          "name": "value",
          "type": "uint128"
        }
      ],
      "stateMutability": "view",
      "type": "function"
    },
    {
      "inputs": [
        {
          "internalType": "address",
          "name": "owner",
          "type": "address"
        },
        {
          "internalType": "address",
          "name": "spender",
          "type": "address"
        }
      ],
      "name": "allowance",
      "outputs": [
        {
          "internalType": "uint256",
          "name": "",
          "type": "uint256"
        }
      ],
      "stateMutability": "view",
      "type": "function"
    },
    {
      "inputs": [
        {
          "internalType": "uint256",
          "name": "",
          "type": "uint256"
        }
      ],
      "name": "amountOfLockedRewards",
      "outputs": [
        {
          "internalType": "uint256",
          "name": "",
          "type": "uint256"
        }
      ],
      "stateMutability": "view",
      "type": "function"
    },
    {
      "inputs": [
        {
          "internalType": "address",
          "name": "spender",
          "type": "address"
        },
        {
          "internalType": "uint256",
          "name": "amount",
          "type": "uint256"
        }
      ],
      "name": "approve",
      "outputs": [
        {
          "internalType": "bool",
          "name": "",
          "type": "bool"
        }
      ],
      "stateMutability": "nonpayable",
      "type": "function"
    },
    {
      "inputs": [
        {
          "internalType": "address",
          "name": "",
          "type": "address"
        }
      ],
      "name": "assets",
      "outputs": [
        {
          "internalType": "uint128",
          "name": "emissionPerSecond",
          "type": "uint128"
        },
        {
          "internalType": "uint128",
          "name": "lastUpdateTimestamp",
          "type": "uint128"
        },
        {
          "internalType": "uint256",
          "name": "index",
          "type": "uint256"
        }
      ],
      "stateMutability": "view",
      "type": "function"
    },
    {
      "inputs": [
        {
          "internalType": "address",
          "name": "account",
          "type": "address"
        }
      ],
      "name": "balanceOf",
      "outputs": [
        {
          "internalType": "uint256",
          "name": "",
          "type": "uint256"
        }
      ],
      "stateMutability": "view",
      "type": "function"
    },
    {
      "inputs": [
        {
          "internalType": "address",
          "name": "to",
          "type": "address"
        },
        {
          "internalType": "uint256",
          "name": "amount",
          "type": "uint256"
        }
      ],
      "name": "claimRewards",
      "outputs": [],
      "stateMutability": "nonpayable",
      "type": "function"
    },
    {
      "inputs": [
        {
          "components": [
            {
              "internalType": "uint128",
              "name": "emissionPerSecond",
              "type": "uint128"
            },
            {
              "internalType": "uint256",
              "name": "totalStaked",
              "type": "uint256"
            },
            {
              "internalType": "address",
              "name": "underlyingAsset",
              "type": "address"
            }
          ],
          "internalType": "struct DistributionTypes.AssetConfigInput[]",
          "name": "assetsConfigInput",
          "type": "tuple[]"
        }
      ],
      "name": "configureAssets",
      "outputs": [],
      "stateMutability": "nonpayable",
      "type": "function"
    },
    {
      "inputs": [],
      "name": "cooldown",
      "outputs": [],
      "stateMutability": "nonpayable",
      "type": "function"
    },
    {
      "inputs": [],
      "name": "decimals",
      "outputs": [
        {
          "internalType": "uint8",
          "name": "",
          "type": "uint8"
        }
      ],
      "stateMutability": "view",
      "type": "function"
    },
    {
      "inputs": [
        {
          "internalType": "address",
          "name": "spender",
          "type": "address"
        },
        {
          "internalType": "uint256",
          "name": "subtractedValue",
          "type": "uint256"
        }
      ],
      "name": "decreaseAllowance",
      "outputs": [
        {
          "internalType": "bool",
          "name": "",
          "type": "bool"
        }
      ],
      "stateMutability": "nonpayable",
      "type": "function"
    },
    {
      "inputs": [
        {
          "internalType": "uint256",
          "name": "fromCooldownTimestamp",
          "type": "uint256"
        },
        {
          "internalType": "uint256",
          "name": "amountToReceive",
          "type": "uint256"
        },
        {
          "internalType": "address",
          "name": "toAddress",
          "type": "address"
        },
        {
          "internalType": "uint256",
          "name": "toBalance",
          "type": "uint256"
        }
      ],
      "name": "getNextCooldownTimestamp",
      "outputs": [
        {
          "internalType": "uint256",
          "name": "",
          "type": "uint256"
        }
      ],
      "stateMutability": "view",
      "type": "function"
    },
    {
      "inputs": [
        {
          "internalType": "address",
          "name": "staker",
          "type": "address"
        }
      ],
      "name": "getTotalRewardsBalance",
      "outputs": [
        {
          "internalType": "uint256",
          "name": "",
          "type": "uint256"
        }
      ],
      "stateMutability": "view",
      "type": "function"
    },
    {
      "inputs": [
        {
          "internalType": "address",
          "name": "user",
          "type": "address"
        },
        {
          "internalType": "address",
          "name": "asset",
          "type": "address"
        }
      ],
      "name": "getUserAssetData",
      "outputs": [
        {
          "internalType": "uint256",
          "name": "",
          "type": "uint256"
        }
      ],
      "stateMutability": "view",
      "type": "function"
    },
    {
      "inputs": [
        {
          "internalType": "address",
          "name": "spender",
          "type": "address"
        },
        {
          "internalType": "uint256",
          "name": "addedValue",
          "type": "uint256"
        }
      ],
      "name": "increaseAllowance",
      "outputs": [
        {
          "internalType": "bool",
          "name": "",
          "type": "bool"
        }
      ],
      "stateMutability": "nonpayable",
      "type": "function"
    },
    {
      "inputs": [
        {
          "internalType": "contract ITransferHook",
          "name": "aaveGovernance",
          "type": "address"
        },
        {
          "internalType": "string",
          "name": "name",
          "type": "string"
        },
        {
          "internalType": "string",
          "name": "symbol",
          "type": "string"
        },
        {
          "internalType": "uint8",
          "name": "decimals",
          "type": "uint8"
        }
      ],
      "name": "initialize",
      "outputs": [],
      "stateMutability": "nonpayable",
      "type": "function"
    },
    {
      "inputs": [
        {
          "internalType": "uint256",
          "name": "",
          "type": "uint256"
        }
      ],
      "name": "lockTimestampOfUsers",
      "outputs": [
        {
          "internalType": "uint256",
          "name": "",
          "type": "uint256"
        }
      ],
      "stateMutability": "view",
      "type": "function"
    },
    {
      "inputs": [],
      "name": "name",
      "outputs": [
        {
          "internalType": "string",
          "name": "",
          "type": "string"
        }
      ],
      "stateMutability": "view",
      "type": "function"
    },
    {
      "inputs": [
        {
          "internalType": "address",
          "name": "to",
          "type": "address"
        },
        {
          "internalType": "uint256",
          "name": "amount",
          "type": "uint256"
        }
      ],
      "name": "redeem",
      "outputs": [],
      "stateMutability": "nonpayable",
      "type": "function"
    },
    {
      "inputs": [
        {
          "internalType": "address",
          "name": "onBehalfOf",
          "type": "address"
        },
        {
          "internalType": "uint256",
          "name": "amount",
          "type": "uint256"
        }
      ],
      "name": "stake",
      "outputs": [],
      "stateMutability": "nonpayable",
      "type": "function"
    },
    {
      "inputs": [
        {
          "internalType": "address",
          "name": "",
          "type": "address"
        }
      ],
      "name": "stakerRewardLockTime",
      "outputs": [
        {
          "internalType": "uint256",
          "name": "",
          "type": "uint256"
        }
      ],
      "stateMutability": "view",
      "type": "function"
    },
    {
      "inputs": [
        {
          "internalType": "address",
          "name": "",
          "type": "address"
        }
      ],
      "name": "stakerRewardsToClaim",
      "outputs": [
        {
          "internalType": "uint256",
          "name": "",
          "type": "uint256"
        }
      ],
      "stateMutability": "view",
      "type": "function"
    },
    {
      "inputs": [
        {
          "internalType": "address",
          "name": "",
          "type": "address"
        }
      ],
      "name": "stakersCooldowns",
      "outputs": [
        {
          "internalType": "uint256",
          "name": "",
          "type": "uint256"
        }
      ],
      "stateMutability": "view",
      "type": "function"
    },
    {
      "inputs": [
        {
          "internalType": "uint256",
          "name": "",
          "type": "uint256"
        }
      ],
      "name": "subAmountAfterLockTime",
      "outputs": [
        {
          "internalType": "uint256",
          "name": "",
          "type": "uint256"
        }
      ],
      "stateMutability": "view",
      "type": "function"
    },
    {
      "inputs": [],
      "name": "symbol",
      "outputs": [
        {
          "internalType": "string",
          "name": "",
          "type": "string"
        }
      ],
      "stateMutability": "view",
      "type": "function"
    },
    {
      "inputs": [
        {
          "internalType": "uint256",
          "name": "",
          "type": "uint256"
        }
      ],
      "name": "timestampToIndexOfUsers",
      "outputs": [
        {
          "internalType": "uint256",
          "name": "",
          "type": "uint256"
        }
      ],
      "stateMutability": "view",
      "type": "function"
    },
    {
      "inputs": [],
      "name": "totalSupply",
      "outputs": [
        {
          "internalType": "uint256",
          "name": "",
          "type": "uint256"
        }
      ],
      "stateMutability": "view",
      "type": "function"
    },
    {
      "inputs": [
        {
          "internalType": "address",
          "name": "recipient",
          "type": "address"
        },
        {
          "internalType": "uint256",
          "name": "amount",
          "type": "uint256"
        }
      ],
      "name": "transfer",
      "outputs": [
        {
          "internalType": "bool",
          "name": "",
          "type": "bool"
        }
      ],
      "stateMutability": "nonpayable",
      "type": "function"
    },
    {
      "inputs": [
        {
          "internalType": "address",
          "name": "sender",
          "type": "address"
        },
        {
          "internalType": "address",
          "name": "recipient",
          "type": "address"
        },
        {
          "internalType": "uint256",
          "name": "amount",
          "type": "uint256"
        }
      ],
      "name": "transferFrom",
      "outputs": [
        {
          "internalType": "bool",
          "name": "",
          "type": "bool"
        }
      ],
      "stateMutability": "nonpayable",
      "type": "function"
    }
  ],
  "bytecode": "0x610180604052600060095562093a80610120908152503480156200002257600080fd5b506040516200549c3803806200549c8339818101604052810190620000489190620003ee565b868686868686866040518060400160405280600b81526020017f5374616b656420416176650000000000000000000000000000000000000000008152506040518060400160405280600781526020017f73746b4141564500000000000000000000000000000000000000000000000000815250601284846fffffffffffffffffffffffffffffffff168484848282828260039080519060200190620000ef929190620002dc565b50816004908051906020019062000108929190620002dc565b5080600560006101000a81548160ff021916908360ff1602179055505050505050506200014481426200025360201b6200229e1790919060201c565b608081815250508173ffffffffffffffffffffffffffffffffffffffff1660a08173ffffffffffffffffffffffffffffffffffffffff1660601b8152505050508973ffffffffffffffffffffffffffffffffffffffff1660c08173ffffffffffffffffffffffffffffffffffffffff1660601b815250508873ffffffffffffffffffffffffffffffffffffffff1660e08173ffffffffffffffffffffffffffffffffffffffff1660601b815250508761010081815250508661014081815250508573ffffffffffffffffffffffffffffffffffffffff166101608173ffffffffffffffffffffffffffffffffffffffff1660601b81525050505050505050505050505050505050505062000571565b600080828401905083811015620002d2576040517f08c379a000000000000000000000000000000000000000000000000000000000815260040180806020018281038252601b8152602001807f536166654d6174683a206164646974696f6e206f766572666c6f77000000000081525060200191505060405180910390fd5b8091505092915050565b828054600181600116156101000203166002900490600052602060002090601f01602090048101928262000314576000855562000360565b82601f106200032f57805160ff191683800117855562000360565b8280016001018555821562000360579182015b828111156200035f57825182559160200191906001019062000342565b5b5090506200036f919062000373565b5090565b5b808211156200038e57600081600090555060010162000374565b5090565b600081519050620003a38162000509565b92915050565b600081519050620003ba8162000523565b92915050565b600081519050620003d1816200053d565b92915050565b600081519050620003e88162000557565b92915050565b600080600080600080600060e0888a0312156200040a57600080fd5b60006200041a8a828b01620003a9565b97505060206200042d8a828b01620003a9565b9650506040620004408a828b01620003d7565b9550506060620004538a828b01620003d7565b9450506080620004668a828b0162000392565b93505060a0620004798a828b0162000392565b92505060c06200048c8a828b01620003c0565b91505092959891949750929550565b6000620004a882620004df565b9050919050565b6000620004bc826200049b565b9050919050565b60006fffffffffffffffffffffffffffffffff82169050919050565b600073ffffffffffffffffffffffffffffffffffffffff82169050919050565b6000819050919050565b62000514816200049b565b81146200052057600080fd5b50565b6200052e81620004af565b81146200053a57600080fd5b50565b6200054881620004c3565b81146200055457600080fd5b50565b6200056281620004ff565b81146200056e57600080fd5b50565b60805160a05160601c60c05160601c60e05160601c6101005161012051610140516101605160601c614e6c62000630600039806114935280611658525080610ae65280610f26528061207652508061100352806119fa525080610a755280610b0d52806110db528061209a525080611559528061167b525080610c2a5280610e615280611b2c525080611bdf5280611f0752508061146f5280612b345280612b7a5280612ba75280613ce25280613d285280613d555250614e6c6000f3fe608060405234801561001057600080fd5b50600436106102745760003560e01c80637e90d7ef11610151578063aaf5eb68116100c3578063cbcbb50711610087578063cbcbb50714610816578063dd62ed3e14610834578063dde43cba14610864578063f11b818814610882578063f1cc432a146108b4578063f6d2ee86146108e457610274565b8063aaf5eb6814610772578063adc9772e14610790578063b2a5dbfa146107ac578063c1aebf6c146107c8578063c3863ada146107f857610274565b8063946776cd11610115578063946776cd1461069c57806395d89b41146106ba57806399248ea7146106d85780639a99b4f0146106f6578063a457c2d714610712578063a9059cbb1461074257610274565b80637e90d7ef146105be5780637fe696b6146105ee5780638779588c1461061e5780638dbefee21461064e578063919cd40f1461067e57610274565b8063359c4a96116101ea5780634781dbb7116101ae5780634781dbb7146104d65780635752723414610506578063610f4dc71461053657806370a082311461056657806372b49d6314610596578063787a08a6146105b457610274565b8063359c4a961461041c578063386a0eee1461043a5780633950935114610458578063413d9c3a14610488578063454a03cf146104a657610274565b80631e9a69501161023c5780631e9a69501461033357806323b872dd1461034f5780632acbf8231461037f578063312f6b83146103b0578063313ce567146103ce5780633373ee4c146103ec57610274565b8063040ad7591461027957806306fdde0314610297578063091030c3146102b5578063095ea7b3146102e557806318160ddd14610315575b600080fd5b610281610900565b60405161028e9190614a93565b60405180910390f35b61029f610906565b6040516102ac919061491b565b60405180910390f35b6102cf60048036038101906102ca91906143d0565b6109a8565b6040516102dc9190614a93565b60405180910390f35b6102ff60048036038101906102fa9190614484565b6109c0565b60405161030c91906148ca565b60405180910390f35b61031d6109de565b60405161032a9190614a93565b60405180910390f35b61034d60048036038101906103489190614484565b6109e8565b005b61036960048036038101906103649190614435565b610d1d565b60405161037691906148ca565b60405180910390f35b61039960048036038101906103949190614484565b610df6565b6040516103a7929190614a33565b60405180910390f35b6103b8610e5f565b6040516103c591906148e5565b60405180910390f35b6103d6610e83565b6040516103e39190614aae565b60405180910390f35b610406600480360381019061040191906143f9565b610e9a565b6040516104139190614a93565b60405180910390f35b610424610f24565b6040516104319190614a93565b60405180910390f35b610442610f48565b60405161044f9190614a93565b60405180910390f35b610472600480360381019061046d9190614484565b610f4e565b60405161047f91906148ca565b60405180910390f35b610490611001565b60405161049d9190614a93565b60405180910390f35b6104c060048036038101906104bb91906143d0565b611025565b6040516104cd9190614a93565b60405180910390f35b6104f060048036038101906104eb91906145c9565b61103d565b6040516104fd9190614a93565b60405180910390f35b610520600480360381019061051b91906145c9565b611061565b60405161052d9190614a93565b60405180910390f35b610550600480360381019061054b91906145c9565b611079565b60405161055d9190614a93565b60405180910390f35b610580600480360381019061057b91906143d0565b611091565b60405161058d9190614a93565b60405180910390f35b61059e6110d9565b6040516105ab9190614a93565b60405180910390f35b6105bc6110fd565b005b6105d860048036038101906105d391906143d0565b6111d2565b6040516105e59190614a93565b60405180910390f35b610608600480360381019061060391906145c9565b6111ea565b6040516106159190614a93565b60405180910390f35b610638600480360381019061063391906143d0565b611202565b6040516106459190614a93565b60405180910390f35b610668600480360381019061066391906143d0565b61121a565b6040516106759190614a93565b60405180910390f35b61068661146d565b6040516106939190614a93565b60405180910390f35b6106a4611491565b6040516106b19190614886565b60405180910390f35b6106c26114b5565b6040516106cf919061491b565b60405180910390f35b6106e0611557565b6040516106ed91906148e5565b60405180910390f35b610710600480360381019061070b9190614484565b61157b565b005b61072c60048036038101906107279190614484565b61172b565b60405161073991906148ca565b60405180910390f35b61075c60048036038101906107579190614484565b6117f8565b60405161076991906148ca565b60405180910390f35b61077a611816565b6040516107879190614aae565b60405180910390f35b6107aa60048036038101906107a59190614484565b61181b565b005b6107c660048036038101906107c191906144c0565b611bdd565b005b6107e260048036038101906107dd91906145c9565b611e28565b6040516107ef91906149fd565b60405180910390f35b610800611edf565b60405161080d9190614900565b60405180910390f35b61081e611f05565b60405161082b9190614886565b60405180910390f35b61084e600480360381019061084991906143f9565b611f29565b60405161085b9190614a93565b60405180910390f35b61086c611fb0565b6040516108799190614a93565b60405180910390f35b61089c600480360381019061089791906143d0565b611fb5565b6040516108ab93929190614a5c565b60405180910390f35b6108ce60048036038101906108c991906145f2565b612017565b6040516108db9190614a93565b60405180910390f35b6108fe60048036038101906108f99190614505565b61217c565b005b603d5481565b606060038054600181600116156101000203166002900480601f01602080910402602001604051908101604052809291908181526020018280546001816001161561010002031660029004801561099e5780601f106109735761010080835404028352916020019161099e565b820191906000526020600020905b81548152906001019060200180831161098157829003601f168201915b5050505050905090565b60406020528060005260406000206000915090505481565b60006109d46109cd612326565b848461232e565b6001905092915050565b6000600254905090565b6000811415610a2c576040517f08c379a0000000000000000000000000000000000000000000000000000000008152600401610a239061493d565b60405180910390fd5b6000604060003373ffffffffffffffffffffffffffffffffffffffff1673ffffffffffffffffffffffffffffffffffffffff168152602001908152602001600020549050610aa37f00000000000000000000000000000000000000000000000000000000000000008261229e90919063ffffffff16565b4211610ae4576040517f08c379a0000000000000000000000000000000000000000000000000000000008152600401610adb9061495d565b60405180910390fd5b7f0000000000000000000000000000000000000000000000000000000000000000610b4a610b3b7f00000000000000000000000000000000000000000000000000000000000000008461229e90919063ffffffff16565b4261252590919063ffffffff16565b1115610b8b576040517f08c379a0000000000000000000000000000000000000000000000000000000008152600401610b82906149bd565b60405180910390fd5b6000610b9633611091565b90506000818411610ba75783610ba9565b815b9050610bb73383600161256f565b50610bc23382612671565b6000610bd7828461252590919063ffffffff16565b1415610c23576000604060003373ffffffffffffffffffffffffffffffffffffffff1673ffffffffffffffffffffffffffffffffffffffff168152602001908152602001600020819055505b610c6e85827f000000000000000000000000000000000000000000000000000000000000000073ffffffffffffffffffffffffffffffffffffffff166128359092919063ffffffff16565b604360003373ffffffffffffffffffffffffffffffffffffffff1673ffffffffffffffffffffffffffffffffffffffff168152602001908152602001600020600090558473ffffffffffffffffffffffffffffffffffffffff163373ffffffffffffffffffffffffffffffffffffffff167fd12200efa34901b99367694174c3b0d32c99585fdf37c7c26892136ddd0836d983604051610d0e9190614a93565b60405180910390a35050505050565b6000610d2a8484846128d7565b610deb84610d36612326565b610de685604051806060016040528060288152602001614d2860289139600160008b73ffffffffffffffffffffffffffffffffffffffff1673ffffffffffffffffffffffffffffffffffffffff1681526020019081526020016000206000610d9c612326565b73ffffffffffffffffffffffffffffffffffffffff1673ffffffffffffffffffffffffffffffffffffffff16815260200190815260200160002054612a409092919063ffffffff16565b61232e565b600190509392505050565b6006602052816000526040600020602052806000526040600020600091509150508060000160009054906101000a90046fffffffffffffffffffffffffffffffff16908060000160109054906101000a90046fffffffffffffffffffffffffffffffff16905082565b7f000000000000000000000000000000000000000000000000000000000000000081565b6000600560009054906101000a900460ff16905090565b6000603c60008373ffffffffffffffffffffffffffffffffffffffff1673ffffffffffffffffffffffffffffffffffffffff16815260200190815260200160002060020160008473ffffffffffffffffffffffffffffffffffffffff1673ffffffffffffffffffffffffffffffffffffffff16815260200190815260200160002054905092915050565b7f000000000000000000000000000000000000000000000000000000000000000081565b603e5481565b6000610ff7610f5b612326565b84610ff28560016000610f6c612326565b73ffffffffffffffffffffffffffffffffffffffff1673ffffffffffffffffffffffffffffffffffffffff16815260200190815260200160002060008973ffffffffffffffffffffffffffffffffffffffff1673ffffffffffffffffffffffffffffffffffffffff1681526020019081526020016000205461229e90919063ffffffff16565b61232e565b6001905092915050565b7f000000000000000000000000000000000000000000000000000000000000000081565b60436020528060005260406000206000915090505481565b6042818154811061104d57600080fd5b906000526020600020016000915090505481565b60416020528060005260406000206000915090505481565b60456020528060005260406000206000915090505481565b60008060008373ffffffffffffffffffffffffffffffffffffffff1673ffffffffffffffffffffffffffffffffffffffff168152602001908152602001600020549050919050565b7f000000000000000000000000000000000000000000000000000000000000000081565b600061110833611091565b1415611149576040517f08c379a0000000000000000000000000000000000000000000000000000000008152600401611140906149dd565b60405180910390fd5b42604060003373ffffffffffffffffffffffffffffffffffffffff1673ffffffffffffffffffffffffffffffffffffffff168152602001908152602001600020819055503373ffffffffffffffffffffffffffffffffffffffff167ff52f50426b32362d3e6bb8cb36b7074756b224622def6352a59eac7f66ebe6e860405160405180910390a2565b603f6020528060005260406000206000915090505481565b60446020528060005260406000206000915090505481565b60076020528060005260406000206000915090505481565b600080603c60003073ffffffffffffffffffffffffffffffffffffffff1673ffffffffffffffffffffffffffffffffffffffff168152602001908152602001600020905060008060446000604360008873ffffffffffffffffffffffffffffffffffffffff1673ffffffffffffffffffffffffffffffffffffffff1681526020019081526020016000205481526020019081526020016000205414156113635761135e82600101548360000160009054906101000a90046fffffffffffffffffffffffffffffffff166fffffffffffffffffffffffffffffffff168460000160109054906101000a90046fffffffffffffffffffffffffffffffff16603d54604360008a73ffffffffffffffffffffffffffffffffffffffff1673ffffffffffffffffffffffffffffffffffffffff16815260200190815260200160002054612b00565b6113b7565b60446000604360008773ffffffffffffffffffffffffffffffffffffffff1673ffffffffffffffffffffffffffffffffffffffff168152602001908152602001600020548152602001908152602001600020545b9050600061140f6113c786611091565b838560020160008973ffffffffffffffffffffffffffffffffffffffff1673ffffffffffffffffffffffffffffffffffffffff16815260200190815260200160002054612c50565b905061146381603f60008873ffffffffffffffffffffffffffffffffffffffff1673ffffffffffffffffffffffffffffffffffffffff1681526020019081526020016000205461229e90919063ffffffff16565b9350505050919050565b7f000000000000000000000000000000000000000000000000000000000000000081565b7f000000000000000000000000000000000000000000000000000000000000000081565b606060048054600181600116156101000203166002900480601f01602080910402602001604051908101604052809291908181526020018280546001816001161561010002031660029004801561154d5780601f106115225761010080835404028352916020019161154d565b820191906000526020600020905b81548152906001019060200180831161153057829003601f168201915b5050505050905090565b7f000000000000000000000000000000000000000000000000000000000000000081565b60006115913361158a33611091565b600061256f565b905060007fffffffffffffffffffffffffffffffffffffffffffffffffffffffffffffffff83146115c257826115c4565b815b9050611610816040518060400160405280600e81526020017f494e56414c49445f414d4f554e5400000000000000000000000000000000000081525084612a409092919063ffffffff16565b603f60003373ffffffffffffffffffffffffffffffffffffffff1673ffffffffffffffffffffffffffffffffffffffff168152602001908152602001600020819055506116c07f000000000000000000000000000000000000000000000000000000000000000085837f000000000000000000000000000000000000000000000000000000000000000073ffffffffffffffffffffffffffffffffffffffff16612c99909392919063ffffffff16565b8373ffffffffffffffffffffffffffffffffffffffff163373ffffffffffffffffffffffffffffffffffffffff167f9310ccfcb8de723f578a9e4282ea9f521f05ae40dc08f3068dfad528a65ee3c78360405161171d9190614a93565b60405180910390a350505050565b60006117ee611738612326565b846117e985604051806060016040528060258152602001614e126025913960016000611762612326565b73ffffffffffffffffffffffffffffffffffffffff1673ffffffffffffffffffffffffffffffffffffffff16815260200190815260200160002060008a73ffffffffffffffffffffffffffffffffffffffff1673ffffffffffffffffffffffffffffffffffffffff16815260200190815260200160002054612a409092919063ffffffff16565b61232e565b6001905092915050565b600061180c611805612326565b84846128d7565b6001905092915050565b601281565b600081141561185f576040517f08c379a00000000000000000000000000000000000000000000000000000000081526004016118569061493d565b60405180910390fd5b6000604360003373ffffffffffffffffffffffffffffffffffffffff1673ffffffffffffffffffffffffffffffffffffffff16815260200190815260200160002054146118e1576040517f08c379a00000000000000000000000000000000000000000000000000000000081526004016118d89061497d565b60405180910390fd5b60006118ec83611091565b90506119046001603e5461229e90919063ffffffff16565b603e81905550600061191a843084603d54612d5a565b9050600081146119f3577f2468f9268c60ad90e2d49edb0032c8a001e733ae888b3ab8e982edf535be1a7684826040516119559291906148a1565b60405180910390a16119af81603f60008773ffffffffffffffffffffffffffffffffffffffff1673ffffffffffffffffffffffffffffffffffffffff1681526020019081526020016000205461229e90919063ffffffff16565b603f60008673ffffffffffffffffffffffffffffffffffffffff1673ffffffffffffffffffffffffffffffffffffffff168152602001908152602001600020819055505b6000611a287f00000000000000000000000000000000000000000000000000000000000000004261229e90919063ffffffff16565b905080604360003373ffffffffffffffffffffffffffffffffffffffff1673ffffffffffffffffffffffffffffffffffffffff168152602001908152602001600020819055506042819080600181540180825580915050600190039060005260206000200160009091909190915055611aac84603d5461229e90919063ffffffff16565b603d81905550836045600083815260200190815260200160002081905550611ad76000858786612017565b604060008773ffffffffffffffffffffffffffffffffffffffff1673ffffffffffffffffffffffffffffffffffffffff16815260200190815260200160002081905550611b248585612f69565b611b713330867f000000000000000000000000000000000000000000000000000000000000000073ffffffffffffffffffffffffffffffffffffffff16612c99909392919063ffffffff16565b8473ffffffffffffffffffffffffffffffffffffffff163373ffffffffffffffffffffffffffffffffffffffff167f5dac0c1b1112564a045ba943c9d50270893e8e826c49be8e7073adc713ab7bd786604051611bce9190614a93565b60405180910390a35050505050565b7f000000000000000000000000000000000000000000000000000000000000000073ffffffffffffffffffffffffffffffffffffffff163373ffffffffffffffffffffffffffffffffffffffff1614611c6b576040517f08c379a0000000000000000000000000000000000000000000000000000000008152600401611c629061499d565b60405180910390fd5b60005b82829050811015611e23576000603c6000858585818110611c8b57fe5b9050606002016040016020810190611ca391906143d0565b73ffffffffffffffffffffffffffffffffffffffff1673ffffffffffffffffffffffffffffffffffffffff1681526020019081526020016000209050611d22848484818110611cee57fe5b9050606002016040016020810190611d0691906143d0565b82868686818110611d1357fe5b90506060020160200135613130565b50838383818110611d2f57fe5b9050606002016000016020810190611d4791906145a0565b8160000160006101000a8154816fffffffffffffffffffffffffffffffff02191690836fffffffffffffffffffffffffffffffff160217905550838383818110611d8d57fe5b9050606002016040016020810190611da591906143d0565b73ffffffffffffffffffffffffffffffffffffffff167f87fa03892a0556cb6b8f97e6d533a150d4d55fcbf275fff5fa003fa636bcc7fa858585818110611de857fe5b9050606002016000016020810190611e0091906145a0565b604051611e0d9190614a18565b60405180910390a2508080600101915050611c6e565b505050565b600080612710905060006001905060006113b190506000600590506000611e6a84611e5c878a61343090919063ffffffff16565b61229e90919063ffffffff16565b90506000611ea584611e978a611e898c8d61343090919063ffffffff16565b61343090919063ffffffff16565b61229e90919063ffffffff16565b90506000611ece84611ec084866134b690919063ffffffff16565b61229e90919063ffffffff16565b905080975050505050505050919050565b600860009054906101000a900473ffffffffffffffffffffffffffffffffffffffff1681565b7f000000000000000000000000000000000000000000000000000000000000000081565b6000600160008473ffffffffffffffffffffffffffffffffffffffff1673ffffffffffffffffffffffffffffffffffffffff16815260200190815260200160002060008373ffffffffffffffffffffffffffffffffffffffff1673ffffffffffffffffffffffffffffffffffffffff16815260200190815260200160002054905092915050565b600181565b603c6020528060005260406000206000915090508060000160009054906101000a90046fffffffffffffffffffffffffffffffff16908060000160109054906101000a90046fffffffffffffffffffffffffffffffff16908060010154905083565b600080604060008573ffffffffffffffffffffffffffffffffffffffff1673ffffffffffffffffffffffffffffffffffffffff168152602001908152602001600020549050600081141561206f576000915050612174565b60006120d67f00000000000000000000000000000000000000000000000000000000000000006120c87f00000000000000000000000000000000000000000000000000000000000000004261252590919063ffffffff16565b61252590919063ffffffff16565b9050818111156120e9576000915061216e565b60008782116120f857876120fa565b425b90508281101561210f57829350505050612174565b61216a612125868961229e90919063ffffffff16565b61215c61213b868961343090919063ffffffff16565b61214e858c61343090919063ffffffff16565b61229e90919063ffffffff16565b6134b690919063ffffffff16565b9250505b81925050505b949350505050565b6000612186613500565b905060095481116121e2576040517f08c379a000000000000000000000000000000000000000000000000000000000815260040180806020018281038252602e815260200180614d50602e913960400191505060405180910390fd5b8060098190555061223686868080601f016020809104026020016040519081016040528093929190818152602001838380828437600081840152601f19601f82011690508083019250505050505050613509565b61228384848080601f016020809104026020016040519081016040528093929190818152602001838380828437600081840152601f19601f82011690508083019250505050505050613523565b61228c8261353d565b6122958761355b565b50505050505050565b60008082840190508381101561231c576040517f08c379a000000000000000000000000000000000000000000000000000000000815260040180806020018281038252601b8152602001807f536166654d6174683a206164646974696f6e206f766572666c6f77000000000081525060200191505060405180910390fd5b8091505092915050565b600033905090565b600073ffffffffffffffffffffffffffffffffffffffff168373ffffffffffffffffffffffffffffffffffffffff1614156123b4576040517f08c379a0000000000000000000000000000000000000000000000000000000008152600401808060200182810382526024815260200180614dc46024913960400191505060405180910390fd5b600073ffffffffffffffffffffffffffffffffffffffff168273ffffffffffffffffffffffffffffffffffffffff16141561243a576040517f08c379a0000000000000000000000000000000000000000000000000000000008152600401808060200182810382526022815260200180614cbf6022913960400191505060405180910390fd5b80600160008573ffffffffffffffffffffffffffffffffffffffff1673ffffffffffffffffffffffffffffffffffffffff16815260200190815260200160002060008473ffffffffffffffffffffffffffffffffffffffff1673ffffffffffffffffffffffffffffffffffffffff168152602001908152602001600020819055508173ffffffffffffffffffffffffffffffffffffffff168373ffffffffffffffffffffffffffffffffffffffff167f8c5be1e5ebec7d5bd14f71427d1e84f3dd0314c0f7b2291e5b200ac8c7c3b925836040518082815260200191505060405180910390a3505050565b600061256783836040518060400160405280601e81526020017f536166654d6174683a207375627472616374696f6e206f766572666c6f770000815250612a40565b905092915050565b600080612580853086603d54612d5a565b905060006125d682603f60008973ffffffffffffffffffffffffffffffffffffffff1673ffffffffffffffffffffffffffffffffffffffff1681526020019081526020016000205461229e90919063ffffffff16565b90506000821461266557831561262b5780603f60008873ffffffffffffffffffffffffffffffffffffffff1673ffffffffffffffffffffffffffffffffffffffff168152602001908152602001600020819055505b7f2468f9268c60ad90e2d49edb0032c8a001e733ae888b3ab8e982edf535be1a76868360405161265c9291906148a1565b60405180910390a15b80925050509392505050565b600073ffffffffffffffffffffffffffffffffffffffff168273ffffffffffffffffffffffffffffffffffffffff1614156126f7576040517f08c379a0000000000000000000000000000000000000000000000000000000008152600401808060200182810382526021815260200180614d7e6021913960400191505060405180910390fd5b6127038260008361359f565b61276e81604051806060016040528060228152602001614c9d602291396000808673ffffffffffffffffffffffffffffffffffffffff1673ffffffffffffffffffffffffffffffffffffffff16815260200190815260200160002054612a409092919063ffffffff16565b6000808473ffffffffffffffffffffffffffffffffffffffff1673ffffffffffffffffffffffffffffffffffffffff168152602001908152602001600020819055506127c58160025461252590919063ffffffff16565b600281905550600073ffffffffffffffffffffffffffffffffffffffff168273ffffffffffffffffffffffffffffffffffffffff167fddf252ad1be2c89b69c2b068fc378daa952ba7f163c4a11628f55a4df523b3ef836040518082815260200191505060405180910390a35050565b6128d28363a9059cbb60e01b8484604051602401808373ffffffffffffffffffffffffffffffffffffffff16815260200182815260200192505050604051602081830303815290604052907bffffffffffffffffffffffffffffffffffffffffffffffffffffffff19166020820180517bffffffffffffffffffffffffffffffffffffffffffffffffffffffff83818316178352505050506137a2565b505050565b60006128e284611091565b90506128f08482600161256f565b508273ffffffffffffffffffffffffffffffffffffffff168473ffffffffffffffffffffffffffffffffffffffff1614612a2f57600061292f84611091565b905061293d8482600161256f565b506000604060008773ffffffffffffffffffffffffffffffffffffffff1673ffffffffffffffffffffffffffffffffffffffff16815260200190815260200160002054905061298e81858785612017565b604060008773ffffffffffffffffffffffffffffffffffffffff1673ffffffffffffffffffffffffffffffffffffffff1681526020019081526020016000208190555083831480156129e1575060008114155b15612a2c576000604060008873ffffffffffffffffffffffffffffffffffffffff1673ffffffffffffffffffffffffffffffffffffffff168152602001908152602001600020819055505b50505b612a3a8484846139ed565b50505050565b6000838311158290612aed576040517f08c379a00000000000000000000000000000000000000000000000000000000081526004018080602001828103825283818151815260200191508051906020019080838360005b83811015612ab2578082015181840152602081019050612a97565b50505050905090810190601f168015612adf5780820380516001836020036101000a031916815260200191505b509250505060405180910390fd5b5060008385039050809150509392505050565b600080851480612b105750600083145b80612b2c575081846fffffffffffffffffffffffffffffffff16145b80612b6957507f0000000000000000000000000000000000000000000000000000000000000000846fffffffffffffffffffffffffffffffff1610155b15612b7657859050612c47565b60007f00000000000000000000000000000000000000000000000000000000000000008311612ba55782612bc7565b7f00000000000000000000000000000000000000000000000000000000000000005b90506000612bf0866fffffffffffffffffffffffffffffffff168361252590919063ffffffff16565b9050612c4288612c3487612c26601260ff16600a0a612c18878e61343090919063ffffffff16565b61343090919063ffffffff16565b6134b690919063ffffffff16565b61229e90919063ffffffff16565b925050505b95945050505050565b6000612c90601260ff16600a0a612c82612c73858761252590919063ffffffff16565b8761343090919063ffffffff16565b6134b690919063ffffffff16565b90509392505050565b612d54846323b872dd60e01b858585604051602401808473ffffffffffffffffffffffffffffffffffffffff1681526020018373ffffffffffffffffffffffffffffffffffffffff1681526020018281526020019350505050604051602081830303815290604052907bffffffffffffffffffffffffffffffffffffffffffffffffffffffff19166020820180517bffffffffffffffffffffffffffffffffffffffffffffffffffffffff83818316178352505050506137a2565b50505050565b600080603c60008673ffffffffffffffffffffffffffffffffffffffff1673ffffffffffffffffffffffffffffffffffffffff168152602001908152602001600020905060008160020160008873ffffffffffffffffffffffffffffffffffffffff1673ffffffffffffffffffffffffffffffffffffffff16815260200190815260200160002054905060008080604360008b73ffffffffffffffffffffffffffffffffffffffff1673ffffffffffffffffffffffffffffffffffffffff1681526020019081526020016000205414158015612e4c575060428381548110612e3e57fe5b906000526020600020015442115b15612e83576044600060428581548110612e6257fe5b90600052602060002001548152602001908152602001600020549050612e91565b612e8e888588613130565b90505b808314612f5a5760008714612eae57612eab878285612c50565b91505b808460020160008b73ffffffffffffffffffffffffffffffffffffffff1673ffffffffffffffffffffffffffffffffffffffff168152602001908152602001600020819055508773ffffffffffffffffffffffffffffffffffffffff168973ffffffffffffffffffffffffffffffffffffffff167fbb123b5c06d5408bbea3c4fef481578175cfb432e3b482c6186f02ed9086585b83604051612f519190614a93565b60405180910390a35b81945050505050949350505050565b600073ffffffffffffffffffffffffffffffffffffffff168273ffffffffffffffffffffffffffffffffffffffff16141561300c576040517f08c379a000000000000000000000000000000000000000000000000000000000815260040180806020018281038252601f8152602001807f45524332303a206d696e7420746f20746865207a65726f20616464726573730081525060200191505060405180910390fd5b6130186000838361359f565b61302d8160025461229e90919063ffffffff16565b600281905550613084816000808573ffffffffffffffffffffffffffffffffffffffff1673ffffffffffffffffffffffffffffffffffffffff1681526020019081526020016000205461229e90919063ffffffff16565b6000808473ffffffffffffffffffffffffffffffffffffffff1673ffffffffffffffffffffffffffffffffffffffff168152602001908152602001600020819055508173ffffffffffffffffffffffffffffffffffffffff16600073ffffffffffffffffffffffffffffffffffffffff167fddf252ad1be2c89b69c2b068fc378daa952ba7f163c4a11628f55a4df523b3ef836040518082815260200191505060405180910390a35050565b6000808360010154905060008460000160109054906101000a90046fffffffffffffffffffffffffffffffff16905061316a603e54611e28565b8560000160006101000a8154816fffffffffffffffffffffffffffffffff02191690836fffffffffffffffffffffffffffffffff16021790555060005b6042805490508110156133215742604282815481106131c257fe5b9060005260206000200154111580156132055750600060446000604284815481106131e957fe5b9060005260206000200154815260200190815260200160002054145b1561331457613260838760000160009054906101000a90046fffffffffffffffffffffffffffffffff166fffffffffffffffffffffffffffffffff1684886042868154811061325057fe5b9060005260206000200154612b00565b604460006042848154811061327157fe5b90600052602060002001548152602001908152602001600020819055506132cd60416000604284815481106132a257fe5b9060005260206000200154815260200190815260200160002054603d5461252590919063ffffffff16565b603d819055506132e96001603e5461252590919063ffffffff16565b603e8190555042604282815481106132fd57fe5b9060005260206000200154111561331357613321565b5b80806001019150506131a7565b50806fffffffffffffffffffffffffffffffff16421415613346578192505050613429565b6000613386838760000160009054906101000a90046fffffffffffffffffffffffffffffffff166fffffffffffffffffffffffffffffffff168488613cae565b90508281146133e7578086600101819055508673ffffffffffffffffffffffffffffffffffffffff167f5777ca300dfe5bead41006fbce4389794dbc0ed8d6cccebfaf94630aa04184bc826040516133de9190614a93565b60405180910390a25b428660000160106101000a8154816fffffffffffffffffffffffffffffffff02191690836fffffffffffffffffffffffffffffffff1602179055508093505050505b9392505050565b60008083141561344357600090506134b0565b600082840290508284828161345457fe5b04146134ab576040517f08c379a0000000000000000000000000000000000000000000000000000000008152600401808060200182810382526021815260200180614d076021913960400191505060405180910390fd5b809150505b92915050565b60006134f883836040518060400160405280601a81526020017f536166654d6174683a206469766973696f6e206279207a65726f000000000000815250613dfd565b905092915050565b60006001905090565b806003908051906020019061351f929190614228565b5050565b8060049080519060200190613539929190614228565b5050565b80600560006101000a81548160ff021916908360ff16021790555050565b80600860006101000a81548173ffffffffffffffffffffffffffffffffffffffff021916908373ffffffffffffffffffffffffffffffffffffffff16021790555050565b8173ffffffffffffffffffffffffffffffffffffffff168373ffffffffffffffffffffffffffffffffffffffff1614156135d85761379d565b600073ffffffffffffffffffffffffffffffffffffffff168373ffffffffffffffffffffffffffffffffffffffff161461363857600061361784611091565b90506136368482613631858561252590919063ffffffff16565b613ec3565b505b600073ffffffffffffffffffffffffffffffffffffffff168273ffffffffffffffffffffffffffffffffffffffff161461369857600061367783611091565b90506136968382613691858561229e90919063ffffffff16565b613ec3565b505b6000600860009054906101000a900473ffffffffffffffffffffffffffffffffffffffff169050600073ffffffffffffffffffffffffffffffffffffffff168173ffffffffffffffffffffffffffffffffffffffff161461379b578073ffffffffffffffffffffffffffffffffffffffff16634a3931498585856040518463ffffffff1660e01b8152600401808473ffffffffffffffffffffffffffffffffffffffff1681526020018373ffffffffffffffffffffffffffffffffffffffff1681526020018281526020019350505050600060405180830381600087803b15801561378257600080fd5b505af1158015613796573d6000803e3d6000fd5b505050505b505b505050565b6137c18273ffffffffffffffffffffffffffffffffffffffff166141dd565b613833576040517f08c379a000000000000000000000000000000000000000000000000000000000815260040180806020018281038252601f8152602001807f5361666545524332303a2063616c6c20746f206e6f6e2d636f6e74726163740081525060200191505060405180910390fd5b600060608373ffffffffffffffffffffffffffffffffffffffff16836040518082805190602001908083835b60208310613882578051825260208201915060208101905060208303925061385f565b6001836020036101000a0380198251168184511680821785525050505050509050019150506000604051808303816000865af19150503d80600081146138e4576040519150601f19603f3d011682016040523d82523d6000602084013e6138e9565b606091505b509150915081613961576040517f08c379a00000000000000000000000000000000000000000000000000000000081526004018080602001828103825260208152602001807f5361666545524332303a206c6f772d6c6576656c2063616c6c206661696c656481525060200191505060405180910390fd5b6000815111156139e75780806020019051602081101561398057600080fd5b81019080805190602001909291905050506139e6576040517f08c379a000000000000000000000000000000000000000000000000000000000815260040180806020018281038252602a815260200180614de8602a913960400191505060405180910390fd5b5b50505050565b600073ffffffffffffffffffffffffffffffffffffffff168373ffffffffffffffffffffffffffffffffffffffff161415613a73576040517f08c379a0000000000000000000000000000000000000000000000000000000008152600401808060200182810382526025815260200180614d9f6025913960400191505060405180910390fd5b600073ffffffffffffffffffffffffffffffffffffffff168273ffffffffffffffffffffffffffffffffffffffff161415613af9576040517f08c379a0000000000000000000000000000000000000000000000000000000008152600401808060200182810382526023815260200180614c7a6023913960400191505060405180910390fd5b613b0483838361359f565b613b6f81604051806060016040528060268152602001614ce1602691396000808773ffffffffffffffffffffffffffffffffffffffff1673ffffffffffffffffffffffffffffffffffffffff16815260200190815260200160002054612a409092919063ffffffff16565b6000808573ffffffffffffffffffffffffffffffffffffffff1673ffffffffffffffffffffffffffffffffffffffff16815260200190815260200160002081905550613c02816000808573ffffffffffffffffffffffffffffffffffffffff1673ffffffffffffffffffffffffffffffffffffffff1681526020019081526020016000205461229e90919063ffffffff16565b6000808473ffffffffffffffffffffffffffffffffffffffff1673ffffffffffffffffffffffffffffffffffffffff168152602001908152602001600020819055508173ffffffffffffffffffffffffffffffffffffffff168373ffffffffffffffffffffffffffffffffffffffff167fddf252ad1be2c89b69c2b068fc378daa952ba7f163c4a11628f55a4df523b3ef836040518082815260200191505060405180910390a3505050565b600080841480613cbe5750600082145b80613cda575042836fffffffffffffffffffffffffffffffff16145b80613d1757507f0000000000000000000000000000000000000000000000000000000000000000836fffffffffffffffffffffffffffffffff1610155b15613d2457849050613df5565b60007f00000000000000000000000000000000000000000000000000000000000000004211613d535742613d75565b7f00000000000000000000000000000000000000000000000000000000000000005b90506000613d9e856fffffffffffffffffffffffffffffffff168361252590919063ffffffff16565b9050613df087613de286613dd4601260ff16600a0a613dc6878d61343090919063ffffffff16565b61343090919063ffffffff16565b6134b690919063ffffffff16565b61229e90919063ffffffff16565b925050505b949350505050565b60008083118290613ea9576040517f08c379a00000000000000000000000000000000000000000000000000000000081526004018080602001828103825283818151815260200191508051906020019080838360005b83811015613e6e578082015181840152602081019050613e53565b50505050905090810190601f168015613e9b5780820380516001836020036101000a031916815260200191505b509250505060405180910390fd5b506000838581613eb557fe5b049050809150509392505050565b60004390506000600760008673ffffffffffffffffffffffffffffffffffffffff1673ffffffffffffffffffffffffffffffffffffffff1681526020019081526020016000205490506000600660008773ffffffffffffffffffffffffffffffffffffffff1673ffffffffffffffffffffffffffffffffffffffff168152602001908152602001600020905060008214158015613fc75750826fffffffffffffffffffffffffffffffff16816000613f8560018661252590919063ffffffff16565b815260200190815260200160002060000160009054906101000a90046fffffffffffffffffffffffffffffffff166fffffffffffffffffffffffffffffffff16145b156140305783816000613fe460018661252590919063ffffffff16565b815260200190815260200160002060000160106101000a8154816fffffffffffffffffffffffffffffffff02191690836fffffffffffffffffffffffffffffffff160217905550614154565b6040518060400160405280846fffffffffffffffffffffffffffffffff168152602001856fffffffffffffffffffffffffffffffff1681525081600084815260200190815260200160002060008201518160000160006101000a8154816fffffffffffffffffffffffffffffffff02191690836fffffffffffffffffffffffffffffffff16021790555060208201518160000160106101000a8154816fffffffffffffffffffffffffffffffff02191690836fffffffffffffffffffffffffffffffff16021790555090505061411060018361229e90919063ffffffff16565b600760008873ffffffffffffffffffffffffffffffffffffffff1673ffffffffffffffffffffffffffffffffffffffff168152602001908152602001600020819055505b7f2cd3c83ddac2953ee75f53265d9ea4463eaf05030e5459a1b7e63819b7ce88f7868686604051808473ffffffffffffffffffffffffffffffffffffffff168152602001836fffffffffffffffffffffffffffffffff168152602001826fffffffffffffffffffffffffffffffff168152602001935050505060405180910390a1505050505050565b60008060007fc5d2460186f7233c927e7db2dcc703c0e500b653ca82273b7bfad8045d85a47060001b9050833f915080821415801561421f57506000801b8214155b92505050919050565b828054600181600116156101000203166002900490600052602060002090601f01602090048101928261425e57600085556142a5565b82601f1061427757805160ff19168380011785556142a5565b828001600101855582156142a5579182015b828111156142a4578251825591602001919060010190614289565b5b5090506142b291906142b6565b5090565b5b808211156142cf5760008160009055506001016142b7565b5090565b6000813590506142e281614c06565b92915050565b60008083601f8401126142fa57600080fd5b8235905067ffffffffffffffff81111561431357600080fd5b60208301915083606082028301111561432b57600080fd5b9250929050565b60008135905061434181614c1d565b92915050565b60008083601f84011261435957600080fd5b8235905067ffffffffffffffff81111561437257600080fd5b60208301915083600182028301111561438a57600080fd5b9250929050565b6000813590506143a081614c34565b92915050565b6000813590506143b581614c4b565b92915050565b6000813590506143ca81614c62565b92915050565b6000602082840312156143e257600080fd5b60006143f0848285016142d3565b91505092915050565b6000806040838503121561440c57600080fd5b600061441a858286016142d3565b925050602061442b858286016142d3565b9150509250929050565b60008060006060848603121561444a57600080fd5b6000614458868287016142d3565b9350506020614469868287016142d3565b925050604061447a868287016143a6565b9150509250925092565b6000806040838503121561449757600080fd5b60006144a5858286016142d3565b92505060206144b6858286016143a6565b9150509250929050565b600080602083850312156144d357600080fd5b600083013567ffffffffffffffff8111156144ed57600080fd5b6144f9858286016142e8565b92509250509250929050565b6000806000806000806080878903121561451e57600080fd5b600061452c89828a01614332565b965050602087013567ffffffffffffffff81111561454957600080fd5b61455589828a01614347565b9550955050604087013567ffffffffffffffff81111561457457600080fd5b61458089828a01614347565b9350935050606061459389828a016143bb565b9150509295509295509295565b6000602082840312156145b257600080fd5b60006145c084828501614391565b91505092915050565b6000602082840312156145db57600080fd5b60006145e9848285016143a6565b91505092915050565b6000806000806080858703121561460857600080fd5b6000614616878288016143a6565b9450506020614627878288016143a6565b9350506040614638878288016142d3565b9250506060614649878288016143a6565b91505092959194509250565b61465e81614ae5565b82525050565b61466d81614af7565b82525050565b61467c81614b68565b82525050565b61468b81614b8c565b82525050565b600061469c82614ac9565b6146a68185614ad4565b93506146b6818560208601614bc2565b6146bf81614bf5565b840191505092915050565b60006146d7601383614ad4565b91507f494e56414c49445f5a45524f5f414d4f554e54000000000000000000000000006000830152602082019050919050565b6000614717601583614ad4565b91507f494e53554646494349454e545f434f4f4c444f574e00000000000000000000006000830152602082019050919050565b6000614757600e83614ad4565b91507f594f5520415245205354414b45440000000000000000000000000000000000006000830152602082019050919050565b6000614797601583614ad4565b91507f4f4e4c595f454d495353494f4e5f4d414e4147455200000000000000000000006000830152602082019050919050565b60006147d7601783614ad4565b91507f554e5354414b455f57494e444f575f46494e49534845440000000000000000006000830152602082019050919050565b6000614817601b83614ad4565b91507f494e56414c49445f42414c414e43455f4f4e5f434f4f4c444f574e00000000006000830152602082019050919050565b61485381614b15565b82525050565b61486281614bb0565b82525050565b61487181614b51565b82525050565b61488081614b5b565b82525050565b600060208201905061489b6000830184614655565b92915050565b60006040820190506148b66000830185614655565b6148c36020830184614868565b9392505050565b60006020820190506148df6000830184614664565b92915050565b60006020820190506148fa6000830184614673565b92915050565b60006020820190506149156000830184614682565b92915050565b600060208201905081810360008301526149358184614691565b905092915050565b60006020820190508181036000830152614956816146ca565b9050919050565b600060208201905081810360008301526149768161470a565b9050919050565b600060208201905081810360008301526149968161474a565b9050919050565b600060208201905081810360008301526149b68161478a565b9050919050565b600060208201905081810360008301526149d6816147ca565b9050919050565b600060208201905081810360008301526149f68161480a565b9050919050565b6000602082019050614a12600083018461484a565b92915050565b6000602082019050614a2d6000830184614859565b92915050565b6000604082019050614a48600083018561484a565b614a55602083018461484a565b9392505050565b6000606082019050614a71600083018661484a565b614a7e602083018561484a565b614a8b6040830184614868565b949350505050565b6000602082019050614aa86000830184614868565b92915050565b6000602082019050614ac36000830184614877565b92915050565b600081519050919050565b600082825260208201905092915050565b6000614af082614b31565b9050919050565b60008115159050919050565b6000614b0e82614ae5565b9050919050565b60006fffffffffffffffffffffffffffffffff82169050919050565b600073ffffffffffffffffffffffffffffffffffffffff82169050919050565b6000819050919050565b600060ff82169050919050565b6000614b7382614b7a565b9050919050565b6000614b8582614b31565b9050919050565b6000614b9782614b9e565b9050919050565b6000614ba982614b31565b9050919050565b6000614bbb82614b15565b9050919050565b60005b83811015614be0578082015181840152602081019050614bc5565b83811115614bef576000848401525b50505050565b6000601f19601f8301169050919050565b614c0f81614ae5565b8114614c1a57600080fd5b50565b614c2681614b03565b8114614c3157600080fd5b50565b614c3d81614b15565b8114614c4857600080fd5b50565b614c5481614b51565b8114614c5f57600080fd5b50565b614c6b81614b5b565b8114614c7657600080fd5b5056fe45524332303a207472616e7366657220746f20746865207a65726f206164647265737345524332303a206275726e20616d6f756e7420657863656564732062616c616e636545524332303a20617070726f766520746f20746865207a65726f206164647265737345524332303a207472616e7366657220616d6f756e7420657863656564732062616c616e6365536166654d6174683a206d756c7469706c69636174696f6e206f766572666c6f7745524332303a207472616e7366657220616d6f756e74206578636565647320616c6c6f77616e6365436f6e747261637420696e7374616e63652068617320616c7265616479206265656e20696e697469616c697a656445524332303a206275726e2066726f6d20746865207a65726f206164647265737345524332303a207472616e736665722066726f6d20746865207a65726f206164647265737345524332303a20617070726f76652066726f6d20746865207a65726f20616464726573735361666545524332303a204552433230206f7065726174696f6e20646964206e6f74207375636365656445524332303a2064656372656173656420616c6c6f77616e63652062656c6f77207a65726fa2646970667358221220dd5ff5bb452aef6a52f6a4ea1967449cf67072591a3c3c06536a6fa3d540753d64736f6c63430007050033",
  "linkReferences": {},
  "deployedLinkReferences": {}
}