{
  "_format": "hh-sol-artifact-1",
  "contractName": "StakedAave",
  "sourceName": "contracts/stake/StakedAave.sol",
  "abi": [
    {
      "inputs": [
        {
          "internalType": "contract IERC20",
          "name": "stakedToken",
          "type": "address"
        },
        {
          "internalType": "contract IERC20",
          "name": "rewardToken",
          "type": "address"
        },
        {
          "internalType": "uint256",
          "name": "cooldownSeconds",
          "type": "uint256"
        },
        {
          "internalType": "uint256",
          "name": "unstakeWindow",
          "type": "uint256"
        },
        {
          "internalType": "address",
          "name": "rewardsVault",
          "type": "address"
        },
        {
          "internalType": "address",
          "name": "emissionManager",
          "type": "address"
        },
        {
          "internalType": "uint128",
          "name": "distributionDuration",
          "type": "uint128"
        }
      ],
      "stateMutability": "nonpayable",
      "type": "constructor"
    },
    {
      "anonymous": false,
      "inputs": [
        {
          "indexed": true,
          "internalType": "address",
          "name": "owner",
          "type": "address"
        },
        {
          "indexed": true,
          "internalType": "address",
          "name": "spender",
          "type": "address"
        },
        {
          "indexed": false,
          "internalType": "uint256",
          "name": "value",
          "type": "uint256"
        }
      ],
      "name": "Approval",
      "type": "event"
    },
    {
      "anonymous": false,
      "inputs": [
        {
          "indexed": true,
          "internalType": "address",
          "name": "asset",
          "type": "address"
        },
        {
          "indexed": false,
          "internalType": "uint256",
          "name": "emission",
          "type": "uint256"
        }
      ],
      "name": "AssetConfigUpdated",
      "type": "event"
    },
    {
      "anonymous": false,
      "inputs": [
        {
          "indexed": true,
          "internalType": "address",
          "name": "asset",
          "type": "address"
        },
        {
          "indexed": false,
          "internalType": "uint256",
          "name": "index",
          "type": "uint256"
        }
      ],
      "name": "AssetIndexUpdated",
      "type": "event"
    },
    {
      "anonymous": false,
      "inputs": [
        {
          "indexed": true,
          "internalType": "address",
          "name": "user",
          "type": "address"
        }
      ],
      "name": "Cooldown",
      "type": "event"
    },
    {
      "anonymous": false,
      "inputs": [
        {
          "indexed": true,
          "internalType": "address",
          "name": "from",
          "type": "address"
        },
        {
          "indexed": true,
          "internalType": "address",
          "name": "to",
          "type": "address"
        },
        {
          "indexed": false,
          "internalType": "uint256",
          "name": "amount",
          "type": "uint256"
        }
      ],
      "name": "Redeem",
      "type": "event"
    },
    {
      "anonymous": false,
      "inputs": [
        {
          "indexed": false,
          "internalType": "address",
          "name": "user",
          "type": "address"
        },
        {
          "indexed": false,
          "internalType": "uint256",
          "name": "amount",
          "type": "uint256"
        }
      ],
      "name": "RewardsAccrued",
      "type": "event"
    },
    {
      "anonymous": false,
      "inputs": [
        {
          "indexed": true,
          "internalType": "address",
          "name": "from",
          "type": "address"
        },
        {
          "indexed": true,
          "internalType": "address",
          "name": "to",
          "type": "address"
        },
        {
          "indexed": false,
          "internalType": "uint256",
          "name": "amount",
          "type": "uint256"
        }
      ],
      "name": "RewardsClaimed",
      "type": "event"
    },
    {
      "anonymous": false,
      "inputs": [
        {
          "indexed": false,
          "internalType": "address",
          "name": "owner",
          "type": "address"
        },
        {
          "indexed": false,
          "internalType": "uint128",
          "name": "oldValue",
          "type": "uint128"
        },
        {
          "indexed": false,
          "internalType": "uint128",
          "name": "newValue",
          "type": "uint128"
        }
      ],
      "name": "SnapshotDone",
      "type": "event"
    },
    {
      "anonymous": false,
      "inputs": [
        {
          "indexed": true,
          "internalType": "address",
          "name": "from",
          "type": "address"
        },
        {
          "indexed": true,
          "internalType": "address",
          "name": "onBehalfOf",
          "type": "address"
        },
        {
          "indexed": false,
          "internalType": "uint256",
          "name": "amount",
          "type": "uint256"
        }
      ],
      "name": "Staked",
      "type": "event"
    },
    {
      "anonymous": false,
      "inputs": [
        {
          "indexed": true,
          "internalType": "address",
          "name": "from",
          "type": "address"
        },
        {
          "indexed": true,
          "internalType": "address",
          "name": "to",
          "type": "address"
        },
        {
          "indexed": false,
          "internalType": "uint256",
          "name": "value",
          "type": "uint256"
        }
      ],
      "name": "Transfer",
      "type": "event"
    },
    {
      "anonymous": false,
      "inputs": [
        {
          "indexed": true,
          "internalType": "address",
          "name": "user",
          "type": "address"
        },
        {
          "indexed": true,
          "internalType": "address",
          "name": "asset",
          "type": "address"
        },
        {
          "indexed": false,
          "internalType": "uint256",
          "name": "index",
          "type": "uint256"
        }
      ],
      "name": "UserIndexUpdated",
      "type": "event"
    },
    {
      "inputs": [],
      "name": "COOLDOWN_SECONDS",
      "outputs": [
        {
          "internalType": "uint256",
          "name": "",
          "type": "uint256"
        }
      ],
      "stateMutability": "view",
      "type": "function"
    },
    {
      "inputs": [],
      "name": "DISTRIBUTION_END",
      "outputs": [
        {
          "internalType": "uint256",
          "name": "",
          "type": "uint256"
        }
      ],
      "stateMutability": "view",
      "type": "function"
    },
    {
      "inputs": [],
      "name": "EMISSION_MANAGER",
      "outputs": [
        {
          "internalType": "address",
          "name": "",
          "type": "address"
        }
      ],
      "stateMutability": "view",
      "type": "function"
    },
    {
      "inputs": [],
      "name": "LOCK_TIME",
      "outputs": [
        {
          "internalType": "uint256",
          "name": "",
          "type": "uint256"
        }
      ],
      "stateMutability": "view",
      "type": "function"
    },
    {
      "inputs": [],
      "name": "PRECISION",
      "outputs": [
        {
          "internalType": "uint8",
          "name": "",
          "type": "uint8"
        }
      ],
      "stateMutability": "view",
      "type": "function"
    },
    {
      "inputs": [],
      "name": "REVISION",
      "outputs": [
        {
          "internalType": "uint256",
          "name": "",
          "type": "uint256"
        }
      ],
      "stateMutability": "view",
      "type": "function"
    },
    {
      "inputs": [],
      "name": "REWARDS_VAULT",
      "outputs": [
        {
          "internalType": "address",
          "name": "",
          "type": "address"
        }
      ],
      "stateMutability": "view",
      "type": "function"
    },
    {
      "inputs": [],
      "name": "REWARD_TOKEN",
      "outputs": [
        {
          "internalType": "contract IERC20",
          "name": "",
          "type": "address"
        }
      ],
      "stateMutability": "view",
      "type": "function"
    },
    {
      "inputs": [],
      "name": "STAKED_TOKEN",
      "outputs": [
        {
          "internalType": "contract IERC20",
          "name": "",
          "type": "address"
        }
      ],
      "stateMutability": "view",
      "type": "function"
    },
    {
      "inputs": [],
      "name": "UNSTAKE_WINDOW",
      "outputs": [
        {
          "internalType": "uint256",
          "name": "",
          "type": "uint256"
        }
      ],
      "stateMutability": "view",
      "type": "function"
    },
    {
      "inputs": [],
      "name": "_aaveGovernance",
      "outputs": [
        {
          "internalType": "contract ITransferHook",
          "name": "",
          "type": "address"
        }
      ],
      "stateMutability": "view",
      "type": "function"
    },
    {
      "inputs": [
        {
          "internalType": "address",
          "name": "",
          "type": "address"
        }
      ],
      "name": "_countsSnapshots",
      "outputs": [
        {
          "internalType": "uint256",
          "name": "",
          "type": "uint256"
        }
      ],
      "stateMutability": "view",
      "type": "function"
    },
    {
      "inputs": [
        {
          "internalType": "address",
          "name": "",
          "type": "address"
        },
        {
          "internalType": "uint256",
          "name": "",
          "type": "uint256"
        }
      ],
      "name": "_snapshots",
      "outputs": [
        {
          "internalType": "uint128",
          "name": "blockNumber",
          "type": "uint128"
        },
        {
          "internalType": "uint128",
          "name": "value",
          "type": "uint128"
        }
      ],
      "stateMutability": "view",
      "type": "function"
    },
    {
      "inputs": [
        {
          "internalType": "address",
          "name": "owner",
          "type": "address"
        },
        {
          "internalType": "address",
          "name": "spender",
          "type": "address"
        }
      ],
      "name": "allowance",
      "outputs": [
        {
          "internalType": "uint256",
          "name": "",
          "type": "uint256"
        }
      ],
      "stateMutability": "view",
      "type": "function"
    },
    {
      "inputs": [
        {
          "internalType": "address",
          "name": "spender",
          "type": "address"
        },
        {
          "internalType": "uint256",
          "name": "amount",
          "type": "uint256"
        }
      ],
      "name": "approve",
      "outputs": [
        {
          "internalType": "bool",
          "name": "",
          "type": "bool"
        }
      ],
      "stateMutability": "nonpayable",
      "type": "function"
    },
    {
      "inputs": [
        {
          "internalType": "address",
          "name": "",
          "type": "address"
        }
      ],
      "name": "assets",
      "outputs": [
        {
          "internalType": "uint128",
          "name": "emissionPerSecond",
          "type": "uint128"
        },
        {
          "internalType": "uint128",
          "name": "lastUpdateTimestamp",
          "type": "uint128"
        },
        {
          "internalType": "uint256",
          "name": "index",
          "type": "uint256"
        }
      ],
      "stateMutability": "view",
      "type": "function"
    },
    {
      "inputs": [
        {
          "internalType": "address",
          "name": "account",
          "type": "address"
        }
      ],
      "name": "balanceOf",
      "outputs": [
        {
          "internalType": "uint256",
          "name": "",
          "type": "uint256"
        }
      ],
      "stateMutability": "view",
      "type": "function"
    },
    {
      "inputs": [
        {
          "internalType": "address",
          "name": "to",
          "type": "address"
        },
        {
          "internalType": "uint256",
          "name": "amount",
          "type": "uint256"
        }
      ],
      "name": "claimRewards",
      "outputs": [],
      "stateMutability": "nonpayable",
      "type": "function"
    },
    {
      "inputs": [
        {
          "components": [
            {
              "internalType": "uint128",
              "name": "emissionPerSecond",
              "type": "uint128"
            },
            {
              "internalType": "uint256",
              "name": "totalStaked",
              "type": "uint256"
            },
            {
              "internalType": "address",
              "name": "underlyingAsset",
              "type": "address"
            }
          ],
          "internalType": "struct DistributionTypes.AssetConfigInput[]",
          "name": "assetsConfigInput",
          "type": "tuple[]"
        }
      ],
      "name": "configureAssets",
      "outputs": [],
      "stateMutability": "nonpayable",
      "type": "function"
    },
    {
      "inputs": [],
      "name": "cooldown",
      "outputs": [],
      "stateMutability": "nonpayable",
      "type": "function"
    },
    {
      "inputs": [],
      "name": "decimals",
      "outputs": [
        {
          "internalType": "uint8",
          "name": "",
          "type": "uint8"
        }
      ],
      "stateMutability": "view",
      "type": "function"
    },
    {
      "inputs": [
        {
          "internalType": "address",
          "name": "spender",
          "type": "address"
        },
        {
          "internalType": "uint256",
          "name": "subtractedValue",
          "type": "uint256"
        }
      ],
      "name": "decreaseAllowance",
      "outputs": [
        {
          "internalType": "bool",
          "name": "",
          "type": "bool"
        }
      ],
      "stateMutability": "nonpayable",
      "type": "function"
    },
    {
      "inputs": [
        {
          "internalType": "uint256",
          "name": "fromCooldownTimestamp",
          "type": "uint256"
        },
        {
          "internalType": "uint256",
          "name": "amountToReceive",
          "type": "uint256"
        },
        {
          "internalType": "address",
          "name": "toAddress",
          "type": "address"
        },
        {
          "internalType": "uint256",
          "name": "toBalance",
          "type": "uint256"
        }
      ],
      "name": "getNextCooldownTimestamp",
      "outputs": [
        {
          "internalType": "uint256",
          "name": "",
          "type": "uint256"
        }
      ],
      "stateMutability": "view",
      "type": "function"
    },
    {
      "inputs": [
        {
          "internalType": "address",
          "name": "staker",
          "type": "address"
        }
      ],
      "name": "getTotalRewardsBalance",
      "outputs": [
        {
          "internalType": "uint256",
          "name": "",
          "type": "uint256"
        }
      ],
      "stateMutability": "view",
      "type": "function"
    },
    {
      "inputs": [
        {
          "internalType": "address",
          "name": "user",
          "type": "address"
        },
        {
          "internalType": "address",
          "name": "asset",
          "type": "address"
        }
      ],
      "name": "getUserAssetData",
      "outputs": [
        {
          "internalType": "uint256",
          "name": "",
          "type": "uint256"
        }
      ],
      "stateMutability": "view",
      "type": "function"
    },
    {
      "inputs": [
        {
          "internalType": "address",
          "name": "spender",
          "type": "address"
        },
        {
          "internalType": "uint256",
          "name": "addedValue",
          "type": "uint256"
        }
      ],
      "name": "increaseAllowance",
      "outputs": [
        {
          "internalType": "bool",
          "name": "",
          "type": "bool"
        }
      ],
      "stateMutability": "nonpayable",
      "type": "function"
    },
    {
      "inputs": [
        {
          "internalType": "contract ITransferHook",
          "name": "aaveGovernance",
          "type": "address"
        },
        {
          "internalType": "string",
          "name": "name",
          "type": "string"
        },
        {
          "internalType": "string",
          "name": "symbol",
          "type": "string"
        },
        {
          "internalType": "uint8",
          "name": "decimals",
          "type": "uint8"
        }
      ],
      "name": "initialize",
      "outputs": [],
      "stateMutability": "nonpayable",
      "type": "function"
    },
    {
      "inputs": [
        {
          "internalType": "uint256",
          "name": "",
          "type": "uint256"
        }
      ],
      "name": "lockTimestampOfUsers",
      "outputs": [
        {
          "internalType": "uint256",
          "name": "",
          "type": "uint256"
        }
      ],
      "stateMutability": "view",
      "type": "function"
    },
    {
      "inputs": [],
      "name": "name",
      "outputs": [
        {
          "internalType": "string",
          "name": "",
          "type": "string"
        }
      ],
      "stateMutability": "view",
      "type": "function"
    },
    {
      "inputs": [
        {
          "internalType": "address",
          "name": "to",
          "type": "address"
        },
        {
          "internalType": "uint256",
          "name": "amount",
          "type": "uint256"
        }
      ],
      "name": "redeem",
      "outputs": [],
      "stateMutability": "nonpayable",
      "type": "function"
    },
    {
      "inputs": [
        {
          "internalType": "address",
          "name": "onBehalfOf",
          "type": "address"
        },
        {
          "internalType": "uint256",
          "name": "amount",
          "type": "uint256"
        }
      ],
      "name": "stake",
      "outputs": [],
      "stateMutability": "nonpayable",
      "type": "function"
    },
    {
      "inputs": [
        {
          "internalType": "address",
          "name": "",
          "type": "address"
        }
      ],
      "name": "stakerRewardLockTime",
      "outputs": [
        {
          "internalType": "uint256",
          "name": "",
          "type": "uint256"
        }
      ],
      "stateMutability": "view",
      "type": "function"
    },
    {
      "inputs": [
        {
          "internalType": "address",
          "name": "",
          "type": "address"
        }
      ],
      "name": "stakerRewardsToClaim",
      "outputs": [
        {
          "internalType": "uint256",
          "name": "",
          "type": "uint256"
        }
      ],
      "stateMutability": "view",
      "type": "function"
    },
    {
      "inputs": [
        {
          "internalType": "address",
          "name": "",
          "type": "address"
        }
      ],
      "name": "stakersCooldowns",
      "outputs": [
        {
          "internalType": "uint256",
          "name": "",
          "type": "uint256"
        }
      ],
      "stateMutability": "view",
      "type": "function"
    },
    {
      "inputs": [],
      "name": "symbol",
      "outputs": [
        {
          "internalType": "string",
          "name": "",
          "type": "string"
        }
      ],
      "stateMutability": "view",
      "type": "function"
    },
    {
      "inputs": [
        {
          "internalType": "uint256",
          "name": "",
          "type": "uint256"
        }
      ],
      "name": "timestampToIndexOfUsers",
      "outputs": [
        {
          "internalType": "uint256",
          "name": "",
          "type": "uint256"
        }
      ],
      "stateMutability": "view",
      "type": "function"
    },
    {
      "inputs": [],
      "name": "totalSupply",
      "outputs": [
        {
          "internalType": "uint256",
          "name": "",
          "type": "uint256"
        }
      ],
      "stateMutability": "view",
      "type": "function"
    },
    {
      "inputs": [
        {
          "internalType": "address",
          "name": "recipient",
          "type": "address"
        },
        {
          "internalType": "uint256",
          "name": "amount",
          "type": "uint256"
        }
      ],
      "name": "transfer",
      "outputs": [
        {
          "internalType": "bool",
          "name": "",
          "type": "bool"
        }
      ],
      "stateMutability": "nonpayable",
      "type": "function"
    },
    {
      "inputs": [
        {
          "internalType": "address",
          "name": "sender",
          "type": "address"
        },
        {
          "internalType": "address",
          "name": "recipient",
          "type": "address"
        },
        {
          "internalType": "uint256",
          "name": "amount",
          "type": "uint256"
        }
      ],
      "name": "transferFrom",
      "outputs": [
        {
          "internalType": "bool",
          "name": "",
          "type": "bool"
        }
      ],
      "stateMutability": "nonpayable",
      "type": "function"
    }
  ],
  "bytecode": "0x610180604052600060095562093a80610120908152503480156200002257600080fd5b50604051620051d6380380620051d68339818101604052810190620000489190620003ee565b868686868686866040518060400160405280600b81526020017f5374616b656420416176650000000000000000000000000000000000000000008152506040518060400160405280600781526020017f73746b4141564500000000000000000000000000000000000000000000000000815250601284846fffffffffffffffffffffffffffffffff168484848282828260039080519060200190620000ef929190620002dc565b50816004908051906020019062000108929190620002dc565b5080600560006101000a81548160ff021916908360ff1602179055505050505050506200014481426200025360201b6200208f1790919060201c565b608081815250508173ffffffffffffffffffffffffffffffffffffffff1660a08173ffffffffffffffffffffffffffffffffffffffff1660601b8152505050508973ffffffffffffffffffffffffffffffffffffffff1660c08173ffffffffffffffffffffffffffffffffffffffff1660601b815250508873ffffffffffffffffffffffffffffffffffffffff1660e08173ffffffffffffffffffffffffffffffffffffffff1660601b815250508761010081815250508661014081815250508573ffffffffffffffffffffffffffffffffffffffff166101608173ffffffffffffffffffffffffffffffffffffffff1660601b81525050505050505050505050505050505050505062000571565b600080828401905083811015620002d2576040517f08c379a000000000000000000000000000000000000000000000000000000000815260040180806020018281038252601b8152602001807f536166654d6174683a206164646974696f6e206f766572666c6f77000000000081525060200191505060405180910390fd5b8091505092915050565b828054600181600116156101000203166002900490600052602060002090601f01602090048101928262000314576000855562000360565b82601f106200032f57805160ff191683800117855562000360565b8280016001018555821562000360579182015b828111156200035f57825182559160200191906001019062000342565b5b5090506200036f919062000373565b5090565b5b808211156200038e57600081600090555060010162000374565b5090565b600081519050620003a38162000509565b92915050565b600081519050620003ba8162000523565b92915050565b600081519050620003d1816200053d565b92915050565b600081519050620003e88162000557565b92915050565b600080600080600080600060e0888a0312156200040a57600080fd5b60006200041a8a828b01620003a9565b97505060206200042d8a828b01620003a9565b9650506040620004408a828b01620003d7565b9550506060620004538a828b01620003d7565b9450506080620004668a828b0162000392565b93505060a0620004798a828b0162000392565b92505060c06200048c8a828b01620003c0565b91505092959891949750929550565b6000620004a882620004df565b9050919050565b6000620004bc826200049b565b9050919050565b60006fffffffffffffffffffffffffffffffff82169050919050565b600073ffffffffffffffffffffffffffffffffffffffff82169050919050565b6000819050919050565b62000514816200049b565b81146200052057600080fd5b50565b6200052e81620004af565b81146200053a57600080fd5b50565b6200054881620004c3565b81146200055457600080fd5b50565b6200056281620004ff565b81146200056e57600080fd5b50565b60805160a05160601c60c05160601c60e05160601c6101005161012051610140516101605160601c614ba16200063560003980611359528061151e5250806109dd5280610e1d5280611e67525080610ef452806118a7528061191f52508061096c5280610a045280610f9c5280611e8b52508061141f5280611541525080610b215280610d5852806119d5525080611a875280611cf8525080611335528061292a5280612970528061299d5280613a325280613a785280613aa55250614ba16000f3fe608060405234801561001057600080fd5b506004361061023d5760003560e01c80637fe696b61161013b578063aaf5eb68116100b8578063dd62ed3e1161007c578063dd62ed3e14610731578063dde43cba14610761578063f11b81881461077f578063f1cc432a146107b1578063f6d2ee86146107e15761023d565b8063aaf5eb681461069f578063adc9772e146106bd578063b2a5dbfa146106d9578063c3863ada146106f5578063cbcbb507146107135761023d565b806395d89b41116100ff57806395d89b41146105e757806399248ea7146106055780639a99b4f014610623578063a457c2d71461063f578063a9059cbb1461066f5761023d565b80637fe696b61461051b5780638779588c1461054b5780638dbefee21461057b578063919cd40f146105ab578063946776cd146105c95761023d565b80633373ee4c116101c95780634781dbb71161018d5780634781dbb71461046357806370a082311461049357806372b49d63146104c3578063787a08a6146104e15780637e90d7ef146104eb5761023d565b80633373ee4c14610397578063359c4a96146103c757806339509351146103e5578063413d9c3a14610415578063454a03cf146104335761023d565b80631e9a6950116102105780631e9a6950146102de57806323b872dd146102fa5780632acbf8231461032a578063312f6b831461035b578063313ce567146103795761023d565b806306fdde0314610242578063091030c314610260578063095ea7b31461029057806318160ddd146102c0575b600080fd5b61024a6107fd565b604051610257919061466b565b60405180910390f35b61027a60048036038101906102759190614120565b61089f565b60405161028791906147c8565b60405180910390f35b6102aa60048036038101906102a591906141d4565b6108b7565b6040516102b7919061461a565b60405180910390f35b6102c86108d5565b6040516102d591906147c8565b60405180910390f35b6102f860048036038101906102f391906141d4565b6108df565b005b610314600480360381019061030f9190614185565b610c14565b604051610321919061461a565b60405180910390f35b610344600480360381019061033f91906141d4565b610ced565b604051610352929190614768565b60405180910390f35b610363610d56565b6040516103709190614635565b60405180910390f35b610381610d7a565b60405161038e91906147e3565b60405180910390f35b6103b160048036038101906103ac9190614149565b610d91565b6040516103be91906147c8565b60405180910390f35b6103cf610e1b565b6040516103dc91906147c8565b60405180910390f35b6103ff60048036038101906103fa91906141d4565b610e3f565b60405161040c919061461a565b60405180910390f35b61041d610ef2565b60405161042a91906147c8565b60405180910390f35b61044d60048036038101906104489190614120565b610f16565b60405161045a91906147c8565b60405180910390f35b61047d60048036038101906104789190614319565b610f2e565b60405161048a91906147c8565b60405180910390f35b6104ad60048036038101906104a89190614120565b610f52565b6040516104ba91906147c8565b60405180910390f35b6104cb610f9a565b6040516104d891906147c8565b60405180910390f35b6104e9610fbe565b005b61050560048036038101906105009190614120565b611093565b60405161051291906147c8565b60405180910390f35b61053560048036038101906105309190614319565b6110ab565b60405161054291906147c8565b60405180910390f35b61056560048036038101906105609190614120565b6110c3565b60405161057291906147c8565b60405180910390f35b61059560048036038101906105909190614120565b6110db565b6040516105a291906147c8565b60405180910390f35b6105b3611333565b6040516105c091906147c8565b60405180910390f35b6105d1611357565b6040516105de91906145d6565b60405180910390f35b6105ef61137b565b6040516105fc919061466b565b60405180910390f35b61060d61141d565b60405161061a9190614635565b60405180910390f35b61063d600480360381019061063891906141d4565b611441565b005b610659600480360381019061065491906141d4565b6115f1565b604051610666919061461a565b60405180910390f35b610689600480360381019061068491906141d4565b6116be565b604051610696919061461a565b60405180910390f35b6106a76116dc565b6040516106b491906147e3565b60405180910390f35b6106d760048036038101906106d291906141d4565b6116e1565b005b6106f360048036038101906106ee9190614210565b611a85565b005b6106fd611cd0565b60405161070a9190614650565b60405180910390f35b61071b611cf6565b60405161072891906145d6565b60405180910390f35b61074b60048036038101906107469190614149565b611d1a565b60405161075891906147c8565b60405180910390f35b610769611da1565b60405161077691906147c8565b60405180910390f35b61079960048036038101906107949190614120565b611da6565b6040516107a893929190614791565b60405180910390f35b6107cb60048036038101906107c69190614342565b611e08565b6040516107d891906147c8565b60405180910390f35b6107fb60048036038101906107f69190614255565b611f6d565b005b606060038054600181600116156101000203166002900480601f0160208091040260200160405190810160405280929190818152602001828054600181600116156101000203166002900480156108955780601f1061086a57610100808354040283529160200191610895565b820191906000526020600020905b81548152906001019060200180831161087857829003601f168201915b5050505050905090565b603e6020528060005260406000206000915090505481565b60006108cb6108c4612117565b848461211f565b6001905092915050565b6000600254905090565b6000811415610923576040517f08c379a000000000000000000000000000000000000000000000000000000000815260040161091a9061468d565b60405180910390fd5b6000603e60003373ffffffffffffffffffffffffffffffffffffffff1673ffffffffffffffffffffffffffffffffffffffff16815260200190815260200160002054905061099a7f00000000000000000000000000000000000000000000000000000000000000008261208f90919063ffffffff16565b42116109db576040517f08c379a00000000000000000000000000000000000000000000000000000000081526004016109d2906146ad565b60405180910390fd5b7f0000000000000000000000000000000000000000000000000000000000000000610a41610a327f00000000000000000000000000000000000000000000000000000000000000008461208f90919063ffffffff16565b4261231690919063ffffffff16565b1115610a82576040517f08c379a0000000000000000000000000000000000000000000000000000000008152600401610a799061470d565b60405180910390fd5b6000610a8d33610f52565b90506000818411610a9e5783610aa0565b815b9050610aae33836001612360565b50610ab93382612467565b6000610ace828461231690919063ffffffff16565b1415610b1a576000603e60003373ffffffffffffffffffffffffffffffffffffffff1673ffffffffffffffffffffffffffffffffffffffff168152602001908152602001600020819055505b610b6585827f000000000000000000000000000000000000000000000000000000000000000073ffffffffffffffffffffffffffffffffffffffff1661262b9092919063ffffffff16565b604060003373ffffffffffffffffffffffffffffffffffffffff1673ffffffffffffffffffffffffffffffffffffffff168152602001908152602001600020600090558473ffffffffffffffffffffffffffffffffffffffff163373ffffffffffffffffffffffffffffffffffffffff167fd12200efa34901b99367694174c3b0d32c99585fdf37c7c26892136ddd0836d983604051610c0591906147c8565b60405180910390a35050505050565b6000610c218484846126cd565b610ce284610c2d612117565b610cdd85604051806060016040528060288152602001614a5d60289139600160008b73ffffffffffffffffffffffffffffffffffffffff1673ffffffffffffffffffffffffffffffffffffffff1681526020019081526020016000206000610c93612117565b73ffffffffffffffffffffffffffffffffffffffff1673ffffffffffffffffffffffffffffffffffffffff168152602001908152602001600020546128369092919063ffffffff16565b61211f565b600190509392505050565b6006602052816000526040600020602052806000526040600020600091509150508060000160009054906101000a90046fffffffffffffffffffffffffffffffff16908060000160109054906101000a90046fffffffffffffffffffffffffffffffff16905082565b7f000000000000000000000000000000000000000000000000000000000000000081565b6000600560009054906101000a900460ff16905090565b6000603c60008373ffffffffffffffffffffffffffffffffffffffff1673ffffffffffffffffffffffffffffffffffffffff16815260200190815260200160002060020160008473ffffffffffffffffffffffffffffffffffffffff1673ffffffffffffffffffffffffffffffffffffffff16815260200190815260200160002054905092915050565b7f000000000000000000000000000000000000000000000000000000000000000081565b6000610ee8610e4c612117565b84610ee38560016000610e5d612117565b73ffffffffffffffffffffffffffffffffffffffff1673ffffffffffffffffffffffffffffffffffffffff16815260200190815260200160002060008973ffffffffffffffffffffffffffffffffffffffff1673ffffffffffffffffffffffffffffffffffffffff1681526020019081526020016000205461208f90919063ffffffff16565b61211f565b6001905092915050565b7f000000000000000000000000000000000000000000000000000000000000000081565b60406020528060005260406000206000915090505481565b603f8181548110610f3e57600080fd5b906000526020600020016000915090505481565b60008060008373ffffffffffffffffffffffffffffffffffffffff1673ffffffffffffffffffffffffffffffffffffffff168152602001908152602001600020549050919050565b7f000000000000000000000000000000000000000000000000000000000000000081565b6000610fc933610f52565b141561100a576040517f08c379a00000000000000000000000000000000000000000000000000000000081526004016110019061472d565b60405180910390fd5b42603e60003373ffffffffffffffffffffffffffffffffffffffff1673ffffffffffffffffffffffffffffffffffffffff168152602001908152602001600020819055503373ffffffffffffffffffffffffffffffffffffffff167ff52f50426b32362d3e6bb8cb36b7074756b224622def6352a59eac7f66ebe6e860405160405180910390a2565b603d6020528060005260406000206000915090505481565b60416020528060005260406000206000915090505481565b60076020528060005260406000206000915090505481565b600080603c60003073ffffffffffffffffffffffffffffffffffffffff1673ffffffffffffffffffffffffffffffffffffffff168152602001908152602001600020905060008060416000604060008873ffffffffffffffffffffffffffffffffffffffff1673ffffffffffffffffffffffffffffffffffffffff1681526020019081526020016000205481526020019081526020016000205414156112295761122482600101548360000160009054906101000a90046fffffffffffffffffffffffffffffffff166fffffffffffffffffffffffffffffffff168460000160109054906101000a90046fffffffffffffffffffffffffffffffff166111df6108d5565b604060008a73ffffffffffffffffffffffffffffffffffffffff1673ffffffffffffffffffffffffffffffffffffffff168152602001908152602001600020546128f6565b61127d565b60416000604060008773ffffffffffffffffffffffffffffffffffffffff1673ffffffffffffffffffffffffffffffffffffffff168152602001908152602001600020548152602001908152602001600020545b905060006112d561128d86610f52565b838560020160008973ffffffffffffffffffffffffffffffffffffffff1673ffffffffffffffffffffffffffffffffffffffff16815260200190815260200160002054612a46565b905061132981603d60008873ffffffffffffffffffffffffffffffffffffffff1673ffffffffffffffffffffffffffffffffffffffff1681526020019081526020016000205461208f90919063ffffffff16565b9350505050919050565b7f000000000000000000000000000000000000000000000000000000000000000081565b7f000000000000000000000000000000000000000000000000000000000000000081565b606060048054600181600116156101000203166002900480601f0160208091040260200160405190810160405280929190818152602001828054600181600116156101000203166002900480156114135780601f106113e857610100808354040283529160200191611413565b820191906000526020600020905b8154815290600101906020018083116113f657829003601f168201915b5050505050905090565b7f000000000000000000000000000000000000000000000000000000000000000081565b60006114573361145033610f52565b6000612360565b905060007fffffffffffffffffffffffffffffffffffffffffffffffffffffffffffffffff8314611488578261148a565b815b90506114d6816040518060400160405280600e81526020017f494e56414c49445f414d4f554e54000000000000000000000000000000000000815250846128369092919063ffffffff16565b603d60003373ffffffffffffffffffffffffffffffffffffffff1673ffffffffffffffffffffffffffffffffffffffff168152602001908152602001600020819055506115867f000000000000000000000000000000000000000000000000000000000000000085837f000000000000000000000000000000000000000000000000000000000000000073ffffffffffffffffffffffffffffffffffffffff16612a8f909392919063ffffffff16565b8373ffffffffffffffffffffffffffffffffffffffff163373ffffffffffffffffffffffffffffffffffffffff167f9310ccfcb8de723f578a9e4282ea9f521f05ae40dc08f3068dfad528a65ee3c7836040516115e391906147c8565b60405180910390a350505050565b60006116b46115fe612117565b846116af85604051806060016040528060258152602001614b476025913960016000611628612117565b73ffffffffffffffffffffffffffffffffffffffff1673ffffffffffffffffffffffffffffffffffffffff16815260200190815260200160002060008a73ffffffffffffffffffffffffffffffffffffffff1673ffffffffffffffffffffffffffffffffffffffff168152602001908152602001600020546128369092919063ffffffff16565b61211f565b6001905092915050565b60006116d26116cb612117565b84846126cd565b6001905092915050565b601281565b6000811415611725576040517f08c379a000000000000000000000000000000000000000000000000000000000815260040161171c9061468d565b60405180910390fd5b6000604060003373ffffffffffffffffffffffffffffffffffffffff1673ffffffffffffffffffffffffffffffffffffffff16815260200190815260200160002054146117a7576040517f08c379a000000000000000000000000000000000000000000000000000000000815260040161179e906146cd565b60405180910390fd5b60006117b283610f52565b905060006117c98430846117c46108d5565b612b50565b9050600081146118a2577f2468f9268c60ad90e2d49edb0032c8a001e733ae888b3ab8e982edf535be1a7684826040516118049291906145f1565b60405180910390a161185e81603d60008773ffffffffffffffffffffffffffffffffffffffff1673ffffffffffffffffffffffffffffffffffffffff1681526020019081526020016000205461208f90919063ffffffff16565b603d60008673ffffffffffffffffffffffffffffffffffffffff1673ffffffffffffffffffffffffffffffffffffffff168152602001908152602001600020819055505b6118d57f00000000000000000000000000000000000000000000000000000000000000004261208f90919063ffffffff16565b604060003373ffffffffffffffffffffffffffffffffffffffff1673ffffffffffffffffffffffffffffffffffffffff16815260200190815260200160002081905550603f61194d7f00000000000000000000000000000000000000000000000000000000000000004261208f90919063ffffffff16565b90806001815401808255809150506001900390600052602060002001600090919091909150556119806000848685611e08565b603e60008673ffffffffffffffffffffffffffffffffffffffff1673ffffffffffffffffffffffffffffffffffffffff168152602001908152602001600020819055506119cd8484612d5f565b611a1a3330857f000000000000000000000000000000000000000000000000000000000000000073ffffffffffffffffffffffffffffffffffffffff16612a8f909392919063ffffffff16565b8373ffffffffffffffffffffffffffffffffffffffff163373ffffffffffffffffffffffffffffffffffffffff167f5dac0c1b1112564a045ba943c9d50270893e8e826c49be8e7073adc713ab7bd785604051611a7791906147c8565b60405180910390a350505050565b7f000000000000000000000000000000000000000000000000000000000000000073ffffffffffffffffffffffffffffffffffffffff163373ffffffffffffffffffffffffffffffffffffffff1614611b13576040517f08c379a0000000000000000000000000000000000000000000000000000000008152600401611b0a906146ed565b60405180910390fd5b60005b82829050811015611ccb576000603c6000858585818110611b3357fe5b9050606002016040016020810190611b4b9190614120565b73ffffffffffffffffffffffffffffffffffffffff1673ffffffffffffffffffffffffffffffffffffffff1681526020019081526020016000209050611bca848484818110611b9657fe5b9050606002016040016020810190611bae9190614120565b82868686818110611bbb57fe5b90506060020160200135612f26565b50838383818110611bd757fe5b9050606002016000016020810190611bef91906142f0565b8160000160006101000a8154816fffffffffffffffffffffffffffffffff02191690836fffffffffffffffffffffffffffffffff160217905550838383818110611c3557fe5b9050606002016040016020810190611c4d9190614120565b73ffffffffffffffffffffffffffffffffffffffff167f87fa03892a0556cb6b8f97e6d533a150d4d55fcbf275fff5fa003fa636bcc7fa858585818110611c9057fe5b9050606002016000016020810190611ca891906142f0565b604051611cb5919061474d565b60405180910390a2508080600101915050611b16565b505050565b600860009054906101000a900473ffffffffffffffffffffffffffffffffffffffff1681565b7f000000000000000000000000000000000000000000000000000000000000000081565b6000600160008473ffffffffffffffffffffffffffffffffffffffff1673ffffffffffffffffffffffffffffffffffffffff16815260200190815260200160002060008373ffffffffffffffffffffffffffffffffffffffff1673ffffffffffffffffffffffffffffffffffffffff16815260200190815260200160002054905092915050565b600181565b603c6020528060005260406000206000915090508060000160009054906101000a90046fffffffffffffffffffffffffffffffff16908060000160109054906101000a90046fffffffffffffffffffffffffffffffff16908060010154905083565b600080603e60008573ffffffffffffffffffffffffffffffffffffffff1673ffffffffffffffffffffffffffffffffffffffff1681526020019081526020016000205490506000811415611e60576000915050611f65565b6000611ec77f0000000000000000000000000000000000000000000000000000000000000000611eb97f00000000000000000000000000000000000000000000000000000000000000004261231690919063ffffffff16565b61231690919063ffffffff16565b905081811115611eda5760009150611f5f565b6000878211611ee95787611eeb565b425b905082811015611f0057829350505050611f65565b611f5b611f16868961208f90919063ffffffff16565b611f4d611f2c868961318090919063ffffffff16565b611f3f858c61318090919063ffffffff16565b61208f90919063ffffffff16565b61320690919063ffffffff16565b9250505b81925050505b949350505050565b6000611f77613250565b90506009548111611fd3576040517f08c379a000000000000000000000000000000000000000000000000000000000815260040180806020018281038252602e815260200180614a85602e913960400191505060405180910390fd5b8060098190555061202786868080601f016020809104026020016040519081016040528093929190818152602001838380828437600081840152601f19601f82011690508083019250505050505050613259565b61207484848080601f016020809104026020016040519081016040528093929190818152602001838380828437600081840152601f19601f82011690508083019250505050505050613273565b61207d8261328d565b612086876132ab565b50505050505050565b60008082840190508381101561210d576040517f08c379a000000000000000000000000000000000000000000000000000000000815260040180806020018281038252601b8152602001807f536166654d6174683a206164646974696f6e206f766572666c6f77000000000081525060200191505060405180910390fd5b8091505092915050565b600033905090565b600073ffffffffffffffffffffffffffffffffffffffff168373ffffffffffffffffffffffffffffffffffffffff1614156121a5576040517f08c379a0000000000000000000000000000000000000000000000000000000008152600401808060200182810382526024815260200180614af96024913960400191505060405180910390fd5b600073ffffffffffffffffffffffffffffffffffffffff168273ffffffffffffffffffffffffffffffffffffffff16141561222b576040517f08c379a00000000000000000000000000000000000000000000000000000000081526004018080602001828103825260228152602001806149f46022913960400191505060405180910390fd5b80600160008573ffffffffffffffffffffffffffffffffffffffff1673ffffffffffffffffffffffffffffffffffffffff16815260200190815260200160002060008473ffffffffffffffffffffffffffffffffffffffff1673ffffffffffffffffffffffffffffffffffffffff168152602001908152602001600020819055508173ffffffffffffffffffffffffffffffffffffffff168373ffffffffffffffffffffffffffffffffffffffff167f8c5be1e5ebec7d5bd14f71427d1e84f3dd0314c0f7b2291e5b200ac8c7c3b925836040518082815260200191505060405180910390a3505050565b600061235883836040518060400160405280601e81526020017f536166654d6174683a207375627472616374696f6e206f766572666c6f770000815250612836565b905092915050565b6000806123768530866123716108d5565b612b50565b905060006123cc82603d60008973ffffffffffffffffffffffffffffffffffffffff1673ffffffffffffffffffffffffffffffffffffffff1681526020019081526020016000205461208f90919063ffffffff16565b90506000821461245b5783156124215780603d60008873ffffffffffffffffffffffffffffffffffffffff1673ffffffffffffffffffffffffffffffffffffffff168152602001908152602001600020819055505b7f2468f9268c60ad90e2d49edb0032c8a001e733ae888b3ab8e982edf535be1a7686836040516124529291906145f1565b60405180910390a15b80925050509392505050565b600073ffffffffffffffffffffffffffffffffffffffff168273ffffffffffffffffffffffffffffffffffffffff1614156124ed576040517f08c379a0000000000000000000000000000000000000000000000000000000008152600401808060200182810382526021815260200180614ab36021913960400191505060405180910390fd5b6124f9826000836132ef565b612564816040518060600160405280602281526020016149d2602291396000808673ffffffffffffffffffffffffffffffffffffffff1673ffffffffffffffffffffffffffffffffffffffff168152602001908152602001600020546128369092919063ffffffff16565b6000808473ffffffffffffffffffffffffffffffffffffffff1673ffffffffffffffffffffffffffffffffffffffff168152602001908152602001600020819055506125bb8160025461231690919063ffffffff16565b600281905550600073ffffffffffffffffffffffffffffffffffffffff168273ffffffffffffffffffffffffffffffffffffffff167fddf252ad1be2c89b69c2b068fc378daa952ba7f163c4a11628f55a4df523b3ef836040518082815260200191505060405180910390a35050565b6126c88363a9059cbb60e01b8484604051602401808373ffffffffffffffffffffffffffffffffffffffff16815260200182815260200192505050604051602081830303815290604052907bffffffffffffffffffffffffffffffffffffffffffffffffffffffff19166020820180517bffffffffffffffffffffffffffffffffffffffffffffffffffffffff83818316178352505050506134f2565b505050565b60006126d884610f52565b90506126e684826001612360565b508273ffffffffffffffffffffffffffffffffffffffff168473ffffffffffffffffffffffffffffffffffffffff161461282557600061272584610f52565b905061273384826001612360565b506000603e60008773ffffffffffffffffffffffffffffffffffffffff1673ffffffffffffffffffffffffffffffffffffffff16815260200190815260200160002054905061278481858785611e08565b603e60008773ffffffffffffffffffffffffffffffffffffffff1673ffffffffffffffffffffffffffffffffffffffff1681526020019081526020016000208190555083831480156127d7575060008114155b15612822576000603e60008873ffffffffffffffffffffffffffffffffffffffff1673ffffffffffffffffffffffffffffffffffffffff168152602001908152602001600020819055505b50505b61283084848461373d565b50505050565b60008383111582906128e3576040517f08c379a00000000000000000000000000000000000000000000000000000000081526004018080602001828103825283818151815260200191508051906020019080838360005b838110156128a857808201518184015260208101905061288d565b50505050905090810190601f1680156128d55780820380516001836020036101000a031916815260200191505b509250505060405180910390fd5b5060008385039050809150509392505050565b6000808514806129065750600083145b80612922575081846fffffffffffffffffffffffffffffffff16145b8061295f57507f0000000000000000000000000000000000000000000000000000000000000000846fffffffffffffffffffffffffffffffff1610155b1561296c57859050612a3d565b60007f0000000000000000000000000000000000000000000000000000000000000000831161299b57826129bd565b7f00000000000000000000000000000000000000000000000000000000000000005b905060006129e6866fffffffffffffffffffffffffffffffff168361231690919063ffffffff16565b9050612a3888612a2a87612a1c601260ff16600a0a612a0e878e61318090919063ffffffff16565b61318090919063ffffffff16565b61320690919063ffffffff16565b61208f90919063ffffffff16565b925050505b95945050505050565b6000612a86601260ff16600a0a612a78612a69858761231690919063ffffffff16565b8761318090919063ffffffff16565b61320690919063ffffffff16565b90509392505050565b612b4a846323b872dd60e01b858585604051602401808473ffffffffffffffffffffffffffffffffffffffff1681526020018373ffffffffffffffffffffffffffffffffffffffff1681526020018281526020019350505050604051602081830303815290604052907bffffffffffffffffffffffffffffffffffffffffffffffffffffffff19166020820180517bffffffffffffffffffffffffffffffffffffffffffffffffffffffff83818316178352505050506134f2565b50505050565b600080603c60008673ffffffffffffffffffffffffffffffffffffffff1673ffffffffffffffffffffffffffffffffffffffff168152602001908152602001600020905060008160020160008873ffffffffffffffffffffffffffffffffffffffff1673ffffffffffffffffffffffffffffffffffffffff16815260200190815260200160002054905060008080604060008b73ffffffffffffffffffffffffffffffffffffffff1673ffffffffffffffffffffffffffffffffffffffff1681526020019081526020016000205414158015612c425750603f8381548110612c3457fe5b906000526020600020015442115b15612c795760416000603f8581548110612c5857fe5b90600052602060002001548152602001908152602001600020549050612c87565b612c84888588612f26565b90505b808314612d505760008714612ca457612ca1878285612a46565b91505b808460020160008b73ffffffffffffffffffffffffffffffffffffffff1673ffffffffffffffffffffffffffffffffffffffff168152602001908152602001600020819055508773ffffffffffffffffffffffffffffffffffffffff168973ffffffffffffffffffffffffffffffffffffffff167fbb123b5c06d5408bbea3c4fef481578175cfb432e3b482c6186f02ed9086585b83604051612d4791906147c8565b60405180910390a35b81945050505050949350505050565b600073ffffffffffffffffffffffffffffffffffffffff168273ffffffffffffffffffffffffffffffffffffffff161415612e02576040517f08c379a000000000000000000000000000000000000000000000000000000000815260040180806020018281038252601f8152602001807f45524332303a206d696e7420746f20746865207a65726f20616464726573730081525060200191505060405180910390fd5b612e0e600083836132ef565b612e238160025461208f90919063ffffffff16565b600281905550612e7a816000808573ffffffffffffffffffffffffffffffffffffffff1673ffffffffffffffffffffffffffffffffffffffff1681526020019081526020016000205461208f90919063ffffffff16565b6000808473ffffffffffffffffffffffffffffffffffffffff1673ffffffffffffffffffffffffffffffffffffffff168152602001908152602001600020819055508173ffffffffffffffffffffffffffffffffffffffff16600073ffffffffffffffffffffffffffffffffffffffff167fddf252ad1be2c89b69c2b068fc378daa952ba7f163c4a11628f55a4df523b3ef836040518082815260200191505060405180910390a35050565b6000808360010154905060008460000160109054906101000a90046fffffffffffffffffffffffffffffffff16905060005b603f805490508110156130715742603f8281548110612f7357fe5b906000526020600020015411158015612fb65750600060416000603f8481548110612f9a57fe5b9060005260206000200154815260200190815260200160002054145b1561306457613011838760000160009054906101000a90046fffffffffffffffffffffffffffffffff166fffffffffffffffffffffffffffffffff168488603f868154811061300157fe5b90600052602060002001546128f6565b60416000603f848154811061302257fe5b906000526020600020015481526020019081526020016000208190555042603f828154811061304d57fe5b9060005260206000200154111561306357613071565b5b8080600101915050612f58565b50806fffffffffffffffffffffffffffffffff16421415613096578192505050613179565b60006130d6838760000160009054906101000a90046fffffffffffffffffffffffffffffffff166fffffffffffffffffffffffffffffffff1684886139fe565b9050828114613137578086600101819055508673ffffffffffffffffffffffffffffffffffffffff167f5777ca300dfe5bead41006fbce4389794dbc0ed8d6cccebfaf94630aa04184bc8260405161312e91906147c8565b60405180910390a25b428660000160106101000a8154816fffffffffffffffffffffffffffffffff02191690836fffffffffffffffffffffffffffffffff1602179055508093505050505b9392505050565b6000808314156131935760009050613200565b60008284029050828482816131a457fe5b04146131fb576040517f08c379a0000000000000000000000000000000000000000000000000000000008152600401808060200182810382526021815260200180614a3c6021913960400191505060405180910390fd5b809150505b92915050565b600061324883836040518060400160405280601a81526020017f536166654d6174683a206469766973696f6e206279207a65726f000000000000815250613b4d565b905092915050565b60006001905090565b806003908051906020019061326f929190613f78565b5050565b8060049080519060200190613289929190613f78565b5050565b80600560006101000a81548160ff021916908360ff16021790555050565b80600860006101000a81548173ffffffffffffffffffffffffffffffffffffffff021916908373ffffffffffffffffffffffffffffffffffffffff16021790555050565b8173ffffffffffffffffffffffffffffffffffffffff168373ffffffffffffffffffffffffffffffffffffffff161415613328576134ed565b600073ffffffffffffffffffffffffffffffffffffffff168373ffffffffffffffffffffffffffffffffffffffff161461338857600061336784610f52565b90506133868482613381858561231690919063ffffffff16565b613c13565b505b600073ffffffffffffffffffffffffffffffffffffffff168273ffffffffffffffffffffffffffffffffffffffff16146133e85760006133c783610f52565b90506133e683826133e1858561208f90919063ffffffff16565b613c13565b505b6000600860009054906101000a900473ffffffffffffffffffffffffffffffffffffffff169050600073ffffffffffffffffffffffffffffffffffffffff168173ffffffffffffffffffffffffffffffffffffffff16146134eb578073ffffffffffffffffffffffffffffffffffffffff16634a3931498585856040518463ffffffff1660e01b8152600401808473ffffffffffffffffffffffffffffffffffffffff1681526020018373ffffffffffffffffffffffffffffffffffffffff1681526020018281526020019350505050600060405180830381600087803b1580156134d257600080fd5b505af11580156134e6573d6000803e3d6000fd5b505050505b505b505050565b6135118273ffffffffffffffffffffffffffffffffffffffff16613f2d565b613583576040517f08c379a000000000000000000000000000000000000000000000000000000000815260040180806020018281038252601f8152602001807f5361666545524332303a2063616c6c20746f206e6f6e2d636f6e74726163740081525060200191505060405180910390fd5b600060608373ffffffffffffffffffffffffffffffffffffffff16836040518082805190602001908083835b602083106135d257805182526020820191506020810190506020830392506135af565b6001836020036101000a0380198251168184511680821785525050505050509050019150506000604051808303816000865af19150503d8060008114613634576040519150601f19603f3d011682016040523d82523d6000602084013e613639565b606091505b5091509150816136b1576040517f08c379a00000000000000000000000000000000000000000000000000000000081526004018080602001828103825260208152602001807f5361666545524332303a206c6f772d6c6576656c2063616c6c206661696c656481525060200191505060405180910390fd5b600081511115613737578080602001905160208110156136d057600080fd5b8101908080519060200190929190505050613736576040517f08c379a000000000000000000000000000000000000000000000000000000000815260040180806020018281038252602a815260200180614b1d602a913960400191505060405180910390fd5b5b50505050565b600073ffffffffffffffffffffffffffffffffffffffff168373ffffffffffffffffffffffffffffffffffffffff1614156137c3576040517f08c379a0000000000000000000000000000000000000000000000000000000008152600401808060200182810382526025815260200180614ad46025913960400191505060405180910390fd5b600073ffffffffffffffffffffffffffffffffffffffff168273ffffffffffffffffffffffffffffffffffffffff161415613849576040517f08c379a00000000000000000000000000000000000000000000000000000000081526004018080602001828103825260238152602001806149af6023913960400191505060405180910390fd5b6138548383836132ef565b6138bf81604051806060016040528060268152602001614a16602691396000808773ffffffffffffffffffffffffffffffffffffffff1673ffffffffffffffffffffffffffffffffffffffff168152602001908152602001600020546128369092919063ffffffff16565b6000808573ffffffffffffffffffffffffffffffffffffffff1673ffffffffffffffffffffffffffffffffffffffff16815260200190815260200160002081905550613952816000808573ffffffffffffffffffffffffffffffffffffffff1673ffffffffffffffffffffffffffffffffffffffff1681526020019081526020016000205461208f90919063ffffffff16565b6000808473ffffffffffffffffffffffffffffffffffffffff1673ffffffffffffffffffffffffffffffffffffffff168152602001908152602001600020819055508173ffffffffffffffffffffffffffffffffffffffff168373ffffffffffffffffffffffffffffffffffffffff167fddf252ad1be2c89b69c2b068fc378daa952ba7f163c4a11628f55a4df523b3ef836040518082815260200191505060405180910390a3505050565b600080841480613a0e5750600082145b80613a2a575042836fffffffffffffffffffffffffffffffff16145b80613a6757507f0000000000000000000000000000000000000000000000000000000000000000836fffffffffffffffffffffffffffffffff1610155b15613a7457849050613b45565b60007f00000000000000000000000000000000000000000000000000000000000000004211613aa35742613ac5565b7f00000000000000000000000000000000000000000000000000000000000000005b90506000613aee856fffffffffffffffffffffffffffffffff168361231690919063ffffffff16565b9050613b4087613b3286613b24601260ff16600a0a613b16878d61318090919063ffffffff16565b61318090919063ffffffff16565b61320690919063ffffffff16565b61208f90919063ffffffff16565b925050505b949350505050565b60008083118290613bf9576040517f08c379a00000000000000000000000000000000000000000000000000000000081526004018080602001828103825283818151815260200191508051906020019080838360005b83811015613bbe578082015181840152602081019050613ba3565b50505050905090810190601f168015613beb5780820380516001836020036101000a031916815260200191505b509250505060405180910390fd5b506000838581613c0557fe5b049050809150509392505050565b60004390506000600760008673ffffffffffffffffffffffffffffffffffffffff1673ffffffffffffffffffffffffffffffffffffffff1681526020019081526020016000205490506000600660008773ffffffffffffffffffffffffffffffffffffffff1673ffffffffffffffffffffffffffffffffffffffff168152602001908152602001600020905060008214158015613d175750826fffffffffffffffffffffffffffffffff16816000613cd560018661231690919063ffffffff16565b815260200190815260200160002060000160009054906101000a90046fffffffffffffffffffffffffffffffff166fffffffffffffffffffffffffffffffff16145b15613d805783816000613d3460018661231690919063ffffffff16565b815260200190815260200160002060000160106101000a8154816fffffffffffffffffffffffffffffffff02191690836fffffffffffffffffffffffffffffffff160217905550613ea4565b6040518060400160405280846fffffffffffffffffffffffffffffffff168152602001856fffffffffffffffffffffffffffffffff1681525081600084815260200190815260200160002060008201518160000160006101000a8154816fffffffffffffffffffffffffffffffff02191690836fffffffffffffffffffffffffffffffff16021790555060208201518160000160106101000a8154816fffffffffffffffffffffffffffffffff02191690836fffffffffffffffffffffffffffffffff160217905550905050613e6060018361208f90919063ffffffff16565b600760008873ffffffffffffffffffffffffffffffffffffffff1673ffffffffffffffffffffffffffffffffffffffff168152602001908152602001600020819055505b7f2cd3c83ddac2953ee75f53265d9ea4463eaf05030e5459a1b7e63819b7ce88f7868686604051808473ffffffffffffffffffffffffffffffffffffffff168152602001836fffffffffffffffffffffffffffffffff168152602001826fffffffffffffffffffffffffffffffff168152602001935050505060405180910390a1505050505050565b60008060007fc5d2460186f7233c927e7db2dcc703c0e500b653ca82273b7bfad8045d85a47060001b9050833f9150808214158015613f6f57506000801b8214155b92505050919050565b828054600181600116156101000203166002900490600052602060002090601f016020900481019282613fae5760008555613ff5565b82601f10613fc757805160ff1916838001178555613ff5565b82800160010185558215613ff5579182015b82811115613ff4578251825591602001919060010190613fd9565b5b5090506140029190614006565b5090565b5b8082111561401f576000816000905550600101614007565b5090565b6000813590506140328161493b565b92915050565b60008083601f84011261404a57600080fd5b8235905067ffffffffffffffff81111561406357600080fd5b60208301915083606082028301111561407b57600080fd5b9250929050565b60008135905061409181614952565b92915050565b60008083601f8401126140a957600080fd5b8235905067ffffffffffffffff8111156140c257600080fd5b6020830191508360018202830111156140da57600080fd5b9250929050565b6000813590506140f081614969565b92915050565b60008135905061410581614980565b92915050565b60008135905061411a81614997565b92915050565b60006020828403121561413257600080fd5b600061414084828501614023565b91505092915050565b6000806040838503121561415c57600080fd5b600061416a85828601614023565b925050602061417b85828601614023565b9150509250929050565b60008060006060848603121561419a57600080fd5b60006141a886828701614023565b93505060206141b986828701614023565b92505060406141ca868287016140f6565b9150509250925092565b600080604083850312156141e757600080fd5b60006141f585828601614023565b9250506020614206858286016140f6565b9150509250929050565b6000806020838503121561422357600080fd5b600083013567ffffffffffffffff81111561423d57600080fd5b61424985828601614038565b92509250509250929050565b6000806000806000806080878903121561426e57600080fd5b600061427c89828a01614082565b965050602087013567ffffffffffffffff81111561429957600080fd5b6142a589828a01614097565b9550955050604087013567ffffffffffffffff8111156142c457600080fd5b6142d089828a01614097565b935093505060606142e389828a0161410b565b9150509295509295509295565b60006020828403121561430257600080fd5b6000614310848285016140e1565b91505092915050565b60006020828403121561432b57600080fd5b6000614339848285016140f6565b91505092915050565b6000806000806080858703121561435857600080fd5b6000614366878288016140f6565b9450506020614377878288016140f6565b935050604061438887828801614023565b9250506060614399878288016140f6565b91505092959194509250565b6143ae8161481a565b82525050565b6143bd8161482c565b82525050565b6143cc8161489d565b82525050565b6143db816148c1565b82525050565b60006143ec826147fe565b6143f68185614809565b93506144068185602086016148f7565b61440f8161492a565b840191505092915050565b6000614427601383614809565b91507f494e56414c49445f5a45524f5f414d4f554e54000000000000000000000000006000830152602082019050919050565b6000614467601583614809565b91507f494e53554646494349454e545f434f4f4c444f574e00000000000000000000006000830152602082019050919050565b60006144a7600e83614809565b91507f594f5520415245205354414b45440000000000000000000000000000000000006000830152602082019050919050565b60006144e7601583614809565b91507f4f4e4c595f454d495353494f4e5f4d414e4147455200000000000000000000006000830152602082019050919050565b6000614527601783614809565b91507f554e5354414b455f57494e444f575f46494e49534845440000000000000000006000830152602082019050919050565b6000614567601b83614809565b91507f494e56414c49445f42414c414e43455f4f4e5f434f4f4c444f574e00000000006000830152602082019050919050565b6145a38161484a565b82525050565b6145b2816148e5565b82525050565b6145c181614886565b82525050565b6145d081614890565b82525050565b60006020820190506145eb60008301846143a5565b92915050565b600060408201905061460660008301856143a5565b61461360208301846145b8565b9392505050565b600060208201905061462f60008301846143b4565b92915050565b600060208201905061464a60008301846143c3565b92915050565b600060208201905061466560008301846143d2565b92915050565b6000602082019050818103600083015261468581846143e1565b905092915050565b600060208201905081810360008301526146a68161441a565b9050919050565b600060208201905081810360008301526146c68161445a565b9050919050565b600060208201905081810360008301526146e68161449a565b9050919050565b60006020820190508181036000830152614706816144da565b9050919050565b600060208201905081810360008301526147268161451a565b9050919050565b600060208201905081810360008301526147468161455a565b9050919050565b600060208201905061476260008301846145a9565b92915050565b600060408201905061477d600083018561459a565b61478a602083018461459a565b9392505050565b60006060820190506147a6600083018661459a565b6147b3602083018561459a565b6147c060408301846145b8565b949350505050565b60006020820190506147dd60008301846145b8565b92915050565b60006020820190506147f860008301846145c7565b92915050565b600081519050919050565b600082825260208201905092915050565b600061482582614866565b9050919050565b60008115159050919050565b60006148438261481a565b9050919050565b60006fffffffffffffffffffffffffffffffff82169050919050565b600073ffffffffffffffffffffffffffffffffffffffff82169050919050565b6000819050919050565b600060ff82169050919050565b60006148a8826148af565b9050919050565b60006148ba82614866565b9050919050565b60006148cc826148d3565b9050919050565b60006148de82614866565b9050919050565b60006148f08261484a565b9050919050565b60005b838110156149155780820151818401526020810190506148fa565b83811115614924576000848401525b50505050565b6000601f19601f8301169050919050565b6149448161481a565b811461494f57600080fd5b50565b61495b81614838565b811461496657600080fd5b50565b6149728161484a565b811461497d57600080fd5b50565b61498981614886565b811461499457600080fd5b50565b6149a081614890565b81146149ab57600080fd5b5056fe45524332303a207472616e7366657220746f20746865207a65726f206164647265737345524332303a206275726e20616d6f756e7420657863656564732062616c616e636545524332303a20617070726f766520746f20746865207a65726f206164647265737345524332303a207472616e7366657220616d6f756e7420657863656564732062616c616e6365536166654d6174683a206d756c7469706c69636174696f6e206f766572666c6f7745524332303a207472616e7366657220616d6f756e74206578636565647320616c6c6f77616e6365436f6e747261637420696e7374616e63652068617320616c7265616479206265656e20696e697469616c697a656445524332303a206275726e2066726f6d20746865207a65726f206164647265737345524332303a207472616e736665722066726f6d20746865207a65726f206164647265737345524332303a20617070726f76652066726f6d20746865207a65726f20616464726573735361666545524332303a204552433230206f7065726174696f6e20646964206e6f74207375636365656445524332303a2064656372656173656420616c6c6f77616e63652062656c6f77207a65726fa264697066735822122067e2f2a64a7581f0463a1c9e400aecae36bc9ff8858bfccd00b669562bd3401b64736f6c63430007050033",
  "linkReferences": {},
  "deployedLinkReferences": {}
}