{
  "_format": "hh-sol-artifact-1",
  "contractName": "StakedAave",
  "sourceName": "contracts/aave-stake/StakedAave.sol",
  "abi": [
    {
      "inputs": [
        {
          "internalType": "contract IERC20",
          "name": "stakedToken",
          "type": "address"
        },
        {
          "internalType": "contract IERC20",
          "name": "rewardToken",
          "type": "address"
        },
        {
          "internalType": "uint256",
          "name": "cooldownSeconds",
          "type": "uint256"
        },
        {
          "internalType": "uint256",
          "name": "unstakeWindow",
          "type": "uint256"
        },
        {
          "internalType": "address",
          "name": "rewardsVault",
          "type": "address"
        },
        {
          "internalType": "address",
          "name": "emissionManager",
          "type": "address"
        },
        {
          "internalType": "uint128",
          "name": "distributionDuration",
          "type": "uint128"
        }
      ],
      "stateMutability": "nonpayable",
      "type": "constructor"
    },
    {
      "anonymous": false,
      "inputs": [
        {
          "indexed": true,
          "internalType": "address",
          "name": "owner",
          "type": "address"
        },
        {
          "indexed": true,
          "internalType": "address",
          "name": "spender",
          "type": "address"
        },
        {
          "indexed": false,
          "internalType": "uint256",
          "name": "value",
          "type": "uint256"
        }
      ],
      "name": "Approval",
      "type": "event"
    },
    {
      "anonymous": false,
      "inputs": [
        {
          "indexed": true,
          "internalType": "address",
          "name": "asset",
          "type": "address"
        },
        {
          "indexed": false,
          "internalType": "uint256",
          "name": "emission",
          "type": "uint256"
        }
      ],
      "name": "AssetConfigUpdated",
      "type": "event"
    },
    {
      "anonymous": false,
      "inputs": [
        {
          "indexed": true,
          "internalType": "address",
          "name": "asset",
          "type": "address"
        },
        {
          "indexed": false,
          "internalType": "uint256",
          "name": "index",
          "type": "uint256"
        }
      ],
      "name": "AssetIndexUpdated",
      "type": "event"
    },
    {
      "anonymous": false,
      "inputs": [
        {
          "indexed": true,
          "internalType": "address",
          "name": "user",
          "type": "address"
        }
      ],
      "name": "Cooldown",
      "type": "event"
    },
    {
      "anonymous": false,
      "inputs": [
        {
          "indexed": true,
          "internalType": "address",
          "name": "from",
          "type": "address"
        },
        {
          "indexed": true,
          "internalType": "address",
          "name": "to",
          "type": "address"
        },
        {
          "indexed": false,
          "internalType": "uint256",
          "name": "amount",
          "type": "uint256"
        }
      ],
      "name": "Redeem",
      "type": "event"
    },
    {
      "anonymous": false,
      "inputs": [
        {
          "indexed": false,
          "internalType": "address",
          "name": "user",
          "type": "address"
        },
        {
          "indexed": false,
          "internalType": "uint256",
          "name": "amount",
          "type": "uint256"
        }
      ],
      "name": "RewardsAccrued",
      "type": "event"
    },
    {
      "anonymous": false,
      "inputs": [
        {
          "indexed": true,
          "internalType": "address",
          "name": "from",
          "type": "address"
        },
        {
          "indexed": true,
          "internalType": "address",
          "name": "to",
          "type": "address"
        },
        {
          "indexed": false,
          "internalType": "uint256",
          "name": "amount",
          "type": "uint256"
        }
      ],
      "name": "RewardsClaimed",
      "type": "event"
    },
    {
      "anonymous": false,
      "inputs": [
        {
          "indexed": false,
          "internalType": "address",
          "name": "owner",
          "type": "address"
        },
        {
          "indexed": false,
          "internalType": "uint128",
          "name": "oldValue",
          "type": "uint128"
        },
        {
          "indexed": false,
          "internalType": "uint128",
          "name": "newValue",
          "type": "uint128"
        }
      ],
      "name": "SnapshotDone",
      "type": "event"
    },
    {
      "anonymous": false,
      "inputs": [
        {
          "indexed": true,
          "internalType": "address",
          "name": "from",
          "type": "address"
        },
        {
          "indexed": true,
          "internalType": "address",
          "name": "onBehalfOf",
          "type": "address"
        },
        {
          "indexed": false,
          "internalType": "uint256",
          "name": "amount",
          "type": "uint256"
        }
      ],
      "name": "Staked",
      "type": "event"
    },
    {
      "anonymous": false,
      "inputs": [
        {
          "indexed": true,
          "internalType": "address",
          "name": "from",
          "type": "address"
        },
        {
          "indexed": true,
          "internalType": "address",
          "name": "to",
          "type": "address"
        },
        {
          "indexed": false,
          "internalType": "uint256",
          "name": "value",
          "type": "uint256"
        }
      ],
      "name": "Transfer",
      "type": "event"
    },
    {
      "anonymous": false,
      "inputs": [
        {
          "indexed": true,
          "internalType": "address",
          "name": "user",
          "type": "address"
        },
        {
          "indexed": true,
          "internalType": "address",
          "name": "asset",
          "type": "address"
        },
        {
          "indexed": false,
          "internalType": "uint256",
          "name": "index",
          "type": "uint256"
        }
      ],
      "name": "UserIndexUpdated",
      "type": "event"
    },
    {
      "inputs": [],
      "name": "COOLDOWN_SECONDS",
      "outputs": [
        {
          "internalType": "uint256",
          "name": "",
          "type": "uint256"
        }
      ],
      "stateMutability": "view",
      "type": "function"
    },
    {
      "inputs": [],
      "name": "DISTRIBUTION_END",
      "outputs": [
        {
          "internalType": "uint256",
          "name": "",
          "type": "uint256"
        }
      ],
      "stateMutability": "view",
      "type": "function"
    },
    {
      "inputs": [],
      "name": "EMISSION_MANAGER",
      "outputs": [
        {
          "internalType": "address",
          "name": "",
          "type": "address"
        }
      ],
      "stateMutability": "view",
      "type": "function"
    },
    {
      "inputs": [],
      "name": "PRECISION",
      "outputs": [
        {
          "internalType": "uint8",
          "name": "",
          "type": "uint8"
        }
      ],
      "stateMutability": "view",
      "type": "function"
    },
    {
      "inputs": [],
      "name": "REVISION",
      "outputs": [
        {
          "internalType": "uint256",
          "name": "",
          "type": "uint256"
        }
      ],
      "stateMutability": "view",
      "type": "function"
    },
    {
      "inputs": [],
      "name": "REWARDS_VAULT",
      "outputs": [
        {
          "internalType": "address",
          "name": "",
          "type": "address"
        }
      ],
      "stateMutability": "view",
      "type": "function"
    },
    {
      "inputs": [],
      "name": "REWARD_TOKEN",
      "outputs": [
        {
          "internalType": "contract IERC20",
          "name": "",
          "type": "address"
        }
      ],
      "stateMutability": "view",
      "type": "function"
    },
    {
      "inputs": [],
      "name": "STAKED_TOKEN",
      "outputs": [
        {
          "internalType": "contract IERC20",
          "name": "",
          "type": "address"
        }
      ],
      "stateMutability": "view",
      "type": "function"
    },
    {
      "inputs": [],
      "name": "UNSTAKE_WINDOW",
      "outputs": [
        {
          "internalType": "uint256",
          "name": "",
          "type": "uint256"
        }
      ],
      "stateMutability": "view",
      "type": "function"
    },
    {
      "inputs": [],
      "name": "_aaveGovernance",
      "outputs": [
        {
          "internalType": "contract ITransferHook",
          "name": "",
          "type": "address"
        }
      ],
      "stateMutability": "view",
      "type": "function"
    },
    {
      "inputs": [
        {
          "internalType": "address",
          "name": "",
          "type": "address"
        }
      ],
      "name": "_countsSnapshots",
      "outputs": [
        {
          "internalType": "uint256",
          "name": "",
          "type": "uint256"
        }
      ],
      "stateMutability": "view",
      "type": "function"
    },
    {
      "inputs": [
        {
          "internalType": "address",
          "name": "",
          "type": "address"
        },
        {
          "internalType": "uint256",
          "name": "",
          "type": "uint256"
        }
      ],
      "name": "_snapshots",
      "outputs": [
        {
          "internalType": "uint128",
          "name": "blockNumber",
          "type": "uint128"
        },
        {
          "internalType": "uint128",
          "name": "value",
          "type": "uint128"
        }
      ],
      "stateMutability": "view",
      "type": "function"
    },
    {
      "inputs": [
        {
          "internalType": "address",
          "name": "owner",
          "type": "address"
        },
        {
          "internalType": "address",
          "name": "spender",
          "type": "address"
        }
      ],
      "name": "allowance",
      "outputs": [
        {
          "internalType": "uint256",
          "name": "",
          "type": "uint256"
        }
      ],
      "stateMutability": "view",
      "type": "function"
    },
    {
      "inputs": [
        {
          "internalType": "address",
          "name": "spender",
          "type": "address"
        },
        {
          "internalType": "uint256",
          "name": "amount",
          "type": "uint256"
        }
      ],
      "name": "approve",
      "outputs": [
        {
          "internalType": "bool",
          "name": "",
          "type": "bool"
        }
      ],
      "stateMutability": "nonpayable",
      "type": "function"
    },
    {
      "inputs": [
        {
          "internalType": "address",
          "name": "",
          "type": "address"
        }
      ],
      "name": "assets",
      "outputs": [
        {
          "internalType": "uint128",
          "name": "emissionPerSecond",
          "type": "uint128"
        },
        {
          "internalType": "uint128",
          "name": "lastUpdateTimestamp",
          "type": "uint128"
        },
        {
          "internalType": "uint256",
          "name": "index",
          "type": "uint256"
        }
      ],
      "stateMutability": "view",
      "type": "function"
    },
    {
      "inputs": [
        {
          "internalType": "address",
          "name": "account",
          "type": "address"
        }
      ],
      "name": "balanceOf",
      "outputs": [
        {
          "internalType": "uint256",
          "name": "",
          "type": "uint256"
        }
      ],
      "stateMutability": "view",
      "type": "function"
    },
    {
      "inputs": [
        {
          "internalType": "address",
          "name": "to",
          "type": "address"
        },
        {
          "internalType": "uint256",
          "name": "amount",
          "type": "uint256"
        }
      ],
      "name": "claimRewards",
      "outputs": [],
      "stateMutability": "nonpayable",
      "type": "function"
    },
    {
      "inputs": [
        {
          "components": [
            {
              "internalType": "uint128",
              "name": "emissionPerSecond",
              "type": "uint128"
            },
            {
              "internalType": "uint256",
              "name": "totalStaked",
              "type": "uint256"
            },
            {
              "internalType": "address",
              "name": "underlyingAsset",
              "type": "address"
            }
          ],
          "internalType": "struct DistributionTypes.AssetConfigInput[]",
          "name": "assetsConfigInput",
          "type": "tuple[]"
        }
      ],
      "name": "configureAssets",
      "outputs": [],
      "stateMutability": "nonpayable",
      "type": "function"
    },
    {
      "inputs": [],
      "name": "cooldown",
      "outputs": [],
      "stateMutability": "nonpayable",
      "type": "function"
    },
    {
      "inputs": [],
      "name": "decimals",
      "outputs": [
        {
          "internalType": "uint8",
          "name": "",
          "type": "uint8"
        }
      ],
      "stateMutability": "view",
      "type": "function"
    },
    {
      "inputs": [
        {
          "internalType": "address",
          "name": "spender",
          "type": "address"
        },
        {
          "internalType": "uint256",
          "name": "subtractedValue",
          "type": "uint256"
        }
      ],
      "name": "decreaseAllowance",
      "outputs": [
        {
          "internalType": "bool",
          "name": "",
          "type": "bool"
        }
      ],
      "stateMutability": "nonpayable",
      "type": "function"
    },
    {
      "inputs": [
        {
          "internalType": "uint256",
          "name": "fromCooldownTimestamp",
          "type": "uint256"
        },
        {
          "internalType": "uint256",
          "name": "amountToReceive",
          "type": "uint256"
        },
        {
          "internalType": "address",
          "name": "toAddress",
          "type": "address"
        },
        {
          "internalType": "uint256",
          "name": "toBalance",
          "type": "uint256"
        }
      ],
      "name": "getNextCooldownTimestamp",
      "outputs": [
        {
          "internalType": "uint256",
          "name": "",
          "type": "uint256"
        }
      ],
      "stateMutability": "view",
      "type": "function"
    },
    {
      "inputs": [
        {
          "internalType": "address",
          "name": "staker",
          "type": "address"
        }
      ],
      "name": "getTotalRewardsBalance",
      "outputs": [
        {
          "internalType": "uint256",
          "name": "",
          "type": "uint256"
        }
      ],
      "stateMutability": "view",
      "type": "function"
    },
    {
      "inputs": [
        {
          "internalType": "address",
          "name": "user",
          "type": "address"
        },
        {
          "internalType": "address",
          "name": "asset",
          "type": "address"
        }
      ],
      "name": "getUserAssetData",
      "outputs": [
        {
          "internalType": "uint256",
          "name": "",
          "type": "uint256"
        }
      ],
      "stateMutability": "view",
      "type": "function"
    },
    {
      "inputs": [
        {
          "internalType": "address",
          "name": "spender",
          "type": "address"
        },
        {
          "internalType": "uint256",
          "name": "addedValue",
          "type": "uint256"
        }
      ],
      "name": "increaseAllowance",
      "outputs": [
        {
          "internalType": "bool",
          "name": "",
          "type": "bool"
        }
      ],
      "stateMutability": "nonpayable",
      "type": "function"
    },
    {
      "inputs": [
        {
          "internalType": "contract ITransferHook",
          "name": "aaveGovernance",
          "type": "address"
        },
        {
          "internalType": "string",
          "name": "name",
          "type": "string"
        },
        {
          "internalType": "string",
          "name": "symbol",
          "type": "string"
        },
        {
          "internalType": "uint8",
          "name": "decimals",
          "type": "uint8"
        }
      ],
      "name": "initialize",
      "outputs": [],
      "stateMutability": "nonpayable",
      "type": "function"
    },
    {
      "inputs": [],
      "name": "name",
      "outputs": [
        {
          "internalType": "string",
          "name": "",
          "type": "string"
        }
      ],
      "stateMutability": "view",
      "type": "function"
    },
    {
      "inputs": [
        {
          "internalType": "address",
          "name": "to",
          "type": "address"
        },
        {
          "internalType": "uint256",
          "name": "amount",
          "type": "uint256"
        }
      ],
      "name": "redeem",
      "outputs": [],
      "stateMutability": "nonpayable",
      "type": "function"
    },
    {
      "inputs": [
        {
          "internalType": "address",
          "name": "onBehalfOf",
          "type": "address"
        },
        {
          "internalType": "uint256",
          "name": "amount",
          "type": "uint256"
        }
      ],
      "name": "stake",
      "outputs": [],
      "stateMutability": "nonpayable",
      "type": "function"
    },
    {
      "inputs": [
        {
          "internalType": "address",
          "name": "",
          "type": "address"
        }
      ],
      "name": "stakerRewardsToClaim",
      "outputs": [
        {
          "internalType": "uint256",
          "name": "",
          "type": "uint256"
        }
      ],
      "stateMutability": "view",
      "type": "function"
    },
    {
      "inputs": [
        {
          "internalType": "address",
          "name": "",
          "type": "address"
        }
      ],
      "name": "stakersCooldowns",
      "outputs": [
        {
          "internalType": "uint256",
          "name": "",
          "type": "uint256"
        }
      ],
      "stateMutability": "view",
      "type": "function"
    },
    {
      "inputs": [],
      "name": "symbol",
      "outputs": [
        {
          "internalType": "string",
          "name": "",
          "type": "string"
        }
      ],
      "stateMutability": "view",
      "type": "function"
    },
    {
      "inputs": [],
      "name": "totalSupply",
      "outputs": [
        {
          "internalType": "uint256",
          "name": "",
          "type": "uint256"
        }
      ],
      "stateMutability": "view",
      "type": "function"
    },
    {
      "inputs": [
        {
          "internalType": "address",
          "name": "recipient",
          "type": "address"
        },
        {
          "internalType": "uint256",
          "name": "amount",
          "type": "uint256"
        }
      ],
      "name": "transfer",
      "outputs": [
        {
          "internalType": "bool",
          "name": "",
          "type": "bool"
        }
      ],
      "stateMutability": "nonpayable",
      "type": "function"
    },
    {
      "inputs": [
        {
          "internalType": "address",
          "name": "sender",
          "type": "address"
        },
        {
          "internalType": "address",
          "name": "recipient",
          "type": "address"
        },
        {
          "internalType": "uint256",
          "name": "amount",
          "type": "uint256"
        }
      ],
      "name": "transferFrom",
      "outputs": [
        {
          "internalType": "bool",
          "name": "",
          "type": "bool"
        }
      ],
      "stateMutability": "nonpayable",
      "type": "function"
    }
  ],
  "bytecode": "0x61016060405260006009553480156200001757600080fd5b5060405162004b9b38038062004b9b83398181016040528101906200003d9190620003e3565b868686868686866040518060400160405280600b81526020017f5374616b656420416176650000000000000000000000000000000000000000008152506040518060400160405280600781526020017f73746b4141564500000000000000000000000000000000000000000000000000815250601284846fffffffffffffffffffffffffffffffff168484848282828260039080519060200190620000e4929190620002d1565b508160049080519060200190620000fd929190620002d1565b5080600560006101000a81548160ff021916908360ff1602179055505050505050506200013981426200024860201b62001c631790919060201c565b608081815250508173ffffffffffffffffffffffffffffffffffffffff1660a08173ffffffffffffffffffffffffffffffffffffffff1660601b8152505050508973ffffffffffffffffffffffffffffffffffffffff1660c08173ffffffffffffffffffffffffffffffffffffffff1660601b815250508873ffffffffffffffffffffffffffffffffffffffff1660e08173ffffffffffffffffffffffffffffffffffffffff1660601b815250508761010081815250508661012081815250508573ffffffffffffffffffffffffffffffffffffffff166101408173ffffffffffffffffffffffffffffffffffffffff1660601b81525050505050505050505050505050505050505062000566565b600080828401905083811015620002c7576040517f08c379a000000000000000000000000000000000000000000000000000000000815260040180806020018281038252601b8152602001807f536166654d6174683a206164646974696f6e206f766572666c6f77000000000081525060200191505060405180910390fd5b8091505092915050565b828054600181600116156101000203166002900490600052602060002090601f01602090048101928262000309576000855562000355565b82601f106200032457805160ff191683800117855562000355565b8280016001018555821562000355579182015b828111156200035457825182559160200191906001019062000337565b5b50905062000364919062000368565b5090565b5b808211156200038357600081600090555060010162000369565b5090565b6000815190506200039881620004fe565b92915050565b600081519050620003af8162000518565b92915050565b600081519050620003c68162000532565b92915050565b600081519050620003dd816200054c565b92915050565b600080600080600080600060e0888a031215620003ff57600080fd5b60006200040f8a828b016200039e565b9750506020620004228a828b016200039e565b9650506040620004358a828b01620003cc565b9550506060620004488a828b01620003cc565b94505060806200045b8a828b0162000387565b93505060a06200046e8a828b0162000387565b92505060c0620004818a828b01620003b5565b91505092959891949750929550565b60006200049d82620004d4565b9050919050565b6000620004b18262000490565b9050919050565b60006fffffffffffffffffffffffffffffffff82169050919050565b600073ffffffffffffffffffffffffffffffffffffffff82169050919050565b6000819050919050565b620005098162000490565b81146200051557600080fd5b50565b6200052381620004a4565b81146200052f57600080fd5b50565b6200053d81620004b8565b81146200054957600080fd5b50565b6200055781620004f4565b81146200056357600080fd5b50565b60805160a05160601c60c05160601c60e05160601c61010051610120516101405160601c614594620006076000398061108052806112455250806109035280610d005280611a3b525080610892528061092a5280610e1f5280611a5f5250806111465280611268525080610a475280610c3b52806115a952508061165b52806118cc52508061105c528061342e528061347452806134a152506145946000f3fe608060405234801561001057600080fd5b50600436106102115760003560e01c80638dbefee211610125578063adc9772e116100ad578063dd62ed3e1161007c578063dd62ed3e14610657578063dde43cba14610687578063f11b8188146106a5578063f1cc432a146106d7578063f6d2ee861461070757610211565b8063adc9772e146105e3578063b2a5dbfa146105ff578063c3863ada1461061b578063cbcbb5071461063957610211565b806399248ea7116100f457806399248ea71461052b5780639a99b4f014610549578063a457c2d714610565578063a9059cbb14610595578063aaf5eb68146105c557610211565b80638dbefee2146104a1578063919cd40f146104d1578063946776cd146104ef57806395d89b411461050d57610211565b8063313ce567116101a857806370a082311161017757806370a08231146103e957806372b49d6314610419578063787a08a6146104375780637e90d7ef146104415780638779588c1461047157610211565b8063313ce5671461034d5780633373ee4c1461036b578063359c4a961461039b57806339509351146103b957610211565b80631e9a6950116101e45780631e9a6950146102b257806323b872dd146102ce5780632acbf823146102fe578063312f6b831461032f57610211565b806306fdde0314610216578063091030c314610234578063095ea7b31461026457806318160ddd14610294575b600080fd5b61021e610723565b60405161022b919061407e565b60405180910390f35b61024e60048036038101906102499190613b9c565b6107c5565b60405161025b91906141bb565b60405180910390f35b61027e60048036038101906102799190613c50565b6107dd565b60405161028b919061402d565b60405180910390f35b61029c6107fb565b6040516102a991906141bb565b60405180910390f35b6102cc60048036038101906102c79190613c50565b610805565b005b6102e860048036038101906102e39190613c01565b610af7565b6040516102f5919061402d565b60405180910390f35b61031860048036038101906103139190613c50565b610bd0565b60405161032692919061415b565b60405180910390f35b610337610c39565b6040516103449190614048565b60405180910390f35b610355610c5d565b60405161036291906141d6565b60405180910390f35b61038560048036038101906103809190613bc5565b610c74565b60405161039291906141bb565b60405180910390f35b6103a3610cfe565b6040516103b091906141bb565b60405180910390f35b6103d360048036038101906103ce9190613c50565b610d22565b6040516103e0919061402d565b60405180910390f35b61040360048036038101906103fe9190613b9c565b610dd5565b60405161041091906141bb565b60405180910390f35b610421610e1d565b60405161042e91906141bb565b60405180910390f35b61043f610e41565b005b61045b60048036038101906104569190613b9c565b610f16565b60405161046891906141bb565b60405180910390f35b61048b60048036038101906104869190613b9c565b610f2e565b60405161049891906141bb565b60405180910390f35b6104bb60048036038101906104b69190613b9c565b610f46565b6040516104c891906141bb565b60405180910390f35b6104d961105a565b6040516104e691906141bb565b60405180910390f35b6104f761107e565b6040516105049190613fe9565b60405180910390f35b6105156110a2565b604051610522919061407e565b60405180910390f35b610533611144565b6040516105409190614048565b60405180910390f35b610563600480360381019061055e9190613c50565b611168565b005b61057f600480360381019061057a9190613c50565b611318565b60405161058c919061402d565b60405180910390f35b6105af60048036038101906105aa9190613c50565b6113e5565b6040516105bc919061402d565b60405180910390f35b6105cd611403565b6040516105da91906141d6565b60405180910390f35b6105fd60048036038101906105f89190613c50565b611408565b005b61061960048036038101906106149190613c8c565b611659565b005b6106236118a4565b6040516106309190614063565b60405180910390f35b6106416118ca565b60405161064e9190613fe9565b60405180910390f35b610671600480360381019061066c9190613bc5565b6118ee565b60405161067e91906141bb565b60405180910390f35b61068f611975565b60405161069c91906141bb565b60405180910390f35b6106bf60048036038101906106ba9190613b9c565b61197a565b6040516106ce93929190614184565b60405180910390f35b6106f160048036038101906106ec9190613d95565b6119dc565b6040516106fe91906141bb565b60405180910390f35b610721600480360381019061071c9190613cd1565b611b41565b005b606060038054600181600116156101000203166002900480601f0160208091040260200160405190810160405280929190818152602001828054600181600116156101000203166002900480156107bb5780601f10610790576101008083540402835291602001916107bb565b820191906000526020600020905b81548152906001019060200180831161079e57829003601f168201915b5050505050905090565b603e6020528060005260406000206000915090505481565b60006107f16107ea611ceb565b8484611cf3565b6001905092915050565b6000600254905090565b6000811415610849576040517f08c379a0000000000000000000000000000000000000000000000000000000008152600401610840906140a0565b60405180910390fd5b6000603e60003373ffffffffffffffffffffffffffffffffffffffff1673ffffffffffffffffffffffffffffffffffffffff1681526020019081526020016000205490506108c07f000000000000000000000000000000000000000000000000000000000000000082611c6390919063ffffffff16565b4211610901576040517f08c379a00000000000000000000000000000000000000000000000000000000081526004016108f8906140c0565b60405180910390fd5b7f00000000000000000000000000000000000000000000000000000000000000006109676109587f000000000000000000000000000000000000000000000000000000000000000084611c6390919063ffffffff16565b42611eea90919063ffffffff16565b11156109a8576040517f08c379a000000000000000000000000000000000000000000000000000000000815260040161099f90614100565b60405180910390fd5b60006109b333610dd5565b905060008184116109c457836109c6565b815b90506109d433836001611f34565b506109df338261203b565b60006109f48284611eea90919063ffffffff16565b1415610a40576000603e60003373ffffffffffffffffffffffffffffffffffffffff1673ffffffffffffffffffffffffffffffffffffffff168152602001908152602001600020819055505b610a8b85827f000000000000000000000000000000000000000000000000000000000000000073ffffffffffffffffffffffffffffffffffffffff166121ff9092919063ffffffff16565b8473ffffffffffffffffffffffffffffffffffffffff163373ffffffffffffffffffffffffffffffffffffffff167fd12200efa34901b99367694174c3b0d32c99585fdf37c7c26892136ddd0836d983604051610ae891906141bb565b60405180910390a35050505050565b6000610b048484846122a1565b610bc584610b10611ceb565b610bc08560405180606001604052806028815260200161445060289139600160008b73ffffffffffffffffffffffffffffffffffffffff1673ffffffffffffffffffffffffffffffffffffffff1681526020019081526020016000206000610b76611ceb565b73ffffffffffffffffffffffffffffffffffffffff1673ffffffffffffffffffffffffffffffffffffffff1681526020019081526020016000205461240a9092919063ffffffff16565b611cf3565b600190509392505050565b6006602052816000526040600020602052806000526040600020600091509150508060000160009054906101000a90046fffffffffffffffffffffffffffffffff16908060000160109054906101000a90046fffffffffffffffffffffffffffffffff16905082565b7f000000000000000000000000000000000000000000000000000000000000000081565b6000600560009054906101000a900460ff16905090565b6000603c60008373ffffffffffffffffffffffffffffffffffffffff1673ffffffffffffffffffffffffffffffffffffffff16815260200190815260200160002060020160008473ffffffffffffffffffffffffffffffffffffffff1673ffffffffffffffffffffffffffffffffffffffff16815260200190815260200160002054905092915050565b7f000000000000000000000000000000000000000000000000000000000000000081565b6000610dcb610d2f611ceb565b84610dc68560016000610d40611ceb565b73ffffffffffffffffffffffffffffffffffffffff1673ffffffffffffffffffffffffffffffffffffffff16815260200190815260200160002060008973ffffffffffffffffffffffffffffffffffffffff1673ffffffffffffffffffffffffffffffffffffffff16815260200190815260200160002054611c6390919063ffffffff16565b611cf3565b6001905092915050565b60008060008373ffffffffffffffffffffffffffffffffffffffff1673ffffffffffffffffffffffffffffffffffffffff168152602001908152602001600020549050919050565b7f000000000000000000000000000000000000000000000000000000000000000081565b6000610e4c33610dd5565b1415610e8d576040517f08c379a0000000000000000000000000000000000000000000000000000000008152600401610e8490614120565b60405180910390fd5b42603e60003373ffffffffffffffffffffffffffffffffffffffff1673ffffffffffffffffffffffffffffffffffffffff168152602001908152602001600020819055503373ffffffffffffffffffffffffffffffffffffffff167ff52f50426b32362d3e6bb8cb36b7074756b224622def6352a59eac7f66ebe6e860405160405180910390a2565b603d6020528060005260406000206000915090505481565b60076020528060005260406000206000915090505481565b60006060600167ffffffffffffffff81118015610f6257600080fd5b50604051908082528060200260200182016040528015610f9c57816020015b610f896139bd565b815260200190600190039081610f815790505b50905060405180606001604052803073ffffffffffffffffffffffffffffffffffffffff168152602001610fcf85610dd5565b8152602001610fdc6107fb565b81525081600081518110610fec57fe5b602002602001018190525061105261100484836124ca565b603d60008673ffffffffffffffffffffffffffffffffffffffff1673ffffffffffffffffffffffffffffffffffffffff16815260200190815260200160002054611c6390919063ffffffff16565b915050919050565b7f000000000000000000000000000000000000000000000000000000000000000081565b7f000000000000000000000000000000000000000000000000000000000000000081565b606060048054600181600116156101000203166002900480601f01602080910402602001604051908101604052809291908181526020018280546001816001161561010002031660029004801561113a5780601f1061110f5761010080835404028352916020019161113a565b820191906000526020600020905b81548152906001019060200180831161111d57829003601f168201915b5050505050905090565b7f000000000000000000000000000000000000000000000000000000000000000081565b600061117e3361117733610dd5565b6000611f34565b905060007fffffffffffffffffffffffffffffffffffffffffffffffffffffffffffffffff83146111af57826111b1565b815b90506111fd816040518060400160405280600e81526020017f494e56414c49445f414d4f554e540000000000000000000000000000000000008152508461240a9092919063ffffffff16565b603d60003373ffffffffffffffffffffffffffffffffffffffff1673ffffffffffffffffffffffffffffffffffffffff168152602001908152602001600020819055506112ad7f000000000000000000000000000000000000000000000000000000000000000085837f000000000000000000000000000000000000000000000000000000000000000073ffffffffffffffffffffffffffffffffffffffff16612645909392919063ffffffff16565b8373ffffffffffffffffffffffffffffffffffffffff163373ffffffffffffffffffffffffffffffffffffffff167f9310ccfcb8de723f578a9e4282ea9f521f05ae40dc08f3068dfad528a65ee3c78360405161130a91906141bb565b60405180910390a350505050565b60006113db611325611ceb565b846113d68560405180606001604052806025815260200161453a602591396001600061134f611ceb565b73ffffffffffffffffffffffffffffffffffffffff1673ffffffffffffffffffffffffffffffffffffffff16815260200190815260200160002060008a73ffffffffffffffffffffffffffffffffffffffff1673ffffffffffffffffffffffffffffffffffffffff1681526020019081526020016000205461240a9092919063ffffffff16565b611cf3565b6001905092915050565b60006113f96113f2611ceb565b84846122a1565b6001905092915050565b601281565b600081141561144c576040517f08c379a0000000000000000000000000000000000000000000000000000000008152600401611443906140a0565b60405180910390fd5b600061145783610dd5565b9050600061146e8430846114696107fb565b612706565b905060008114611547577f2468f9268c60ad90e2d49edb0032c8a001e733ae888b3ab8e982edf535be1a7684826040516114a9929190614004565b60405180910390a161150381603d60008773ffffffffffffffffffffffffffffffffffffffff1673ffffffffffffffffffffffffffffffffffffffff16815260200190815260200160002054611c6390919063ffffffff16565b603d60008673ffffffffffffffffffffffffffffffffffffffff1673ffffffffffffffffffffffffffffffffffffffff168152602001908152602001600020819055505b61155460008486856119dc565b603e60008673ffffffffffffffffffffffffffffffffffffffff1673ffffffffffffffffffffffffffffffffffffffff168152602001908152602001600020819055506115a18484612878565b6115ee3330857f000000000000000000000000000000000000000000000000000000000000000073ffffffffffffffffffffffffffffffffffffffff16612645909392919063ffffffff16565b8373ffffffffffffffffffffffffffffffffffffffff163373ffffffffffffffffffffffffffffffffffffffff167f5dac0c1b1112564a045ba943c9d50270893e8e826c49be8e7073adc713ab7bd78560405161164b91906141bb565b60405180910390a350505050565b7f000000000000000000000000000000000000000000000000000000000000000073ffffffffffffffffffffffffffffffffffffffff163373ffffffffffffffffffffffffffffffffffffffff16146116e7576040517f08c379a00000000000000000000000000000000000000000000000000000000081526004016116de906140e0565b60405180910390fd5b60005b8282905081101561189f576000603c600085858581811061170757fe5b905060600201604001602081019061171f9190613b9c565b73ffffffffffffffffffffffffffffffffffffffff1673ffffffffffffffffffffffffffffffffffffffff168152602001908152602001600020905061179e84848481811061176a57fe5b90506060020160400160208101906117829190613b9c565b8286868681811061178f57fe5b90506060020160200135612a3f565b508383838181106117ab57fe5b90506060020160000160208101906117c39190613d6c565b8160000160006101000a8154816fffffffffffffffffffffffffffffffff02191690836fffffffffffffffffffffffffffffffff16021790555083838381811061180957fe5b90506060020160400160208101906118219190613b9c565b73ffffffffffffffffffffffffffffffffffffffff167f87fa03892a0556cb6b8f97e6d533a150d4d55fcbf275fff5fa003fa636bcc7fa85858581811061186457fe5b905060600201600001602081019061187c9190613d6c565b6040516118899190614140565b60405180910390a25080806001019150506116ea565b505050565b600860009054906101000a900473ffffffffffffffffffffffffffffffffffffffff1681565b7f000000000000000000000000000000000000000000000000000000000000000081565b6000600160008473ffffffffffffffffffffffffffffffffffffffff1673ffffffffffffffffffffffffffffffffffffffff16815260200190815260200160002060008373ffffffffffffffffffffffffffffffffffffffff1673ffffffffffffffffffffffffffffffffffffffff16815260200190815260200160002054905092915050565b600181565b603c6020528060005260406000206000915090508060000160009054906101000a90046fffffffffffffffffffffffffffffffff16908060000160109054906101000a90046fffffffffffffffffffffffffffffffff16908060010154905083565b600080603e60008573ffffffffffffffffffffffffffffffffffffffff1673ffffffffffffffffffffffffffffffffffffffff1681526020019081526020016000205490506000811415611a34576000915050611b39565b6000611a9b7f0000000000000000000000000000000000000000000000000000000000000000611a8d7f000000000000000000000000000000000000000000000000000000000000000042611eea90919063ffffffff16565b611eea90919063ffffffff16565b905081811115611aae5760009150611b33565b6000878211611abd5787611abf565b425b905082811015611ad457829350505050611b39565b611b2f611aea8689611c6390919063ffffffff16565b611b21611b008689612b7c90919063ffffffff16565b611b13858c612b7c90919063ffffffff16565b611c6390919063ffffffff16565b612c0290919063ffffffff16565b9250505b81925050505b949350505050565b6000611b4b612c4c565b90506009548111611ba7576040517f08c379a000000000000000000000000000000000000000000000000000000000815260040180806020018281038252602e815260200180614478602e913960400191505060405180910390fd5b80600981905550611bfb86868080601f016020809104026020016040519081016040528093929190818152602001838380828437600081840152601f19601f82011690508083019250505050505050612c55565b611c4884848080601f016020809104026020016040519081016040528093929190818152602001838380828437600081840152601f19601f82011690508083019250505050505050612c6f565b611c5182612c89565b611c5a87612ca7565b50505050505050565b600080828401905083811015611ce1576040517f08c379a000000000000000000000000000000000000000000000000000000000815260040180806020018281038252601b8152602001807f536166654d6174683a206164646974696f6e206f766572666c6f77000000000081525060200191505060405180910390fd5b8091505092915050565b600033905090565b600073ffffffffffffffffffffffffffffffffffffffff168373ffffffffffffffffffffffffffffffffffffffff161415611d79576040517f08c379a00000000000000000000000000000000000000000000000000000000081526004018080602001828103825260248152602001806144ec6024913960400191505060405180910390fd5b600073ffffffffffffffffffffffffffffffffffffffff168273ffffffffffffffffffffffffffffffffffffffff161415611dff576040517f08c379a00000000000000000000000000000000000000000000000000000000081526004018080602001828103825260228152602001806143e76022913960400191505060405180910390fd5b80600160008573ffffffffffffffffffffffffffffffffffffffff1673ffffffffffffffffffffffffffffffffffffffff16815260200190815260200160002060008473ffffffffffffffffffffffffffffffffffffffff1673ffffffffffffffffffffffffffffffffffffffff168152602001908152602001600020819055508173ffffffffffffffffffffffffffffffffffffffff168373ffffffffffffffffffffffffffffffffffffffff167f8c5be1e5ebec7d5bd14f71427d1e84f3dd0314c0f7b2291e5b200ac8c7c3b925836040518082815260200191505060405180910390a3505050565b6000611f2c83836040518060400160405280601e81526020017f536166654d6174683a207375627472616374696f6e206f766572666c6f77000081525061240a565b905092915050565b600080611f4a853086611f456107fb565b612706565b90506000611fa082603d60008973ffffffffffffffffffffffffffffffffffffffff1673ffffffffffffffffffffffffffffffffffffffff16815260200190815260200160002054611c6390919063ffffffff16565b90506000821461202f578315611ff55780603d60008873ffffffffffffffffffffffffffffffffffffffff1673ffffffffffffffffffffffffffffffffffffffff168152602001908152602001600020819055505b7f2468f9268c60ad90e2d49edb0032c8a001e733ae888b3ab8e982edf535be1a768683604051612026929190614004565b60405180910390a15b80925050509392505050565b600073ffffffffffffffffffffffffffffffffffffffff168273ffffffffffffffffffffffffffffffffffffffff1614156120c1576040517f08c379a00000000000000000000000000000000000000000000000000000000081526004018080602001828103825260218152602001806144a66021913960400191505060405180910390fd5b6120cd82600083612ceb565b612138816040518060600160405280602281526020016143c5602291396000808673ffffffffffffffffffffffffffffffffffffffff1673ffffffffffffffffffffffffffffffffffffffff1681526020019081526020016000205461240a9092919063ffffffff16565b6000808473ffffffffffffffffffffffffffffffffffffffff1673ffffffffffffffffffffffffffffffffffffffff1681526020019081526020016000208190555061218f81600254611eea90919063ffffffff16565b600281905550600073ffffffffffffffffffffffffffffffffffffffff168273ffffffffffffffffffffffffffffffffffffffff167fddf252ad1be2c89b69c2b068fc378daa952ba7f163c4a11628f55a4df523b3ef836040518082815260200191505060405180910390a35050565b61229c8363a9059cbb60e01b8484604051602401808373ffffffffffffffffffffffffffffffffffffffff16815260200182815260200192505050604051602081830303815290604052907bffffffffffffffffffffffffffffffffffffffffffffffffffffffff19166020820180517bffffffffffffffffffffffffffffffffffffffffffffffffffffffff8381831617835250505050612eee565b505050565b60006122ac84610dd5565b90506122ba84826001611f34565b508273ffffffffffffffffffffffffffffffffffffffff168473ffffffffffffffffffffffffffffffffffffffff16146123f95760006122f984610dd5565b905061230784826001611f34565b506000603e60008773ffffffffffffffffffffffffffffffffffffffff1673ffffffffffffffffffffffffffffffffffffffff168152602001908152602001600020549050612358818587856119dc565b603e60008773ffffffffffffffffffffffffffffffffffffffff1673ffffffffffffffffffffffffffffffffffffffff1681526020019081526020016000208190555083831480156123ab575060008114155b156123f6576000603e60008873ffffffffffffffffffffffffffffffffffffffff1673ffffffffffffffffffffffffffffffffffffffff168152602001908152602001600020819055505b50505b612404848484613139565b50505050565b60008383111582906124b7576040517f08c379a00000000000000000000000000000000000000000000000000000000081526004018080602001828103825283818151815260200191508051906020019080838360005b8381101561247c578082015181840152602081019050612461565b50505050905090810190601f1680156124a95780820380516001836020036101000a031916815260200191505b509250505060405180910390fd5b5060008385039050809150509392505050565b6000806000905060005b835181101561263a576000603c60008684815181106124ef57fe5b60200260200101516000015173ffffffffffffffffffffffffffffffffffffffff1673ffffffffffffffffffffffffffffffffffffffff168152602001908152602001600020905060006125b282600101548360000160009054906101000a90046fffffffffffffffffffffffffffffffff166fffffffffffffffffffffffffffffffff168460000160109054906101000a90046fffffffffffffffffffffffffffffffff168987815181106125a157fe5b6020026020010151604001516133fa565b905061262961261a8785815181106125c657fe5b602002602001015160200151838560020160008c73ffffffffffffffffffffffffffffffffffffffff1673ffffffffffffffffffffffffffffffffffffffff16815260200190815260200160002054613549565b85611c6390919063ffffffff16565b9350505080806001019150506124d4565b508091505092915050565b612700846323b872dd60e01b858585604051602401808473ffffffffffffffffffffffffffffffffffffffff1681526020018373ffffffffffffffffffffffffffffffffffffffff1681526020018281526020019350505050604051602081830303815290604052907bffffffffffffffffffffffffffffffffffffffffffffffffffffffff19166020820180517bffffffffffffffffffffffffffffffffffffffffffffffffffffffff8381831617835250505050612eee565b50505050565b600080603c60008673ffffffffffffffffffffffffffffffffffffffff1673ffffffffffffffffffffffffffffffffffffffff168152602001908152602001600020905060008160020160008873ffffffffffffffffffffffffffffffffffffffff1673ffffffffffffffffffffffffffffffffffffffff16815260200190815260200160002054905060008061279e888588612a3f565b905080831461286957600087146127bd576127ba878285613549565b91505b808460020160008b73ffffffffffffffffffffffffffffffffffffffff1673ffffffffffffffffffffffffffffffffffffffff168152602001908152602001600020819055508773ffffffffffffffffffffffffffffffffffffffff168973ffffffffffffffffffffffffffffffffffffffff167fbb123b5c06d5408bbea3c4fef481578175cfb432e3b482c6186f02ed9086585b8360405161286091906141bb565b60405180910390a35b81945050505050949350505050565b600073ffffffffffffffffffffffffffffffffffffffff168273ffffffffffffffffffffffffffffffffffffffff16141561291b576040517f08c379a000000000000000000000000000000000000000000000000000000000815260040180806020018281038252601f8152602001807f45524332303a206d696e7420746f20746865207a65726f20616464726573730081525060200191505060405180910390fd5b61292760008383612ceb565b61293c81600254611c6390919063ffffffff16565b600281905550612993816000808573ffffffffffffffffffffffffffffffffffffffff1673ffffffffffffffffffffffffffffffffffffffff16815260200190815260200160002054611c6390919063ffffffff16565b6000808473ffffffffffffffffffffffffffffffffffffffff1673ffffffffffffffffffffffffffffffffffffffff168152602001908152602001600020819055508173ffffffffffffffffffffffffffffffffffffffff16600073ffffffffffffffffffffffffffffffffffffffff167fddf252ad1be2c89b69c2b068fc378daa952ba7f163c4a11628f55a4df523b3ef836040518082815260200191505060405180910390a35050565b6000808360010154905060008460000160109054906101000a90046fffffffffffffffffffffffffffffffff169050806fffffffffffffffffffffffffffffffff16421415612a92578192505050612b75565b6000612ad2838760000160009054906101000a90046fffffffffffffffffffffffffffffffff166fffffffffffffffffffffffffffffffff1684886133fa565b9050828114612b33578086600101819055508673ffffffffffffffffffffffffffffffffffffffff167f5777ca300dfe5bead41006fbce4389794dbc0ed8d6cccebfaf94630aa04184bc82604051612b2a91906141bb565b60405180910390a25b428660000160106101000a8154816fffffffffffffffffffffffffffffffff02191690836fffffffffffffffffffffffffffffffff1602179055508093505050505b9392505050565b600080831415612b8f5760009050612bfc565b6000828402905082848281612ba057fe5b0414612bf7576040517f08c379a000000000000000000000000000000000000000000000000000000000815260040180806020018281038252602181526020018061442f6021913960400191505060405180910390fd5b809150505b92915050565b6000612c4483836040518060400160405280601a81526020017f536166654d6174683a206469766973696f6e206279207a65726f000000000000815250613592565b905092915050565b60006001905090565b8060039080519060200190612c6b9291906139f4565b5050565b8060049080519060200190612c859291906139f4565b5050565b80600560006101000a81548160ff021916908360ff16021790555050565b80600860006101000a81548173ffffffffffffffffffffffffffffffffffffffff021916908373ffffffffffffffffffffffffffffffffffffffff16021790555050565b8173ffffffffffffffffffffffffffffffffffffffff168373ffffffffffffffffffffffffffffffffffffffff161415612d2457612ee9565b600073ffffffffffffffffffffffffffffffffffffffff168373ffffffffffffffffffffffffffffffffffffffff1614612d84576000612d6384610dd5565b9050612d828482612d7d8585611eea90919063ffffffff16565b613658565b505b600073ffffffffffffffffffffffffffffffffffffffff168273ffffffffffffffffffffffffffffffffffffffff1614612de4576000612dc383610dd5565b9050612de28382612ddd8585611c6390919063ffffffff16565b613658565b505b6000600860009054906101000a900473ffffffffffffffffffffffffffffffffffffffff169050600073ffffffffffffffffffffffffffffffffffffffff168173ffffffffffffffffffffffffffffffffffffffff1614612ee7578073ffffffffffffffffffffffffffffffffffffffff16634a3931498585856040518463ffffffff1660e01b8152600401808473ffffffffffffffffffffffffffffffffffffffff1681526020018373ffffffffffffffffffffffffffffffffffffffff1681526020018281526020019350505050600060405180830381600087803b158015612ece57600080fd5b505af1158015612ee2573d6000803e3d6000fd5b505050505b505b505050565b612f0d8273ffffffffffffffffffffffffffffffffffffffff16613972565b612f7f576040517f08c379a000000000000000000000000000000000000000000000000000000000815260040180806020018281038252601f8152602001807f5361666545524332303a2063616c6c20746f206e6f6e2d636f6e74726163740081525060200191505060405180910390fd5b600060608373ffffffffffffffffffffffffffffffffffffffff16836040518082805190602001908083835b60208310612fce5780518252602082019150602081019050602083039250612fab565b6001836020036101000a0380198251168184511680821785525050505050509050019150506000604051808303816000865af19150503d8060008114613030576040519150601f19603f3d011682016040523d82523d6000602084013e613035565b606091505b5091509150816130ad576040517f08c379a00000000000000000000000000000000000000000000000000000000081526004018080602001828103825260208152602001807f5361666545524332303a206c6f772d6c6576656c2063616c6c206661696c656481525060200191505060405180910390fd5b600081511115613133578080602001905160208110156130cc57600080fd5b8101908080519060200190929190505050613132576040517f08c379a000000000000000000000000000000000000000000000000000000000815260040180806020018281038252602a815260200180614510602a913960400191505060405180910390fd5b5b50505050565b600073ffffffffffffffffffffffffffffffffffffffff168373ffffffffffffffffffffffffffffffffffffffff1614156131bf576040517f08c379a00000000000000000000000000000000000000000000000000000000081526004018080602001828103825260258152602001806144c76025913960400191505060405180910390fd5b600073ffffffffffffffffffffffffffffffffffffffff168273ffffffffffffffffffffffffffffffffffffffff161415613245576040517f08c379a00000000000000000000000000000000000000000000000000000000081526004018080602001828103825260238152602001806143a26023913960400191505060405180910390fd5b613250838383612ceb565b6132bb81604051806060016040528060268152602001614409602691396000808773ffffffffffffffffffffffffffffffffffffffff1673ffffffffffffffffffffffffffffffffffffffff1681526020019081526020016000205461240a9092919063ffffffff16565b6000808573ffffffffffffffffffffffffffffffffffffffff1673ffffffffffffffffffffffffffffffffffffffff1681526020019081526020016000208190555061334e816000808573ffffffffffffffffffffffffffffffffffffffff1673ffffffffffffffffffffffffffffffffffffffff16815260200190815260200160002054611c6390919063ffffffff16565b6000808473ffffffffffffffffffffffffffffffffffffffff1673ffffffffffffffffffffffffffffffffffffffff168152602001908152602001600020819055508173ffffffffffffffffffffffffffffffffffffffff168373ffffffffffffffffffffffffffffffffffffffff167fddf252ad1be2c89b69c2b068fc378daa952ba7f163c4a11628f55a4df523b3ef836040518082815260200191505060405180910390a3505050565b60008084148061340a5750600082145b80613426575042836fffffffffffffffffffffffffffffffff16145b8061346357507f0000000000000000000000000000000000000000000000000000000000000000836fffffffffffffffffffffffffffffffff1610155b1561347057849050613541565b60007f0000000000000000000000000000000000000000000000000000000000000000421161349f57426134c1565b7f00000000000000000000000000000000000000000000000000000000000000005b905060006134ea856fffffffffffffffffffffffffffffffff1683611eea90919063ffffffff16565b905061353c8761352e86613520601260ff16600a0a613512878d612b7c90919063ffffffff16565b612b7c90919063ffffffff16565b612c0290919063ffffffff16565b611c6390919063ffffffff16565b925050505b949350505050565b6000613589601260ff16600a0a61357b61356c8587611eea90919063ffffffff16565b87612b7c90919063ffffffff16565b612c0290919063ffffffff16565b90509392505050565b6000808311829061363e576040517f08c379a00000000000000000000000000000000000000000000000000000000081526004018080602001828103825283818151815260200191508051906020019080838360005b838110156136035780820151818401526020810190506135e8565b50505050905090810190601f1680156136305780820380516001836020036101000a031916815260200191505b509250505060405180910390fd5b50600083858161364a57fe5b049050809150509392505050565b60004390506000600760008673ffffffffffffffffffffffffffffffffffffffff1673ffffffffffffffffffffffffffffffffffffffff1681526020019081526020016000205490506000600660008773ffffffffffffffffffffffffffffffffffffffff1673ffffffffffffffffffffffffffffffffffffffff16815260200190815260200160002090506000821415801561375c5750826fffffffffffffffffffffffffffffffff1681600061371a600186611eea90919063ffffffff16565b815260200190815260200160002060000160009054906101000a90046fffffffffffffffffffffffffffffffff166fffffffffffffffffffffffffffffffff16145b156137c55783816000613779600186611eea90919063ffffffff16565b815260200190815260200160002060000160106101000a8154816fffffffffffffffffffffffffffffffff02191690836fffffffffffffffffffffffffffffffff1602179055506138e9565b6040518060400160405280846fffffffffffffffffffffffffffffffff168152602001856fffffffffffffffffffffffffffffffff1681525081600084815260200190815260200160002060008201518160000160006101000a8154816fffffffffffffffffffffffffffffffff02191690836fffffffffffffffffffffffffffffffff16021790555060208201518160000160106101000a8154816fffffffffffffffffffffffffffffffff02191690836fffffffffffffffffffffffffffffffff1602179055509050506138a5600183611c6390919063ffffffff16565b600760008873ffffffffffffffffffffffffffffffffffffffff1673ffffffffffffffffffffffffffffffffffffffff168152602001908152602001600020819055505b7f2cd3c83ddac2953ee75f53265d9ea4463eaf05030e5459a1b7e63819b7ce88f7868686604051808473ffffffffffffffffffffffffffffffffffffffff168152602001836fffffffffffffffffffffffffffffffff168152602001826fffffffffffffffffffffffffffffffff168152602001935050505060405180910390a1505050505050565b60008060007fc5d2460186f7233c927e7db2dcc703c0e500b653ca82273b7bfad8045d85a47060001b9050833f91508082141580156139b457506000801b8214155b92505050919050565b6040518060600160405280600073ffffffffffffffffffffffffffffffffffffffff16815260200160008152602001600081525090565b828054600181600116156101000203166002900490600052602060002090601f016020900481019282613a2a5760008555613a71565b82601f10613a4357805160ff1916838001178555613a71565b82800160010185558215613a71579182015b82811115613a70578251825591602001919060010190613a55565b5b509050613a7e9190613a82565b5090565b5b80821115613a9b576000816000905550600101613a83565b5090565b600081359050613aae8161432e565b92915050565b60008083601f840112613ac657600080fd5b8235905067ffffffffffffffff811115613adf57600080fd5b602083019150836060820283011115613af757600080fd5b9250929050565b600081359050613b0d81614345565b92915050565b60008083601f840112613b2557600080fd5b8235905067ffffffffffffffff811115613b3e57600080fd5b602083019150836001820283011115613b5657600080fd5b9250929050565b600081359050613b6c8161435c565b92915050565b600081359050613b8181614373565b92915050565b600081359050613b968161438a565b92915050565b600060208284031215613bae57600080fd5b6000613bbc84828501613a9f565b91505092915050565b60008060408385031215613bd857600080fd5b6000613be685828601613a9f565b9250506020613bf785828601613a9f565b9150509250929050565b600080600060608486031215613c1657600080fd5b6000613c2486828701613a9f565b9350506020613c3586828701613a9f565b9250506040613c4686828701613b72565b9150509250925092565b60008060408385031215613c6357600080fd5b6000613c7185828601613a9f565b9250506020613c8285828601613b72565b9150509250929050565b60008060208385031215613c9f57600080fd5b600083013567ffffffffffffffff811115613cb957600080fd5b613cc585828601613ab4565b92509250509250929050565b60008060008060008060808789031215613cea57600080fd5b6000613cf889828a01613afe565b965050602087013567ffffffffffffffff811115613d1557600080fd5b613d2189828a01613b13565b9550955050604087013567ffffffffffffffff811115613d4057600080fd5b613d4c89828a01613b13565b93509350506060613d5f89828a01613b87565b9150509295509295509295565b600060208284031215613d7e57600080fd5b6000613d8c84828501613b5d565b91505092915050565b60008060008060808587031215613dab57600080fd5b6000613db987828801613b72565b9450506020613dca87828801613b72565b9350506040613ddb87828801613a9f565b9250506060613dec87828801613b72565b91505092959194509250565b613e018161420d565b82525050565b613e108161421f565b82525050565b613e1f81614290565b82525050565b613e2e816142b4565b82525050565b6000613e3f826141f1565b613e4981856141fc565b9350613e598185602086016142ea565b613e628161431d565b840191505092915050565b6000613e7a6013836141fc565b91507f494e56414c49445f5a45524f5f414d4f554e54000000000000000000000000006000830152602082019050919050565b6000613eba6015836141fc565b91507f494e53554646494349454e545f434f4f4c444f574e00000000000000000000006000830152602082019050919050565b6000613efa6015836141fc565b91507f4f4e4c595f454d495353494f4e5f4d414e4147455200000000000000000000006000830152602082019050919050565b6000613f3a6017836141fc565b91507f554e5354414b455f57494e444f575f46494e49534845440000000000000000006000830152602082019050919050565b6000613f7a601b836141fc565b91507f494e56414c49445f42414c414e43455f4f4e5f434f4f4c444f574e00000000006000830152602082019050919050565b613fb68161423d565b82525050565b613fc5816142d8565b82525050565b613fd481614279565b82525050565b613fe381614283565b82525050565b6000602082019050613ffe6000830184613df8565b92915050565b60006040820190506140196000830185613df8565b6140266020830184613fcb565b9392505050565b60006020820190506140426000830184613e07565b92915050565b600060208201905061405d6000830184613e16565b92915050565b60006020820190506140786000830184613e25565b92915050565b600060208201905081810360008301526140988184613e34565b905092915050565b600060208201905081810360008301526140b981613e6d565b9050919050565b600060208201905081810360008301526140d981613ead565b9050919050565b600060208201905081810360008301526140f981613eed565b9050919050565b6000602082019050818103600083015261411981613f2d565b9050919050565b6000602082019050818103600083015261413981613f6d565b9050919050565b60006020820190506141556000830184613fbc565b92915050565b60006040820190506141706000830185613fad565b61417d6020830184613fad565b9392505050565b60006060820190506141996000830186613fad565b6141a66020830185613fad565b6141b36040830184613fcb565b949350505050565b60006020820190506141d06000830184613fcb565b92915050565b60006020820190506141eb6000830184613fda565b92915050565b600081519050919050565b600082825260208201905092915050565b600061421882614259565b9050919050565b60008115159050919050565b60006142368261420d565b9050919050565b60006fffffffffffffffffffffffffffffffff82169050919050565b600073ffffffffffffffffffffffffffffffffffffffff82169050919050565b6000819050919050565b600060ff82169050919050565b600061429b826142a2565b9050919050565b60006142ad82614259565b9050919050565b60006142bf826142c6565b9050919050565b60006142d182614259565b9050919050565b60006142e38261423d565b9050919050565b60005b838110156143085780820151818401526020810190506142ed565b83811115614317576000848401525b50505050565b6000601f19601f8301169050919050565b6143378161420d565b811461434257600080fd5b50565b61434e8161422b565b811461435957600080fd5b50565b6143658161423d565b811461437057600080fd5b50565b61437c81614279565b811461438757600080fd5b50565b61439381614283565b811461439e57600080fd5b5056fe45524332303a207472616e7366657220746f20746865207a65726f206164647265737345524332303a206275726e20616d6f756e7420657863656564732062616c616e636545524332303a20617070726f766520746f20746865207a65726f206164647265737345524332303a207472616e7366657220616d6f756e7420657863656564732062616c616e6365536166654d6174683a206d756c7469706c69636174696f6e206f766572666c6f7745524332303a207472616e7366657220616d6f756e74206578636565647320616c6c6f77616e6365436f6e747261637420696e7374616e63652068617320616c7265616479206265656e20696e697469616c697a656445524332303a206275726e2066726f6d20746865207a65726f206164647265737345524332303a207472616e736665722066726f6d20746865207a65726f206164647265737345524332303a20617070726f76652066726f6d20746865207a65726f20616464726573735361666545524332303a204552433230206f7065726174696f6e20646964206e6f74207375636365656445524332303a2064656372656173656420616c6c6f77616e63652062656c6f77207a65726fa26469706673582212201ae2b7787abc93155abb96acf5dc6e7636728bbb3089545f7d2faef66ac4680664736f6c63430007050033",
  "linkReferences": {},
  "deployedLinkReferences": {}
}